{
  "address": "0x0969505802e87D5c5763bF5C7D09058D01bEFfC4",
  "abi": [
    {
      "inputs": [
        {
          "internalType": "contract IEtherTokenV06",
          "name": "weth",
          "type": "address"
        }
      ],
      "stateMutability": "nonpayable",
      "type": "constructor"
    },
    {
      "anonymous": false,
      "inputs": [
        {
          "indexed": false,
          "internalType": "bytes32",
          "name": "source",
          "type": "bytes32"
        },
        {
          "indexed": false,
          "internalType": "contract IERC20TokenV06",
          "name": "inputToken",
          "type": "address"
        },
        {
          "indexed": false,
          "internalType": "contract IERC20TokenV06",
          "name": "outputToken",
          "type": "address"
        },
        {
          "indexed": false,
          "internalType": "uint256",
          "name": "inputTokenAmount",
          "type": "uint256"
        },
        {
          "indexed": false,
          "internalType": "uint256",
          "name": "outputTokenAmount",
          "type": "uint256"
        }
      ],
      "name": "BridgeFill",
      "type": "event"
    },
    {
      "inputs": [],
      "name": "BANCOR_ETH_ADDRESS",
      "outputs": [
        {
          "internalType": "contract IERC20TokenV06",
          "name": "",
          "type": "address"
        }
      ],
      "stateMutability": "view",
      "type": "function"
    },
    {
      "inputs": [
        {
          "internalType": "contract IERC20TokenV06",
          "name": "buyToken",
          "type": "address"
        },
        {
          "internalType": "uint256",
          "name": "sellAmount",
          "type": "uint256"
        },
        {
          "internalType": "bytes",
          "name": "bridgeData",
          "type": "bytes"
        }
      ],
      "name": "_tradeGMX",
      "outputs": [
        {
          "internalType": "uint256",
          "name": "boughtAmount",
          "type": "uint256"
        }
      ],
      "stateMutability": "nonpayable",
      "type": "function"
    },
    {
      "inputs": [
        {
          "internalType": "contract IERC20TokenV06",
          "name": "buyToken",
          "type": "address"
        },
        {
          "internalType": "uint256",
          "name": "sellAmount",
          "type": "uint256"
        },
        {
          "internalType": "bytes",
          "name": "bridgeData",
          "type": "bytes"
        }
      ],
      "name": "_tradePlatypus",
      "outputs": [
        {
          "internalType": "uint256",
          "name": "boughtAmount",
          "type": "uint256"
        }
      ],
      "stateMutability": "nonpayable",
      "type": "function"
    },
    {
      "inputs": [
        {
          "components": [
            {
              "internalType": "bytes32",
              "name": "source",
              "type": "bytes32"
            },
            {
              "internalType": "uint256",
              "name": "takerTokenAmount",
              "type": "uint256"
            },
            {
              "internalType": "uint256",
              "name": "makerTokenAmount",
              "type": "uint256"
            },
            {
              "internalType": "bytes",
              "name": "bridgeData",
              "type": "bytes"
            }
          ],
          "internalType": "struct IBridgeAdapter.BridgeOrder",
          "name": "order",
          "type": "tuple"
        },
        {
          "internalType": "contract IERC20TokenV06",
          "name": "sellToken",
          "type": "address"
        },
        {
          "internalType": "contract IERC20TokenV06",
          "name": "buyToken",
          "type": "address"
        },
        {
          "internalType": "uint256",
          "name": "sellAmount",
          "type": "uint256"
        }
      ],
      "name": "trade",
      "outputs": [
        {
          "internalType": "uint256",
          "name": "boughtAmount",
          "type": "uint256"
        }
      ],
      "stateMutability": "nonpayable",
      "type": "function"
    }
  ],
  "transactionHash": "0x371f84616cfb06f84b3371f44feca4f4d5c82c8fb047af114704c36790132f1e",
  "args": [
    "0x0BE9e53fd7EDaC9F859882AfdDa116645287C629"
  ],
  "numDeployments": 1,
  "solcInputHash": "d824bfd18a929a7d770611c578d2def3",
  "bytecode": "0x6101406040523480156200001257600080fd5b506040516200602a3803806200602a833981016040819052620000359162000066565b60601b6001600160601b031916608081905260a081905260c081905260e08190526101008190526101205262000096565b60006020828403121562000078578081fd5b81516001600160a01b03811681146200008f578182fd5b9392505050565b60805160601c60a05160601c60c05160601c60e05160601c6101005160601c6101205160601c615ede6200014c6000398061156352806115f2528061170d528061182d52806141e352508061232f52806123be528061246d52806124c9528061259e52806125f25250806134de52806135a4525080610bdb5280610c6d5280610ec95280610f20525080613a635280613af45280613d005280613e45525080612dcb5280612eea528061308d5250615ede6000f3fe608060405234801561001057600080fd5b506004361061004c5760003560e01c806360574bd2146100515780638dc669fa1461007a578063ca0dfe891461008f578063f712a148146100a2575b600080fd5b61006461005f366004614b99565b6100b5565b6040516100719190615c81565b60405180910390f35b6100826103bc565b6040516100719190614f69565b61006461009d366004614b99565b6103d4565b6100646100b0366004614c94565b61065d565b600080600080606060006060878060200190518101906100d5919061481e565b80519399509197509550935083915060021115610127576040517f08c379a000000000000000000000000000000000000000000000000000000000815260040161011e906154c4565b60405180910390fd5b8973ffffffffffffffffffffffffffffffffffffffff168160018351038151811061014e57fe5b602002602001015173ffffffffffffffffffffffffffffffffffffffff16146101a3576040517f08c379a000000000000000000000000000000000000000000000000000000000815260040161011e906159b2565b8591506101e5828a836000815181106101b857fe5b602002602001015173ffffffffffffffffffffffffffffffffffffffff16610ab29092919063ffffffff16565b6040517f70a0823100000000000000000000000000000000000000000000000000000000815260009073ffffffffffffffffffffffffffffffffffffffff8c16906370a082319061023a903090600401614f69565b60206040518083038186803b15801561025257600080fd5b505afa158015610266573d6000803e3d6000fd5b505050506040513d601f19601f8201168201806040525081019061028a9190614da7565b6040517f6023e96600000000000000000000000000000000000000000000000000000000815290915073ffffffffffffffffffffffffffffffffffffffff841690636023e966906102e69087908e9060009030906004016150a2565b600060405180830381600087803b15801561030057600080fd5b505af1158015610314573d6000803e3d6000fd5b505050506103ab818c73ffffffffffffffffffffffffffffffffffffffff166370a08231306040518263ffffffff1660e01b81526004016103559190614f69565b60206040518083038186803b15801561036d57600080fd5b505afa158015610381573d6000803e3d6000fd5b505050506040513d601f19601f820116820180604052508101906103a59190614da7565b90610b8e565b9750505050505050505b9392505050565b73eeeeeeeeeeeeeeeeeeeeeeeeeeeeeeeeeeeeeeee81565b60008060006060806060868060200190518101906103f29190614894565b805192975087965090945092508291506002111561043c576040517f08c379a000000000000000000000000000000000000000000000000000000000815260040161011e90615b26565b8873ffffffffffffffffffffffffffffffffffffffff168260018451038151811061046357fe5b602002602001015173ffffffffffffffffffffffffffffffffffffffff16146104b8576040517f08c379a000000000000000000000000000000000000000000000000000000000815260040161011e90615521565b6104ca8589846000815181106101b857fe5b6040517f70a0823100000000000000000000000000000000000000000000000000000000815260009073ffffffffffffffffffffffffffffffffffffffff8b16906370a082319061051f903090600401614f69565b60206040518083038186803b15801561053757600080fd5b505afa15801561054b573d6000803e3d6000fd5b505050506040513d601f19601f8201168201806040525081019061056f9190614da7565b90506000808773ffffffffffffffffffffffffffffffffffffffff166321579b7985888e600030426001016040518763ffffffff1660e01b81526004016105bb96959493929190615041565b6040805180830381600087803b1580156105d457600080fd5b505af11580156105e8573d6000803e3d6000fd5b505050506040513d601f19601f8201168201806040525081019061060c9190614dbf565b9150915061064d838d73ffffffffffffffffffffffffffffffffffffffff166370a08231306040518263ffffffff1660e01b81526004016103559190614f69565b9c9b505050505050505050505050565b835160009060801c60018114156106855761067e8585858960600151610bb7565b9150610a69565b6fffffffffffffffffffffffffffffffff8116601414156106b05761067e8585858960600151610fed565b6fffffffffffffffffffffffffffffffff8116601214156106da5761067e85848860600151611245565b6fffffffffffffffffffffffffffffffff8116600214156107045761067e84848860600151611356565b6fffffffffffffffffffffffffffffffff81166003141561072f5761067e8585858960600151611539565b6fffffffffffffffffffffffffffffffff81166004141561075a5761067e858585896060015161198c565b6fffffffffffffffffffffffffffffffff8116601114156107855761067e8585858960600151611a9d565b6fffffffffffffffffffffffffffffffff8116601914156107ae5761067e838760600151611c3e565b6fffffffffffffffffffffffffffffffff8116601014156107d95761067e8585858960600151611eba565b6fffffffffffffffffffffffffffffffff8116600614156108045761067e8585858960600151612312565b6fffffffffffffffffffffffffffffffff81166007141561082f5761067e858585896060015161267b565b6fffffffffffffffffffffffffffffffff81166008141561085a5761067e8585858960600151612710565b6fffffffffffffffffffffffffffffffff8116600914156108855761067e85858589606001516127a3565b6fffffffffffffffffffffffffffffffff8116600a14156108af5761067e8584886060015161283a565b6fffffffffffffffffffffffffffffffff8116600b14156108d95761067e85848860600151612aa7565b6fffffffffffffffffffffffffffffffff8116600c14156109035761067e84848860600151612be6565b6fffffffffffffffffffffffffffffffff8116600d141561092d5761067e84848860600151612cbf565b6fffffffffffffffffffffffffffffffff8116600f14156109575761067e85848860600151613116565b6fffffffffffffffffffffffffffffffff8116601314156109815761067e8484886060015161329e565b6fffffffffffffffffffffffffffffffff8116601514156109ac5761067e85858589606001516134c3565b6fffffffffffffffffffffffffffffffff8116601714156109d75761067e8585858960600151613768565b6fffffffffffffffffffffffffffffffff811660181415610a025761067e8585858960600151613987565b6fffffffffffffffffffffffffffffffff8116601a1415610a2c5761067e848488606001516100b5565b6fffffffffffffffffffffffffffffffff8116601b1415610a565761067e848488606001516103d4565b610a668585858960600151613fec565b91505b85516040517fe59e71a14fe90157eedc866c4f8c767d3943d6b6b2e8cd64dddcc92ab4c55af891610aa191889088908890889061513a565b60405180910390a150949350505050565b6040517fdd62ed3e000000000000000000000000000000000000000000000000000000008152819073ffffffffffffffffffffffffffffffffffffffff85169063dd62ed3e90610b089030908790600401614f8a565b60206040518083038186803b158015610b2057600080fd5b505afa158015610b34573d6000803e3d6000fd5b505050506040513d601f19601f82011682018060405250810190610b589190614da7565b1015610b8957610b8983837fffffffffffffffffffffffffffffffffffffffffffffffffffffffffffffffff614086565b505050565b600082821115610bac57610bac610ba760028585614132565b6141d7565b508082035b92915050565b6000610bc16145b6565b82806020019051810190610bd59190614d4a565b905060007f000000000000000000000000000000000000000000000000000000000000000073ffffffffffffffffffffffffffffffffffffffff168773ffffffffffffffffffffffffffffffffffffffff161415610cd957506040517f2e1a7d4d000000000000000000000000000000000000000000000000000000008152849073ffffffffffffffffffffffffffffffffffffffff7f00000000000000000000000000000000000000000000000000000000000000001690632e1a7d4d90610ca2908490600401615c81565b600060405180830381600087803b158015610cbc57600080fd5b505af1158015610cd0573d6000803e3d6000fd5b50505050610cfd565b8151610cfd9073ffffffffffffffffffffffffffffffffffffffff89169087610ab2565b6040517f70a0823100000000000000000000000000000000000000000000000000000000815260009073ffffffffffffffffffffffffffffffffffffffff8816906370a0823190610d52903090600401614f69565b60206040518083038186803b158015610d6a57600080fd5b505afa158015610d7e573d6000803e3d6000fd5b505050506040513d601f19601f82011682018060405250810190610da29190614da7565b905060006060846000015173ffffffffffffffffffffffffffffffffffffffff16848660200151876040015188606001518c6001604051602401610de994939291906153b1565b604080517fffffffffffffffffffffffffffffffffffffffffffffffffffffffffffffffe08184030181529181526020820180517bffffffffffffffffffffffffffffffffffffffffffffffffffffffff167fffffffff00000000000000000000000000000000000000000000000000000000909416939093179092529051610e729190614f4d565b60006040518083038185875af1925050503d8060008114610eaf576040519150601f19603f3d011682016040523d82523d6000602084013e610eb4565b606091505b509150915081610ec757610ec7816141d7565b7f000000000000000000000000000000000000000000000000000000000000000073ffffffffffffffffffffffffffffffffffffffff168973ffffffffffffffffffffffffffffffffffffffff161415610fa0574795507f000000000000000000000000000000000000000000000000000000000000000073ffffffffffffffffffffffffffffffffffffffff1663d0e30db0876040518263ffffffff1660e01b81526004016000604051808303818588803b158015610f8657600080fd5b505af1158015610f9a573d6000803e3d6000fd5b50505050505b610fdd838a73ffffffffffffffffffffffffffffffffffffffff166370a08231306040518263ffffffff1660e01b81526004016103559190614f69565b955050505050505b949350505050565b6000610ff76145b6565b8280602001905181019061100b9190614d4a565b80519091506110329073ffffffffffffffffffffffffffffffffffffffff88169086610ab2565b6040517f70a0823100000000000000000000000000000000000000000000000000000000815260009073ffffffffffffffffffffffffffffffffffffffff8716906370a0823190611087903090600401614f69565b60206040518083038186803b15801561109f57600080fd5b505afa1580156110b3573d6000803e3d6000fd5b505050506040513d601f19601f820116820180604052508101906110d79190614da7565b905060006060836000015173ffffffffffffffffffffffffffffffffffffffff168460200151856040015186606001518a600160405160240161111d94939291906153b1565b604080517fffffffffffffffffffffffffffffffffffffffffffffffffffffffffffffffe08184030181529181526020820180517bffffffffffffffffffffffffffffffffffffffffffffffffffffffff167fffffffff000000000000000000000000000000000000000000000000000000009094169390931790925290516111a69190614f4d565b6000604051808303816000865af19150503d80600081146111e3576040519150601f19603f3d011682016040523d82523d6000602084013e6111e8565b606091505b5091509150816111fb576111fb816141d7565b611238838973ffffffffffffffffffffffffffffffffffffffff166370a08231306040518263ffffffff1660e01b81526004016103559190614f69565b9998505050505050505050565b60008060608380602001905181019061125e9190614c14565b909250905061128473ffffffffffffffffffffffffffffffffffffffff87168387610ab2565b6040805160a0810182528281523060208201524281830152606081018790526001608082015290517fc04b8d5900000000000000000000000000000000000000000000000000000000815273ffffffffffffffffffffffffffffffffffffffff84169163c04b8d59916112fa9190600401615b83565b602060405180830381600087803b15801561131457600080fd5b505af1158015611328573d6000803e3d6000fd5b505050506040513d601f19601f8201168201806040525081019061134c9190614da7565b9695505050505050565b600080606080848060200190518101906113709190614ac5565b805191945092506002111590506113b3576040517f08c379a000000000000000000000000000000000000000000000000000000000815260040161011e90615695565b8573ffffffffffffffffffffffffffffffffffffffff16816001835103815181106113da57fe5b602002602001015173ffffffffffffffffffffffffffffffffffffffff161461142f576040517f08c379a000000000000000000000000000000000000000000000000000000000815260040161011e90615a6c565b6114418286836000815181106101b857fe5b6040517f38ed173900000000000000000000000000000000000000000000000000000000815260609073ffffffffffffffffffffffffffffffffffffffff8416906338ed17399061149f908990600190879030904290600401615ce7565b600060405180830381600087803b1580156114b957600080fd5b505af11580156114cd573d6000803e3d6000fd5b505050506040513d6000823e601f3d9081017fffffffffffffffffffffffffffffffffffffffffffffffffffffffffffffffe01682016040526115139190810190614908565b90508060018251038151811061152557fe5b602002602001015193505050509392505050565b600080828060200190518101906115509190614802565b9050600061155f8288886141df565b90507f000000000000000000000000000000000000000000000000000000000000000073ffffffffffffffffffffffffffffffffffffffff168773ffffffffffffffffffffffffffffffffffffffff16141561170b576040517f2e1a7d4d00000000000000000000000000000000000000000000000000000000815273ffffffffffffffffffffffffffffffffffffffff7f00000000000000000000000000000000000000000000000000000000000000001690632e1a7d4d90611627908890600401615c81565b600060405180830381600087803b15801561164157600080fd5b505af1158015611655573d6000803e3d6000fd5b50506040517fad65d76d00000000000000000000000000000000000000000000000000000000815273ffffffffffffffffffffffffffffffffffffffff8416925063ad65d76d915087906116b29060019042903090600401615404565b6020604051808303818588803b1580156116cb57600080fd5b505af11580156116df573d6000803e3d6000fd5b50505050506040513d601f19601f820116820180604052508101906117049190614da7565b9250611982565b7f000000000000000000000000000000000000000000000000000000000000000073ffffffffffffffffffffffffffffffffffffffff168673ffffffffffffffffffffffffffffffffffffffff1614156118b15761178073ffffffffffffffffffffffffffffffffffffffff88168287610ab2565b6040517f95e3c50b00000000000000000000000000000000000000000000000000000000815273ffffffffffffffffffffffffffffffffffffffff8216906395e3c50b906117d79088906001904290600401615d91565b602060405180830381600087803b1580156117f157600080fd5b505af1158015611805573d6000803e3d6000fd5b505050506040513d601f19601f820116820180604052508101906118299190614da7565b92507f000000000000000000000000000000000000000000000000000000000000000073ffffffffffffffffffffffffffffffffffffffff1663d0e30db0846040518263ffffffff1660e01b81526004016000604051808303818588803b15801561189357600080fd5b505af11580156118a7573d6000803e3d6000fd5b5050505050611982565b6118d273ffffffffffffffffffffffffffffffffffffffff88168287610ab2565b6040517fddf7e1a700000000000000000000000000000000000000000000000000000000815273ffffffffffffffffffffffffffffffffffffffff82169063ddf7e1a79061192d908890600190819042908d90600401615d58565b602060405180830381600087803b15801561194757600080fd5b505af115801561195b573d6000803e3d6000fd5b505050506040513d601f19601f8201168201806040525081019061197f9190614da7565b92505b5050949350505050565b600080828060200190518101906119a39190614802565b90506119c673ffffffffffffffffffffffffffffffffffffffff87168286610ab2565b6040517f8201aa3f00000000000000000000000000000000000000000000000000000000815273ffffffffffffffffffffffffffffffffffffffff821690638201aa3f90611a4190899088908a906001907fffffffffffffffffffffffffffffffffffffffffffffffffffffffffffffffff9060040161526f565b6040805180830381600087803b158015611a5a57600080fd5b505af1158015611a6e573d6000803e3d6000fd5b505050506040513d601f19601f82011682018060405250810190611a929190614dbf565b509695505050505050565b6000611aa76145dd565b82806020019051810190611abb9190614c59565b8051909150611ae29073ffffffffffffffffffffffffffffffffffffffff88169086610ab2565b611aea6145f4565b6040805160c0810190915260208084015182528101600081526020018873ffffffffffffffffffffffffffffffffffffffff1681526020018773ffffffffffffffffffffffffffffffffffffffff168152602001868152602001604051806020016040528060008152508152509050611b616145b6565b506040805160808101825230808252600060208301819052828401919091526060820152835191517f52bbbe29000000000000000000000000000000000000000000000000000000008152909173ffffffffffffffffffffffffffffffffffffffff16906352bbbe2990611be090859085906001904290600401615be9565b602060405180830381600087803b158015611bfa57600080fd5b505af1158015611c0e573d6000803e3d6000fd5b505050506040513d601f19601f82011682018060405250810190611c329190614da7565b98975050505050505050565b60008060608084806020019051810190611c589190614998565b9250925092506060819050611c758488836000815181106101b857fe5b8683600081518110611c8357fe5b602002602001015160600181815250506060815167ffffffffffffffff81118015611cad57600080fd5b50604051908082528060200260200182016040528015611cd7578160200160208202803683370190505b50905060005b8151811015611d26577f7fffffffffffffffffffffffffffffffffffffffffffffffffffffffffffffff828281518110611d1357fe5b6020908102919091010152600101611cdd565b50604080516080810182523080825260006020830181905282840191909152606082810182905292517f945bcec900000000000000000000000000000000000000000000000000000000815273ffffffffffffffffffffffffffffffffffffffff89169263945bcec992611daa9290918a91899190899042600101906004016152e0565b600060405180830381600087803b158015611dc457600080fd5b505af1158015611dd8573d6000803e3d6000fd5b505050506040513d6000823e601f3d9081017fffffffffffffffffffffffffffffffffffffffffffffffffffffffffffffffe0168201604052611e1e9190810190614908565b9050600081600183510381518110611e3257fe5b60200260200101511315611e72576040517f08c379a000000000000000000000000000000000000000000000000000000000815260040161011e906155db565b80600182510381518110611e8257fe5b60200260200101517fffffffffffffffffffffffffffffffffffffffffffffffffffffffffffffffff02965050505050505092915050565b6000611ec46145dd565b82806020019051810190611ed89190614d65565b905060008573ffffffffffffffffffffffffffffffffffffffff166370a08231306040518263ffffffff1660e01b8152600401611f159190614f69565b60206040518083038186803b158015611f2d57600080fd5b505afa158015611f41573d6000803e3d6000fd5b505050506040513d601f19601f82011682018060405250810190611f659190614da7565b825160208401519192509073ffffffffffffffffffffffffffffffffffffffff898116911614156120ba5761202f8173ffffffffffffffffffffffffffffffffffffffff166301664f666040518163ffffffff1660e01b815260040160206040518083038186803b158015611fd957600080fd5b505afa158015611fed573d6000803e3d6000fd5b505050506040513d601f19601f820116820180604052508101906120119190614802565b73ffffffffffffffffffffffffffffffffffffffff8a169088610ab2565b6040517f9599127600000000000000000000000000000000000000000000000000000000815273ffffffffffffffffffffffffffffffffffffffff8216906395991276906120839030908a90600401614fb1565b600060405180830381600087803b15801561209d57600080fd5b505af11580156120b1573d6000803e3d6000fd5b505050506122d5565b826020015173ffffffffffffffffffffffffffffffffffffffff168773ffffffffffffffffffffffffffffffffffffffff1614156122d55760006121848273ffffffffffffffffffffffffffffffffffffffff1663fae036d56040518163ffffffff1660e01b815260040160206040518083038186803b15801561213d57600080fd5b505afa158015612151573d6000803e3d6000fd5b505050506040513d601f19601f820116820180604052508101906121759190614da7565b670de0b6b3a7640000906143cc565b905060008873ffffffffffffffffffffffffffffffffffffffff1663313ce5676040518163ffffffff1660e01b815260040160206040518083038186803b1580156121ce57600080fd5b505afa1580156121e2573d6000803e3d6000fd5b505050506040513d601f19601f820116820180604052508101906122069190614de2565b60ff16600a0a905060006122248361221e8b856143e8565b90614419565b865190915061224b9073ffffffffffffffffffffffffffffffffffffffff8d16908b610ab2565b6040517f8d7ef9bb00000000000000000000000000000000000000000000000000000000815273ffffffffffffffffffffffffffffffffffffffff851690638d7ef9bb9061229f9030908590600401614fb1565b600060405180830381600087803b1580156122b957600080fd5b505af11580156122cd573d6000803e3d6000fd5b505050505050505b611c32828873ffffffffffffffffffffffffffffffffffffffff166370a08231306040518263ffffffff1660e01b81526004016103559190614f69565b600080828060200190518101906123299190614802565b905060007f000000000000000000000000000000000000000000000000000000000000000073ffffffffffffffffffffffffffffffffffffffff168773ffffffffffffffffffffffffffffffffffffffff16141561242d576040517f2e1a7d4d00000000000000000000000000000000000000000000000000000000815273ffffffffffffffffffffffffffffffffffffffff7f00000000000000000000000000000000000000000000000000000000000000001690632e1a7d4d906123f3908890600401615c81565b600060405180830381600087803b15801561240d57600080fd5b505af1158015612421573d6000803e3d6000fd5b5050505084905061244e565b61244e73ffffffffffffffffffffffffffffffffffffffff88168387610ab2565b8173ffffffffffffffffffffffffffffffffffffffff1663d5bcb9b5827f000000000000000000000000000000000000000000000000000000000000000073ffffffffffffffffffffffffffffffffffffffff168a73ffffffffffffffffffffffffffffffffffffffff16146124c457896124c7565b60005b7f000000000000000000000000000000000000000000000000000000000000000073ffffffffffffffffffffffffffffffffffffffff168a73ffffffffffffffffffffffffffffffffffffffff16146125205789612523565b60005b89600160006040518763ffffffff1660e01b81526004016125489594939291906151bd565b6020604051808303818588803b15801561256157600080fd5b505af1158015612575573d6000803e3d6000fd5b50505050506040513d601f19601f8201168201806040525081019061259a9190614da7565b92507f000000000000000000000000000000000000000000000000000000000000000073ffffffffffffffffffffffffffffffffffffffff168673ffffffffffffffffffffffffffffffffffffffff161415611982577f000000000000000000000000000000000000000000000000000000000000000073ffffffffffffffffffffffffffffffffffffffff1663d0e30db0846040518263ffffffff1660e01b81526004016000604051808303818588803b15801561265857600080fd5b505af115801561266c573d6000803e3d6000fd5b50505050505050949350505050565b600080828060200190518101906126929190614802565b90506126b573ffffffffffffffffffffffffffffffffffffffff87168286610ab2565b6040517fd5bcb9b500000000000000000000000000000000000000000000000000000000815273ffffffffffffffffffffffffffffffffffffffff82169063d5bcb9b5906112fa9089908990899060019030906004016151bd565b600080828060200190518101906127279190614802565b905061274a73ffffffffffffffffffffffffffffffffffffffff87168286610ab2565b6040517f0621b4f600000000000000000000000000000000000000000000000000000000815273ffffffffffffffffffffffffffffffffffffffff821690630621b4f6906112fa90899088908a90600190600401615238565b600080828060200190518101906127ba9190614802565b90506127dd73ffffffffffffffffffffffffffffffffffffffff87168286610ab2565b6040517f0b2583c800000000000000000000000000000000000000000000000000000000815273ffffffffffffffffffffffffffffffffffffffff821690630b2583c8906112fa90899089908990600190428201906004016151fa565b600080600080848060200190518101906128549190614b14565b9194509250905061287c73ffffffffffffffffffffffffffffffffffffffff88168388610ab2565b801561293f57604080516000815260208101918290527f8dae73330000000000000000000000000000000000000000000000000000000090915273ffffffffffffffffffffffffffffffffffffffff831690638dae7333906128e690899060019060248101615d30565b602060405180830381600087803b15801561290057600080fd5b505af1158015612914573d6000803e3d6000fd5b505050506040513d601f19601f820116820180604052508101906129389190614da7565b9350612a9d565b6040517fca19ebd900000000000000000000000000000000000000000000000000000000815273ffffffffffffffffffffffffffffffffffffffff84169063ca19ebd9906129939085908a90600401614fb1565b60206040518083038186803b1580156129ab57600080fd5b505afa1580156129bf573d6000803e3d6000fd5b505050506040513d601f19601f820116820180604052508101906129e39190614da7565b604080516000815260208101918290527fe67ce7060000000000000000000000000000000000000000000000000000000090915290945073ffffffffffffffffffffffffffffffffffffffff83169063e67ce70690612a499087908a9060248101615d30565b602060405180830381600087803b158015612a6357600080fd5b505af1158015612a77573d6000803e3d6000fd5b505050506040513d601f19601f82011682018060405250810190612a9b9190614da7565b505b5050509392505050565b600080600083806020019051810190612ac09190614b60565b9092509050612ae673ffffffffffffffffffffffffffffffffffffffff87168387614443565b80612b94576040517fdd93f59a00000000000000000000000000000000000000000000000000000000815273ffffffffffffffffffffffffffffffffffffffff83169063dd93f59a90612b3d903090600401614f69565b602060405180830381600087803b158015612b5757600080fd5b505af1158015612b6b573d6000803e3d6000fd5b505050506040513d601f19601f82011682018060405250810190612b8f9190614da7565b61134c565b6040517fbd6015b400000000000000000000000000000000000000000000000000000000815273ffffffffffffffffffffffffffffffffffffffff83169063bd6015b4906112fa903090600401614f69565b60008060608084806020019051810190612c009190614ac5565b80519194509250600211159050612c43576040517f08c379a000000000000000000000000000000000000000000000000000000000815260040161011e90615638565b8573ffffffffffffffffffffffffffffffffffffffff1681600183510381518110612c6a57fe5b602002602001015173ffffffffffffffffffffffffffffffffffffffff161461142f576040517f08c379a000000000000000000000000000000000000000000000000000000000815260040161011e90615ac9565b60008060608084806020019051810190612cd99190614ac5565b80519194509250600211159050612d1c576040517f08c379a000000000000000000000000000000000000000000000000000000000815260040161011e90615467565b8573ffffffffffffffffffffffffffffffffffffffff1681600183510381518110612d4357fe5b602002602001015173ffffffffffffffffffffffffffffffffffffffff161480612e19575073eeeeeeeeeeeeeeeeeeeeeeeeeeeeeeeeeeeeeeee73ffffffffffffffffffffffffffffffffffffffff1681600183510381518110612da357fe5b602002602001015173ffffffffffffffffffffffffffffffffffffffff16148015612e1957507f000000000000000000000000000000000000000000000000000000000000000073ffffffffffffffffffffffffffffffffffffffff168673ffffffffffffffffffffffffffffffffffffffff16145b612e4f576040517f08c379a000000000000000000000000000000000000000000000000000000000815260040161011e9061589b565b600073eeeeeeeeeeeeeeeeeeeeeeeeeeeeeeeeeeeeeeee73ffffffffffffffffffffffffffffffffffffffff1682600081518110612e8957fe5b602002602001015173ffffffffffffffffffffffffffffffffffffffff161415612f59576040517f2e1a7d4d00000000000000000000000000000000000000000000000000000000815273ffffffffffffffffffffffffffffffffffffffff7f00000000000000000000000000000000000000000000000000000000000000001690632e1a7d4d90612f1f908990600401615c81565b600060405180830381600087803b158015612f3957600080fd5b505af1158015612f4d573d6000803e3d6000fd5b50505050859050612f78565b612f7882600081518110612f6957fe5b60200260200101518488610ab2565b6040517fb77d239b00000000000000000000000000000000000000000000000000000000815273ffffffffffffffffffffffffffffffffffffffff84169063b77d239b908390612fd89086908b90600190309060009081906004016150e7565b6020604051808303818588803b158015612ff157600080fd5b505af1158015613005573d6000803e3d6000fd5b50505050506040513d601f19601f8201168201806040525081019061302a9190614da7565b935073eeeeeeeeeeeeeeeeeeeeeeeeeeeeeeeeeeeeeeee73ffffffffffffffffffffffffffffffffffffffff168260018451038151811061306757fe5b602002602001015173ffffffffffffffffffffffffffffffffffffffff161415612a9d577f000000000000000000000000000000000000000000000000000000000000000073ffffffffffffffffffffffffffffffffffffffff1663d0e30db0856040518263ffffffff1660e01b81526004016000604051808303818588803b1580156130f357600080fd5b505af1158015613107573d6000803e3d6000fd5b50505050505050509392505050565b60006131206145b6565b828060200190518101906131349190614d4a565b805190915061315b9073ffffffffffffffffffffffffffffffffffffffff87169086610ab2565b60006060826000015173ffffffffffffffffffffffffffffffffffffffff16836020015184604001518560600151896001426040516024016131a19594939291906153d6565b604080517fffffffffffffffffffffffffffffffffffffffffffffffffffffffffffffffe08184030181529181526020820180517bffffffffffffffffffffffffffffffffffffffffffffffffffffffff167fffffffff0000000000000000000000000000000000000000000000000000000090941693909317909252905161322a9190614f4d565b6000604051808303816000865af19150503d8060008114613267576040519150601f19603f3d011682016040523d82523d6000602084013e61326c565b606091505b50915091508161327f5761327f816141d7565b808060200190518101906132939190614da7565b979650505050505050565b600080606080848060200190518101906132b89190614894565b81519295509093509150600111156132fc576040517f08c379a000000000000000000000000000000000000000000000000000000000815260040161011e906158f8565b815160010181511461333a576040517f08c379a000000000000000000000000000000000000000000000000000000000815260040161011e906156f2565b8673ffffffffffffffffffffffffffffffffffffffff168160018351038151811061336157fe5b602002602001015173ffffffffffffffffffffffffffffffffffffffff16146133b6576040517f08c379a000000000000000000000000000000000000000000000000000000000815260040161011e9061557e565b6133c88387836000815181106101b857fe5b6040517fceb757d500000000000000000000000000000000000000000000000000000000815260609073ffffffffffffffffffffffffffffffffffffffff85169063ceb757d590613428908a906001908890889030904290600401615c8a565b600060405180830381600087803b15801561344257600080fd5b505af1158015613456573d6000803e3d6000fd5b505050506040513d6000823e601f3d9081017fffffffffffffffffffffffffffffffffffffffffffffffffffffffffffffffe016820160405261349c9190810190614908565b9050806001825103815181106134ae57fe5b60200260200101519450505050509392505050565b600080828060200190518101906134da9190614802565b90507f000000000000000000000000000000000000000000000000000000000000000073ffffffffffffffffffffffffffffffffffffffff168673ffffffffffffffffffffffffffffffffffffffff1614801561356257508073ffffffffffffffffffffffffffffffffffffffff168573ffffffffffffffffffffffffffffffffffffffff16145b1561372d576040517f2e1a7d4d00000000000000000000000000000000000000000000000000000000815273ffffffffffffffffffffffffffffffffffffffff7f00000000000000000000000000000000000000000000000000000000000000001690632e1a7d4d906135d9908790600401615c81565b600060405180830381600087803b1580156135f357600080fd5b505af1158015613607573d6000803e3d6000fd5b50506040517fa1903eab00000000000000000000000000000000000000000000000000000000815273ffffffffffffffffffffffffffffffffffffffff84169250637a28fb889150829063a1903eab90889061366890600090600401614f69565b6020604051808303818588803b15801561368157600080fd5b505af1158015613695573d6000803e3d6000fd5b50505050506040513d601f19601f820116820180604052508101906136ba9190614da7565b6040518263ffffffff1660e01b81526004016136d69190615c81565b60206040518083038186803b1580156136ee57600080fd5b505afa158015613702573d6000803e3d6000fd5b505050506040513d601f19601f820116820180604052508101906137269190614da7565b915061375f565b6040517f08c379a000000000000000000000000000000000000000000000000000000000815260040161011e9061574f565b50949350505050565b6000806000838060200190518101906137819190614be6565b90925090506137a773ffffffffffffffffffffffffffffffffffffffff88168387610ab2565b8073ffffffffffffffffffffffffffffffffffffffff168673ffffffffffffffffffffffffffffffffffffffff161415613870576040517fe8eda9df00000000000000000000000000000000000000000000000000000000815273ffffffffffffffffffffffffffffffffffffffff83169063e8eda9df90613834908a9089903090600090600401615007565b600060405180830381600087803b15801561384e57600080fd5b505af1158015613862573d6000803e3d6000fd5b505050508492505050610fe5565b8073ffffffffffffffffffffffffffffffffffffffff168773ffffffffffffffffffffffffffffffffffffffff161415613955576040517f69328dec00000000000000000000000000000000000000000000000000000000815273ffffffffffffffffffffffffffffffffffffffff8316906369328dec906138fa90899089903090600401614fd7565b602060405180830381600087803b15801561391457600080fd5b505af1158015613928573d6000803e3d6000fd5b505050506040513d601f19601f8201168201806040525081019061394c9190614da7565b92505050610fe5565b6040517f08c379a000000000000000000000000000000000000000000000000000000000815260040161011e90615a0f565b6000808280602001905181019061399e9190614802565b905060008573ffffffffffffffffffffffffffffffffffffffff166370a08231306040518263ffffffff1660e01b81526004016139db9190614f69565b60206040518083038186803b1580156139f357600080fd5b505afa158015613a07573d6000803e3d6000fd5b505050506040513d601f19601f82011682018060405250810190613a2b9190614da7565b90508173ffffffffffffffffffffffffffffffffffffffff168673ffffffffffffffffffffffffffffffffffffffff161415613cca577f000000000000000000000000000000000000000000000000000000000000000073ffffffffffffffffffffffffffffffffffffffff168773ffffffffffffffffffffffffffffffffffffffff161415613bc2576040517f2e1a7d4d000000000000000000000000000000000000000000000000000000008152829073ffffffffffffffffffffffffffffffffffffffff7f00000000000000000000000000000000000000000000000000000000000000001690632e1a7d4d90613b29908990600401615c81565b600060405180830381600087803b158015613b4357600080fd5b505af1158015613b57573d6000803e3d6000fd5b505050508073ffffffffffffffffffffffffffffffffffffffff16631249c58b876040518263ffffffff1660e01b81526004016000604051808303818588803b158015613ba357600080fd5b505af1158015613bb7573d6000803e3d6000fd5b505050505050613cc5565b613be373ffffffffffffffffffffffffffffffffffffffff88168387610ab2565b6040517fa0712d68000000000000000000000000000000000000000000000000000000008152829060009073ffffffffffffffffffffffffffffffffffffffff83169063a0712d6890613c3a908a90600401615c81565b602060405180830381600087803b158015613c5457600080fd5b505af1158015613c68573d6000803e3d6000fd5b505050506040513d601f19601f82011682018060405250810190613c8c9190614da7565b14613cc3576040517f08c379a000000000000000000000000000000000000000000000000000000000815260040161011e90615784565b505b613faf565b8173ffffffffffffffffffffffffffffffffffffffff168773ffffffffffffffffffffffffffffffffffffffff161415613faf577f000000000000000000000000000000000000000000000000000000000000000073ffffffffffffffffffffffffffffffffffffffff168673ffffffffffffffffffffffffffffffffffffffff161415613ecd576040517fdb006a750000000000000000000000000000000000000000000000000000000081524790839060009073ffffffffffffffffffffffffffffffffffffffff83169063db006a7590613dab908b90600401615c81565b602060405180830381600087803b158015613dc557600080fd5b505af1158015613dd9573d6000803e3d6000fd5b505050506040513d601f19601f82011682018060405250810190613dfd9190614da7565b14613e34576040517f08c379a000000000000000000000000000000000000000000000000000000000815260040161011e9061583e565b476000613e418285610b8e565b90507f000000000000000000000000000000000000000000000000000000000000000073ffffffffffffffffffffffffffffffffffffffff1663d0e30db0826040518263ffffffff1660e01b81526004016000604051808303818588803b158015613eab57600080fd5b505af1158015613ebf573d6000803e3d6000fd5b505050505050505050613faf565b6040517fdb006a75000000000000000000000000000000000000000000000000000000008152829060009073ffffffffffffffffffffffffffffffffffffffff83169063db006a7590613f24908a90600401615c81565b602060405180830381600087803b158015613f3e57600080fd5b505af1158015613f52573d6000803e3d6000fd5b505050506040513d601f19601f82011682018060405250810190613f769190614da7565b14613fad576040517f08c379a000000000000000000000000000000000000000000000000000000000815260040161011e90615955565b505b61197f818773ffffffffffffffffffffffffffffffffffffffff166370a08231306040518263ffffffff1660e01b81526004016103559190614f69565b6000806060838060200190518101906140059190614c14565b909250905061402b73ffffffffffffffffffffffffffffffffffffffff88168387614443565b6040517f65d02b0400000000000000000000000000000000000000000000000000000000815273ffffffffffffffffffffffffffffffffffffffff8316906365d02b049061192d908a908a9030906001908890600401615176565b606063095ea7b360e01b83836040516024016140a3929190614fb1565b604080517fffffffffffffffffffffffffffffffffffffffffffffffffffffffffffffffe08184030181529190526020810180517bffffffffffffffffffffffffffffffffffffffffffffffffffffffff167fffffffff0000000000000000000000000000000000000000000000000000000090931692909217909152905061412c8482614460565b50505050565b606063e946c1bb60e01b848484604051602401614151939291906152b0565b604080517fffffffffffffffffffffffffffffffffffffffffffffffffffffffffffffffe08184030181529190526020810180517bffffffffffffffffffffffffffffffffffffffffffffffffffffffff167fffffffff000000000000000000000000000000000000000000000000000000009093169290921790915290509392505050565b805160208201fd5b60007f000000000000000000000000000000000000000000000000000000000000000073ffffffffffffffffffffffffffffffffffffffff168373ffffffffffffffffffffffffffffffffffffffff16146142db576040517f06f2bf6200000000000000000000000000000000000000000000000000000000815273ffffffffffffffffffffffffffffffffffffffff8516906306f2bf6290614286908690600401614f69565b60206040518083038186803b15801561429e57600080fd5b505afa1580156142b2573d6000803e3d6000fd5b505050506040513d601f19601f820116820180604052508101906142d69190614802565b61437d565b6040517f06f2bf6200000000000000000000000000000000000000000000000000000000815273ffffffffffffffffffffffffffffffffffffffff8516906306f2bf629061432d908590600401614f69565b60206040518083038186803b15801561434557600080fd5b505afa158015614359573d6000803e3d6000fd5b505050506040513d601f19601f8201168201806040525081019061437d9190614802565b905073ffffffffffffffffffffffffffffffffffffffff81166103b5576040517f08c379a000000000000000000000000000000000000000000000000000000000815260040161011e90615430565b6000828201838110156103b5576103b5610ba760008686614132565b6000826143f757506000610bb1565b8282028284828161440457fe5b04146103b5576103b5610ba760018686614132565b60008161442f5761442f610ba760038585614132565b600082848161443a57fe5b04949350505050565b606063a9059cbb60e01b83836040516024016140a3929190614fb1565b600060608373ffffffffffffffffffffffffffffffffffffffff16836040516144899190614f4d565b6000604051808303816000865af19150503d80600081146144c6576040519150601f19603f3d011682016040523d82523d6000602084013e6144cb565b606091505b5091509150816144de576144de816141d7565b805161452557833b8061451d576040517f08c379a000000000000000000000000000000000000000000000000000000000815260040161011e906157e1565b505050614562565b602081511061455957600061453b826000614566565b9050806001141561454e57505050614562565b614557826141d7565b505b61412c816141d7565b5050565b60006103b583836000816020018351101561458e5761458e610ba76005855185602001614597565b50016020015190565b6060632800659560e01b848484604051602401614151939291906152d2565b60408051608081018252600080825260208201819052918101829052606081019190915290565b604080518082019091526000808252602082015290565b6040805160c08101909152600080825260208201908152602001600073ffffffffffffffffffffffffffffffffffffffff168152602001600073ffffffffffffffffffffffffffffffffffffffff16815260200160008152602001606081525090565b600082601f830112614667578081fd5b815161467a61467582615dce565b615da7565b81815291506020808301908481018184028601820187101561469b57600080fd5b60005b848110156146c35781516146b181615e69565b8452928201929082019060010161469e565b505050505092915050565b600082601f8301126146de578081fd5b81356146ec61467582615dee565b915080825283602082850101111561470357600080fd5b8060208401602084013760009082016020015292915050565b600082601f83011261472c578081fd5b815161473a61467582615dee565b915080825283602082850101111561475157600080fd5b614762816020840160208601615e30565b5092915050565b8035610bb181615e69565b600060808284031215614785578081fd5b61478f6080615da7565b9050815161479c81615e69565b815260208201517fffffffff00000000000000000000000000000000000000000000000000000000811681146147d157600080fd5b602082015260408201516147e481615e99565b604082015260608201516147f781615e99565b606082015292915050565b600060208284031215614813578081fd5b81516103b581615e69565b60008060008060808587031215614833578283fd5b845161483e81615e69565b602086015190945061484f81615e69565b604086015190935061486081615e69565b606086015190925067ffffffffffffffff81111561487c578182fd5b61488887828801614657565b91505092959194509250565b6000806000606084860312156148a8578081fd5b83516148b381615e69565b602085015190935067ffffffffffffffff808211156148d0578283fd5b6148dc87838801614657565b935060408601519150808211156148f1578283fd5b506148fe86828701614657565b9150509250925092565b6000602080838503121561491a578182fd5b825167ffffffffffffffff811115614930578283fd5b8301601f81018513614940578283fd5b805161494e61467582615dce565b818152838101908385018584028501860189101561496a578687fd5b8694505b8385101561498c57805183526001949094019391850191850161496e565b50979650505050505050565b6000806000606084860312156149ac578081fd5b83516149b781615e69565b602085015190935067ffffffffffffffff808211156149d4578283fd5b818601915086601f8301126149e7578283fd5b81516149f561467582615dce565b818152602080820191908501865b84811015614aab578151870160a07fffffffffffffffffffffffffffffffffffffffffffffffffffffffffffffffe0828f03011215614a40578889fd5b614a4a60a0615da7565b6020820151815260408201516020820152606082015160408201526080820151606082015260a082015188811115614a80578a8bfd5b614a8f8f60208386010161471c565b6080830152508552506020938401939190910190600101614a03565b5050604089015190965093505050808211156148f1578283fd5b60008060408385031215614ad7578182fd5b8251614ae281615e69565b602084015190925067ffffffffffffffff811115614afe578182fd5b614b0a85828601614657565b9150509250929050565b600080600060608486031215614b28578081fd5b8351614b3381615e69565b6020850151909350614b4481615e69565b6040850151909250614b5581615e8b565b809150509250925092565b60008060408385031215614b72578182fd5b8251614b7d81615e69565b6020840151909250614b8e81615e8b565b809150509250929050565b600080600060608486031215614bad578081fd5b8335614bb881615e69565b925060208401359150604084013567ffffffffffffffff811115614bda578182fd5b6148fe868287016146ce565b60008060408385031215614bf8578182fd5b8251614c0381615e69565b6020840151909250614b8e81615e69565b60008060408385031215614c26578182fd5b8251614c3181615e69565b602084015190925067ffffffffffffffff811115614c4d578182fd5b614b0a8582860161471c565b600060408284031215614c6a578081fd5b614c746040615da7565b8251614c7f81615e69565b81526020928301519281019290925250919050565b60008060008060808587031215614ca9578182fd5b843567ffffffffffffffff80821115614cc0578384fd5b9086019060808289031215614cd3578384fd5b614cdd6080615da7565b823581526020830135602082015260408301356040820152606083013582811115614d06578586fd5b614d128a8286016146ce565b606083015250809650505050614d2b8660208701614769565b9250614d3a8660408701614769565b9396929550929360600135925050565b600060808284031215614d5b578081fd5b6103b58383614774565b600060408284031215614d76578081fd5b614d806040615da7565b8251614d8b81615e69565b81526020830151614d9b81615e69565b60208201529392505050565b600060208284031215614db8578081fd5b5051919050565b60008060408385031215614dd1578182fd5b505080516020909101519092909150565b600060208284031215614df3578081fd5b815160ff811681146103b5578182fd5b6000815180845260208085019450808401835b83811015614e4857815173ffffffffffffffffffffffffffffffffffffffff1687529582019590820190600101614e16565b509495945050505050565b6000815180845260208085019450808401835b83811015614e4857815187529582019590820190600101614e66565b60008151808452614e9a816020860160208601615e30565b601f017fffffffffffffffffffffffffffffffffffffffffffffffffffffffffffffffe0169290920160200192915050565b600081518352602082015160208401526040820151604084015260608201516060840152608082015160a06080850152610fe560a0850182614e82565b73ffffffffffffffffffffffffffffffffffffffff808251168352602082015115156020840152806040830151166040840152506060810151151560608301525050565b60008251614f5f818460208701615e30565b9190910192915050565b73ffffffffffffffffffffffffffffffffffffffff91909116815260200190565b73ffffffffffffffffffffffffffffffffffffffff92831681529116602082015260400190565b73ffffffffffffffffffffffffffffffffffffffff929092168252602082015260400190565b73ffffffffffffffffffffffffffffffffffffffff93841681526020810192909252909116604082015260600190565b73ffffffffffffffffffffffffffffffffffffffff948516815260208101939093529216604082015261ffff909116606082015260800190565b600060c0825261505460c0830189614e03565b82810360208401526150668189614e03565b91505085604083015284606083015273ffffffffffffffffffffffffffffffffffffffff841660808301528260a0830152979650505050505050565b6000608082526150b56080830187614e03565b602083019590955250604081019290925273ffffffffffffffffffffffffffffffffffffffff16606090910152919050565b600060c082526150fa60c0830189614e03565b602083019790975250604081019490945273ffffffffffffffffffffffffffffffffffffffff92831660608501529116608083015260a090910152919050565b94855273ffffffffffffffffffffffffffffffffffffffff93841660208601529190921660408401526060830191909152608082015260a00190565b600073ffffffffffffffffffffffffffffffffffffffff8088168352808716602084015280861660408401525083606083015260a0608083015261329360a0830184614e82565b73ffffffffffffffffffffffffffffffffffffffff9586168152938516602085015260408401929092526060830152909116608082015260a00190565b73ffffffffffffffffffffffffffffffffffffffff958616815293909416602084015260408301919091526060820152608081019190915260a00190565b73ffffffffffffffffffffffffffffffffffffffff9485168152602081019390935292166040820152606081019190915260800190565b73ffffffffffffffffffffffffffffffffffffffff958616815260208101949094529190931660408301526060820192909252608081019190915260a00190565b60608101600485106152be57fe5b938152602081019290925260409091015290565b60608101600885106152be57fe5b60006101208083016152f18a615e5c565b898452602080850192909252885190819052610140808501928281028601909101918a8201855b82811015615364577ffffffffffffffffffffffffffffffffffffffffffffffffffffffffffffffec0888603018652615352858351614ecc565b95840195945090830190600101615318565b50505050838103604085015261537a8189614e03565b91505061538a6060840187614f09565b82810360e084015261539c8186614e53565b91505082610100830152979650505050505050565b600f94850b81529290930b6020830152604082015260ff909116606082015260800190565b600f95860b81529390940b6020840152604083019190915260ff166060820152608081019190915260a00190565b928352602083019190915273ffffffffffffffffffffffffffffffffffffffff16604082015260600190565b60208082526018908201527f4d6978696e556e69737761702f4e4f5f45584348414e47450000000000000000604082015260600190565b6020808252602c908201527f4d6978696e42616e636f722f504154485f4c454e4754485f4d5553545f42455f60408201527f41545f4c454153545f54574f0000000000000000000000000000000000000000606082015260800190565b60208082526029908201527f4d6978696e474d582f504154485f4c454e4754485f4d5553545f42455f41545f60408201527f4c454153545f54574f0000000000000000000000000000000000000000000000606082015260800190565b6020808252603a908201527f4d6978696e506c6174797075732f4c4153545f454c454d454e545f4f465f504160408201527f54485f4d5553545f4d415443485f4f55545055545f544f4b454e000000000000606082015260800190565b6020808252603a908201527f4d6978696e4b79626572446d6d2f4c4153545f454c454d454e545f4f465f504160408201527f54485f4d5553545f4d415443485f4f55545055545f544f4b454e000000000000606082015260800190565b60208082526021908201527f556e65787065637465642042616c616e63657256324261746368206f7574707560408201527f7400000000000000000000000000000000000000000000000000000000000000606082015260800190565b6020808252602f908201527f4d6978696e43727970746f436f6d2f504154485f4c454e4754485f4d5553545f60408201527f42455f41545f4c454153545f54574f0000000000000000000000000000000000606082015260800190565b6020808252602f908201527f4d6978696e556e697377617056322f504154485f4c454e4754485f4d5553545f60408201527f42455f41545f4c454153545f54574f0000000000000000000000000000000000606082015260800190565b60208082526023908201527f4d6978696e4b79626572446d6d2f41525241595f4c454e4754485f4d49534d4160408201527f5443480000000000000000000000000000000000000000000000000000000000606082015260800190565b6020808252818101527f4d6978696e4c69646f2f554e535550504f525445445f544f4b454e5f50414952604082015260600190565b60208082526023908201527f4d6978696e436f6d706f756e642f4641494c45445f544f5f4d494e545f43544f60408201527f4b454e0000000000000000000000000000000000000000000000000000000000606082015260800190565b60208082526027908201527f696e76616c696420746f6b656e20616464726573732c20636f6e7461696e732060408201527f6e6f20636f646500000000000000000000000000000000000000000000000000606082015260800190565b60208082526025908201527f4d6978696e436f6d706f756e642f4641494c45445f544f5f52454445454d5f4360408201527f4554484552000000000000000000000000000000000000000000000000000000606082015260800190565b60208082526038908201527f4d6978696e42616e636f722f4c4153545f454c454d454e545f4f465f5041544860408201527f5f4d5553545f4d415443485f4f55545055545f544f4b454e0000000000000000606082015260800190565b6020808252602f908201527f4d6978696e4b79626572446d6d2f504f4f4c535f4c454e4754485f4d5553545f60408201527f42455f41545f4c454153545f4f4e450000000000000000000000000000000000606082015260800190565b60208082526025908201527f4d6978696e436f6d706f756e642f4641494c45445f544f5f52454445454d5f4360408201527f544f4b454e000000000000000000000000000000000000000000000000000000606082015260800190565b60208082526035908201527f4d6978696e474d582f4c4153545f454c454d454e545f4f465f504154485f4d5560408201527f53545f4d415443485f4f55545055545f544f4b454e0000000000000000000000606082015260800190565b60208082526022908201527f4d6978696e4161766556322f554e535550504f525445445f544f4b454e5f504160408201527f4952000000000000000000000000000000000000000000000000000000000000606082015260800190565b6020808252603b908201527f4d6978696e556e697377617056322f4c4153545f454c454d454e545f4f465f5060408201527f4154485f4d5553545f4d415443485f4f55545055545f544f4b454e0000000000606082015260800190565b6020808252603b908201527f4d6978696e43727970746f436f6d2f4c4153545f454c454d454e545f4f465f5060408201527f4154485f4d5553545f4d415443485f4f55545055545f544f4b454e0000000000606082015260800190565b6020808252602e908201527f4d6978696e506c6174797075732f504154485f4c454e4754485f4d5553545f4260408201527f455f41545f4c454153545f54574f000000000000000000000000000000000000606082015260800190565b600060208252825160a06020840152615b9f60c0840182614e82565b905073ffffffffffffffffffffffffffffffffffffffff60208501511660408401526040840151606084015260608401516080840152608084015160a08401528091505092915050565b600060e08252855160e08301526020860151615c0481615e5c565b610100830152604086015173ffffffffffffffffffffffffffffffffffffffff908116610120840152606087015116610140830152608086015161016083015260a086015160c0610180840152615c5f6101a0840182614e82565b915050615c6f6020830186614f09565b60a082019390935260c0015292915050565b90815260200190565b600087825286602083015260c06040830152615ca960c0830187614e03565b8281036060840152615cbb8187614e03565b73ffffffffffffffffffffffffffffffffffffffff959095166080840152505060a00152949350505050565b600086825285602083015260a06040830152615d0660a0830186614e03565b73ffffffffffffffffffffffffffffffffffffffff94909416606083015250608001529392505050565b600084825283602083015260606040830152615d4f6060830184614e82565b95945050505050565b94855260208501939093526040840191909152606083015273ffffffffffffffffffffffffffffffffffffffff16608082015260a00190565b9283526020830191909152604082015260600190565b60405181810167ffffffffffffffff81118282101715615dc657600080fd5b604052919050565b600067ffffffffffffffff821115615de4578081fd5b5060209081020190565b600067ffffffffffffffff821115615e04578081fd5b50601f017fffffffffffffffffffffffffffffffffffffffffffffffffffffffffffffffe01660200190565b60005b83811015615e4b578181015183820152602001615e33565b8381111561412c5750506000910152565b60028110615e6657fe5b50565b73ffffffffffffffffffffffffffffffffffffffff81168114615e6657600080fd5b8015158114615e6657600080fd5b80600f0b8114615e6657600080fdfea264697066735822122076b3563c2b8b87fce9e5153af2b3587ea63cc58822af9bc49bd5232bc7c65f9f64736f6c634300060c0033",
  "devdoc": {
    "kind": "dev",
    "methods": {},
    "version": 1
  },
  "userdoc": {
    "kind": "user",
    "methods": {},
    "version": 1
  },
  "storageLayout": {
    "storage": [],
    "types": null
  }
}