{
  "address": "0x667C258F3aD5aF6f87f136B51C5F1947872Ef0cE",
  "abi": [
    {
      "inputs": [
        {
          "internalType": "contract IUniswapV3QuoterV2",
          "name": "quoter",
          "type": "address"
        },
        {
          "internalType": "contract IERC20TokenV06[]",
          "name": "path",
          "type": "address[]"
        },
        {
          "internalType": "uint256",
          "name": "inputAmount",
          "type": "uint256"
        }
      ],
      "name": "_getPoolPathSingleHop",
      "outputs": [
        {
          "internalType": "contract IUniswapV3Pool[][]",
          "name": "poolPaths",
          "type": "address[][]"
        }
      ],
      "stateMutability": "nonpayable",
      "type": "function"
    },
    {
      "inputs": [
        {
          "internalType": "bytes[]",
          "name": "callDatas",
          "type": "bytes[]"
        }
      ],
      "name": "batchCall",
      "outputs": [
        {
          "components": [
            {
              "internalType": "bytes",
              "name": "data",
              "type": "bytes"
            },
            {
              "internalType": "bool",
              "name": "success",
              "type": "bool"
            }
          ],
          "internalType": "struct ERC20BridgeSampler.CallResults[]",
          "name": "callResults",
          "type": "tuple[]"
        }
      ],
      "stateMutability": "nonpayable",
      "type": "function"
    },
    {
      "inputs": [
        {
          "internalType": "contract IERC20TokenV06[]",
          "name": "tokens",
          "type": "address[]"
        },
        {
          "internalType": "address",
          "name": "account",
          "type": "address"
        },
        {
          "internalType": "address",
          "name": "spender",
          "type": "address"
        }
      ],
      "name": "getAllowanceOf",
      "outputs": [
        {
          "internalType": "uint256[]",
          "name": "allowances",
          "type": "uint256[]"
        }
      ],
      "stateMutability": "view",
      "type": "function"
    },
    {
      "inputs": [
        {
          "internalType": "contract IERC20TokenV06[]",
          "name": "tokens",
          "type": "address[]"
        },
        {
          "internalType": "address",
          "name": "account",
          "type": "address"
        }
      ],
      "name": "getBalanceOf",
      "outputs": [
        {
          "internalType": "uint256[]",
          "name": "balances",
          "type": "uint256[]"
        }
      ],
      "stateMutability": "view",
      "type": "function"
    },
    {
      "inputs": [],
      "name": "getBlockNumber",
      "outputs": [
        {
          "internalType": "uint256",
          "name": "",
          "type": "uint256"
        }
      ],
      "stateMutability": "view",
      "type": "function"
    },
    {
      "inputs": [],
      "name": "getGasLeft",
      "outputs": [
        {
          "internalType": "uint256",
          "name": "",
          "type": "uint256"
        }
      ],
      "stateMutability": "nonpayable",
      "type": "function"
    },
    {
      "inputs": [
        {
          "components": [
            {
              "internalType": "contract IERC20TokenV06",
              "name": "makerToken",
              "type": "address"
            },
            {
              "internalType": "contract IERC20TokenV06",
              "name": "takerToken",
              "type": "address"
            },
            {
              "internalType": "uint128",
              "name": "makerAmount",
              "type": "uint128"
            },
            {
              "internalType": "uint128",
              "name": "takerAmount",
              "type": "uint128"
            },
            {
              "internalType": "uint128",
              "name": "takerTokenFeeAmount",
              "type": "uint128"
            },
            {
              "internalType": "address",
              "name": "maker",
              "type": "address"
            },
            {
              "internalType": "address",
              "name": "taker",
              "type": "address"
            },
            {
              "internalType": "address",
              "name": "sender",
              "type": "address"
            },
            {
              "internalType": "address",
              "name": "feeRecipient",
              "type": "address"
            },
            {
              "internalType": "bytes32",
              "name": "pool",
              "type": "bytes32"
            },
            {
              "internalType": "uint64",
              "name": "expiry",
              "type": "uint64"
            },
            {
              "internalType": "uint256",
              "name": "salt",
              "type": "uint256"
            }
          ],
          "internalType": "struct IExchange.LimitOrder[]",
          "name": "orders",
          "type": "tuple[]"
        },
        {
          "components": [
            {
              "internalType": "enum IExchange.SignatureType",
              "name": "signatureType",
              "type": "uint8"
            },
            {
              "internalType": "uint8",
              "name": "v",
              "type": "uint8"
            },
            {
              "internalType": "bytes32",
              "name": "r",
              "type": "bytes32"
            },
            {
              "internalType": "bytes32",
              "name": "s",
              "type": "bytes32"
            }
          ],
          "internalType": "struct IExchange.Signature[]",
          "name": "orderSignatures",
          "type": "tuple[]"
        },
        {
          "internalType": "contract IExchange",
          "name": "exchange",
          "type": "address"
        }
      ],
      "name": "getLimitOrderFillableMakerAssetAmounts",
      "outputs": [
        {
          "internalType": "uint256[]",
          "name": "orderFillableMakerAssetAmounts",
          "type": "uint256[]"
        }
      ],
      "stateMutability": "view",
      "type": "function"
    },
    {
      "inputs": [
        {
          "components": [
            {
              "internalType": "contract IERC20TokenV06",
              "name": "makerToken",
              "type": "address"
            },
            {
              "internalType": "contract IERC20TokenV06",
              "name": "takerToken",
              "type": "address"
            },
            {
              "internalType": "uint128",
              "name": "makerAmount",
              "type": "uint128"
            },
            {
              "internalType": "uint128",
              "name": "takerAmount",
              "type": "uint128"
            },
            {
              "internalType": "uint128",
              "name": "takerTokenFeeAmount",
              "type": "uint128"
            },
            {
              "internalType": "address",
              "name": "maker",
              "type": "address"
            },
            {
              "internalType": "address",
              "name": "taker",
              "type": "address"
            },
            {
              "internalType": "address",
              "name": "sender",
              "type": "address"
            },
            {
              "internalType": "address",
              "name": "feeRecipient",
              "type": "address"
            },
            {
              "internalType": "bytes32",
              "name": "pool",
              "type": "bytes32"
            },
            {
              "internalType": "uint64",
              "name": "expiry",
              "type": "uint64"
            },
            {
              "internalType": "uint256",
              "name": "salt",
              "type": "uint256"
            }
          ],
          "internalType": "struct IExchange.LimitOrder",
          "name": "order",
          "type": "tuple"
        },
        {
          "components": [
            {
              "internalType": "enum IExchange.SignatureType",
              "name": "signatureType",
              "type": "uint8"
            },
            {
              "internalType": "uint8",
              "name": "v",
              "type": "uint8"
            },
            {
              "internalType": "bytes32",
              "name": "r",
              "type": "bytes32"
            },
            {
              "internalType": "bytes32",
              "name": "s",
              "type": "bytes32"
            }
          ],
          "internalType": "struct IExchange.Signature",
          "name": "signature",
          "type": "tuple"
        },
        {
          "internalType": "contract IExchange",
          "name": "exchange",
          "type": "address"
        }
      ],
      "name": "getLimitOrderFillableTakerAmount",
      "outputs": [
        {
          "internalType": "uint256",
          "name": "fillableTakerAmount",
          "type": "uint256"
        }
      ],
      "stateMutability": "view",
      "type": "function"
    },
    {
      "inputs": [
        {
          "components": [
            {
              "internalType": "contract IERC20TokenV06",
              "name": "makerToken",
              "type": "address"
            },
            {
              "internalType": "contract IERC20TokenV06",
              "name": "takerToken",
              "type": "address"
            },
            {
              "internalType": "uint128",
              "name": "makerAmount",
              "type": "uint128"
            },
            {
              "internalType": "uint128",
              "name": "takerAmount",
              "type": "uint128"
            },
            {
              "internalType": "uint128",
              "name": "takerTokenFeeAmount",
              "type": "uint128"
            },
            {
              "internalType": "address",
              "name": "maker",
              "type": "address"
            },
            {
              "internalType": "address",
              "name": "taker",
              "type": "address"
            },
            {
              "internalType": "address",
              "name": "sender",
              "type": "address"
            },
            {
              "internalType": "address",
              "name": "feeRecipient",
              "type": "address"
            },
            {
              "internalType": "bytes32",
              "name": "pool",
              "type": "bytes32"
            },
            {
              "internalType": "uint64",
              "name": "expiry",
              "type": "uint64"
            },
            {
              "internalType": "uint256",
              "name": "salt",
              "type": "uint256"
            }
          ],
          "internalType": "struct IExchange.LimitOrder[]",
          "name": "orders",
          "type": "tuple[]"
        },
        {
          "components": [
            {
              "internalType": "enum IExchange.SignatureType",
              "name": "signatureType",
              "type": "uint8"
            },
            {
              "internalType": "uint8",
              "name": "v",
              "type": "uint8"
            },
            {
              "internalType": "bytes32",
              "name": "r",
              "type": "bytes32"
            },
            {
              "internalType": "bytes32",
              "name": "s",
              "type": "bytes32"
            }
          ],
          "internalType": "struct IExchange.Signature[]",
          "name": "orderSignatures",
          "type": "tuple[]"
        },
        {
          "internalType": "contract IExchange",
          "name": "exchange",
          "type": "address"
        }
      ],
      "name": "getLimitOrderFillableTakerAssetAmounts",
      "outputs": [
        {
          "internalType": "uint256[]",
          "name": "orderFillableTakerAssetAmounts",
          "type": "uint256[]"
        }
      ],
      "stateMutability": "view",
      "type": "function"
    },
    {
      "inputs": [
        {
          "internalType": "contract IERC20TokenV06[]",
          "name": "tokens",
          "type": "address[]"
        }
      ],
      "name": "getTokenDecimals",
      "outputs": [
        {
          "internalType": "uint256[]",
          "name": "decimals",
          "type": "uint256[]"
        }
      ],
      "stateMutability": "view",
      "type": "function"
    },
    {
      "inputs": [
        {
          "internalType": "address",
          "name": "account",
          "type": "address"
        }
      ],
      "name": "isContract",
      "outputs": [
        {
          "internalType": "bool",
          "name": "",
          "type": "bool"
        }
      ],
      "stateMutability": "view",
      "type": "function"
    },
    {
      "inputs": [
        {
          "components": [
            {
              "internalType": "address",
              "name": "poolAddress",
              "type": "address"
            },
            {
              "internalType": "bytes4",
              "name": "sellQuoteFunctionSelector",
              "type": "bytes4"
            },
            {
              "internalType": "bytes4",
              "name": "buyQuoteFunctionSelector",
              "type": "bytes4"
            }
          ],
          "internalType": "struct CurveSampler.CurveInfo",
          "name": "curveInfo",
          "type": "tuple"
        },
        {
          "internalType": "int128",
          "name": "fromTokenIdx",
          "type": "int128"
        },
        {
          "internalType": "int128",
          "name": "toTokenIdx",
          "type": "int128"
        },
        {
          "internalType": "uint256[]",
          "name": "makerTokenAmounts",
          "type": "uint256[]"
        }
      ],
      "name": "sampleBuysFromCurve",
      "outputs": [
        {
          "internalType": "uint256[]",
          "name": "takerTokenAmounts",
          "type": "uint256[]"
        }
      ],
      "stateMutability": "view",
      "type": "function"
    },
    {
      "inputs": [
        {
          "internalType": "address",
          "name": "router",
          "type": "address"
        },
        {
          "internalType": "address",
          "name": "takerToken",
          "type": "address"
        },
        {
          "internalType": "address",
          "name": "makerToken",
          "type": "address"
        },
        {
          "internalType": "uint256[]",
          "name": "makerTokenAmounts",
          "type": "uint256[]"
        }
      ],
      "name": "sampleBuysFromMStable",
      "outputs": [
        {
          "internalType": "uint256[]",
          "name": "takerTokenAmounts",
          "type": "uint256[]"
        }
      ],
      "stateMutability": "view",
      "type": "function"
    },
    {
      "inputs": [
        {
          "internalType": "address",
          "name": "router",
          "type": "address"
        },
        {
          "internalType": "address",
          "name": "takerToken",
          "type": "address"
        },
        {
          "internalType": "address",
          "name": "makerToken",
          "type": "address"
        },
        {
          "internalType": "uint256[]",
          "name": "makerTokenAmounts",
          "type": "uint256[]"
        }
      ],
      "name": "sampleBuysFromUniswap",
      "outputs": [
        {
          "internalType": "uint256[]",
          "name": "takerTokenAmounts",
          "type": "uint256[]"
        }
      ],
      "stateMutability": "view",
      "type": "function"
    },
    {
      "inputs": [
        {
          "internalType": "address",
          "name": "router",
          "type": "address"
        },
        {
          "internalType": "address[]",
          "name": "path",
          "type": "address[]"
        },
        {
          "internalType": "uint256[]",
          "name": "makerTokenAmounts",
          "type": "uint256[]"
        }
      ],
      "name": "sampleBuysFromUniswapV2",
      "outputs": [
        {
          "internalType": "uint256[]",
          "name": "takerTokenAmounts",
          "type": "uint256[]"
        }
      ],
      "stateMutability": "view",
      "type": "function"
    },
    {
      "inputs": [
        {
          "internalType": "contract IUniswapV3QuoterV2",
          "name": "quoter",
          "type": "address"
        },
        {
          "internalType": "contract IERC20TokenV06[]",
          "name": "path",
          "type": "address[]"
        },
        {
          "internalType": "uint256[]",
          "name": "makerTokenAmounts",
          "type": "uint256[]"
        }
      ],
      "name": "sampleBuysFromUniswapV3",
      "outputs": [
        {
          "internalType": "bytes[]",
          "name": "uniswapPaths",
          "type": "bytes[]"
        },
        {
          "internalType": "uint256[]",
          "name": "uniswapGasUsed",
          "type": "uint256[]"
        },
        {
          "internalType": "uint256[]",
          "name": "takerTokenAmounts",
          "type": "uint256[]"
        }
      ],
      "stateMutability": "nonpayable",
      "type": "function"
    },
    {
      "inputs": [
        {
          "components": [
            {
              "internalType": "address",
              "name": "poolAddress",
              "type": "address"
            },
            {
              "internalType": "bytes4",
              "name": "sellQuoteFunctionSelector",
              "type": "bytes4"
            },
            {
              "internalType": "bytes4",
              "name": "buyQuoteFunctionSelector",
              "type": "bytes4"
            }
          ],
          "internalType": "struct CurveSampler.CurveInfo",
          "name": "curveInfo",
          "type": "tuple"
        },
        {
          "internalType": "int128",
          "name": "fromTokenIdx",
          "type": "int128"
        },
        {
          "internalType": "int128",
          "name": "toTokenIdx",
          "type": "int128"
        },
        {
          "internalType": "uint256[]",
          "name": "takerTokenAmounts",
          "type": "uint256[]"
        }
      ],
      "name": "sampleSellsFromCurve",
      "outputs": [
        {
          "internalType": "uint256[]",
          "name": "makerTokenAmounts",
          "type": "uint256[]"
        }
      ],
      "stateMutability": "view",
      "type": "function"
    },
    {
      "inputs": [
        {
          "internalType": "address",
          "name": "router",
          "type": "address"
        },
        {
          "internalType": "address",
          "name": "takerToken",
          "type": "address"
        },
        {
          "internalType": "address",
          "name": "makerToken",
          "type": "address"
        },
        {
          "internalType": "uint256[]",
          "name": "takerTokenAmounts",
          "type": "uint256[]"
        }
      ],
      "name": "sampleSellsFromMStable",
      "outputs": [
        {
          "internalType": "uint256[]",
          "name": "makerTokenAmounts",
          "type": "uint256[]"
        }
      ],
      "stateMutability": "view",
      "type": "function"
    },
    {
      "inputs": [
        {
          "internalType": "address",
          "name": "router",
          "type": "address"
        },
        {
          "internalType": "address",
          "name": "takerToken",
          "type": "address"
        },
        {
          "internalType": "address",
          "name": "makerToken",
          "type": "address"
        },
        {
          "internalType": "uint256[]",
          "name": "takerTokenAmounts",
          "type": "uint256[]"
        }
      ],
      "name": "sampleSellsFromUniswap",
      "outputs": [
        {
          "internalType": "uint256[]",
          "name": "makerTokenAmounts",
          "type": "uint256[]"
        }
      ],
      "stateMutability": "view",
      "type": "function"
    },
    {
      "inputs": [
        {
          "internalType": "address",
          "name": "router",
          "type": "address"
        },
        {
          "internalType": "address[]",
          "name": "path",
          "type": "address[]"
        },
        {
          "internalType": "uint256[]",
          "name": "takerTokenAmounts",
          "type": "uint256[]"
        }
      ],
      "name": "sampleSellsFromUniswapV2",
      "outputs": [
        {
          "internalType": "uint256[]",
          "name": "makerTokenAmounts",
          "type": "uint256[]"
        }
      ],
      "stateMutability": "view",
      "type": "function"
    },
    {
      "inputs": [
        {
          "internalType": "contract IUniswapV3QuoterV2",
          "name": "quoter",
          "type": "address"
        },
        {
          "internalType": "contract IERC20TokenV06[]",
          "name": "path",
          "type": "address[]"
        },
        {
          "internalType": "uint256[]",
          "name": "takerTokenAmounts",
          "type": "uint256[]"
        }
      ],
      "name": "sampleSellsFromUniswapV3",
      "outputs": [
        {
          "internalType": "bytes[]",
          "name": "uniswapPaths",
          "type": "bytes[]"
        },
        {
          "internalType": "uint256[]",
          "name": "uniswapGasUsed",
          "type": "uint256[]"
        },
        {
          "internalType": "uint256[]",
          "name": "makerTokenAmounts",
          "type": "uint256[]"
        }
      ],
      "stateMutability": "nonpayable",
      "type": "function"
    },
    {
      "inputs": [
        {
          "internalType": "bytes[]",
          "name": "firstHopCalls",
          "type": "bytes[]"
        },
        {
          "internalType": "bytes[]",
          "name": "secondHopCalls",
          "type": "bytes[]"
        },
        {
          "internalType": "uint256",
          "name": "numSamples",
          "type": "uint256"
        }
      ],
      "name": "sampleTwoHopBuy",
      "outputs": [
        {
          "components": [
            {
              "internalType": "uint256",
              "name": "sourceIndex",
              "type": "uint256"
            },
            {
              "internalType": "bytes",
              "name": "returnData",
              "type": "bytes"
            }
          ],
          "internalType": "struct TwoHopSampler.HopInfo",
          "name": "firstHop",
          "type": "tuple"
        },
        {
          "components": [
            {
              "internalType": "uint256",
              "name": "sourceIndex",
              "type": "uint256"
            },
            {
              "internalType": "bytes",
              "name": "returnData",
              "type": "bytes"
            }
          ],
          "internalType": "struct TwoHopSampler.HopInfo",
          "name": "secondHop",
          "type": "tuple"
        },
        {
          "internalType": "uint256[]",
          "name": "sellAmounts",
          "type": "uint256[]"
        }
      ],
      "stateMutability": "nonpayable",
      "type": "function"
    },
    {
      "inputs": [
        {
          "internalType": "bytes[]",
          "name": "firstHopCalls",
          "type": "bytes[]"
        },
        {
          "internalType": "bytes[]",
          "name": "secondHopCalls",
          "type": "bytes[]"
        },
        {
          "internalType": "uint256",
          "name": "numSamples",
          "type": "uint256"
        }
      ],
      "name": "sampleTwoHopSell",
      "outputs": [
        {
          "components": [
            {
              "internalType": "uint256",
              "name": "sourceIndex",
              "type": "uint256"
            },
            {
              "internalType": "bytes",
              "name": "returnData",
              "type": "bytes"
            }
          ],
          "internalType": "struct TwoHopSampler.HopInfo",
          "name": "firstHop",
          "type": "tuple"
        },
        {
          "components": [
            {
              "internalType": "uint256",
              "name": "sourceIndex",
              "type": "uint256"
            },
            {
              "internalType": "bytes",
              "name": "returnData",
              "type": "bytes"
            }
          ],
          "internalType": "struct TwoHopSampler.HopInfo",
          "name": "secondHop",
          "type": "tuple"
        },
        {
          "internalType": "uint256[]",
          "name": "buyAmounts",
          "type": "uint256[]"
        }
      ],
      "stateMutability": "nonpayable",
      "type": "function"
    },
    {
      "stateMutability": "payable",
      "type": "receive"
    }
  ],
  "transactionHash": "0x3af9e1dcd4033ed3e114f98f947e18c5710db772283b8654f04fbd728355b96c",
  "args": [],
  "numDeployments": 1,
  "solcInputHash": "d824bfd18a929a7d770611c578d2def3",
  "bytecode": "0x60a06040527feeeeeeeeeeeeeeeeeeeeeeeeeeeeeeeeeeeeeeee00000000000000000000000060805234801561003457600080fd5b5060805160601c615c3c6200005d600039806116365280612096528061256a5250615c3c6000f3fe6080604052600436106101845760003560e01c806368be3cf2116100d6578063b90cd2fb1161007f578063c8c74a3711610059578063c8c74a3714610462578063e78ac04514610482578063fc9fe41b146104a25761018b565b8063b90cd2fb14610402578063bd71ecf614610422578063c8319084146104425761018b565b80638e5a0e07116100b05780638e5a0e07146103935780639209483b146103c25780639bf3ee35146103e25761018b565b806368be3cf214610319578063706e2f9b146103465780638aaf8fdf146103665761018b565b806340bc03ae116101385780635505000a116101125780635505000a146102aa5780635aae4e53146102d957806366a1ac6b146102f95761018b565b806340bc03ae1461025357806342cbb15c1461027357806351be4eaa146102955761018b565b8063252322b311610169578063252322b3146101f357806330d6570d146102135780633105fec1146102335761018b565b80631022742b1461019057806316279055146101c65761018b565b3661018b57005b600080fd5b34801561019c57600080fd5b506101b06101ab366004614d30565b6104c2565b6040516101bd9190615764565b60405180910390f35b3480156101d257600080fd5b506101e66101e13660046149c6565b610661565b6040516101bd9190615777565b3480156101ff57600080fd5b506101b061020e366004614a37565b61066b565b34801561021f57600080fd5b506101b061022e366004614a37565b61088f565b34801561023f57600080fd5b506101b061024e366004614aaa565b610a2f565b34801561025f57600080fd5b506101b061026e366004614fff565b610bdf565b34801561027f57600080fd5b50610288610db9565b6040516101bd9190615a20565b3480156102a157600080fd5b50610288610dbd565b3480156102b657600080fd5b506102ca6102c5366004614e99565b610dc5565b6040516101bd93929190615634565b3480156102e557600080fd5b506102ca6102f4366004614e99565b6110b4565b34801561030557600080fd5b506101b0610314366004614d30565b6113b9565b34801561032557600080fd5b50610339610334366004614b7d565b611480565b6040516101bd91906156d1565b34801561035257600080fd5b506101b0610361366004614c56565b6115e2565b34801561037257600080fd5b50610386610381366004614f02565b6116fc565b6040516101bd9190615588565b34801561039f57600080fd5b506103b36103ae366004614bec565b61189c565b6040516101bd93929190615988565b3480156103ce57600080fd5b506101b06103dd366004614fff565b611bde565b3480156103ee57600080fd5b506102886103fd36600461509b565b611e57565b34801561040e57600080fd5b506101b061041d366004614a37565b611fd3565b34801561042e57600080fd5b506101b061043d366004614c89565b612042565b34801561044e57600080fd5b506101b061045d366004614a37565b612173565b34801561046e57600080fd5b506101b061047d366004614aaa565b61237e565b34801561048e57600080fd5b506101b061049d366004614cce565b612516565b3480156104ae57600080fd5b506103b36104bd366004614bec565b612633565b6060835167ffffffffffffffff811180156104dc57600080fd5b50604051908082528060200260200182016040528015610506578160200160208202803683370190505b50905060005b84518114610659573073ffffffffffffffffffffffffffffffffffffffff16639bf3ee3562030d4087848151811061054057fe5b602002602001015187858151811061055457fe5b6020026020010151876040518563ffffffff1660e01b815260040161057b939291906159de565b60206040518083038187803b15801561059357600080fd5b5086fa935050505080156105e2575060408051601f3d9081017fffffffffffffffffffffffffffffffffffffffffffffffffffffffffffffffe01682019092526105df9181019061517e565b60015b610636573d808015610610576040519150601f19603f3d011682016040523d82523d6000602084013e610615565b606091505b50600083838151811061062457fe5b60200260200101818152505050610651565b8083838151811061064357fe5b602002602001018181525050505b60010161050c565b509392505050565b803b15155b919050565b60606106778385612a38565b81518067ffffffffffffffff8111801561069057600080fd5b506040519080825280602002602001820160405280156106ba578160200160208202803683370190505b509150600073ffffffffffffffffffffffffffffffffffffffff8616156106ea576106e58787612aab565b6106ed565b60005b9050600073ffffffffffffffffffffffffffffffffffffffff86161561071c576107178887612aab565b61071f565b60005b905060005b8381101561088357600173ffffffffffffffffffffffffffffffffffffffff881661078f5761076e84632640f62c60e01b89858151811061076157fe5b6020026020010151612b50565b87848151811061077a57fe5b6020026020010181935082815250505061084f565b73ffffffffffffffffffffffffffffffffffffffff89166107c25761076e836359e9486260e01b89858151811061076157fe5b60006107dc846359e9486260e01b8a868151811061076157fe5b92509050801561083257610811857f2640f62c0000000000000000000000000000000000000000000000000000000083612b50565b88858151811061081d57fe5b6020026020010181945082815250505061084d565b600087848151811061084057fe5b6020026020010181815250505b505b80158061086f575085828151811061086357fe5b60200260200101516000145b1561087a5750610883565b50600101610724565b50505050949350505050565b606061089b8385612a38565b81518067ffffffffffffffff811180156108b457600080fd5b506040519080825280602002602001820160405280156108de578160200160208202803683370190505b50915060005b81811015610a25578673ffffffffffffffffffffffffffffffffffffffff166372ea9076620c3500888888868151811061091a57fe5b60200260200101516040518563ffffffff1660e01b815260040161094093929190615557565b60206040518083038187803b15801561095857600080fd5b5086fa935050505080156109a7575060408051601f3d9081017fffffffffffffffffffffffffffffffffffffffffffffffffffffffffffffffe01682019092526109a49181019061517e565b60015b6109e1573d8080156109d5576040519150601f19603f3d011682016040523d82523d6000602084013e6109da565b606091505b5050610a25565b808483815181106109ee57fe5b602002602001018181525050838281518110610a0657fe5b602002602001015160001415610a1c5750610a25565b506001016108e4565b5050949350505050565b80516060908067ffffffffffffffff81118015610a4b57600080fd5b50604051908082528060200260200182016040528015610a75578160200160208202803683370190505b50915060005b81811015610bd6578573ffffffffffffffffffffffffffffffffffffffff1663d06ca61f620249f0868481518110610aaf57fe5b6020026020010151886040518463ffffffff1660e01b8152600401610ad5929190615a29565b60006040518083038187803b158015610aed57600080fd5b5086fa93505050508015610b4157506040513d6000823e601f3d9081017fffffffffffffffffffffffffffffffffffffffffffffffffffffffffffffffe0168201604052610b3e9190810190614e09565b60015b610b7b573d808015610b6f576040519150601f19603f3d011682016040523d82523d6000602084013e610b74565b606091505b5050610bd6565b80600187510381518110610b8b57fe5b6020026020010151848381518110610b9f57fe5b602002602001018181525050838281518110610bb757fe5b602002602001015160001415610bcd5750610bd6565b50600101610a7b565b50509392505050565b80516060908067ffffffffffffffff81118015610bfb57600080fd5b50604051908082528060200260200182016040528015610c25578160200160208202803683370190505b50915060005b81811015610a255760006060886000015173ffffffffffffffffffffffffffffffffffffffff16621e84808a602001518a8a8a8881518110610c6957fe5b6020026020010151604051602401610c8393929190615809565b604080517fffffffffffffffffffffffffffffffffffffffffffffffffffffffffffffffe08184030181529181526020820180517bffffffffffffffffffffffffffffffffffffffffffffffffffffffff167fffffffff00000000000000000000000000000000000000000000000000000000909416939093179092529051610d0c91906154b2565b6000604051808303818686fa925050503d8060008114610d48576040519150601f19603f3d011682016040523d82523d6000602084013e610d4d565b606091505b509150915060008215610d715781806020019051810190610d6e919061517e565b90505b80868581518110610d7e57fe5b602002602001018181525050858481518110610d9657fe5b602002602001015160001415610dae57505050610a25565b505050600101610c2b565b4390565b60005a905090565b606080606080610ded878787600189510381518110610de057fe5b6020026020010151612c99565b9050845167ffffffffffffffff81118015610e0757600080fd5b50604051908082528060200260200182016040528015610e31578160200160208202803683370190505b509150845167ffffffffffffffff81118015610e4c57600080fd5b50604051908082528060200260200182016040528015610e8057816020015b6060815260200190600190039081610e6b5790505b509350845167ffffffffffffffff81118015610e9b57600080fd5b50604051908082528060200260200182016040528015610ec5578160200160208202803683370190505b50925060005b85518110156110a9576000805b835181101561103b57610efd848281518110610ef057fe5b6020026020010151612cfe565b610f0657611033565b6060610f258a868481518110610f1857fe5b6020026020010151612d6e565b90508a73ffffffffffffffffffffffffffffffffffffffff1663cdca1753620aae60838c8881518110610f5457fe5b60200260200101516040518463ffffffff1660e01b8152600401610f79929190615782565b600060405180830381600088803b158015610f9357600080fd5b5087f193505050508015610fe757506040513d6000823e601f3d9081017fffffffffffffffffffffffffffffffffffffffffffffffffffffffffffffffe0168201604052610fe49190810190615196565b60015b610ff057611031565b83871161102c57839650848c898151811061100757fe5b6020026020010181905250808b898151811061101f57fe5b6020026020010181815250505b505050505b505b600101610ed8565b5080611088576040518060200160405280600081525086838151811061105d57fe5b6020026020010181905250600085838151811061107657fe5b602002602001018181525050506110a9565b8084838151811061109557fe5b602090810291909101015250600101610ecb565b505093509350939050565b6060806060806110c386612ef9565b905060606110dc88838860018a510381518110610de057fe5b9050855167ffffffffffffffff811180156110f657600080fd5b50604051908082528060200260200182016040528015611120578160200160208202803683370190505b509250855167ffffffffffffffff8111801561113b57600080fd5b5060405190808252806020026020018201604052801561116f57816020015b606081526020019060019003908161115a5790505b509450855167ffffffffffffffff8111801561118a57600080fd5b506040519080825280602002602001820160405280156111b4578160200160208202803683370190505b50935060005b86518110156113ad576000805b835181101561133f576111df848281518110610ef057fe5b6111e857611337565b60606111fa86868481518110610f1857fe5b90508b73ffffffffffffffffffffffffffffffffffffffff16632f80bb1d620aae60838d888151811061122957fe5b60200260200101516040518463ffffffff1660e01b815260040161124e929190615782565b600060405180830381600088803b15801561126857600080fd5b5087f1935050505080156112bc57506040513d6000823e601f3d9081017fffffffffffffffffffffffffffffffffffffffffffffffffffffffffffffffe01682016040526112b99190810190615196565b60015b6112c557611335565b8615806112d25750838710155b15611330578396506112ff8f6112fa8b89815181106112ed57fe5b6020026020010151612f9f565b612d6e565b8d898151811061130b57fe5b6020026020010181905250808c898151811061132357fe5b6020026020010181815250505b505050505b505b6001016111c7565b508061138c576040518060200160405280600081525087838151811061136157fe5b6020026020010181905250600086838151811061137a57fe5b602002602001018181525050506113ad565b8085838151811061139957fe5b6020908102919091010152506001016111ba565b50505093509350939050565b60606113c68484846104c2565b905060005b8451811015610659578181815181106113e057fe5b60200260200101516000146114785761145f8282815181106113fe57fe5b602002602001015186838151811061141257fe5b6020026020010151606001516fffffffffffffffffffffffffffffffff1687848151811061143c57fe5b6020026020010151604001516fffffffffffffffffffffffffffffffff16613045565b82828151811061146b57fe5b6020026020010181815250505b6001016113cb565b60608167ffffffffffffffff8111801561149957600080fd5b506040519080825280602002602001820160405280156114d357816020015b6114c0614504565b8152602001906001900390816114b85790505b50905060005b8083146115db5760018282815181106114ee57fe5b60209081029190910181015191151591015283838281811061150c57fe5b905060200281019061151e9190615a8c565b1515905061152b576115d3565b3084848381811061153857fe5b905060200281019061154a9190615a8c565b6040516115589291906154a2565b6000604051808303816000865af19150503d8060008114611595576040519150601f19603f3d011682016040523d82523d6000602084013e61159a565b606091505b508383815181106115a757fe5b60200260200101516020018484815181106115be57fe5b60209081029190910101519190915290151590525b6001016114d9565b5092915050565b6060815167ffffffffffffffff811180156115fc57600080fd5b50604051908082528060200260200182016040528015611626578160200160208202803683370190505b50905060005b825181146116f6577f000000000000000000000000000000000000000000000000000000000000000073ffffffffffffffffffffffffffffffffffffffff1683828151811061167757fe5b602002602001015173ffffffffffffffffffffffffffffffffffffffff16146116d1576116cc8382815181106116a957fe5b602002602001015173ffffffffffffffffffffffffffffffffffffffff1661306f565b6116d4565b60125b60ff168282815181106116e357fe5b602090810291909101015260010161162c565b50919050565b6040805160028082526060828101909352816020015b606081526020019060019003908161171257905050905061173161451c565b6117e3858673ffffffffffffffffffffffffffffffffffffffff1663c45a01556040518163ffffffff1660e01b815260040160206040518083038186803b15801561177b57600080fd5b505afa15801561178f573d6000803e3d6000fd5b505050506040513d601f19601f820116820180604052508101906117b391906149e2565b866000815181106117c057fe5b6020026020010151876001815181106117d557fe5b602002602001015187613141565b5090506000805b600281101561189257600083826002811061180157fe5b60200201516040805160018082528183019092529192508160200160208202803683370190505085848151811061183457fe5b60200260200101819052508085848151811061184c57fe5b602002602001015160008151811061186057fe5b73ffffffffffffffffffffffffffffffffffffffff9092166020928302919091019091015250600191820191016117ea565b5050509392505050565b6118a461453a565b6118ac61453a565b60608367ffffffffffffffff811180156118c557600080fd5b506040519080825280602002602001820160405280156118ef578160200160208202803683370190505b50905060608467ffffffffffffffff8111801561190b57600080fd5b50604051908082528060200260200182016040528015611935578160200160208202803683370190505b50905060005b8751811015611a6557600060603073ffffffffffffffffffffffffffffffffffffffff168a848151811061196b57fe5b602002602001015160405161198091906154b2565b6000604051808303816000865af19150503d80600081146119bd576040519150601f19603f3d011682016040523d82523d6000602084013e6119c2565b606091505b50915091508115611a5b5760606119d9828a6134af565b90508460018a03815181106119ea57fe5b60200260200101518160018b0381518110611a0157fe5b60200260200101511115611a59578388526020880182905260005b89811015611a5757818181518110611a3057fe5b6020026020010151868281518110611a4457fe5b6020908102919091010152600101611a1c565b505b505b505060010161193b565b50806001860381518110611a7557fe5b602002602001015160001415611a8b5750611bd5565b60005b86518110156110a957611ab4878281518110611aa657fe5b6020026020010151836134f9565b600060603073ffffffffffffffffffffffffffffffffffffffff16898481518110611adb57fe5b6020026020010151604051611af091906154b2565b6000604051808303816000865af19150503d8060008114611b2d576040519150601f19603f3d011682016040523d82523d6000602084013e611b32565b606091505b50915091508115611bcb576060611b49828a6134af565b90508560018a0381518110611b5a57fe5b60200260200101518160018b0381518110611b7157fe5b60200260200101511115611bc9578387526020870182905260005b89811015611bc757818181518110611ba057fe5b6020026020010151878281518110611bb457fe5b6020908102919091010152600101611b8c565b505b505b5050600101611a8e565b93509350939050565b60408401516060907fffffffff0000000000000000000000000000000000000000000000000000000016611c78576040805160608101909152611c719080611c2a868960808401615827565b60405160208183030381529060405281526020018688604051602001611c51929190615827565b6040516020818303038152906040528152602001613544815250836136db565b9050611e4f565b81518067ffffffffffffffff81118015611c9157600080fd5b50604051908082528060200260200182016040528015611cbb578160200160208202803683370190505b50915060005b81811015610a255760006060886000015173ffffffffffffffffffffffffffffffffffffffff16621e84808a604001518a8a8a8881518110611cff57fe5b6020026020010151604051602401611d1993929190615809565b604080517fffffffffffffffffffffffffffffffffffffffffffffffffffffffffffffffe08184030181529181526020820180517bffffffffffffffffffffffffffffffffffffffffffffffffffffffff167fffffffff00000000000000000000000000000000000000000000000000000000909416939093179092529051611da291906154b2565b6000604051808303818686fa925050503d8060008114611dde576040519150601f19603f3d011682016040523d82523d6000602084013e611de3565b606091505b509150915060008215611e075781806020019051810190611e04919061517e565b90505b80868581518110611e1457fe5b602002602001018181525050858481518110611e2c57fe5b602002602001015160001415611e4457505050610a25565b505050600101611cc1565b949350505050565b60008083516003811115611e6757fe5b1480611e7f5750600183516003811115611e7d57fe5b145b80611e9e575060408401516fffffffffffffffffffffffffffffffff16155b80611ebd575060608401516fffffffffffffffffffffffffffffffff16155b15611eca57506000611fcc565b611ed2614554565b6000808473ffffffffffffffffffffffffffffffffffffffff16631fb0979588886040518363ffffffff1660e01b8152600401611f109291906159c1565b60a06040518083038186803b158015611f2857600080fd5b505afa158015611f3c573d6000803e3d6000fd5b505050506040513d601f19601f82011682018060405250810190611f6091906150db565b91945092509050600183602001516004811115611f7957fe5b141580611f84575080155b80611fa45750865173ffffffffffffffffffffffffffffffffffffffff16155b15611fb55760009350505050611fcc565b506fffffffffffffffffffffffffffffffff169150505b9392505050565b6040805160608181019092526120399080611ff28689608084016154ef565b604051602081830303815290604052815260200186886040516020016120199291906154ef565b60405160208183030381529060405281526020016138ee815250836136db565b95945050505050565b6060825167ffffffffffffffff8111801561205c57600080fd5b50604051908082528060200260200182016040528015612086578160200160208202803683370190505b50905060005b835181146115db577f000000000000000000000000000000000000000000000000000000000000000073ffffffffffffffffffffffffffffffffffffffff168482815181106120d757fe5b602002602001015173ffffffffffffffffffffffffffffffffffffffff161461213b576121368385838151811061210a57fe5b602002602001015173ffffffffffffffffffffffffffffffffffffffff16613a2090919063ffffffff16565b612154565b8273ffffffffffffffffffffffffffffffffffffffff16315b82828151811061216057fe5b602090810291909101015260010161208c565b606061217f8385612a38565b81518067ffffffffffffffff8111801561219857600080fd5b506040519080825280602002602001820160405280156121c2578160200160208202803683370190505b509150600073ffffffffffffffffffffffffffffffffffffffff8616156121f2576121ed8787612aab565b6121f5565b60005b9050600073ffffffffffffffffffffffffffffffffffffffff8616156122245761221f8887612aab565b612227565b60005b905060005b8381101561088357600173ffffffffffffffffffffffffffffffffffffffff881661228a57612269846395b68fe760e01b89858151811061076157fe5b87848151811061227557fe5b6020026020010181935082815250505061234a565b73ffffffffffffffffffffffffffffffffffffffff89166122bd576122698363cd7724c360e01b89858151811061076157fe5b60006122d7856395b68fe760e01b8a868151811061076157fe5b92509050801561232d5761230c847fcd7724c30000000000000000000000000000000000000000000000000000000083612b50565b88858151811061231857fe5b60200260200101819450828152505050612348565b600087848151811061233b57fe5b6020026020010181815250505b505b80158061236a575085828151811061235e57fe5b60200260200101516000145b156123755750610883565b5060010161222c565b80516060908067ffffffffffffffff8111801561239a57600080fd5b506040519080825280602002602001820160405280156123c4578160200160208202803683370190505b50915060005b81811015610bd6578573ffffffffffffffffffffffffffffffffffffffff16631f00ca74620249f08684815181106123fe57fe5b6020026020010151886040518463ffffffff1660e01b8152600401612424929190615a29565b60006040518083038187803b15801561243c57600080fd5b5086fa9350505050801561249057506040513d6000823e601f3d9081017fffffffffffffffffffffffffffffffffffffffffffffffffffffffffffffffe016820160405261248d9190810190614e09565b60015b6124be573d808015610b6f576040519150601f19603f3d011682016040523d82523d6000602084013e610b74565b806000815181106124cb57fe5b60200260200101518483815181106124df57fe5b6020026020010181815250508382815181106124f757fe5b60200260200101516000141561250d5750610bd6565b506001016123ca565b6060835167ffffffffffffffff8111801561253057600080fd5b5060405190808252806020026020018201604052801561255a578160200160208202803683370190505b50905060005b84518114610659577f000000000000000000000000000000000000000000000000000000000000000073ffffffffffffffffffffffffffffffffffffffff168582815181106125ab57fe5b602002602001015173ffffffffffffffffffffffffffffffffffffffff16146126115761260c84848784815181106125df57fe5b602002602001015173ffffffffffffffffffffffffffffffffffffffff16613b429092919063ffffffff16565b612614565b60005b82828151811061262057fe5b6020908102919091010152600101612560565b61263b61453a565b61264361453a565b60608367ffffffffffffffff8111801561265c57600080fd5b50604051908082528060200260200182016040528015612686578160200160208202803683370190505b50905060005b848110156126d4577fffffffffffffffffffffffffffffffffffffffffffffffffffffffffffffffff8282815181106126c157fe5b602090810291909101015260010161268c565b5060608467ffffffffffffffff811180156126ee57600080fd5b50604051908082528060200260200182016040528015612718578160200160208202803683370190505b50905060005b85811015612766577fffffffffffffffffffffffffffffffffffffffffffffffffffffffffffffffff82828151811061275357fe5b602090810291909101015260010161271e565b5060005b86518110156128a657600060603073ffffffffffffffffffffffffffffffffffffffff1689848151811061279a57fe5b60200260200101516040516127af91906154b2565b6000604051808303816000865af19150503d80600081146127ec576040519150601f19603f3d011682016040523d82523d6000602084013e6127f1565b606091505b5091509150811561289c576060612808828a6134af565b905060008160018b038151811061281b57fe5b6020026020010151905060008111801561284a57508560018b038151811061283f57fe5b602002602001015181105b15612899578488526020880183905260005b8a8110156128975782818151811061287057fe5b602002602001015187828151811061288457fe5b602090810291909101015260010161285c565b505b50505b505060010161276a565b507fffffffffffffffffffffffffffffffffffffffffffffffffffffffffffffffff8160018703815181106128d757fe5b602002602001015114156128eb5750611bd5565b60005b875181146110a957612905888281518110611aa657fe5b600060603073ffffffffffffffffffffffffffffffffffffffff168a848151811061292c57fe5b602002602001015160405161294191906154b2565b6000604051808303816000865af19150503d806000811461297e576040519150601f19603f3d011682016040523d82523d6000602084013e612983565b606091505b50915091508115612a2e57606061299a828a6134af565b905060008160018b03815181106129ad57fe5b602002602001015190506000811180156129dc57508660018b03815181106129d157fe5b602002602001015181105b15612a2b578489526020890183905260005b8a811015612a2957828181518110612a0257fe5b6020026020010151888281518110612a1657fe5b60209081029190910101526001016129ee565b505b50505b50506001016128ee565b8073ffffffffffffffffffffffffffffffffffffffff168273ffffffffffffffffffffffffffffffffffffffff161415612aa7576040517f08c379a0000000000000000000000000000000000000000000000000000000008152600401612a9e9061583f565b60405180910390fd5b5050565b6040517f06f2bf6200000000000000000000000000000000000000000000000000000000815260009073ffffffffffffffffffffffffffffffffffffffff8416906306f2bf6290612b009085906004016154ce565b60206040518083038186803b158015612b1857600080fd5b505afa158015612b2c573d6000803e3d6000fd5b505050506040513d601f19601f82011682018060405250810190611fcc91906149e2565b60008073ffffffffffffffffffffffffffffffffffffffff8516612b7357612c91565b60608573ffffffffffffffffffffffffffffffffffffffff16620249f08686604051602401612ba29190615a20565b604080517fffffffffffffffffffffffffffffffffffffffffffffffffffffffffffffffe08184030181529181526020820180517bffffffffffffffffffffffffffffffffffffffffffffffffffffffff167fffffffff00000000000000000000000000000000000000000000000000000000909416939093179092529051612c2b91906154b2565b6000604051808303818686fa925050503d8060008114612c67576040519150601f19603f3d011682016040523d82523d6000602084013e612c6c565b606091505b5090925090508115612c8f5780806020019051810190612c8c919061517e565b92505b505b935093915050565b6060825160021415612cb757612cb08484846116fc565b9050611fcc565b825160031415612ccc57612cb0848484613c70565b6040517f08c379a0000000000000000000000000000000000000000000000000000000008152600401612a9e906158f9565b6000805b8251811015612d6557600073ffffffffffffffffffffffffffffffffffffffff16838281518110612d2f57fe5b602002602001015173ffffffffffffffffffffffffffffffffffffffff161415612d5d576000915050610666565b600101612d02565b50600192915050565b60606002835110158015612d86575081516001018351145b612dbc576040517f08c379a0000000000000000000000000000000000000000000000000000000008152600401612a9e9061589c565b815160030283516014020167ffffffffffffffff81118015612ddd57600080fd5b506040519080825280601f01601f191660200182016040528015612e08576020820181803683370190505b5090506020810160005b8451811015612ef1578015612ec4576000846001830381518110612e3257fe5b602002602001015173ffffffffffffffffffffffffffffffffffffffff1663ddca3f436040518163ffffffff1660e01b815260040160206040518083038186803b158015612e7f57600080fd5b505afa158015612e93573d6000803e3d6000fd5b505050506040513d601f19601f82011682018060405250810190612eb7919061515b565b60e81b8352506003909101905b6000858281518110612ed257fe5b602090810291909101015160601b835250601490910190600101612e12565b505092915050565b6060815167ffffffffffffffff81118015612f1357600080fd5b50604051908082528060200260200182016040528015612f3d578160200160208202803683370190505b50905060005b82518110156116f657826001828551030381518110612f5e57fe5b6020026020010151828281518110612f7257fe5b73ffffffffffffffffffffffffffffffffffffffff90921660209283029190910190910152600101612f43565b6060815167ffffffffffffffff81118015612fb957600080fd5b50604051908082528060200260200182016040528015612fe3578160200160208202803683370190505b50905060005b82518110156116f65782600182855103038151811061300457fe5b602002602001015182828151811061301857fe5b73ffffffffffffffffffffffffffffffffffffffff90921660209283029190910190910152600101612fe9565b6000611e4f83613069613059826001613edf565b6130638887613f03565b90613f34565b90613f50565b600060129050600060608373ffffffffffffffffffffffffffffffffffffffff166040518060400160405280600481526020017f313ce567000000000000000000000000000000000000000000000000000000008152506040516130d391906154b2565b600060405180830381855afa9150503d806000811461310e576040519150601f19603f3d011682016040523d82523d6000602084013e613113565b606091505b509150915081801561312757506020815110155b1561313a57613137816000613f7a565b92505b5050919050565b61314961451c565b61315161451c565b6040805160028082526060808301845292602083019080368337019050509050858160008151811061317f57fe5b602002602001019073ffffffffffffffffffffffffffffffffffffffff16908173ffffffffffffffffffffffffffffffffffffffff168152505084816001815181106131c757fe5b602002602001019073ffffffffffffffffffffffffffffffffffffffff16908173ffffffffffffffffffffffffffffffffffffffff1681525050613209614576565b5060408051608081018252606481526101f46020820152610bb891810191909152612710606082015260005b60048110156134a25760008973ffffffffffffffffffffffffffffffffffffffff16631698ee828a8a86866004811061326a57fe5b60200201516040518463ffffffff1660e01b815260040161328d939291906157a4565b60206040518083038186803b1580156132a557600080fd5b505afa1580156132b9573d6000803e3d6000fd5b505050506040513d601f19601f820116820180604052508101906132dd91906149e2565b90506132e881613f86565b6132f2575061349a565b60408051600180825281830190925260609160208083019080368337019050509050818160008151811061332257fe5b602002602001019073ffffffffffffffffffffffffffffffffffffffff16908173ffffffffffffffffffffffffffffffffffffffff168152505060606133688683612d6e565b90508c73ffffffffffffffffffffffffffffffffffffffff1663cdca1753620aae60838c6040518463ffffffff1660e01b81526004016133a9929190615782565b600060405180830381600088803b1580156133c357600080fd5b5087f19350505050801561341757506040513d6000823e601f3d9081017fffffffffffffffffffffffffffffffffffffffffffffffffffffffffffffffe01682016040526134149190810190615196565b60015b61342057613496565b8a51841115613461578a516020808d01919091528c5173ffffffffffffffffffffffffffffffffffffffff908116918e0191909152848c5287168c52613491565b60208b0151841115613491576020808c0185905273ffffffffffffffffffffffffffffffffffffffff8816908d01525b505050505b5050505b600101613235565b5050509550959350505050565b815160609060206002840102810390826134ca8684846141c6565b90506134d9816000602061425d565b808060200190518101906134ed9190614e09565b93505050505b92915050565b60005b815181101561353f576000600182845103036020028451039050600083838151811061352457fe5b602090810291909101015191850191909152506001016134fc565b505050565b60008061354f614594565b858060200190518101906135639190614f64565b9150915060008580602001905181019061357d9190614f48565b905060006060307f40bc03ae000000000000000000000000000000000000000000000000000000008587866135b18c614268565b6040516024016135c49493929190615956565b604080517fffffffffffffffffffffffffffffffffffffffffffffffffffffffffffffffe08184030181529181526020820180517bffffffffffffffffffffffffffffffffffffffffffffffffffffffff167fffffffff0000000000000000000000000000000000000000000000000000000090941693909317909252905161364d91906154b2565b600060405180830381855afa9150503d8060008114613688576040519150601f19603f3d011682016040523d82523d6000602084013e61368d565b606091505b5091509150816136a557600095505050505050611fcc565b808060200190518101906136b99190614e09565b6000815181106136c557fe5b6020026020010151955050505050509392505050565b6060815167ffffffffffffffff811180156136f557600080fd5b5060405190808252806020026020018201604052801561371f578160200160208202803683370190505b509050815160001415613731576134f3565b6000613762846000015185602001518560008151811061374d57fe5b6020026020010151876040015163ffffffff16565b90508061376f57506134f3565b600061378c8560200151866000015184886040015163ffffffff16565b90508061379a5750506134f3565b60005b84518110156138e5576000805b600581101561388e576137d18784815181106137c257fe5b602002602001015185876142a9565b9450846137dd5761388e565b6137ec612715612710876142a9565b9450846137f85761388e565b600061381589602001518a60000151888c6040015163ffffffff16565b905080613822575061388e565b80945087848151811061383157fe5b602002602001015185106138855787848151811061384b57fe5b602002602001015161271089868151811061386257fe5b60200260200101518703028161387457fe5b04925060058311613885575061388e565b506001016137aa565b5080158061389c5750600581115b156138a757506138e5565b6138c58683815181106138b657fe5b602002602001015184866142a9565b8583815181106138d157fe5b60209081029190910101525060010161379d565b50505092915050565b60008060008580602001905181019061390791906149fe565b9150915060008580602001905181019061392191906149e2565b9050306330d6570d8385846139358a614268565b6040518563ffffffff1660e01b81526004016139549493929190615516565b60006040518083038186803b15801561396c57600080fd5b505afa9250505080156139bf57506040513d6000823e601f3d9081017fffffffffffffffffffffffffffffffffffffffffffffffffffffffffffffffe01682016040526139bc9190810190614e09565b60015b613a00573d8080156139ed576040519150601f19603f3d011682016040523d82523d6000602084013e6139f2565b606091505b506000945050505050611fcc565b80600081518110613a0d57fe5b6020026020010151945050505050611fcc565b60008060608473ffffffffffffffffffffffffffffffffffffffff166370a0823160e01b85604051602401613a5591906154ce565b604080517fffffffffffffffffffffffffffffffffffffffffffffffffffffffffffffffe08184030181529181526020820180517bffffffffffffffffffffffffffffffffffffffffffffffffffffffff167fffffffff00000000000000000000000000000000000000000000000000000000909416939093179092529051613ade91906154b2565b600060405180830381855afa9150503d8060008114613b19576040519150601f19603f3d011682016040523d82523d6000602084013e613b1e565b606091505b5091509150818015613b3257506020815110155b15612ef157612039816000613f7a565b60008060608573ffffffffffffffffffffffffffffffffffffffff1663dd62ed3e60e01b8686604051602401613b799291906154ef565b604080517fffffffffffffffffffffffffffffffffffffffffffffffffffffffffffffffe08184030181529181526020820180517bffffffffffffffffffffffffffffffffffffffffffffffffffffffff167fffffffff00000000000000000000000000000000000000000000000000000000909416939093179092529051613c0291906154b2565b600060405180830381855afa9150503d8060008114613c3d576040519150601f19603f3d011682016040523d82523d6000602084013e613c42565b606091505b5091509150818015613c5657506020815110155b15610bd657613c66816000613f7a565b9695505050505050565b606060008473ffffffffffffffffffffffffffffffffffffffff1663c45a01556040518163ffffffff1660e01b815260040160206040518083038186803b158015613cba57600080fd5b505afa158015613cce573d6000803e3d6000fd5b505050506040513d601f19601f82011682018060405250810190613cf291906149e2565b60408051600480825260a08201909252919250816020015b6060815260200190600190039081613d0a579050509150613d2961451c565b613d3161451c565b613d66878488600081518110613d4357fe5b602002602001015189600181518110613d5857fe5b602002602001015189613141565b91509150613d7261451c565b613db8888589600181518110613d8457fe5b60200260200101518a600281518110613d9957fe5b602002602001015186600060028110613dae57fe5b6020020151613141565b5090506000805b6002811015613ed25760005b6002811015613ec957604080516002808252606082018352909160208301908036833701905050888481518110613dfe57fe5b60200260200101819052506060888481518110613e1757fe5b60200260200101519050868360028110613e2d57fe5b602002015181600081518110613e3f57fe5b602002602001019073ffffffffffffffffffffffffffffffffffffffff16908173ffffffffffffffffffffffffffffffffffffffff1681525050848260028110613e8557fe5b602002015181600181518110613e9757fe5b73ffffffffffffffffffffffffffffffffffffffff909216602092830291909101909101525060019283019201613dcb565b50600101613dbf565b5050505050509392505050565b600082821115613efd57613efd613ef860028585614301565b6143a6565b50900390565b600082613f12575060006134f3565b82820282848281613f1f57fe5b0414611fcc57611fcc613ef860018686614301565b600082820183811015611fcc57611fcc613ef860008686614301565b600081613f6657613f66613ef860038585614301565b6000828481613f7157fe5b04949350505050565b6000611fcc83836143ae565b6000813b80613f99576000915050610666565b508173ffffffffffffffffffffffffffffffffffffffff16630dfe16816040518163ffffffff1660e01b815260040160206040518083038186803b158015613fe057600080fd5b505afa158015613ff4573d6000803e3d6000fd5b505050506040513d601f19601f8201168201806040525081019061401891906149e2565b73ffffffffffffffffffffffffffffffffffffffff166370a08231836040518263ffffffff1660e01b815260040161405091906154ce565b60206040518083038186803b15801561406857600080fd5b505afa15801561407c573d6000803e3d6000fd5b505050506040513d601f19601f820116820180604052508101906140a0919061517e565b6140ac57506000610666565b8173ffffffffffffffffffffffffffffffffffffffff1663d21220a76040518163ffffffff1660e01b815260040160206040518083038186803b1580156140f257600080fd5b505afa158015614106573d6000803e3d6000fd5b505050506040513d601f19601f8201168201806040525081019061412a91906149e2565b73ffffffffffffffffffffffffffffffffffffffff166370a08231836040518263ffffffff1660e01b815260040161416291906154ce565b60206040518083038186803b15801561417a57600080fd5b505afa15801561418e573d6000803e3d6000fd5b505050506040513d601f19601f820116820180604052508101906141b2919061517e565b6141be57506000610666565b506001919050565b6060818311156141df576141df613ef8600085856143d8565b83518211156141f8576141f8613ef860018487516143d8565b82820367ffffffffffffffff8111801561421157600080fd5b506040519080825280601f01601f19166020018201604052801561423c576020820181803683370190505b509050611fcc61424b826143f7565b84614255876143f7565b0183516143fd565b61353f8383836144dd565b60408051600180825281830190925260609160208083019080368337019050509050818160008151811061429857fe5b602002602001018181525050919050565b60008315806142b6575081155b806142bf575082155b156142cc57506000611fcc565b838202828582816142d957fe5b04146142e9576000915050611fcc565b83600185038201816142f757fe5b0495945050505050565b606063e946c1bb60e01b848484604051602401614320939291906157d9565b604080517fffffffffffffffffffffffffffffffffffffffffffffffffffffffffffffffe08184030181529190526020810180517bffffffffffffffffffffffffffffffffffffffffffffffffffffffff167fffffffff000000000000000000000000000000000000000000000000000000009093169290921790915290509392505050565b805160208201fd5b600081602001835110156143cf576143cf613ef860058551856020016143d8565b50016020015190565b6060632800659560e01b848484604051602401614320939291906157fb565b60200190565b6020811015614444578151835160208390036101000a7fffffffffffffffffffffffffffffffffffffffffffffffffffffffffffffffff018019909216911617835261353f565b828214156144515761353f565b8282111561448b5760208103905080820181840181515b82851015614483578451865260209586019590940193614468565b90525061353f565b60208103905080820181840183515b818612156144d457825182527fffffffffffffffffffffffffffffffffffffffffffffffffffffffffffffffe0928301929091019061449a565b85525050505050565b81602001835110156144fc576144fc613ef860058551856020016143d8565b910160200152565b60408051808201909152606081526000602082015290565b60405180604001604052806002906020820280368337509192915050565b604051806040016040528060008152602001606081525090565b6040805160608101909152600080825260208201908152600060209091015290565b60405180608001604052806004906020820280368337509192915050565b604080516060810182526000808252602082018190529181019190915290565b80356134f381615b86565b6000601f83818401126145d0578182fd5b82356145e36145de82615b1d565b615af6565b818152925060208084019085810160005b84811015614694578135880189603f82011261460f57600080fd5b8381013567ffffffffffffffff81111561462857600080fd5b614657857fffffffffffffffffffffffffffffffffffffffffffffffffffffffffffffffe08a84011601615af6565b81815260408c8184860101111561466d57600080fd5b828185018884013750600091810186019190915285525092820192908201906001016145f4565b50505050505092915050565b600082601f8301126146b0578081fd5b81356146be6145de82615b1d565b8181529150602080830190848101818402860182018710156146df57600080fd5b60005b848110156147075781356146f581615b86565b845292820192908201906001016146e2565b505050505092915050565b600082601f830112614722578081fd5b81356147306145de82615b1d565b818152915060208083019084810160808085028701830188101561475357600080fd5b60005b85811015614694576147688984614935565b85529383019391810191600101614756565b600082601f83011261478a578081fd5b81356147986145de82615b1d565b8181529150602080830190848101818402860182018710156147b957600080fd5b60005b84811015614707578135845292820192908201906001016147bc565b600082601f8301126147e8578081fd5b81516147f66145de82615b1d565b81815291506020808301908481018184028601820187101561481757600080fd5b6000805b8581101561469457825163ffffffff81168114614836578283fd5b8552938301939183019160010161481b565b600061018080838503121561485b578182fd5b61486481615af6565b91505061487183836145b4565b815261488083602084016145b4565b60208201526148928360408401614998565b60408201526148a48360608401614998565b60608201526148b68360808401614998565b60808201526148c88360a084016145b4565b60a08201526148da8360c084016145b4565b60c08201526148ec8360e084016145b4565b60e0820152610100614900848285016145b4565b90820152610120828101359082015261014061491e848285016149ae565b818301525061016080830135818301525092915050565b600060808284031215614946578081fd5b6149506080615af6565b905081356004811061496157600080fd5b8152602082013560ff8116811461497757600080fd5b80602083015250604082013560408201526060820135606082015292915050565b80356134f381615be8565b80516134f381615b86565b803567ffffffffffffffff811681146134f357600080fd5b6000602082840312156149d7578081fd5b8135611fcc81615b86565b6000602082840312156149f3578081fd5b8151611fcc81615b86565b60008060408385031215614a10578081fd5b8251614a1b81615b86565b6020840151909250614a2c81615b86565b809150509250929050565b60008060008060808587031215614a4c578182fd5b8435614a5781615b86565b93506020850135614a6781615b86565b92506040850135614a7781615b86565b9150606085013567ffffffffffffffff811115614a92578182fd5b614a9e8782880161477a565b91505092959194509250565b600080600060608486031215614abe578081fd5b8335614ac981615b86565b925060208481013567ffffffffffffffff80821115614ae6578384fd5b818701915087601f830112614af9578384fd5b8135614b076145de82615b1d565b81815284810190848601868402860187018c1015614b23578788fd5b8795505b83861015614b4d57614b398c826145b4565b835260019590950194918601918601614b27565b50965050506040870135925080831115614b65578384fd5b5050614b738682870161477a565b9150509250925092565b60008060208385031215614b8f578182fd5b823567ffffffffffffffff80821115614ba6578384fd5b818501915085601f830112614bb9578384fd5b813581811115614bc7578485fd5b8660208083028501011115614bda578485fd5b60209290920196919550909350505050565b600080600060608486031215614c00578081fd5b833567ffffffffffffffff80821115614c17578283fd5b614c23878388016145bf565b94506020860135915080821115614c38578283fd5b50614c45868287016145bf565b925050604084013590509250925092565b600060208284031215614c67578081fd5b813567ffffffffffffffff811115614c7d578182fd5b611e4f848285016146a0565b60008060408385031215614c9b578182fd5b823567ffffffffffffffff811115614cb1578283fd5b614cbd858286016146a0565b9250506020830135614a2c81615b86565b600080600060608486031215614ce2578081fd5b833567ffffffffffffffff811115614cf8578182fd5b614d04868287016146a0565b9350506020840135614d1581615b86565b91506040840135614d2581615b86565b809150509250925092565b600080600060608486031215614d44578081fd5b833567ffffffffffffffff80821115614d5b578283fd5b818601915086601f830112614d6e578283fd5b8135614d7c6145de82615b1d565b80828252602080830192508086016101808c838288028a01011115614d9f578889fd5b8897505b85881015614dcb57614db58d83614848565b8552600197909701969382019390810190614da3565b50919850890135945050505080821115614de3578283fd5b50614df086828701614712565b925050614e0085604086016145b4565b90509250925092565b60006020808385031215614e1b578182fd5b825167ffffffffffffffff811115614e31578283fd5b8301601f81018513614e41578283fd5b8051614e4f6145de82615b1d565b8181528381019083850185840285018601891015614e6b578687fd5b8694505b83851015614e8d578051835260019490940193918501918501614e6f565b50979650505050505050565b600080600060608486031215614ead578081fd5b8335614eb881615b86565b9250602084013567ffffffffffffffff80821115614ed4578283fd5b614ee0878388016146a0565b93506040860135915080821115614ef5578283fd5b50614b738682870161477a565b600080600060608486031215614f16578081fd5b8335614f2181615b86565b9250602084013567ffffffffffffffff811115614f3c578182fd5b614c45868287016146a0565b600060208284031215614f59578081fd5b8151611fcc81615bd9565b6000808284036080811215614f77578283fd5b8351614f8281615bd9565b925060607fffffffffffffffffffffffffffffffffffffffffffffffffffffffffffffffe082011215614fb3578182fd5b50614fbe6060615af6565b6020840151614fcc81615b86565b81526040840151614fdc81615bab565b60208201526060840151614fef81615bab565b6040820152919491935090915050565b60008060008084860360c0811215615015578283fd5b6060811215615022578283fd5b5061502d6060615af6565b853561503881615b86565b8152602086013561504881615bab565b6020820152604086013561505b81615bab565b60408201529350606085013561507081615bd9565b9250608085013561508081615bd9565b915060a085013567ffffffffffffffff811115614a92578182fd5b600080600061022084860312156150b0578081fd5b6150ba8585614848565b92506150ca856101808601614935565b9150610200840135614d2581615b86565b600080600083850360a08112156150f0578182fd5b60608112156150fd578182fd5b506151086060615af6565b8451815260208501516005811061511d578283fd5b6020820152604085015161513081615be8565b6040820152606085015190935061514681615be8565b60808501519092508015158114614d25578182fd5b60006020828403121561516c578081fd5b815162ffffff81168114611fcc578182fd5b60006020828403121561518f578081fd5b5051919050565b600080600080608085870312156151ab578182fd5b8451935060208086015167ffffffffffffffff808211156151ca578485fd5b818801915088601f8301126151dd578485fd5b81516151eb6145de82615b1d565b81815284810190848601868402860187018d1015615207578889fd5b8895505b838610156152315761521d8d826149a3565b83526001959095019491860191860161520b565b5060408b0151909850945050508083111561524a578485fd5b5050615258878288016147d8565b606096909601519497939650505050565b73ffffffffffffffffffffffffffffffffffffffff169052565b6000815180845260208085019450808401835b838110156152b257815187529582019590820190600101615296565b509495945050505050565b600081518084526152d5816020860160208601615b56565b601f017fffffffffffffffffffffffffffffffffffffffffffffffffffffffffffffffe0169290920160200192915050565b805173ffffffffffffffffffffffffffffffffffffffff1682526020808201517fffffffff000000000000000000000000000000000000000000000000000000009081169184019190915260409182015116910152565b600081518352602082015160406020850152611e4f60408501826152bd565b615388828251615269565b602081015161539a6020840182615269565b5060408101516153ad604084018261547e565b5060608101516153c0606084018261547e565b5060808101516153d3608084018261547e565b5060a08101516153e660a0840182615269565b5060c08101516153f960c0840182615269565b5060e081015161540c60e0840182615269565b506101008082015161542082850182615269565b505061012081810151908301526101408082015161544082850182615494565b505061016090810151910152565b80516004811061545a57fe5b825260208181015160ff169083015260408082015190830152606090810151910152565b6fffffffffffffffffffffffffffffffff169052565b67ffffffffffffffff169052565b6000828483379101908152919050565b600082516154c4818460208701615b56565b9190910192915050565b73ffffffffffffffffffffffffffffffffffffffff91909116815260200190565b73ffffffffffffffffffffffffffffffffffffffff92831681529116602082015260400190565b600073ffffffffffffffffffffffffffffffffffffffff8087168352808616602084015280851660408401525060806060830152613c666080830184615283565b73ffffffffffffffffffffffffffffffffffffffff9384168152919092166020820152604081019190915260600190565b6000602080830181845280855180835260408601915060408482028701019250838701855b82811015615627578785037fffffffffffffffffffffffffffffffffffffffffffffffffffffffffffffffc0018452815180518087529087019087870190895b81811015615611576155ff8451615b3d565b835292890192918901916001016155ed565b50909650505092850192908501906001016155ad565b5092979650505050505050565b60006060820160608352808651808352608085019150602092506080838202860101838901855b838110156156a7577fffffffffffffffffffffffffffffffffffffffffffffffffffffffffffffff808884030185526156958383516152bd565b9486019492509085019060010161565b565b5050858103848701526156ba8189615283565b93505050508281036040840152613c668185615283565b60208082528251828201819052600091906040908185019080840286018301878501865b83811015615756577fffffffffffffffffffffffffffffffffffffffffffffffffffffffffffffffc089840301855281518051878552615737888601826152bd565b91890151151594890194909452948701949250908601906001016156f5565b509098975050505050505050565b600060208252611fcc6020830184615283565b901515815260200190565b60006040825261579560408301856152bd565b90508260208301529392505050565b73ffffffffffffffffffffffffffffffffffffffff938416815291909216602082015262ffffff909116604082015260600190565b60608101600485106157e757fe5b938152602081019290925260409091015290565b60608101600885106157e757fe5b600f93840b81529190920b6020820152604081019190915260600190565b600f83900b815260808101611fcc6020830184615307565b60208082526025908201527f455243323042726964676553616d706c65722f494e56414c49445f544f4b454e60408201527f5f50414952000000000000000000000000000000000000000000000000000000606082015260800190565b60208082526025908201527f556e6973776170563353616d706c65722f696e76616c69642070617468206c6560408201527f6e67746873000000000000000000000000000000000000000000000000000000606082015260800190565b6020808252602e908201527f556e6973776170563353616d706c65722f756e737570706f7274656420746f6b60408201527f656e2070617468206c656e677468000000000000000000000000000000000000606082015260800190565b60006159628287615307565b84600f0b606083015283600f0b608083015260c060a0830152613c6660c0830184615283565b60006060825261599b606083018661535e565b82810360208401526159ad818661535e565b90508281036040840152613c668185615283565b61020081016159d0828561537d565b611fcc61018083018461544e565b61022081016159ed828661537d565b6159fb61018083018561544e565b73ffffffffffffffffffffffffffffffffffffffff8316610200830152949350505050565b90815260200190565b60006040820184835260206040818501528185518084526060860191508287019350845b81811015615a7f57845173ffffffffffffffffffffffffffffffffffffffff1683529383019391830191600101615a4d565b5090979650505050505050565b60008083357fffffffffffffffffffffffffffffffffffffffffffffffffffffffffffffffe1843603018112615ac0578283fd5b83018035915067ffffffffffffffff821115615ada578283fd5b602001915036819003821315615aef57600080fd5b9250929050565b60405181810167ffffffffffffffff81118282101715615b1557600080fd5b604052919050565b600067ffffffffffffffff821115615b33578081fd5b5060209081020190565b73ffffffffffffffffffffffffffffffffffffffff1690565b60005b83811015615b71578181015183820152602001615b59565b83811115615b80576000848401525b50505050565b73ffffffffffffffffffffffffffffffffffffffff81168114615ba857600080fd5b50565b7fffffffff0000000000000000000000000000000000000000000000000000000081168114615ba857600080fd5b80600f0b8114615ba857600080fd5b6fffffffffffffffffffffffffffffffff81168114615ba857600080fdfea2646970667358221220f6b8952979f44a5d4e508cbe208c1db405f78f096b81846685d6c7202af7eeb864736f6c634300060c0033",
  "devdoc": {
    "kind": "dev",
    "methods": {
      "batchCall(bytes[])": {
        "details": "Call multiple public functions on this contract in a single transaction.",
        "params": {
          "callDatas": "ABI-encoded call data for each function call."
        },
        "returns": {
          "callResults": "ABI-encoded results data for each call."
        }
      },
      "getLimitOrderFillableMakerAssetAmounts((address,address,uint128,uint128,uint128,address,address,address,address,bytes32,uint64,uint256)[],(uint8,uint8,bytes32,bytes32)[],address)": {
        "details": "Queries the fillable taker asset amounts of native orders.      Effectively ignores orders that have empty signatures or",
        "params": {
          "exchange": "The V4 exchange.",
          "orderSignatures": "Signatures for each respective order in `orders`.",
          "orders": "Native orders to query."
        },
        "returns": {
          "orderFillableMakerAssetAmounts": "How much maker asset can be filled         by each order in `orders`."
        }
      },
      "getLimitOrderFillableTakerAmount((address,address,uint128,uint128,uint128,address,address,address,address,bytes32,uint64,uint256),(uint8,uint8,bytes32,bytes32),address)": {
        "details": "Get the fillable taker amount of an order, taking into account      order state, maker fees, and maker balances."
      },
      "getLimitOrderFillableTakerAssetAmounts((address,address,uint128,uint128,uint128,address,address,address,address,bytes32,uint64,uint256)[],(uint8,uint8,bytes32,bytes32)[],address)": {
        "details": "Queries the fillable taker asset amounts of native orders.      Effectively ignores orders that have empty signatures or      maker/taker asset amounts (returning 0).",
        "params": {
          "exchange": "The V4 exchange.",
          "orderSignatures": "Signatures for each respective order in `orders`.",
          "orders": "Native limit orders to query."
        },
        "returns": {
          "orderFillableTakerAssetAmounts": "How much taker asset can be filled         by each order in `orders`."
        }
      },
      "sampleBuysFromCurve((address,bytes4,bytes4),int128,int128,uint256[])": {
        "details": "Sample buy quotes from Curve.",
        "params": {
          "curveInfo": "Curve information specific to this token pair.",
          "fromTokenIdx": "Index of the taker token (what to sell).",
          "makerTokenAmounts": "Maker token buy amount for each sample.",
          "toTokenIdx": "Index of the maker token (what to buy)."
        },
        "returns": {
          "takerTokenAmounts": "Taker amounts sold at each maker token         amount."
        }
      },
      "sampleBuysFromMStable(address,address,address,uint256[])": {
        "details": "Sample buy quotes from MStable contract",
        "params": {
          "makerToken": "Address of the maker token (what to buy).",
          "makerTokenAmounts": "Maker token buy amount for each sample.",
          "router": "Address of the mStable contract",
          "takerToken": "Address of the taker token (what to sell)."
        },
        "returns": {
          "takerTokenAmounts": "Taker amounts sold at each maker token         amount."
        }
      },
      "sampleBuysFromUniswap(address,address,address,uint256[])": {
        "details": "Sample buy quotes from Uniswap.",
        "params": {
          "makerToken": "Address of the maker token (what to buy).",
          "makerTokenAmounts": "Maker token sell amount for each sample.",
          "takerToken": "Address of the taker token (what to sell)."
        },
        "returns": {
          "takerTokenAmounts": "Taker amounts sold at each maker token         amount."
        }
      },
      "sampleBuysFromUniswapV2(address,address[],uint256[])": {
        "details": "Sample buy quotes from UniswapV2.",
        "params": {
          "makerTokenAmounts": "Maker token buy amount for each sample.",
          "path": "Token route. Should be takerToken -> makerToken.",
          "router": "Router to look up tokens and amounts"
        },
        "returns": {
          "takerTokenAmounts": "Taker amounts sold at each maker token         amount."
        }
      },
      "sampleBuysFromUniswapV3(address,address[],uint256[])": {
        "details": "Sample buy quotes from UniswapV3.",
        "params": {
          "makerTokenAmounts": "Maker token buy amount for each sample.",
          "path": "Token route. Should be takerToken -> makerToken (at most two hops).",
          "quoter": "UniswapV3 Quoter contract."
        },
        "returns": {
          "takerTokenAmounts": "Taker amounts sold at each maker token amount.",
          "uniswapGasUsed": "Estimated amount of gas used",
          "uniswapPaths": "The encoded uniswap path for each sample."
        }
      },
      "sampleSellsFromCurve((address,bytes4,bytes4),int128,int128,uint256[])": {
        "details": "Sample sell quotes from Curve.",
        "params": {
          "curveInfo": "Curve information specific to this token pair.",
          "fromTokenIdx": "Index of the taker token (what to sell).",
          "takerTokenAmounts": "Taker token sell amount for each sample.",
          "toTokenIdx": "Index of the maker token (what to buy)."
        },
        "returns": {
          "makerTokenAmounts": "Maker amounts bought at each taker token         amount."
        }
      },
      "sampleSellsFromMStable(address,address,address,uint256[])": {
        "details": "Sample sell quotes from the mStable contract",
        "params": {
          "makerToken": "Address of the maker token (what to buy).",
          "router": "Address of the mStable contract",
          "takerToken": "Address of the taker token (what to sell).",
          "takerTokenAmounts": "Taker token sell amount for each sample."
        },
        "returns": {
          "makerTokenAmounts": "Maker amounts bought at each taker token         amount."
        }
      },
      "sampleSellsFromUniswap(address,address,address,uint256[])": {
        "details": "Sample sell quotes from Uniswap.",
        "params": {
          "makerToken": "Address of the maker token (what to buy).",
          "router": "Address of the Uniswap Router",
          "takerToken": "Address of the taker token (what to sell).",
          "takerTokenAmounts": "Taker token sell amount for each sample."
        },
        "returns": {
          "makerTokenAmounts": "Maker amounts bought at each taker token         amount."
        }
      },
      "sampleSellsFromUniswapV2(address,address[],uint256[])": {
        "details": "Sample sell quotes from UniswapV2.",
        "params": {
          "path": "Token route. Should be takerToken -> makerToken",
          "router": "Router to look up tokens and amounts",
          "takerTokenAmounts": "Taker token sell amount for each sample."
        },
        "returns": {
          "makerTokenAmounts": "Maker amounts bought at each taker token         amount."
        }
      },
      "sampleSellsFromUniswapV3(address,address[],uint256[])": {
        "details": "Sample sell quotes from UniswapV3.",
        "params": {
          "path": "Token route. Should be takerToken -> makerToken (at most two hops).",
          "quoter": "UniswapV3 Quoter contract.",
          "takerTokenAmounts": "Taker token sell amount for each sample."
        },
        "returns": {
          "makerTokenAmounts": "Maker amounts bought at each taker token amount.",
          "uniswapGasUsed": "Estimated amount of gas used",
          "uniswapPaths": "The encoded uniswap path for each sample."
        }
      }
    },
    "version": 1
  },
  "userdoc": {
    "kind": "user",
    "methods": {},
    "version": 1
  },
  "storageLayout": {
    "storage": [],
    "types": null
  }
}