{
  "address": "0x054D0b4D8c11851F66C2DF83Dc402D5A5e388F1E",
  "abi": [
    {
      "inputs": [
        {
          "internalType": "contract IBridgeAdapter",
          "name": "bridgeAdapter_",
          "type": "address"
        },
        {
          "internalType": "contract INativeOrdersFeature",
          "name": "zeroEx_",
          "type": "address"
        }
      ],
      "stateMutability": "nonpayable",
      "type": "constructor"
    },
    {
      "anonymous": false,
      "inputs": [
        {
          "indexed": false,
          "internalType": "bytes32",
          "name": "orderHash",
          "type": "bytes32"
        }
      ],
      "name": "ProtocolFeeUnfunded",
      "type": "event"
    },
    {
      "inputs": [],
      "name": "bridgeAdapter",
      "outputs": [
        {
          "internalType": "contract IBridgeAdapter",
          "name": "",
          "type": "address"
        }
      ],
      "stateMutability": "view",
      "type": "function"
    },
    {
      "inputs": [],
      "name": "deployer",
      "outputs": [
        {
          "internalType": "address",
          "name": "",
          "type": "address"
        }
      ],
      "stateMutability": "view",
      "type": "function"
    },
    {
      "inputs": [
        {
          "internalType": "address payable",
          "name": "ethRecipient",
          "type": "address"
        }
      ],
      "name": "die",
      "outputs": [],
      "stateMutability": "nonpayable",
      "type": "function"
    },
    {
      "inputs": [
        {
          "components": [
            {
              "internalType": "address payable",
              "name": "sender",
              "type": "address"
            },
            {
              "internalType": "address payable",
              "name": "recipient",
              "type": "address"
            },
            {
              "internalType": "bytes",
              "name": "data",
              "type": "bytes"
            }
          ],
          "internalType": "struct IERC20Transformer.TransformContext",
          "name": "context",
          "type": "tuple"
        }
      ],
      "name": "transform",
      "outputs": [
        {
          "internalType": "bytes4",
          "name": "magicBytes",
          "type": "bytes4"
        }
      ],
      "stateMutability": "nonpayable",
      "type": "function"
    },
    {
      "inputs": [],
      "name": "zeroEx",
      "outputs": [
        {
          "internalType": "contract INativeOrdersFeature",
          "name": "",
          "type": "address"
        }
      ],
      "stateMutability": "view",
      "type": "function"
    }
  ],
  "transactionHash": "0x6f621453c7c833f0bf1a0b6c9a16540f44be8c7a1c2ebe1d12b275a70cc7faae",
  "args": [
    "0x0969505802e87D5c5763bF5C7D09058D01bEFfC4",
    "0x7EcE955676d1E49659066916ff3DE8f8145e6087"
  ],
  "numDeployments": 1,
  "solcInputHash": "d824bfd18a929a7d770611c578d2def3",
  "bytecode": "0x6101006040523480156200001257600080fd5b506040516200287138038062002871833981016040819052620000359162000060565b33606090811b60805230811b60a0526001600160601b031992811b831660c0521b1660e052620000b7565b6000806040838503121562000073578182fd5b825162000080816200009e565b602084015190925062000093816200009e565b809150509250929050565b6001600160a01b0381168114620000b457600080fd5b50565b60805160601c60a05160601c60c05160601c60e05160601c61274c620001256000398060d1528061026852806102c75280610ee05280610fa5528061119c52508061080c5280610cc35250806108b052806108de5250806108465280610874528061091d525061274c6000f3fe608060405234801561001057600080fd5b50600436106100675760003560e01c8063be7dc09b11610050578063be7dc09b146100aa578063c9353cb5146100b2578063d5f39488146100c757610067565b806352ab413b1461006c578063832b24bb1461008a575b600080fd5b6100746100cf565b604051610081919061223b565b60405180910390f35b61009d610098366004611ecf565b6100f3565b60405161008191906122e0565b61007461080a565b6100c56100c0366004611e9b565b61082e565b005b61007461091b565b7f000000000000000000000000000000000000000000000000000000000000000081565b60006100fd611808565b61010a60408401846125ec565b8101906101179190611f07565b9050610121611897565b610144826020015173ffffffffffffffffffffffffffffffffffffffff1661093f565b8061016d575061016d826040015173ffffffffffffffffffffffffffffffffffffffff1661093f565b156101c6576101c66101c1600061018760408801886125ec565b8080601f01602080910402602001604051908101604052809392919081815260200183838082843760009201919091525061097192505050565b610a2d565b8160c00151518260a00151518360800151518460600151510101146101fa576101fa6101c1600161018760408801886125ec565b602082015161021f9073ffffffffffffffffffffffffffffffffffffffff1630610a35565b608082015260008251600181111561023357fe5b14156102515761024b8260e001518260800151610b0c565b60e08301525b60a082015151608083015151011561037d576102b67f00000000000000000000000000000000000000000000000000000000000000008360e00151846020015173ffffffffffffffffffffffffffffffffffffffff16610b8e9092919063ffffffff16565b6080820151511561037d576103773a7f000000000000000000000000000000000000000000000000000000000000000073ffffffffffffffffffffffffffffffffffffffff1663487b5c206040518163ffffffff1660e01b815260040160206040518083038186803b15801561032b57600080fd5b505afa15801561033f573d6000803e3d6000fd5b505050506040513d601f19601f82011682018060405250810190610363919061206f565b63ffffffff16610c6a90919063ffffffff16565b60608201525b47815260005b8260c00151518110156105b95760008351600181111561039f57fe5b14156103be578260e001518260400151106103b9576105b9565b6103d2565b8260e001518260200151106103d2576105b9565b8260c0015181815181106103e257fe5b60200260200101518260c0019060028111156103fa57fe5b9081600281111561040757fe5b8152505060008260a001518360c00151600281111561042257fe5b6003811061042c57fe5b6020020151905061043b6118d9565b60008460c00151600281111561044d57fe5b141561047c576104758560600151838151811061046657fe5b60200260200101518686610c9b565b905061052b565b60018460c00151600281111561048e57fe5b14156104b657610475856080015183815181106104a757fe5b60200260200101518686610e1a565b60028460c0015160028111156104c857fe5b14156104f0576104758560a0015183815181106104e157fe5b60200260200101518686611149565b6040517f08c379a000000000000000000000000000000000000000000000000000000000815260040161052290612376565b60405180910390fd5b8051604085015161053b9161129b565b6040850152602080820151908501516105539161129b565b602085015260408101518451610568916112b7565b84528051608085015161057a916112b7565b608085015260a084015160c0850151600281111561059457fe5b6003811061059e57fe5b60200201805160019081019091529290920191506103839050565b506000825160018111156105c957fe5b14156105fe578160e00151816040015110156105f9576105f96101c1836020015183604001518560e001516112d6565b610628565b8160e0015181602001511015610628576106286101c1836040015183602001518560e00151611394565b805115801590610652575061010082015173ffffffffffffffffffffffffffffffffffffffff1615155b156107e15761010082015160009073ffffffffffffffffffffffffffffffffffffffff16600114156107025761068e6040860160208701611e9b565b73ffffffffffffffffffffffffffffffffffffffff1682600001516040516106b590612238565b60006040518083038185875af1925050503d80600081146106f2576040519150601f19603f3d011682016040523d82523d6000602084013e6106f7565b606091505b5050809150506107a8565b61010083015173ffffffffffffffffffffffffffffffffffffffff16600214156107335761068e6020860186611e9b565b82610100015173ffffffffffffffffffffffffffffffffffffffff16826000015160405161076090612238565b60006040518083038185875af1925050503d806000811461079d576040519150601f19603f3d011682016040523d82523d6000602084013e6107a2565b606091505b50909150505b806107df576040517f08c379a00000000000000000000000000000000000000000000000000000000081526004016105229061240a565b505b507f13c9929e000000000000000000000000000000000000000000000000000000009392505050565b7f000000000000000000000000000000000000000000000000000000000000000081565b3373ffffffffffffffffffffffffffffffffffffffff7f00000000000000000000000000000000000000000000000000000000000000001614610898576108986101c1337f00000000000000000000000000000000000000000000000000000000000000006113cc565b3073ffffffffffffffffffffffffffffffffffffffff7f00000000000000000000000000000000000000000000000000000000000000001614610902576109026101c1307f0000000000000000000000000000000000000000000000000000000000000000611402565b8073ffffffffffffffffffffffffffffffffffffffff16ff5b7f000000000000000000000000000000000000000000000000000000000000000081565b73ffffffffffffffffffffffffffffffffffffffff811673eeeeeeeeeeeeeeeeeeeeeeeeeeeeeeeeeeeeeeee14919050565b60607f505ff6a4f24a0aa989a95ffe4c8d435d76fb30dea162a3e3022e749867722deb83836040516024016109a7929190612353565b604080517fffffffffffffffffffffffffffffffffffffffffffffffffffffffffffffffe08184030181529190526020810180517bffffffffffffffffffffffffffffffffffffffffffffffffffffffff167fffffffff000000000000000000000000000000000000000000000000000000009093169290921790915290505b92915050565b805160208201fd5b6000610a408361093f565b15610a63575073ffffffffffffffffffffffffffffffffffffffff811631610a27565b6040517f70a0823100000000000000000000000000000000000000000000000000000000815273ffffffffffffffffffffffffffffffffffffffff8416906370a0823190610ab590859060040161223b565b60206040518083038186803b158015610acd57600080fd5b505afa158015610ae1573d6000803e3d6000fd5b505050506040513d601f19601f82011682018060405250810190610b059190611eb7565b9392505050565b60007f80000000000000000000000000000000000000000000000000000000000000008084161415610b8757610b80670de0b6b3a7640000610b707f7fffffffffffffffffffffffffffffffffffffffffffffffffffffffffffffff861682611438565b840281610b7957fe5b0483611438565b9050610a27565b5090919050565b6040517fdd62ed3e000000000000000000000000000000000000000000000000000000008152819073ffffffffffffffffffffffffffffffffffffffff85169063dd62ed3e90610be4903090879060040161225c565b60206040518083038186803b158015610bfc57600080fd5b505afa158015610c10573d6000803e3d6000fd5b505050506040513d601f19601f82011682018060405250810190610c349190611eb7565b1015610c6557610c6583837fffffffffffffffffffffffffffffffffffffffffffffffffffffffffffffffff611447565b505050565b600082610c7957506000610a27565b82820282848281610c8657fe5b0414610b0557610b056101c1600186866114f3565b610ca36118d9565b6000610cbb8484876020015188604001516000611512565b9050600060607f000000000000000000000000000000000000000000000000000000000000000073ffffffffffffffffffffffffffffffffffffffff1663f712a14860e01b888860200151896040015187604051602401610d1f9493929190612467565b604080517fffffffffffffffffffffffffffffffffffffffffffffffffffffffffffffffe08184030181529181526020820180517bffffffffffffffffffffffffffffffffffffffffffffffffffffffff167fffffffff00000000000000000000000000000000000000000000000000000000909416939093179092529051610da8919061221c565b600060405180830381855af49150503d8060008114610de3576040519150601f19603f3d011682016040523d82523d6000602084013e610de8565b606091505b50915091508115610e105780806020019051810190610e079190611eb7565b60208501528284525b5050509392505050565b610e226118d9565b6000610e8c610e8285858860000151606001516fffffffffffffffffffffffffffffffff168960000151604001516fffffffffffffffffffffffffffffffff168a60000151608001516fffffffffffffffffffffffffffffffff16611512565b8660400151611438565b9050826060015183600001511015610fa35784516040517fdd11d22500000000000000000000000000000000000000000000000000000000815260009173ffffffffffffffffffffffffffffffffffffffff7f0000000000000000000000000000000000000000000000000000000000000000169163dd11d22591610f13916004016124d3565b60206040518083038186803b158015610f2b57600080fd5b505afa158015610f3f573d6000803e3d6000fd5b505050506040513d601f19601f82011682018060405250810190610f639190611eb7565b90507fb5d7e18f9bad5b40d7cf6bb45142dfbaef62527179ff5c249c6d6cc00176224d81604051610f9491906122d7565b60405180910390a15050610b05565b7f000000000000000000000000000000000000000000000000000000000000000073ffffffffffffffffffffffffffffffffffffffff1663f6274f66846060015187600001518860200151610ff7866115a8565b6040518563ffffffff1660e01b8152600401611015939291906124e2565b60408051808303818588803b15801561102d57600080fd5b505af19350505050801561107c575060408051601f3d9081017fffffffffffffffffffffffffffffffffffffffffffffffffffffffffffffffe016820190925261107991810190612036565b60015b61108557611141565b8651608001516fffffffffffffffffffffffffffffffff161561111a576111176110fe6110f9846fffffffffffffffffffffffffffffffff168a60000151606001516fffffffffffffffffffffffffffffffff168b60000151608001516fffffffffffffffffffffffffffffffff166115d4565b6115a8565b6fffffffffffffffffffffffffffffffff8416906115f2565b91505b6fffffffffffffffffffffffffffffffff9182168452166020830152606083015160408301525b509392505050565b6111516118d9565b6000611198610e8285858860000151606001516fffffffffffffffffffffffffffffffff168960000151604001516fffffffffffffffffffffffffffffffff166000611512565b90507f000000000000000000000000000000000000000000000000000000000000000073ffffffffffffffffffffffffffffffffffffffff1663aa77476c866000015187602001516111e9856115a8565b6040518463ffffffff1660e01b815260040161120793929190612520565b6040805180830381600087803b15801561122057600080fd5b505af192505050801561126e575060408051601f3d9081017fffffffffffffffffffffffffffffffffffffffffffffffffffffffffffffffe016820190925261126b91810190612036565b60015b61127757611141565b6fffffffffffffffffffffffffffffffff9182168452166020830152509392505050565b600082820183811015610b0557610b056101c1600086866114f3565b6000828211156112d0576112d06101c1600285856114f3565b50900390565b60607fadc35ca636cd9f46b974d5bec4df8af095d0ae177ec6043620af588c03bdc61684848460405160240161130e939291906122a9565b604080517fffffffffffffffffffffffffffffffffffffffffffffffffffffffffffffffe08184030181529190526020810180517bffffffffffffffffffffffffffffffffffffffffffffffffffffffff167fffffffff000000000000000000000000000000000000000000000000000000009093169290921790915290509392505050565b60607f498df3ae522acadbf67e6aa5fde156a5b74336950cd271175e7336907df120e384848460405160240161130e939291906122a9565b60607f5cec653b364cca3880afa73ceff506d0651d11d26abbbe4a56460aa933b21b0883836040516024016109a792919061225c565b60607fb5cf2cd09307d6c717473134badbb9761c2c97d7565566c2a71eba6cd6fc514d83836040516024016109a792919061225c565b6000818310610b875781610b05565b606063095ea7b360e01b8383604051602401611464929190612283565b604080517fffffffffffffffffffffffffffffffffffffffffffffffffffffffffffffffe08184030181529190526020810180517bffffffffffffffffffffffffffffffffffffffffffffffffffffffff167fffffffff000000000000000000000000000000000000000000000000000000009093169290921790915290506114ed8482611647565b50505050565b606063e946c1bb60e01b84848460405160240161130e9392919061230d565b6000808651600181111561152257fe5b141561155f57604085015160e087015161153b916112b7565b9050811561155a5761155781611551868561129b565b8661174d565b90505b611587565b61158461157d86602001518860e001516112b790919063ffffffff16565b848661174d565b90505b61159e6115948286611438565b8660800151611438565b9695505050505050565b60006fffffffffffffffffffffffffffffffff8211156115d0576115d06101c1600384611771565b5090565b60006115ea836115e48685610c6a565b9061178e565b949350505050565b60008282016fffffffffffffffffffffffffffffffff8085169082161015610b0557610b056101c16000866fffffffffffffffffffffffffffffffff16866fffffffffffffffffffffffffffffffff166114f3565b600060608373ffffffffffffffffffffffffffffffffffffffff1683604051611670919061221c565b6000604051808303816000865af19150503d80600081146116ad576040519150601f19603f3d011682016040523d82523d6000602084013e6116b2565b606091505b5091509150816116c5576116c581610a2d565b805161170c57833b80611704576040517f08c379a0000000000000000000000000000000000000000000000000000000008152600401610522906123ad565b505050611749565b60208151106117405760006117228260006117b8565b9050806001141561173557505050611749565b61173e82610a2d565b505b6114ed81610a2d565b5050565b60006115ea836115e46117618260016112b7565b61176b8887610c6a565b9061129b565b606063c996af7b60e01b83836040516024016109a792919061232e565b6000816117a4576117a46101c1600385856114f3565b60008284816117af57fe5b04949350505050565b6000610b058383600081602001835110156117e0576117e06101c160058551856020016117e9565b50016020015190565b6060632800659560e01b84848460405160240161130e93929190612345565b6040805161012081019091528060008152602001600073ffffffffffffffffffffffffffffffffffffffff168152602001600073ffffffffffffffffffffffffffffffffffffffff1681526020016060815260200160608152602001606081526020016060815260200160008152602001600073ffffffffffffffffffffffffffffffffffffffff1681525090565b6040518060e0016040528060008152602001600081526020016000815260200160008152602001600081526020016118cd6118fa565b81526020016000905290565b60405180606001604052806000815260200160008152602001600081525090565b60405180606001604052806003906020820280368337509192915050565b8035610a27816126d6565b600082601f830112611933578081fd5b81356119466119418261267d565b612656565b81815291506020808301908481018184028601820187101561196757600080fd5b6000805b8581101561199357823560038110611981578283fd5b8552938301939183019160010161196b565b50505050505092915050565b600082601f8301126119af578081fd5b81356119bd6119418261267d565b818152915060208083019084810160005b84811015611a7157813587016080807fffffffffffffffffffffffffffffffffffffffffffffffffffffffffffffffe0838c03011215611a0d57600080fd5b611a1681612656565b8286013581526040808401358288015260608085013582840152928401359267ffffffffffffffff841115611a4a57600080fd5b611a588d8986880101611bcb565b90830152508652505092820192908201906001016119ce565b505050505092915050565b600082601f830112611a8c578081fd5b8135611a9a6119418261267d565b818152915060208083019084810161022080850287018301881015611abe57600080fd5b6000805b86811015611b1d5782848b031215611ad8578182fd5b611ae26060612656565b611aec8b86611c61565b8152611afc8b6101808701611e15565b81870152610200850135604082015286529484019492820192600101611ac2565b5050505050505092915050565b600082601f830112611b3a578081fd5b8135611b486119418261267d565b81815291506020808301908481016101e080850287018301881015611b6c57600080fd5b6000805b86811015611b1d5782848b031215611b86578182fd5b611b906060612656565b611b9a8b86611d4e565b8152611baa8b6101408701611e15565b818701526101c0850135604082015286529484019492820192600101611b70565b600082601f830112611bdb578081fd5b813567ffffffffffffffff811115611bf1578182fd5b611c2260207fffffffffffffffffffffffffffffffffffffffffffffffffffffffffffffffe0601f84011601612656565b9150808252836020828501011115611c3957600080fd5b8060208401602084013760009082016020015292915050565b803560028110610a2757600080fd5b6000610180808385031215611c74578182fd5b611c7d81612656565b915050611c8a8383611918565b8152611c998360208401611918565b6020820152611cab8360408401611e78565b6040820152611cbd8360608401611e78565b6060820152611ccf8360808401611e78565b6080820152611ce18360a08401611918565b60a0820152611cf38360c08401611918565b60c0820152611d058360e08401611918565b60e0820152610100611d1984828501611918565b908201526101208281013590820152610140611d3784828501611e83565b818301525061016080830135818301525092915050565b6000610140808385031215611d61578182fd5b611d6a81612656565b915050611d778383611918565b8152611d868360208401611918565b6020820152611d988360408401611e78565b6040820152611daa8360608401611e78565b6060820152611dbc8360808401611918565b6080820152611dce8360a08401611918565b60a0820152611de08360c08401611918565b60c082015260e082013560e0820152610100611dfe84828501611e83565b818301525061012080830135818301525092915050565b600060808284031215611e26578081fd5b611e306080612656565b9050813560058110611e4157600080fd5b8152602082013560ff81168114611e5757600080fd5b80602083015250604082013560408201526060820135606082015292915050565b8035610a27816126f8565b803567ffffffffffffffff81168114610a2757600080fd5b600060208284031215611eac578081fd5b8135610b05816126d6565b600060208284031215611ec8578081fd5b5051919050565b600060208284031215611ee0578081fd5b813567ffffffffffffffff811115611ef6578182fd5b820160608185031215610b05578182fd5b600060208284031215611f18578081fd5b813567ffffffffffffffff80821115611f2f578283fd5b8184019150610120808387031215611f45578384fd5b611f4e81612656565b9050611f5a8684611c52565b8152611f698660208501611918565b6020820152611f7b8660408501611918565b6040820152606083013582811115611f91578485fd5b611f9d8782860161199f565b606083015250608083013582811115611fb4578485fd5b611fc087828601611a7c565b60808301525060a083013582811115611fd7578485fd5b611fe387828601611b2a565b60a08301525060c083013582811115611ffa578485fd5b61200687828601611923565b60c08301525060e083013560e0820152610100915061202786838501611918565b91810191909152949350505050565b60008060408385031215612048578081fd5b8251612053816126f8565b6020840151909250612064816126f8565b809150509250929050565b600060208284031215612080578081fd5b815163ffffffff81168114610b05578182fd5b73ffffffffffffffffffffffffffffffffffffffff169052565b600081518084526120c581602086016020860161269d565b601f017fffffffffffffffffffffffffffffffffffffffffffffffffffffffffffffffe0169290920160200192915050565b612102828251612093565b60208101516121146020840182612093565b50604081015161212760408401826121f8565b50606081015161213a60608401826121f8565b50608081015161214d60808401826121f8565b5060a081015161216060a0840182612093565b5060c081015161217360c0840182612093565b5060e081015161218660e0840182612093565b506101008082015161219a82850182612093565b50506101208181015190830152610140808201516121ba8285018261220e565b505061016090810151910152565b8051600581106121d457fe5b825260208181015160ff169083015260408082015190830152606090810151910152565b6fffffffffffffffffffffffffffffffff169052565b67ffffffffffffffff169052565b6000825161222e81846020870161269d565b9190910192915050565b90565b73ffffffffffffffffffffffffffffffffffffffff91909116815260200190565b73ffffffffffffffffffffffffffffffffffffffff92831681529116602082015260400190565b73ffffffffffffffffffffffffffffffffffffffff929092168252602082015260400190565b73ffffffffffffffffffffffffffffffffffffffff9390931683526020830191909152604082015260600190565b90815260200190565b7fffffffff0000000000000000000000000000000000000000000000000000000091909116815260200190565b6060810161231a856126c9565b938152602081019290925260409091015290565b6040810161233b846126c9565b9281526020015290565b606081016008851061231a57fe5b60006002841061235f57fe5b838252604060208301526115ea60408301846120ad565b60208082526012908201527f494e56414c49445f4f524445525f545950450000000000000000000000000000604082015260600190565b60208082526027908201527f696e76616c696420746f6b656e20616464726573732c20636f6e7461696e732060408201527f6e6f20636f646500000000000000000000000000000000000000000000000000606082015260800190565b6020808252602a908201527f46696c6c51756f74655472616e73666f726d65722f45544845525f5452414e5360408201527f4645525f46414c49454400000000000000000000000000000000000000000000606082015260800190565b60006080825285516080830152602086015160a0830152604086015160c08301526060860151608060e08401526124a26101008401826120ad565b73ffffffffffffffffffffffffffffffffffffffff9687166020850152949095166040830152506060015292915050565b6101808101610a2782846120f7565b61022081016124f182866120f7565b6124ff6101808301856121c8565b6fffffffffffffffffffffffffffffffff8316610200830152949350505050565b60006101e082019050612534828651612093565b60208501516125466020840182612093565b50604085015161255960408401826121f8565b50606085015161256c60608401826121f8565b50608085015161257f6080840182612093565b5060a085015161259260a0840182612093565b5060c08501516125a560c0840182612093565b5060e085015160e0830152610100808601516125c38285018261220e565b505061012085810151908301526125de6101408301856121c8565b6115ea6101c08301846121f8565b60008083357fffffffffffffffffffffffffffffffffffffffffffffffffffffffffffffffe1843603018112612620578283fd5b83018035915067ffffffffffffffff82111561263a578283fd5b60200191503681900382131561264f57600080fd5b9250929050565b60405181810167ffffffffffffffff8111828210171561267557600080fd5b604052919050565b600067ffffffffffffffff821115612693578081fd5b5060209081020190565b60005b838110156126b85781810151838201526020016126a0565b838111156114ed5750506000910152565b600481106126d357fe5b50565b73ffffffffffffffffffffffffffffffffffffffff811681146126d357600080fd5b6fffffffffffffffffffffffffffffffff811681146126d357600080fdfea26469706673582212200c874741254e23d4f056c264de0af7b9fe174be1eccdcf37b2d45be13425347664736f6c634300060c0033",
  "devdoc": {
    "details": "A transformer that fills an ERC20 market sell/buy quote.      This transformer shortcuts bridge orders and fills them directly",
    "events": {
      "ProtocolFeeUnfunded(bytes32)": {
        "details": "Emitted when a trade is skipped due to a lack of funds      to pay the 0x Protocol fee.",
        "params": {
          "orderHash": "The hash of the order that was skipped."
        }
      }
    },
    "kind": "dev",
    "methods": {
      "constructor": {
        "details": "Create this contract.",
        "params": {
          "bridgeAdapter_": "The bridge adapter contract.",
          "zeroEx_": "The Exchange Proxy contract."
        }
      },
      "die(address)": {
        "details": "Destruct this contract. Only callable by the deployer and will not      succeed in the context of a delegatecall (from another contract).",
        "params": {
          "ethRecipient": "The recipient of ETH held in this contract."
        }
      },
      "transform((address,address,bytes))": {
        "details": "Sell this contract's entire balance of of `sellToken` in exchange      for `buyToken` by filling `orders`. Protocol fees should be attached      to this call. `buyToken` and excess ETH will be transferred back to the caller.",
        "params": {
          "context": "Context information."
        },
        "returns": {
          "magicBytes": "The success bytes (`LibERC20Transformer.TRANSFORMER_SUCCESS`)."
        }
      }
    },
    "stateVariables": {
      "HIGH_BIT": {
        "details": "The highest bit of a uint256 value."
      },
      "LOWER_255_BITS": {
        "details": "Mask of the lower 255 bits of a uint256 value."
      },
      "REFUND_RECEIVER_RECIPIENT": {
        "details": "If `refundReceiver` is set to this address, unpsent      protocol fees will be sent to the transform recipient."
      },
      "REFUND_RECEIVER_SENDER": {
        "details": "If `refundReceiver` is set to this address, unpsent      protocol fees will be sent to the sender."
      },
      "bridgeAdapter": {
        "details": "The BridgeAdapter address"
      },
      "zeroEx": {
        "details": "The exchange proxy contract."
      }
    },
    "version": 1
  },
  "userdoc": {
    "kind": "user",
    "methods": {},
    "version": 1
  },
  "storageLayout": {
    "storage": [],
    "types": null
  }
}