{
  "address": "0xF2796e47bC19A903f5822916c91257E5128D8A42",
  "abi": [
    {
      "inputs": [
        {
          "internalType": "contract IBridgeAdapter",
          "name": "bridgeAdapter_",
          "type": "address"
        }
      ],
      "stateMutability": "nonpayable",
      "type": "constructor"
    },
    {
      "anonymous": false,
      "inputs": [
        {
          "indexed": false,
          "internalType": "bytes32",
          "name": "orderHash",
          "type": "bytes32"
        }
      ],
      "name": "ProtocolFeeUnfunded",
      "type": "event"
    },
    {
      "inputs": [],
      "name": "bridgeAdapter",
      "outputs": [
        {
          "internalType": "contract IBridgeAdapter",
          "name": "",
          "type": "address"
        }
      ],
      "stateMutability": "view",
      "type": "function"
    },
    {
      "inputs": [],
      "name": "deployer",
      "outputs": [
        {
          "internalType": "address",
          "name": "",
          "type": "address"
        }
      ],
      "stateMutability": "view",
      "type": "function"
    },
    {
      "inputs": [
        {
          "internalType": "address payable",
          "name": "ethRecipient",
          "type": "address"
        }
      ],
      "name": "die",
      "outputs": [],
      "stateMutability": "nonpayable",
      "type": "function"
    },
    {
      "inputs": [
        {
          "components": [
            {
              "internalType": "address payable",
              "name": "sender",
              "type": "address"
            },
            {
              "internalType": "address payable",
              "name": "recipient",
              "type": "address"
            },
            {
              "internalType": "bytes",
              "name": "data",
              "type": "bytes"
            }
          ],
          "internalType": "struct IERC20Transformer.TransformContext",
          "name": "context",
          "type": "tuple"
        }
      ],
      "name": "transform",
      "outputs": [
        {
          "internalType": "bytes4",
          "name": "magicBytes",
          "type": "bytes4"
        }
      ],
      "stateMutability": "nonpayable",
      "type": "function"
    }
  ],
  "transactionHash": "0xed4e0c4db1c699b20b318b7c558c1d29b5c41fa2f7643f99da9bebadaf3a9f85",
  "args": [
    "0x041856a9916bdc6A3dCef8325d0E541059f4C85f"
  ],
  "numDeployments": 1,
  "solcInputHash": "ee42d8878bdca2e6ffa21e46a4df1a4b",
  "bytecode": "0x60e060405234801561001057600080fd5b5060405161143638038061143683398101604081905261002f91610051565b33606090811b60805230811b60a0521b6001600160601b03191660c05261007f565b600060208284031215610062578081fd5b81516001600160a01b0381168114610078578182fd5b9392505050565b60805160601c60a05160601c60c05160601c61136e6100c86000398061050e52806108b85250806105b252806105e05250806105485280610576528061061f525061136e6000f3fe608060405234801561001057600080fd5b506004361061004c5760003560e01c8063832b24bb14610051578063be7dc09b1461007a578063c9353cb51461008f578063d5f39488146100a4575b600080fd5b61006461005f366004610f2b565b6100ac565b6040516100719190611117565b60405180910390f35b61008261050c565b60405161007191906110a1565b6100a261009d366004610f0f565b610530565b005b61008261061d565b60006100b6610cfd565b6100c36040840184611252565b8101906100d09190610f63565b90506100da610d33565b6100fd826020015173ffffffffffffffffffffffffffffffffffffffff16610641565b806101265750610126826040015173ffffffffffffffffffffffffffffffffffffffff16610641565b1561017f5761017f61017a60006101406040880188611252565b8080601f01602080910402602001604051908101604052809392919081815260200183838082843760009201919091525061067392505050565b61072f565b60208201516101a49073ffffffffffffffffffffffffffffffffffffffff1630610737565b60808201526000825160018111156101b857fe5b14156101d6576101d08260800151826080015161080e565b60808301525b47815260005b8260600151518110156102b6576000835160018111156101f857fe5b1415610217578260800151826040015110610212576102b6565b61022b565b826080015182602001511061022b576102b6565b610233610d62565b6102558460600151838151811061024657fe5b60200260200101518585610890565b805160408501519192506102699190610a0f565b60408401526020808201519084015161028191610a0f565b60208401526040810151835161029691610a2b565b8352805160808401516102a891610a2b565b6080840152506001016101dc565b506000825160018111156102c657fe5b14156102fb578160800151816040015110156102f6576102f661017a836020015183604001518560800151610a4a565b610325565b8160800151816020015110156103255761032561017a836040015183602001518560800151610b08565b80511580159061034e575060a082015173ffffffffffffffffffffffffffffffffffffffff1615155b156104e35760a082015160009073ffffffffffffffffffffffffffffffffffffffff16600114156103fd576103896040860160208701610f0f565b73ffffffffffffffffffffffffffffffffffffffff1682600001516040516103b09061109e565b60006040518083038185875af1925050503d80600081146103ed576040519150601f19603f3d011682016040523d82523d6000602084013e6103f2565b606091505b5050809150506104a1565b60a083015173ffffffffffffffffffffffffffffffffffffffff166002141561042d576103896020860186610f0f565b8260a0015173ffffffffffffffffffffffffffffffffffffffff1682600001516040516104599061109e565b60006040518083038185875af1925050503d8060008114610496576040519150601f19603f3d011682016040523d82523d6000602084013e61049b565b606091505b50909150505b806104e1576040517f08c379a00000000000000000000000000000000000000000000000000000000081526004016104d890611189565b60405180910390fd5b505b507f13c9929e000000000000000000000000000000000000000000000000000000009392505050565b7f000000000000000000000000000000000000000000000000000000000000000081565b3373ffffffffffffffffffffffffffffffffffffffff7f0000000000000000000000000000000000000000000000000000000000000000161461059a5761059a61017a337f0000000000000000000000000000000000000000000000000000000000000000610b40565b3073ffffffffffffffffffffffffffffffffffffffff7f000000000000000000000000000000000000000000000000000000000000000016146106045761060461017a307f0000000000000000000000000000000000000000000000000000000000000000610b76565b8073ffffffffffffffffffffffffffffffffffffffff16ff5b7f000000000000000000000000000000000000000000000000000000000000000081565b73ffffffffffffffffffffffffffffffffffffffff811673eeeeeeeeeeeeeeeeeeeeeeeeeeeeeeeeeeeeeeee14919050565b60607f505ff6a4f24a0aa989a95ffe4c8d435d76fb30dea162a3e3022e749867722deb83836040516024016106a9929190611166565b604080517fffffffffffffffffffffffffffffffffffffffffffffffffffffffffffffffe08184030181529190526020810180517bffffffffffffffffffffffffffffffffffffffffffffffffffffffff167fffffffff000000000000000000000000000000000000000000000000000000009093169290921790915290505b92915050565b805160208201fd5b600061074283610641565b15610765575073ffffffffffffffffffffffffffffffffffffffff811631610729565b6040517f70a0823100000000000000000000000000000000000000000000000000000000815273ffffffffffffffffffffffffffffffffffffffff8416906370a08231906107b79085906004016110a1565b60206040518083038186803b1580156107cf57600080fd5b505afa1580156107e3573d6000803e3d6000fd5b505050506040513d601f19601f820116820180604052508101906108079190611020565b9392505050565b60007f8000000000000000000000000000000000000000000000000000000000000000808416141561088957610882670de0b6b3a76400006108727f7fffffffffffffffffffffffffffffffffffffffffffffffffffffffffffffff861682610bac565b84028161087b57fe5b0483610bac565b9050610729565b5090919050565b610898610d62565b60006108b08484876020015188604001516000610bbb565b9050600060607f000000000000000000000000000000000000000000000000000000000000000073ffffffffffffffffffffffffffffffffffffffff1663f712a14860e01b88886020015189604001518760405160240161091494939291906111e6565b604080517fffffffffffffffffffffffffffffffffffffffffffffffffffffffffffffffe08184030181529181526020820180517bffffffffffffffffffffffffffffffffffffffffffffffffffffffff167fffffffff0000000000000000000000000000000000000000000000000000000090941693909317909252905161099d9190611082565b600060405180830381855af49150503d80600081146109d8576040519150601f19603f3d011682016040523d82523d6000602084013e6109dd565b606091505b50915091508115610a0557808060200190518101906109fc9190611020565b60208501528284525b5050509392505050565b6000828201838110156108075761080761017a60008686610c51565b600082821115610a4457610a4461017a60028585610c51565b50900390565b60607fadc35ca636cd9f46b974d5bec4df8af095d0ae177ec6043620af588c03bdc616848484604051602401610a82939291906110e9565b604080517fffffffffffffffffffffffffffffffffffffffffffffffffffffffffffffffe08184030181529190526020810180517bffffffffffffffffffffffffffffffffffffffffffffffffffffffff167fffffffff000000000000000000000000000000000000000000000000000000009093169290921790915290509392505050565b60607f498df3ae522acadbf67e6aa5fde156a5b74336950cd271175e7336907df120e3848484604051602401610a82939291906110e9565b60607f5cec653b364cca3880afa73ceff506d0651d11d26abbbe4a56460aa933b21b0883836040516024016106a99291906110c2565b60607fb5cf2cd09307d6c717473134badbb9761c2c97d7565566c2a71eba6cd6fc514d83836040516024016106a99291906110c2565b60008183106108895781610807565b60008086516001811115610bcb57fe5b1415610c085760408501516080870151610be491610a2b565b90508115610c0357610c0081610bfa8685610a0f565b86610c70565b90505b610c30565b610c2d610c2686602001518860800151610a2b90919063ffffffff16565b8486610c70565b90505b610c47610c3d8286610bac565b8660800151610bac565b9695505050505050565b606063e946c1bb60e01b848484604051602401610a8293929190611144565b6000610c9a83610c94610c84826001610a2b565b610c8e8887610ca2565b90610a0f565b90610cd3565b949350505050565b600082610cb157506000610729565b82820282848281610cbe57fe5b04146108075761080761017a60018686610c51565b600081610ce957610ce961017a60038585610c51565b6000828481610cf457fe5b04949350505050565b6040805160c081019091528060008152600060208201819052604082018190526060808301526080820181905260a09091015290565b6040518060a0016040528060008152602001600081526020016000815260200160008152602001600081525090565b60405180606001604052806000815260200160008152602001600081525090565b803561072981611313565b600082601f830112610d9e578081fd5b813567ffffffffffffffff80821115610db5578283fd5b6020610dc481828502016112bc565b838152935080840185820160005b85811015610e6d57813588016080807fffffffffffffffffffffffffffffffffffffffffffffffffffffffffffffffe0838d03011215610e1157600080fd5b610e1a816112bc565b8287013581526040808401358289015260608085013582840152928401359289841115610e4657600080fd5b610e548e8a86880101610e79565b9083015250855250509183019190830190600101610dd2565b50505050505092915050565b600082601f830112610e89578081fd5b813567ffffffffffffffff811115610e9f578182fd5b610ed060207fffffffffffffffffffffffffffffffffffffffffffffffffffffffffffffffe0601f840116016112bc565b9150808252836020828501011115610ee757600080fd5b8060208401602084013760009082016020015292915050565b80356002811061072957600080fd5b600060208284031215610f20578081fd5b813561080781611313565b600060208284031215610f3c578081fd5b813567ffffffffffffffff811115610f52578182fd5b820160608185031215610807578182fd5b600060208284031215610f74578081fd5b813567ffffffffffffffff80821115610f8b578283fd5b9083019060c08286031215610f9e578283fd5b610fa860c06112bc565b610fb28684610f00565b8152610fc18660208501610d83565b6020820152610fd38660408501610d83565b6040820152606083013582811115610fe9578485fd5b610ff587828601610d8e565b606083015250608083013560808201526110128660a08501610d83565b60a082015295945050505050565b600060208284031215611031578081fd5b5051919050565b600081518084526110508160208601602086016112e3565b601f017fffffffffffffffffffffffffffffffffffffffffffffffffffffffffffffffe0169290920160200192915050565b600082516110948184602087016112e3565b9190910192915050565b90565b73ffffffffffffffffffffffffffffffffffffffff91909116815260200190565b73ffffffffffffffffffffffffffffffffffffffff92831681529116602082015260400190565b73ffffffffffffffffffffffffffffffffffffffff9390931683526020830191909152604082015260600190565b7fffffffff0000000000000000000000000000000000000000000000000000000091909116815260200190565b606081016004851061115257fe5b938152602081019290925260409091015290565b60006002841061117257fe5b83825260406020830152610c9a6040830184611038565b6020808252602a908201527f46696c6c51756f74655472616e73666f726d65722f45544845525f5452414e5360408201527f4645525f46414c49454400000000000000000000000000000000000000000000606082015260800190565b60006080825285516080830152602086015160a0830152604086015160c08301526060860151608060e0840152611221610100840182611038565b73ffffffffffffffffffffffffffffffffffffffff9687166020850152949095166040830152506060015292915050565b60008083357fffffffffffffffffffffffffffffffffffffffffffffffffffffffffffffffe1843603018112611286578283fd5b83018035915067ffffffffffffffff8211156112a0578283fd5b6020019150368190038213156112b557600080fd5b9250929050565b60405181810167ffffffffffffffff811182821017156112db57600080fd5b604052919050565b60005b838110156112fe5781810151838201526020016112e6565b8381111561130d576000848401525b50505050565b73ffffffffffffffffffffffffffffffffffffffff8116811461133557600080fd5b5056fea2646970667358221220f23b1e9230363db2b469b7713cc94fb31e9351ce87f697632637ac7adc72d52d64736f6c634300060c0033",
  "devdoc": {
    "details": "A transformer that fills an ERC20 market sell/buy quote.      This transformer shortcuts bridge orders and fills them directly",
    "events": {
      "ProtocolFeeUnfunded(bytes32)": {
        "details": "Emitted when a trade is skipped due to a lack of funds      to pay the 0x Protocol fee.",
        "params": {
          "orderHash": "The hash of the order that was skipped."
        }
      }
    },
    "kind": "dev",
    "methods": {
      "constructor": {
        "details": "Create this contract.",
        "params": {
          "bridgeAdapter_": "The bridge adapter contract."
        }
      },
      "die(address)": {
        "details": "Destruct this contract. Only callable by the deployer and will not      succeed in the context of a delegatecall (from another contract).",
        "params": {
          "ethRecipient": "The recipient of ETH held in this contract."
        }
      },
      "transform((address,address,bytes))": {
        "details": "Sell this contract's entire balance of of `sellToken` in exchange      for `buyToken` by filling `orders`. Protocol fees should be attached      to this call. `buyToken` and excess ETH will be transferred back to the caller.",
        "params": {
          "context": "Context information."
        },
        "returns": {
          "magicBytes": "The success bytes (`LibERC20Transformer.TRANSFORMER_SUCCESS`)."
        }
      }
    },
    "stateVariables": {
      "HIGH_BIT": {
        "details": "The highest bit of a uint256 value."
      },
      "LOWER_255_BITS": {
        "details": "Mask of the lower 255 bits of a uint256 value."
      },
      "REFUND_RECEIVER_RECIPIENT": {
        "details": "If `refundReceiver` is set to this address, unpsent      protocol fees will be sent to the transform recipient."
      },
      "REFUND_RECEIVER_SENDER": {
        "details": "If `refundReceiver` is set to this address, unpsent      protocol fees will be sent to the sender."
      },
      "bridgeAdapter": {
        "details": "The BridgeAdapter address"
      }
    },
    "version": 1
  },
  "userdoc": {
    "kind": "user",
    "methods": {},
    "version": 1
  },
  "storageLayout": {
    "storage": [],
    "types": null
  }
}