{
  "address": "0x9B83B26Bc34d082Fb97fA68a6f2fb5204b84AC16",
  "abi": [
    {
      "inputs": [
        {
          "internalType": "address payable",
          "name": "initializeCaller_",
          "type": "address"
        }
      ],
      "stateMutability": "nonpayable",
      "type": "constructor"
    },
    {
      "inputs": [
        {
          "internalType": "address payable",
          "name": "ethRecipient",
          "type": "address"
        }
      ],
      "name": "die",
      "outputs": [],
      "stateMutability": "nonpayable",
      "type": "function"
    },
    {
      "inputs": [],
      "name": "getBootstrapper",
      "outputs": [
        {
          "internalType": "address",
          "name": "bootstrapper",
          "type": "address"
        }
      ],
      "stateMutability": "view",
      "type": "function"
    },
    {
      "inputs": [],
      "name": "initializeCaller",
      "outputs": [
        {
          "internalType": "address",
          "name": "",
          "type": "address"
        }
      ],
      "stateMutability": "view",
      "type": "function"
    },
    {
      "inputs": [
        {
          "internalType": "address payable",
          "name": "owner",
          "type": "address"
        },
        {
          "internalType": "contract Router",
          "name": "router",
          "type": "address"
        },
        {
          "components": [
            {
              "internalType": "contract SimpleFunctionRegistryFeature",
              "name": "registry",
              "type": "address"
            },
            {
              "internalType": "contract OwnableFeature",
              "name": "ownable",
              "type": "address"
            },
            {
              "internalType": "contract TransformERC20Feature",
              "name": "transformERC20",
              "type": "address"
            }
          ],
          "internalType": "struct FullMigration.Features",
          "name": "features",
          "type": "tuple"
        },
        {
          "components": [
            {
              "internalType": "address",
              "name": "transformerDeployer",
              "type": "address"
            }
          ],
          "internalType": "struct FullMigration.MigrateOpts",
          "name": "migrateOpts",
          "type": "tuple"
        }
      ],
      "name": "migrateRouter",
      "outputs": [
        {
          "internalType": "contract Router",
          "name": "_router",
          "type": "address"
        }
      ],
      "stateMutability": "nonpayable",
      "type": "function"
    }
  ],
  "transactionHash": "0x2e6e1c6dadf5a75001ace83144651f35be5d016313c66c12d9c9caa7a5af50d7",
  "args": [
    "0x5Cff77Db6D9fc366d5fe6Db13783B35870ca45b4"
  ],
  "numDeployments": 1,
  "solcInputHash": "ee42d8878bdca2e6ffa21e46a4df1a4b",
  "bytecode": "0x60a060405234801561001057600080fd5b5060405161138638038061138683398101604081905261002f916100a9565b6001600160601b0319606082901b16608052604051309061004f9061009c565b61005991906100d7565b604051809103906000f080158015610075573d6000803e3d6000fd5b50600080546001600160a01b0319166001600160a01b0392909216919091179055506100eb565b610afa8061088c83390190565b6000602082840312156100ba578081fd5b81516001600160a01b03811681146100d0578182fd5b9392505050565b6001600160a01b0391909116815260200190565b60805160601c61078061010c6000398060b952806102e952506107806000f3fe608060405234801561001057600080fd5b506004361061004c5760003560e01c80631cbc4888146100515780635f136a4a1461007a578063b3d3173514610082578063c9353cb51461008a575b600080fd5b61006461005f3660046104bb565b61009f565b60405161007191906105ce565b60405180910390f35b6100646102e7565b61006461030b565b61009d610098366004610498565b610327565b005b60003373ffffffffffffffffffffffffffffffffffffffff7f00000000000000000000000000000000000000000000000000000000000000001614610119576040517f08c379a0000000000000000000000000000000000000000000000000000000008152600401610110906106c7565b60405180910390fd5b600054604080518082018252855173ffffffffffffffffffffffffffffffffffffffff908116825260208088015182169083015291517fd22c6224000000000000000000000000000000000000000000000000000000008152919092169163d22c62249161018e9130918991906004016105ef565b602060405180830381600087803b1580156101a857600080fd5b505af11580156101bc573d6000803e3d6000fd5b505050506040513d601f19601f820116820180604052508101906101e091906105b2565b506101ec848484610379565b6040517ff2fde38b00000000000000000000000000000000000000000000000000000000815273ffffffffffffffffffffffffffffffffffffffff85169063f2fde38b9061023e9088906004016105ce565b600060405180830381600087803b15801561025857600080fd5b505af115801561026c573d6000803e3d6000fd5b50506040517fc9353cb500000000000000000000000000000000000000000000000000000000815230925063c9353cb591506102ac9088906004016105ce565b600060405180830381600087803b1580156102c657600080fd5b505af11580156102da573d6000803e3d6000fd5b5095979650505050505050565b7f000000000000000000000000000000000000000000000000000000000000000081565b60005473ffffffffffffffffffffffffffffffffffffffff1690565b333014610360576040517f08c379a0000000000000000000000000000000000000000000000000000000008152600401610110906106c7565b8073ffffffffffffffffffffffffffffffffffffffff16ff5b60008390508073ffffffffffffffffffffffffffffffffffffffff1663261fe679846040015163ce5494bb60e01b85600001516040516024016103bc91906105ce565b604080517fffffffffffffffffffffffffffffffffffffffffffffffffffffffffffffffe08184030181529181526020820180517bffffffffffffffffffffffffffffffffffffffffffffffffffffffff167fffffffff000000000000000000000000000000000000000000000000000000009485161790525160e085901b909216825261044f9291309060040161062e565b600060405180830381600087803b15801561046957600080fd5b505af115801561047d573d6000803e3d6000fd5b5050505050505050565b803561049281610725565b92915050565b6000602082840312156104a9578081fd5b81356104b481610725565b9392505050565b60008060008084860360c08112156104d1578384fd5b85356104dc81610725565b945060208601356104ec81610725565b935060607fffffffffffffffffffffffffffffffffffffffffffffffffffffffffffffffc08201121561051d578283fd5b61052760606106fe565b604087013561053581610725565b81526105448860608901610487565b60208201526105568860808901610487565b6040820152925060207fffffffffffffffffffffffffffffffffffffffffffffffffffffffffffffff608201121561058c578182fd5b5061059760206106fe565b60a08601356105a581610725565b8152939692955090935050565b6000602082840312156105c3578081fd5b81516104b481610725565b73ffffffffffffffffffffffffffffffffffffffff91909116815260200190565b73ffffffffffffffffffffffffffffffffffffffff93841681529183166020808401919091528151841660408401520151909116606082015260800190565b600073ffffffffffffffffffffffffffffffffffffffff808616835260206060818501528551806060860152835b818110156106785787810183015186820160800152820161065c565b818111156106895784608083880101525b509490911660408401525050601f919091017fffffffffffffffffffffffffffffffffffffffffffffffffffffffffffffffe0160160800192915050565b6020808252601c908201527f46756c6c4d6967726174696f6e2f494e56414c49445f53454e44455200000000604082015260600190565b60405181810167ffffffffffffffff8111828210171561071d57600080fd5b604052919050565b73ffffffffffffffffffffffffffffffffffffffff8116811461074757600080fd5b5056fea26469706673582212203e6627644ca9df0414a20a444ffff068785a1914577bf435e54a92a3b223b7e964736f6c634300060c003360c060405234801561001057600080fd5b50604051610afa380380610afa83398101604081905261002f9161004c565b6001600160601b0319606091821b1660805230901b60a05261007a565b60006020828403121561005d578081fd5b81516001600160a01b0381168114610073578182fd5b9392505050565b60805160601c60a05160601c610a526100a8600039806102e45250806102aa52806103775250610a526000f3fe608060405234801561001057600080fd5b506004361061004c5760003560e01c806308cf7934146100515780635f136a4a1461007a578063c9353cb51461008f578063d22c6224146100a4575b600080fd5b61006461005f3660046107c6565b6100b7565b604051610071919061091f565b60405180910390f35b6100826102a8565b6040516100719190610857565b6100a261009d36600461075c565b6102cc565b005b6100826100b236600461077f565b61035d565b80516040805160048152602481019091526020810180517bffffffffffffffffffffffffffffffffffffffffffffffffffffffff167ffb969b0a0000000000000000000000000000000000000000000000000000000017905260009161011c9161053f565b60208083015160408051600481526024810190915291820180517bffffffffffffffffffffffffffffffffffffffffffffffffffffffff167ffb969b0a000000000000000000000000000000000000000000000000000000001790526101819161053f565b6040517f9db64a400000000000000000000000000000000000000000000000000000000081523090639db64a40906101e0907f0ee8be1b000000000000000000000000000000000000000000000000000000009060009060040161094c565b600060405180830381600087803b1580156101fa57600080fd5b505af115801561020e573d6000803e3d6000fd5b50506040517ff2fde38b00000000000000000000000000000000000000000000000000000000815230925063f2fde38b915061024e908690600401610857565b600060405180830381600087803b15801561026857600080fd5b505af115801561027c573d6000803e3d6000fd5b507fd150751b000000000000000000000000000000000000000000000000000000009695505050505050565b7f000000000000000000000000000000000000000000000000000000000000000081565b3373ffffffffffffffffffffffffffffffffffffffff7f00000000000000000000000000000000000000000000000000000000000000001614610344576040517f08c379a000000000000000000000000000000000000000000000000000000000815260040161033b90610994565b60405180910390fd5b8073ffffffffffffffffffffffffffffffffffffffff16ff5b60003373ffffffffffffffffffffffffffffffffffffffff7f000000000000000000000000000000000000000000000000000000000000000016146103ce576040517f08c379a000000000000000000000000000000000000000000000000000000000815260040161033b90610994565b8273ffffffffffffffffffffffffffffffffffffffff166373f208d5306308cf793460e01b8786604051602401610406929190610878565b604080517fffffffffffffffffffffffffffffffffffffffffffffffffffffffffffffffe08184030181529181526020820180517bffffffffffffffffffffffffffffffffffffffffffffffffffffffff167fffffffff000000000000000000000000000000000000000000000000000000009485161790525160e085901b909216825261049792916004016108b1565b600060405180830381600087803b1580156104b157600080fd5b505af11580156104c5573d6000803e3d6000fd5b50506040517fc9353cb500000000000000000000000000000000000000000000000000000000815230925063c9353cb59150610505908790600401610857565b600060405180830381600087803b15801561051f57600080fd5b505af1158015610533573d6000803e3d6000fd5b50949695505050505050565b600060608373ffffffffffffffffffffffffffffffffffffffff1683604051610568919061083b565b600060405180830381855af49150503d80600081146105a3576040519150601f19603f3d011682016040523d82523d6000602084013e6105a8565b606091505b50915091508115806105bc57508051602014155b8061061e575080517fd150751b00000000000000000000000000000000000000000000000000000000906105f990830160209081019084016107fb565b7fffffffff000000000000000000000000000000000000000000000000000000001614155b1561063557610635610630858361063b565b6106f6565b50505050565b60607fd19d65df6830e3cb0da1e12b8e9738e2dc473f830d8af813bcc031eb5a1675d183836040516024016106719291906108b1565b604080517fffffffffffffffffffffffffffffffffffffffffffffffffffffffffffffffe08184030181529190526020810180517bffffffffffffffffffffffffffffffffffffffffffffffffffffffff167fffffffff0000000000000000000000000000000000000000000000000000000090931692909217909152905092915050565b805160208201fd5b60006040828403121561070f578081fd5b6040516040810181811067ffffffffffffffff8211171561072e578283fd5b604052905080823561073f816109f7565b8152602083013561074f816109f7565b6020919091015292915050565b60006020828403121561076d578081fd5b8135610778816109f7565b9392505050565b600080600060808486031215610793578182fd5b833561079e816109f7565b925060208401356107ae816109f7565b91506107bd85604086016106fe565b90509250925092565b600080606083850312156107d8578182fd5b82356107e3816109f7565b91506107f284602085016106fe565b90509250929050565b60006020828403121561080c578081fd5b81517fffffffff0000000000000000000000000000000000000000000000000000000081168114610778578182fd5b6000825161084d8184602087016109cb565b9190910192915050565b73ffffffffffffffffffffffffffffffffffffffff91909116815260200190565b73ffffffffffffffffffffffffffffffffffffffff92831681528151831660208083019190915290910151909116604082015260600190565b600073ffffffffffffffffffffffffffffffffffffffff841682526040602083015282518060408401526108ec8160608501602087016109cb565b601f017fffffffffffffffffffffffffffffffffffffffffffffffffffffffffffffffe016919091016060019392505050565b7fffffffff0000000000000000000000000000000000000000000000000000000091909116815260200190565b7fffffffff0000000000000000000000000000000000000000000000000000000092909216825273ffffffffffffffffffffffffffffffffffffffff16602082015260400190565b6020808252601f908201527f496e697469616c4d6967726174696f6e2f494e56414c49445f53454e44455200604082015260600190565b60005b838110156109e65781810151838201526020016109ce565b838111156106355750506000910152565b73ffffffffffffffffffffffffffffffffffffffff81168114610a1957600080fd5b5056fea26469706673582212205eba502c2aa3c148adeb1f7dbb0104d232c3dd7ba99829e43714d3abedba034464736f6c634300060c0033",
  "devdoc": {
    "details": "A contract for deploying and configuring the full Router contract.",
    "kind": "dev",
    "methods": {
      "constructor": {
        "details": "Instantiate this contract and set the allowed caller of `initializeRouter()`      to `initializeCaller`.",
        "params": {
          "initializeCaller_": "The allowed caller of `initializeRouter()`."
        }
      },
      "die(address)": {
        "details": "Destroy this contract. Only callable from ourselves (from `initializeRouter()`).",
        "params": {
          "ethRecipient": "Receiver of any ETH in this contract."
        }
      },
      "getBootstrapper()": {
        "details": "Retrieve the bootstrapper address to use when constructing `Router`.",
        "returns": {
          "bootstrapper": "The bootstrapper address."
        }
      },
      "migrateRouter(address,address,(address,address,address),(address))": {
        "details": "Initialize the `Router` contract with the full feature set,      transfer ownership to `owner`, then self-destruct.",
        "params": {
          "features": "Features to add to the proxy.",
          "migrateOpts": "Parameters needed to initialize features.",
          "owner": "The owner of the contract.",
          "router": "The instance of the Router contract. Router should        been constructed with this contract as the bootstrapper."
        },
        "returns": {
          "_router": "The configured Router contract. Same as the `router` parameter."
        }
      }
    },
    "stateVariables": {
      "_initialMigration": {
        "details": "The initial migration contract."
      },
      "initializeCaller": {
        "details": "The allowed caller of `initializeRouter()`."
      }
    },
    "version": 1
  },
  "userdoc": {
    "kind": "user",
    "methods": {},
    "version": 1
  },
  "storageLayout": {
    "storage": [
      {
        "astId": 10181,
        "contract": "src/router/migrations/FullMigration.sol:FullMigration",
        "label": "_initialMigration",
        "offset": 0,
        "slot": "0",
        "type": "t_contract(InitialMigration)10532"
      }
    ],
    "types": {
      "t_contract(InitialMigration)10532": {
        "encoding": "inplace",
        "label": "contract InitialMigration",
        "numberOfBytes": "20"
      }
    }
  }
}