{
  "address": "0xB9913D1358f4604A84C56E88aB94dD6117007940",
  "abi": [
    {
      "inputs": [
        {
          "internalType": "address",
          "name": "zeroExAddress",
          "type": "address"
        },
        {
          "internalType": "contract IEtherTokenV06",
          "name": "weth",
          "type": "address"
        },
        {
          "internalType": "contract IStaking",
          "name": "staking",
          "type": "address"
        },
        {
          "internalType": "contract FeeCollectorController",
          "name": "feeCollectorController",
          "type": "address"
        },
        {
          "internalType": "uint32",
          "name": "protocolFeeMultiplier",
          "type": "uint32"
        }
      ],
      "stateMutability": "nonpayable",
      "type": "constructor"
    },
    {
      "anonymous": false,
      "inputs": [
        {
          "indexed": false,
          "internalType": "bytes32",
          "name": "orderHash",
          "type": "bytes32"
        },
        {
          "indexed": false,
          "internalType": "address",
          "name": "maker",
          "type": "address"
        },
        {
          "indexed": false,
          "internalType": "address",
          "name": "taker",
          "type": "address"
        },
        {
          "indexed": false,
          "internalType": "address",
          "name": "feeRecipient",
          "type": "address"
        },
        {
          "indexed": false,
          "internalType": "address",
          "name": "makerToken",
          "type": "address"
        },
        {
          "indexed": false,
          "internalType": "address",
          "name": "takerToken",
          "type": "address"
        },
        {
          "indexed": false,
          "internalType": "uint128",
          "name": "takerTokenFilledAmount",
          "type": "uint128"
        },
        {
          "indexed": false,
          "internalType": "uint128",
          "name": "makerTokenFilledAmount",
          "type": "uint128"
        },
        {
          "indexed": false,
          "internalType": "uint128",
          "name": "takerTokenFeeFilledAmount",
          "type": "uint128"
        },
        {
          "indexed": false,
          "internalType": "uint256",
          "name": "protocolFeePaid",
          "type": "uint256"
        },
        {
          "indexed": false,
          "internalType": "bytes32",
          "name": "pool",
          "type": "bytes32"
        }
      ],
      "name": "LimitOrderFilled",
      "type": "event"
    },
    {
      "anonymous": false,
      "inputs": [
        {
          "indexed": false,
          "internalType": "bytes32",
          "name": "orderHash",
          "type": "bytes32"
        },
        {
          "indexed": false,
          "internalType": "address",
          "name": "maker",
          "type": "address"
        }
      ],
      "name": "OrderCancelled",
      "type": "event"
    },
    {
      "anonymous": false,
      "inputs": [
        {
          "indexed": false,
          "internalType": "address",
          "name": "maker",
          "type": "address"
        },
        {
          "indexed": false,
          "internalType": "address",
          "name": "signer",
          "type": "address"
        },
        {
          "indexed": false,
          "internalType": "bool",
          "name": "allowed",
          "type": "bool"
        }
      ],
      "name": "OrderSignerRegistered",
      "type": "event"
    },
    {
      "anonymous": false,
      "inputs": [
        {
          "indexed": false,
          "internalType": "address",
          "name": "maker",
          "type": "address"
        },
        {
          "indexed": false,
          "internalType": "address",
          "name": "makerToken",
          "type": "address"
        },
        {
          "indexed": false,
          "internalType": "address",
          "name": "takerToken",
          "type": "address"
        },
        {
          "indexed": false,
          "internalType": "uint256",
          "name": "minValidSalt",
          "type": "uint256"
        }
      ],
      "name": "PairCancelledLimitOrders",
      "type": "event"
    },
    {
      "anonymous": false,
      "inputs": [
        {
          "indexed": false,
          "internalType": "address",
          "name": "maker",
          "type": "address"
        },
        {
          "indexed": false,
          "internalType": "address",
          "name": "makerToken",
          "type": "address"
        },
        {
          "indexed": false,
          "internalType": "address",
          "name": "takerToken",
          "type": "address"
        },
        {
          "indexed": false,
          "internalType": "uint256",
          "name": "minValidSalt",
          "type": "uint256"
        }
      ],
      "name": "PairCancelledRfqOrders",
      "type": "event"
    },
    {
      "anonymous": false,
      "inputs": [
        {
          "indexed": false,
          "internalType": "bytes32",
          "name": "orderHash",
          "type": "bytes32"
        },
        {
          "indexed": false,
          "internalType": "address",
          "name": "maker",
          "type": "address"
        },
        {
          "indexed": false,
          "internalType": "address",
          "name": "taker",
          "type": "address"
        },
        {
          "indexed": false,
          "internalType": "address",
          "name": "makerToken",
          "type": "address"
        },
        {
          "indexed": false,
          "internalType": "address",
          "name": "takerToken",
          "type": "address"
        },
        {
          "indexed": false,
          "internalType": "uint128",
          "name": "takerTokenFilledAmount",
          "type": "uint128"
        },
        {
          "indexed": false,
          "internalType": "uint128",
          "name": "makerTokenFilledAmount",
          "type": "uint128"
        },
        {
          "indexed": false,
          "internalType": "bytes32",
          "name": "pool",
          "type": "bytes32"
        }
      ],
      "name": "RfqOrderFilled",
      "type": "event"
    },
    {
      "anonymous": false,
      "inputs": [
        {
          "indexed": false,
          "internalType": "address",
          "name": "origin",
          "type": "address"
        },
        {
          "indexed": false,
          "internalType": "address[]",
          "name": "addrs",
          "type": "address[]"
        },
        {
          "indexed": false,
          "internalType": "bool",
          "name": "allowed",
          "type": "bool"
        }
      ],
      "name": "RfqOrderOriginsAllowed",
      "type": "event"
    },
    {
      "inputs": [],
      "name": "EIP712_DOMAIN_SEPARATOR",
      "outputs": [
        {
          "internalType": "bytes32",
          "name": "",
          "type": "bytes32"
        }
      ],
      "stateMutability": "view",
      "type": "function"
    },
    {
      "inputs": [],
      "name": "FEATURE_NAME",
      "outputs": [
        {
          "internalType": "string",
          "name": "",
          "type": "string"
        }
      ],
      "stateMutability": "view",
      "type": "function"
    },
    {
      "inputs": [],
      "name": "FEATURE_VERSION",
      "outputs": [
        {
          "internalType": "uint256",
          "name": "",
          "type": "uint256"
        }
      ],
      "stateMutability": "view",
      "type": "function"
    },
    {
      "inputs": [],
      "name": "PROTOCOL_FEE_MULTIPLIER",
      "outputs": [
        {
          "internalType": "uint32",
          "name": "",
          "type": "uint32"
        }
      ],
      "stateMutability": "view",
      "type": "function"
    },
    {
      "inputs": [
        {
          "components": [
            {
              "internalType": "contract IERC20TokenV06",
              "name": "makerToken",
              "type": "address"
            },
            {
              "internalType": "contract IERC20TokenV06",
              "name": "takerToken",
              "type": "address"
            },
            {
              "internalType": "uint128",
              "name": "makerAmount",
              "type": "uint128"
            },
            {
              "internalType": "uint128",
              "name": "takerAmount",
              "type": "uint128"
            },
            {
              "internalType": "uint128",
              "name": "takerTokenFeeAmount",
              "type": "uint128"
            },
            {
              "internalType": "address",
              "name": "maker",
              "type": "address"
            },
            {
              "internalType": "address",
              "name": "taker",
              "type": "address"
            },
            {
              "internalType": "address",
              "name": "sender",
              "type": "address"
            },
            {
              "internalType": "address",
              "name": "feeRecipient",
              "type": "address"
            },
            {
              "internalType": "bytes32",
              "name": "pool",
              "type": "bytes32"
            },
            {
              "internalType": "uint64",
              "name": "expiry",
              "type": "uint64"
            },
            {
              "internalType": "uint256",
              "name": "salt",
              "type": "uint256"
            }
          ],
          "internalType": "struct LibNativeOrder.LimitOrder",
          "name": "order",
          "type": "tuple"
        },
        {
          "components": [
            {
              "internalType": "enum LibSignature.SignatureType",
              "name": "signatureType",
              "type": "uint8"
            },
            {
              "internalType": "uint8",
              "name": "v",
              "type": "uint8"
            },
            {
              "internalType": "bytes32",
              "name": "r",
              "type": "bytes32"
            },
            {
              "internalType": "bytes32",
              "name": "s",
              "type": "bytes32"
            }
          ],
          "internalType": "struct LibSignature.Signature",
          "name": "signature",
          "type": "tuple"
        },
        {
          "internalType": "uint128",
          "name": "takerTokenFillAmount",
          "type": "uint128"
        },
        {
          "internalType": "address",
          "name": "taker",
          "type": "address"
        },
        {
          "internalType": "address",
          "name": "sender",
          "type": "address"
        }
      ],
      "name": "_fillLimitOrder",
      "outputs": [
        {
          "internalType": "uint128",
          "name": "takerTokenFilledAmount",
          "type": "uint128"
        },
        {
          "internalType": "uint128",
          "name": "makerTokenFilledAmount",
          "type": "uint128"
        }
      ],
      "stateMutability": "payable",
      "type": "function"
    },
    {
      "inputs": [
        {
          "components": [
            {
              "internalType": "contract IERC20TokenV06",
              "name": "makerToken",
              "type": "address"
            },
            {
              "internalType": "contract IERC20TokenV06",
              "name": "takerToken",
              "type": "address"
            },
            {
              "internalType": "uint128",
              "name": "makerAmount",
              "type": "uint128"
            },
            {
              "internalType": "uint128",
              "name": "takerAmount",
              "type": "uint128"
            },
            {
              "internalType": "address",
              "name": "maker",
              "type": "address"
            },
            {
              "internalType": "address",
              "name": "taker",
              "type": "address"
            },
            {
              "internalType": "address",
              "name": "txOrigin",
              "type": "address"
            },
            {
              "internalType": "bytes32",
              "name": "pool",
              "type": "bytes32"
            },
            {
              "internalType": "uint64",
              "name": "expiry",
              "type": "uint64"
            },
            {
              "internalType": "uint256",
              "name": "salt",
              "type": "uint256"
            }
          ],
          "internalType": "struct LibNativeOrder.RfqOrder",
          "name": "order",
          "type": "tuple"
        },
        {
          "components": [
            {
              "internalType": "enum LibSignature.SignatureType",
              "name": "signatureType",
              "type": "uint8"
            },
            {
              "internalType": "uint8",
              "name": "v",
              "type": "uint8"
            },
            {
              "internalType": "bytes32",
              "name": "r",
              "type": "bytes32"
            },
            {
              "internalType": "bytes32",
              "name": "s",
              "type": "bytes32"
            }
          ],
          "internalType": "struct LibSignature.Signature",
          "name": "signature",
          "type": "tuple"
        },
        {
          "internalType": "uint128",
          "name": "takerTokenFillAmount",
          "type": "uint128"
        },
        {
          "internalType": "address",
          "name": "taker",
          "type": "address"
        },
        {
          "internalType": "bool",
          "name": "useSelfBalance",
          "type": "bool"
        },
        {
          "internalType": "address",
          "name": "recipient",
          "type": "address"
        }
      ],
      "name": "_fillRfqOrder",
      "outputs": [
        {
          "internalType": "uint128",
          "name": "takerTokenFilledAmount",
          "type": "uint128"
        },
        {
          "internalType": "uint128",
          "name": "makerTokenFilledAmount",
          "type": "uint128"
        }
      ],
      "stateMutability": "nonpayable",
      "type": "function"
    },
    {
      "inputs": [
        {
          "components": [
            {
              "internalType": "contract IERC20TokenV06",
              "name": "makerToken",
              "type": "address"
            },
            {
              "internalType": "contract IERC20TokenV06",
              "name": "takerToken",
              "type": "address"
            },
            {
              "internalType": "uint128",
              "name": "makerAmount",
              "type": "uint128"
            },
            {
              "internalType": "uint128",
              "name": "takerAmount",
              "type": "uint128"
            },
            {
              "internalType": "uint128",
              "name": "takerTokenFeeAmount",
              "type": "uint128"
            },
            {
              "internalType": "address",
              "name": "maker",
              "type": "address"
            },
            {
              "internalType": "address",
              "name": "taker",
              "type": "address"
            },
            {
              "internalType": "address",
              "name": "sender",
              "type": "address"
            },
            {
              "internalType": "address",
              "name": "feeRecipient",
              "type": "address"
            },
            {
              "internalType": "bytes32",
              "name": "pool",
              "type": "bytes32"
            },
            {
              "internalType": "uint64",
              "name": "expiry",
              "type": "uint64"
            },
            {
              "internalType": "uint256",
              "name": "salt",
              "type": "uint256"
            }
          ],
          "internalType": "struct LibNativeOrder.LimitOrder[]",
          "name": "orders",
          "type": "tuple[]"
        }
      ],
      "name": "batchCancelLimitOrders",
      "outputs": [],
      "stateMutability": "nonpayable",
      "type": "function"
    },
    {
      "inputs": [
        {
          "internalType": "contract IERC20TokenV06[]",
          "name": "makerTokens",
          "type": "address[]"
        },
        {
          "internalType": "contract IERC20TokenV06[]",
          "name": "takerTokens",
          "type": "address[]"
        },
        {
          "internalType": "uint256[]",
          "name": "minValidSalts",
          "type": "uint256[]"
        }
      ],
      "name": "batchCancelPairLimitOrders",
      "outputs": [],
      "stateMutability": "nonpayable",
      "type": "function"
    },
    {
      "inputs": [
        {
          "internalType": "address",
          "name": "maker",
          "type": "address"
        },
        {
          "internalType": "contract IERC20TokenV06[]",
          "name": "makerTokens",
          "type": "address[]"
        },
        {
          "internalType": "contract IERC20TokenV06[]",
          "name": "takerTokens",
          "type": "address[]"
        },
        {
          "internalType": "uint256[]",
          "name": "minValidSalts",
          "type": "uint256[]"
        }
      ],
      "name": "batchCancelPairLimitOrdersWithSigner",
      "outputs": [],
      "stateMutability": "nonpayable",
      "type": "function"
    },
    {
      "inputs": [
        {
          "internalType": "contract IERC20TokenV06[]",
          "name": "makerTokens",
          "type": "address[]"
        },
        {
          "internalType": "contract IERC20TokenV06[]",
          "name": "takerTokens",
          "type": "address[]"
        },
        {
          "internalType": "uint256[]",
          "name": "minValidSalts",
          "type": "uint256[]"
        }
      ],
      "name": "batchCancelPairRfqOrders",
      "outputs": [],
      "stateMutability": "nonpayable",
      "type": "function"
    },
    {
      "inputs": [
        {
          "internalType": "address",
          "name": "maker",
          "type": "address"
        },
        {
          "internalType": "contract IERC20TokenV06[]",
          "name": "makerTokens",
          "type": "address[]"
        },
        {
          "internalType": "contract IERC20TokenV06[]",
          "name": "takerTokens",
          "type": "address[]"
        },
        {
          "internalType": "uint256[]",
          "name": "minValidSalts",
          "type": "uint256[]"
        }
      ],
      "name": "batchCancelPairRfqOrdersWithSigner",
      "outputs": [],
      "stateMutability": "nonpayable",
      "type": "function"
    },
    {
      "inputs": [
        {
          "components": [
            {
              "internalType": "contract IERC20TokenV06",
              "name": "makerToken",
              "type": "address"
            },
            {
              "internalType": "contract IERC20TokenV06",
              "name": "takerToken",
              "type": "address"
            },
            {
              "internalType": "uint128",
              "name": "makerAmount",
              "type": "uint128"
            },
            {
              "internalType": "uint128",
              "name": "takerAmount",
              "type": "uint128"
            },
            {
              "internalType": "address",
              "name": "maker",
              "type": "address"
            },
            {
              "internalType": "address",
              "name": "taker",
              "type": "address"
            },
            {
              "internalType": "address",
              "name": "txOrigin",
              "type": "address"
            },
            {
              "internalType": "bytes32",
              "name": "pool",
              "type": "bytes32"
            },
            {
              "internalType": "uint64",
              "name": "expiry",
              "type": "uint64"
            },
            {
              "internalType": "uint256",
              "name": "salt",
              "type": "uint256"
            }
          ],
          "internalType": "struct LibNativeOrder.RfqOrder[]",
          "name": "orders",
          "type": "tuple[]"
        }
      ],
      "name": "batchCancelRfqOrders",
      "outputs": [],
      "stateMutability": "nonpayable",
      "type": "function"
    },
    {
      "inputs": [
        {
          "components": [
            {
              "internalType": "contract IERC20TokenV06",
              "name": "makerToken",
              "type": "address"
            },
            {
              "internalType": "contract IERC20TokenV06",
              "name": "takerToken",
              "type": "address"
            },
            {
              "internalType": "uint128",
              "name": "makerAmount",
              "type": "uint128"
            },
            {
              "internalType": "uint128",
              "name": "takerAmount",
              "type": "uint128"
            },
            {
              "internalType": "uint128",
              "name": "takerTokenFeeAmount",
              "type": "uint128"
            },
            {
              "internalType": "address",
              "name": "maker",
              "type": "address"
            },
            {
              "internalType": "address",
              "name": "taker",
              "type": "address"
            },
            {
              "internalType": "address",
              "name": "sender",
              "type": "address"
            },
            {
              "internalType": "address",
              "name": "feeRecipient",
              "type": "address"
            },
            {
              "internalType": "bytes32",
              "name": "pool",
              "type": "bytes32"
            },
            {
              "internalType": "uint64",
              "name": "expiry",
              "type": "uint64"
            },
            {
              "internalType": "uint256",
              "name": "salt",
              "type": "uint256"
            }
          ],
          "internalType": "struct LibNativeOrder.LimitOrder[]",
          "name": "orders",
          "type": "tuple[]"
        },
        {
          "components": [
            {
              "internalType": "enum LibSignature.SignatureType",
              "name": "signatureType",
              "type": "uint8"
            },
            {
              "internalType": "uint8",
              "name": "v",
              "type": "uint8"
            },
            {
              "internalType": "bytes32",
              "name": "r",
              "type": "bytes32"
            },
            {
              "internalType": "bytes32",
              "name": "s",
              "type": "bytes32"
            }
          ],
          "internalType": "struct LibSignature.Signature[]",
          "name": "signatures",
          "type": "tuple[]"
        }
      ],
      "name": "batchGetLimitOrderRelevantStates",
      "outputs": [
        {
          "components": [
            {
              "internalType": "bytes32",
              "name": "orderHash",
              "type": "bytes32"
            },
            {
              "internalType": "enum LibNativeOrder.OrderStatus",
              "name": "status",
              "type": "uint8"
            },
            {
              "internalType": "uint128",
              "name": "takerTokenFilledAmount",
              "type": "uint128"
            }
          ],
          "internalType": "struct LibNativeOrder.OrderInfo[]",
          "name": "orderInfos",
          "type": "tuple[]"
        },
        {
          "internalType": "uint128[]",
          "name": "actualFillableTakerTokenAmounts",
          "type": "uint128[]"
        },
        {
          "internalType": "bool[]",
          "name": "isSignatureValids",
          "type": "bool[]"
        }
      ],
      "stateMutability": "view",
      "type": "function"
    },
    {
      "inputs": [
        {
          "components": [
            {
              "internalType": "contract IERC20TokenV06",
              "name": "makerToken",
              "type": "address"
            },
            {
              "internalType": "contract IERC20TokenV06",
              "name": "takerToken",
              "type": "address"
            },
            {
              "internalType": "uint128",
              "name": "makerAmount",
              "type": "uint128"
            },
            {
              "internalType": "uint128",
              "name": "takerAmount",
              "type": "uint128"
            },
            {
              "internalType": "address",
              "name": "maker",
              "type": "address"
            },
            {
              "internalType": "address",
              "name": "taker",
              "type": "address"
            },
            {
              "internalType": "address",
              "name": "txOrigin",
              "type": "address"
            },
            {
              "internalType": "bytes32",
              "name": "pool",
              "type": "bytes32"
            },
            {
              "internalType": "uint64",
              "name": "expiry",
              "type": "uint64"
            },
            {
              "internalType": "uint256",
              "name": "salt",
              "type": "uint256"
            }
          ],
          "internalType": "struct LibNativeOrder.RfqOrder[]",
          "name": "orders",
          "type": "tuple[]"
        },
        {
          "components": [
            {
              "internalType": "enum LibSignature.SignatureType",
              "name": "signatureType",
              "type": "uint8"
            },
            {
              "internalType": "uint8",
              "name": "v",
              "type": "uint8"
            },
            {
              "internalType": "bytes32",
              "name": "r",
              "type": "bytes32"
            },
            {
              "internalType": "bytes32",
              "name": "s",
              "type": "bytes32"
            }
          ],
          "internalType": "struct LibSignature.Signature[]",
          "name": "signatures",
          "type": "tuple[]"
        }
      ],
      "name": "batchGetRfqOrderRelevantStates",
      "outputs": [
        {
          "components": [
            {
              "internalType": "bytes32",
              "name": "orderHash",
              "type": "bytes32"
            },
            {
              "internalType": "enum LibNativeOrder.OrderStatus",
              "name": "status",
              "type": "uint8"
            },
            {
              "internalType": "uint128",
              "name": "takerTokenFilledAmount",
              "type": "uint128"
            }
          ],
          "internalType": "struct LibNativeOrder.OrderInfo[]",
          "name": "orderInfos",
          "type": "tuple[]"
        },
        {
          "internalType": "uint128[]",
          "name": "actualFillableTakerTokenAmounts",
          "type": "uint128[]"
        },
        {
          "internalType": "bool[]",
          "name": "isSignatureValids",
          "type": "bool[]"
        }
      ],
      "stateMutability": "view",
      "type": "function"
    },
    {
      "inputs": [
        {
          "components": [
            {
              "internalType": "contract IERC20TokenV06",
              "name": "makerToken",
              "type": "address"
            },
            {
              "internalType": "contract IERC20TokenV06",
              "name": "takerToken",
              "type": "address"
            },
            {
              "internalType": "uint128",
              "name": "makerAmount",
              "type": "uint128"
            },
            {
              "internalType": "uint128",
              "name": "takerAmount",
              "type": "uint128"
            },
            {
              "internalType": "uint128",
              "name": "takerTokenFeeAmount",
              "type": "uint128"
            },
            {
              "internalType": "address",
              "name": "maker",
              "type": "address"
            },
            {
              "internalType": "address",
              "name": "taker",
              "type": "address"
            },
            {
              "internalType": "address",
              "name": "sender",
              "type": "address"
            },
            {
              "internalType": "address",
              "name": "feeRecipient",
              "type": "address"
            },
            {
              "internalType": "bytes32",
              "name": "pool",
              "type": "bytes32"
            },
            {
              "internalType": "uint64",
              "name": "expiry",
              "type": "uint64"
            },
            {
              "internalType": "uint256",
              "name": "salt",
              "type": "uint256"
            }
          ],
          "internalType": "struct LibNativeOrder.LimitOrder",
          "name": "order",
          "type": "tuple"
        }
      ],
      "name": "cancelLimitOrder",
      "outputs": [],
      "stateMutability": "nonpayable",
      "type": "function"
    },
    {
      "inputs": [
        {
          "internalType": "contract IERC20TokenV06",
          "name": "makerToken",
          "type": "address"
        },
        {
          "internalType": "contract IERC20TokenV06",
          "name": "takerToken",
          "type": "address"
        },
        {
          "internalType": "uint256",
          "name": "minValidSalt",
          "type": "uint256"
        }
      ],
      "name": "cancelPairLimitOrders",
      "outputs": [],
      "stateMutability": "nonpayable",
      "type": "function"
    },
    {
      "inputs": [
        {
          "internalType": "address",
          "name": "maker",
          "type": "address"
        },
        {
          "internalType": "contract IERC20TokenV06",
          "name": "makerToken",
          "type": "address"
        },
        {
          "internalType": "contract IERC20TokenV06",
          "name": "takerToken",
          "type": "address"
        },
        {
          "internalType": "uint256",
          "name": "minValidSalt",
          "type": "uint256"
        }
      ],
      "name": "cancelPairLimitOrdersWithSigner",
      "outputs": [],
      "stateMutability": "nonpayable",
      "type": "function"
    },
    {
      "inputs": [
        {
          "internalType": "contract IERC20TokenV06",
          "name": "makerToken",
          "type": "address"
        },
        {
          "internalType": "contract IERC20TokenV06",
          "name": "takerToken",
          "type": "address"
        },
        {
          "internalType": "uint256",
          "name": "minValidSalt",
          "type": "uint256"
        }
      ],
      "name": "cancelPairRfqOrders",
      "outputs": [],
      "stateMutability": "nonpayable",
      "type": "function"
    },
    {
      "inputs": [
        {
          "internalType": "address",
          "name": "maker",
          "type": "address"
        },
        {
          "internalType": "contract IERC20TokenV06",
          "name": "makerToken",
          "type": "address"
        },
        {
          "internalType": "contract IERC20TokenV06",
          "name": "takerToken",
          "type": "address"
        },
        {
          "internalType": "uint256",
          "name": "minValidSalt",
          "type": "uint256"
        }
      ],
      "name": "cancelPairRfqOrdersWithSigner",
      "outputs": [],
      "stateMutability": "nonpayable",
      "type": "function"
    },
    {
      "inputs": [
        {
          "components": [
            {
              "internalType": "contract IERC20TokenV06",
              "name": "makerToken",
              "type": "address"
            },
            {
              "internalType": "contract IERC20TokenV06",
              "name": "takerToken",
              "type": "address"
            },
            {
              "internalType": "uint128",
              "name": "makerAmount",
              "type": "uint128"
            },
            {
              "internalType": "uint128",
              "name": "takerAmount",
              "type": "uint128"
            },
            {
              "internalType": "address",
              "name": "maker",
              "type": "address"
            },
            {
              "internalType": "address",
              "name": "taker",
              "type": "address"
            },
            {
              "internalType": "address",
              "name": "txOrigin",
              "type": "address"
            },
            {
              "internalType": "bytes32",
              "name": "pool",
              "type": "bytes32"
            },
            {
              "internalType": "uint64",
              "name": "expiry",
              "type": "uint64"
            },
            {
              "internalType": "uint256",
              "name": "salt",
              "type": "uint256"
            }
          ],
          "internalType": "struct LibNativeOrder.RfqOrder",
          "name": "order",
          "type": "tuple"
        }
      ],
      "name": "cancelRfqOrder",
      "outputs": [],
      "stateMutability": "nonpayable",
      "type": "function"
    },
    {
      "inputs": [
        {
          "components": [
            {
              "internalType": "contract IERC20TokenV06",
              "name": "makerToken",
              "type": "address"
            },
            {
              "internalType": "contract IERC20TokenV06",
              "name": "takerToken",
              "type": "address"
            },
            {
              "internalType": "uint128",
              "name": "makerAmount",
              "type": "uint128"
            },
            {
              "internalType": "uint128",
              "name": "takerAmount",
              "type": "uint128"
            },
            {
              "internalType": "uint128",
              "name": "takerTokenFeeAmount",
              "type": "uint128"
            },
            {
              "internalType": "address",
              "name": "maker",
              "type": "address"
            },
            {
              "internalType": "address",
              "name": "taker",
              "type": "address"
            },
            {
              "internalType": "address",
              "name": "sender",
              "type": "address"
            },
            {
              "internalType": "address",
              "name": "feeRecipient",
              "type": "address"
            },
            {
              "internalType": "bytes32",
              "name": "pool",
              "type": "bytes32"
            },
            {
              "internalType": "uint64",
              "name": "expiry",
              "type": "uint64"
            },
            {
              "internalType": "uint256",
              "name": "salt",
              "type": "uint256"
            }
          ],
          "internalType": "struct LibNativeOrder.LimitOrder",
          "name": "order",
          "type": "tuple"
        },
        {
          "components": [
            {
              "internalType": "enum LibSignature.SignatureType",
              "name": "signatureType",
              "type": "uint8"
            },
            {
              "internalType": "uint8",
              "name": "v",
              "type": "uint8"
            },
            {
              "internalType": "bytes32",
              "name": "r",
              "type": "bytes32"
            },
            {
              "internalType": "bytes32",
              "name": "s",
              "type": "bytes32"
            }
          ],
          "internalType": "struct LibSignature.Signature",
          "name": "signature",
          "type": "tuple"
        },
        {
          "internalType": "uint128",
          "name": "takerTokenFillAmount",
          "type": "uint128"
        }
      ],
      "name": "fillLimitOrder",
      "outputs": [
        {
          "internalType": "uint128",
          "name": "takerTokenFilledAmount",
          "type": "uint128"
        },
        {
          "internalType": "uint128",
          "name": "makerTokenFilledAmount",
          "type": "uint128"
        }
      ],
      "stateMutability": "payable",
      "type": "function"
    },
    {
      "inputs": [
        {
          "components": [
            {
              "internalType": "contract IERC20TokenV06",
              "name": "makerToken",
              "type": "address"
            },
            {
              "internalType": "contract IERC20TokenV06",
              "name": "takerToken",
              "type": "address"
            },
            {
              "internalType": "uint128",
              "name": "makerAmount",
              "type": "uint128"
            },
            {
              "internalType": "uint128",
              "name": "takerAmount",
              "type": "uint128"
            },
            {
              "internalType": "uint128",
              "name": "takerTokenFeeAmount",
              "type": "uint128"
            },
            {
              "internalType": "address",
              "name": "maker",
              "type": "address"
            },
            {
              "internalType": "address",
              "name": "taker",
              "type": "address"
            },
            {
              "internalType": "address",
              "name": "sender",
              "type": "address"
            },
            {
              "internalType": "address",
              "name": "feeRecipient",
              "type": "address"
            },
            {
              "internalType": "bytes32",
              "name": "pool",
              "type": "bytes32"
            },
            {
              "internalType": "uint64",
              "name": "expiry",
              "type": "uint64"
            },
            {
              "internalType": "uint256",
              "name": "salt",
              "type": "uint256"
            }
          ],
          "internalType": "struct LibNativeOrder.LimitOrder",
          "name": "order",
          "type": "tuple"
        },
        {
          "components": [
            {
              "internalType": "enum LibSignature.SignatureType",
              "name": "signatureType",
              "type": "uint8"
            },
            {
              "internalType": "uint8",
              "name": "v",
              "type": "uint8"
            },
            {
              "internalType": "bytes32",
              "name": "r",
              "type": "bytes32"
            },
            {
              "internalType": "bytes32",
              "name": "s",
              "type": "bytes32"
            }
          ],
          "internalType": "struct LibSignature.Signature",
          "name": "signature",
          "type": "tuple"
        },
        {
          "internalType": "uint128",
          "name": "takerTokenFillAmount",
          "type": "uint128"
        }
      ],
      "name": "fillOrKillLimitOrder",
      "outputs": [
        {
          "internalType": "uint128",
          "name": "makerTokenFilledAmount",
          "type": "uint128"
        }
      ],
      "stateMutability": "payable",
      "type": "function"
    },
    {
      "inputs": [
        {
          "components": [
            {
              "internalType": "contract IERC20TokenV06",
              "name": "makerToken",
              "type": "address"
            },
            {
              "internalType": "contract IERC20TokenV06",
              "name": "takerToken",
              "type": "address"
            },
            {
              "internalType": "uint128",
              "name": "makerAmount",
              "type": "uint128"
            },
            {
              "internalType": "uint128",
              "name": "takerAmount",
              "type": "uint128"
            },
            {
              "internalType": "address",
              "name": "maker",
              "type": "address"
            },
            {
              "internalType": "address",
              "name": "taker",
              "type": "address"
            },
            {
              "internalType": "address",
              "name": "txOrigin",
              "type": "address"
            },
            {
              "internalType": "bytes32",
              "name": "pool",
              "type": "bytes32"
            },
            {
              "internalType": "uint64",
              "name": "expiry",
              "type": "uint64"
            },
            {
              "internalType": "uint256",
              "name": "salt",
              "type": "uint256"
            }
          ],
          "internalType": "struct LibNativeOrder.RfqOrder",
          "name": "order",
          "type": "tuple"
        },
        {
          "components": [
            {
              "internalType": "enum LibSignature.SignatureType",
              "name": "signatureType",
              "type": "uint8"
            },
            {
              "internalType": "uint8",
              "name": "v",
              "type": "uint8"
            },
            {
              "internalType": "bytes32",
              "name": "r",
              "type": "bytes32"
            },
            {
              "internalType": "bytes32",
              "name": "s",
              "type": "bytes32"
            }
          ],
          "internalType": "struct LibSignature.Signature",
          "name": "signature",
          "type": "tuple"
        },
        {
          "internalType": "uint128",
          "name": "takerTokenFillAmount",
          "type": "uint128"
        }
      ],
      "name": "fillOrKillRfqOrder",
      "outputs": [
        {
          "internalType": "uint128",
          "name": "makerTokenFilledAmount",
          "type": "uint128"
        }
      ],
      "stateMutability": "nonpayable",
      "type": "function"
    },
    {
      "inputs": [
        {
          "components": [
            {
              "internalType": "contract IERC20TokenV06",
              "name": "makerToken",
              "type": "address"
            },
            {
              "internalType": "contract IERC20TokenV06",
              "name": "takerToken",
              "type": "address"
            },
            {
              "internalType": "uint128",
              "name": "makerAmount",
              "type": "uint128"
            },
            {
              "internalType": "uint128",
              "name": "takerAmount",
              "type": "uint128"
            },
            {
              "internalType": "address",
              "name": "maker",
              "type": "address"
            },
            {
              "internalType": "address",
              "name": "taker",
              "type": "address"
            },
            {
              "internalType": "address",
              "name": "txOrigin",
              "type": "address"
            },
            {
              "internalType": "bytes32",
              "name": "pool",
              "type": "bytes32"
            },
            {
              "internalType": "uint64",
              "name": "expiry",
              "type": "uint64"
            },
            {
              "internalType": "uint256",
              "name": "salt",
              "type": "uint256"
            }
          ],
          "internalType": "struct LibNativeOrder.RfqOrder",
          "name": "order",
          "type": "tuple"
        },
        {
          "components": [
            {
              "internalType": "enum LibSignature.SignatureType",
              "name": "signatureType",
              "type": "uint8"
            },
            {
              "internalType": "uint8",
              "name": "v",
              "type": "uint8"
            },
            {
              "internalType": "bytes32",
              "name": "r",
              "type": "bytes32"
            },
            {
              "internalType": "bytes32",
              "name": "s",
              "type": "bytes32"
            }
          ],
          "internalType": "struct LibSignature.Signature",
          "name": "signature",
          "type": "tuple"
        },
        {
          "internalType": "uint128",
          "name": "takerTokenFillAmount",
          "type": "uint128"
        }
      ],
      "name": "fillRfqOrder",
      "outputs": [
        {
          "internalType": "uint128",
          "name": "takerTokenFilledAmount",
          "type": "uint128"
        },
        {
          "internalType": "uint128",
          "name": "makerTokenFilledAmount",
          "type": "uint128"
        }
      ],
      "stateMutability": "nonpayable",
      "type": "function"
    },
    {
      "inputs": [
        {
          "components": [
            {
              "internalType": "contract IERC20TokenV06",
              "name": "makerToken",
              "type": "address"
            },
            {
              "internalType": "contract IERC20TokenV06",
              "name": "takerToken",
              "type": "address"
            },
            {
              "internalType": "uint128",
              "name": "makerAmount",
              "type": "uint128"
            },
            {
              "internalType": "uint128",
              "name": "takerAmount",
              "type": "uint128"
            },
            {
              "internalType": "uint128",
              "name": "takerTokenFeeAmount",
              "type": "uint128"
            },
            {
              "internalType": "address",
              "name": "maker",
              "type": "address"
            },
            {
              "internalType": "address",
              "name": "taker",
              "type": "address"
            },
            {
              "internalType": "address",
              "name": "sender",
              "type": "address"
            },
            {
              "internalType": "address",
              "name": "feeRecipient",
              "type": "address"
            },
            {
              "internalType": "bytes32",
              "name": "pool",
              "type": "bytes32"
            },
            {
              "internalType": "uint64",
              "name": "expiry",
              "type": "uint64"
            },
            {
              "internalType": "uint256",
              "name": "salt",
              "type": "uint256"
            }
          ],
          "internalType": "struct LibNativeOrder.LimitOrder",
          "name": "order",
          "type": "tuple"
        }
      ],
      "name": "getLimitOrderHash",
      "outputs": [
        {
          "internalType": "bytes32",
          "name": "orderHash",
          "type": "bytes32"
        }
      ],
      "stateMutability": "view",
      "type": "function"
    },
    {
      "inputs": [
        {
          "components": [
            {
              "internalType": "contract IERC20TokenV06",
              "name": "makerToken",
              "type": "address"
            },
            {
              "internalType": "contract IERC20TokenV06",
              "name": "takerToken",
              "type": "address"
            },
            {
              "internalType": "uint128",
              "name": "makerAmount",
              "type": "uint128"
            },
            {
              "internalType": "uint128",
              "name": "takerAmount",
              "type": "uint128"
            },
            {
              "internalType": "uint128",
              "name": "takerTokenFeeAmount",
              "type": "uint128"
            },
            {
              "internalType": "address",
              "name": "maker",
              "type": "address"
            },
            {
              "internalType": "address",
              "name": "taker",
              "type": "address"
            },
            {
              "internalType": "address",
              "name": "sender",
              "type": "address"
            },
            {
              "internalType": "address",
              "name": "feeRecipient",
              "type": "address"
            },
            {
              "internalType": "bytes32",
              "name": "pool",
              "type": "bytes32"
            },
            {
              "internalType": "uint64",
              "name": "expiry",
              "type": "uint64"
            },
            {
              "internalType": "uint256",
              "name": "salt",
              "type": "uint256"
            }
          ],
          "internalType": "struct LibNativeOrder.LimitOrder",
          "name": "order",
          "type": "tuple"
        }
      ],
      "name": "getLimitOrderInfo",
      "outputs": [
        {
          "components": [
            {
              "internalType": "bytes32",
              "name": "orderHash",
              "type": "bytes32"
            },
            {
              "internalType": "enum LibNativeOrder.OrderStatus",
              "name": "status",
              "type": "uint8"
            },
            {
              "internalType": "uint128",
              "name": "takerTokenFilledAmount",
              "type": "uint128"
            }
          ],
          "internalType": "struct LibNativeOrder.OrderInfo",
          "name": "orderInfo",
          "type": "tuple"
        }
      ],
      "stateMutability": "view",
      "type": "function"
    },
    {
      "inputs": [
        {
          "components": [
            {
              "internalType": "contract IERC20TokenV06",
              "name": "makerToken",
              "type": "address"
            },
            {
              "internalType": "contract IERC20TokenV06",
              "name": "takerToken",
              "type": "address"
            },
            {
              "internalType": "uint128",
              "name": "makerAmount",
              "type": "uint128"
            },
            {
              "internalType": "uint128",
              "name": "takerAmount",
              "type": "uint128"
            },
            {
              "internalType": "uint128",
              "name": "takerTokenFeeAmount",
              "type": "uint128"
            },
            {
              "internalType": "address",
              "name": "maker",
              "type": "address"
            },
            {
              "internalType": "address",
              "name": "taker",
              "type": "address"
            },
            {
              "internalType": "address",
              "name": "sender",
              "type": "address"
            },
            {
              "internalType": "address",
              "name": "feeRecipient",
              "type": "address"
            },
            {
              "internalType": "bytes32",
              "name": "pool",
              "type": "bytes32"
            },
            {
              "internalType": "uint64",
              "name": "expiry",
              "type": "uint64"
            },
            {
              "internalType": "uint256",
              "name": "salt",
              "type": "uint256"
            }
          ],
          "internalType": "struct LibNativeOrder.LimitOrder",
          "name": "order",
          "type": "tuple"
        },
        {
          "components": [
            {
              "internalType": "enum LibSignature.SignatureType",
              "name": "signatureType",
              "type": "uint8"
            },
            {
              "internalType": "uint8",
              "name": "v",
              "type": "uint8"
            },
            {
              "internalType": "bytes32",
              "name": "r",
              "type": "bytes32"
            },
            {
              "internalType": "bytes32",
              "name": "s",
              "type": "bytes32"
            }
          ],
          "internalType": "struct LibSignature.Signature",
          "name": "signature",
          "type": "tuple"
        }
      ],
      "name": "getLimitOrderRelevantState",
      "outputs": [
        {
          "components": [
            {
              "internalType": "bytes32",
              "name": "orderHash",
              "type": "bytes32"
            },
            {
              "internalType": "enum LibNativeOrder.OrderStatus",
              "name": "status",
              "type": "uint8"
            },
            {
              "internalType": "uint128",
              "name": "takerTokenFilledAmount",
              "type": "uint128"
            }
          ],
          "internalType": "struct LibNativeOrder.OrderInfo",
          "name": "orderInfo",
          "type": "tuple"
        },
        {
          "internalType": "uint128",
          "name": "actualFillableTakerTokenAmount",
          "type": "uint128"
        },
        {
          "internalType": "bool",
          "name": "isSignatureValid",
          "type": "bool"
        }
      ],
      "stateMutability": "view",
      "type": "function"
    },
    {
      "inputs": [],
      "name": "getProtocolFeeMultiplier",
      "outputs": [
        {
          "internalType": "uint32",
          "name": "multiplier",
          "type": "uint32"
        }
      ],
      "stateMutability": "view",
      "type": "function"
    },
    {
      "inputs": [
        {
          "components": [
            {
              "internalType": "contract IERC20TokenV06",
              "name": "makerToken",
              "type": "address"
            },
            {
              "internalType": "contract IERC20TokenV06",
              "name": "takerToken",
              "type": "address"
            },
            {
              "internalType": "uint128",
              "name": "makerAmount",
              "type": "uint128"
            },
            {
              "internalType": "uint128",
              "name": "takerAmount",
              "type": "uint128"
            },
            {
              "internalType": "address",
              "name": "maker",
              "type": "address"
            },
            {
              "internalType": "address",
              "name": "taker",
              "type": "address"
            },
            {
              "internalType": "address",
              "name": "txOrigin",
              "type": "address"
            },
            {
              "internalType": "bytes32",
              "name": "pool",
              "type": "bytes32"
            },
            {
              "internalType": "uint64",
              "name": "expiry",
              "type": "uint64"
            },
            {
              "internalType": "uint256",
              "name": "salt",
              "type": "uint256"
            }
          ],
          "internalType": "struct LibNativeOrder.RfqOrder",
          "name": "order",
          "type": "tuple"
        }
      ],
      "name": "getRfqOrderHash",
      "outputs": [
        {
          "internalType": "bytes32",
          "name": "orderHash",
          "type": "bytes32"
        }
      ],
      "stateMutability": "view",
      "type": "function"
    },
    {
      "inputs": [
        {
          "components": [
            {
              "internalType": "contract IERC20TokenV06",
              "name": "makerToken",
              "type": "address"
            },
            {
              "internalType": "contract IERC20TokenV06",
              "name": "takerToken",
              "type": "address"
            },
            {
              "internalType": "uint128",
              "name": "makerAmount",
              "type": "uint128"
            },
            {
              "internalType": "uint128",
              "name": "takerAmount",
              "type": "uint128"
            },
            {
              "internalType": "address",
              "name": "maker",
              "type": "address"
            },
            {
              "internalType": "address",
              "name": "taker",
              "type": "address"
            },
            {
              "internalType": "address",
              "name": "txOrigin",
              "type": "address"
            },
            {
              "internalType": "bytes32",
              "name": "pool",
              "type": "bytes32"
            },
            {
              "internalType": "uint64",
              "name": "expiry",
              "type": "uint64"
            },
            {
              "internalType": "uint256",
              "name": "salt",
              "type": "uint256"
            }
          ],
          "internalType": "struct LibNativeOrder.RfqOrder",
          "name": "order",
          "type": "tuple"
        }
      ],
      "name": "getRfqOrderInfo",
      "outputs": [
        {
          "components": [
            {
              "internalType": "bytes32",
              "name": "orderHash",
              "type": "bytes32"
            },
            {
              "internalType": "enum LibNativeOrder.OrderStatus",
              "name": "status",
              "type": "uint8"
            },
            {
              "internalType": "uint128",
              "name": "takerTokenFilledAmount",
              "type": "uint128"
            }
          ],
          "internalType": "struct LibNativeOrder.OrderInfo",
          "name": "orderInfo",
          "type": "tuple"
        }
      ],
      "stateMutability": "view",
      "type": "function"
    },
    {
      "inputs": [
        {
          "components": [
            {
              "internalType": "contract IERC20TokenV06",
              "name": "makerToken",
              "type": "address"
            },
            {
              "internalType": "contract IERC20TokenV06",
              "name": "takerToken",
              "type": "address"
            },
            {
              "internalType": "uint128",
              "name": "makerAmount",
              "type": "uint128"
            },
            {
              "internalType": "uint128",
              "name": "takerAmount",
              "type": "uint128"
            },
            {
              "internalType": "address",
              "name": "maker",
              "type": "address"
            },
            {
              "internalType": "address",
              "name": "taker",
              "type": "address"
            },
            {
              "internalType": "address",
              "name": "txOrigin",
              "type": "address"
            },
            {
              "internalType": "bytes32",
              "name": "pool",
              "type": "bytes32"
            },
            {
              "internalType": "uint64",
              "name": "expiry",
              "type": "uint64"
            },
            {
              "internalType": "uint256",
              "name": "salt",
              "type": "uint256"
            }
          ],
          "internalType": "struct LibNativeOrder.RfqOrder",
          "name": "order",
          "type": "tuple"
        },
        {
          "components": [
            {
              "internalType": "enum LibSignature.SignatureType",
              "name": "signatureType",
              "type": "uint8"
            },
            {
              "internalType": "uint8",
              "name": "v",
              "type": "uint8"
            },
            {
              "internalType": "bytes32",
              "name": "r",
              "type": "bytes32"
            },
            {
              "internalType": "bytes32",
              "name": "s",
              "type": "bytes32"
            }
          ],
          "internalType": "struct LibSignature.Signature",
          "name": "signature",
          "type": "tuple"
        }
      ],
      "name": "getRfqOrderRelevantState",
      "outputs": [
        {
          "components": [
            {
              "internalType": "bytes32",
              "name": "orderHash",
              "type": "bytes32"
            },
            {
              "internalType": "enum LibNativeOrder.OrderStatus",
              "name": "status",
              "type": "uint8"
            },
            {
              "internalType": "uint128",
              "name": "takerTokenFilledAmount",
              "type": "uint128"
            }
          ],
          "internalType": "struct LibNativeOrder.OrderInfo",
          "name": "orderInfo",
          "type": "tuple"
        },
        {
          "internalType": "uint128",
          "name": "actualFillableTakerTokenAmount",
          "type": "uint128"
        },
        {
          "internalType": "bool",
          "name": "isSignatureValid",
          "type": "bool"
        }
      ],
      "stateMutability": "view",
      "type": "function"
    },
    {
      "inputs": [
        {
          "internalType": "address",
          "name": "maker",
          "type": "address"
        },
        {
          "internalType": "address",
          "name": "signer",
          "type": "address"
        }
      ],
      "name": "isValidOrderSigner",
      "outputs": [
        {
          "internalType": "bool",
          "name": "isValid",
          "type": "bool"
        }
      ],
      "stateMutability": "view",
      "type": "function"
    },
    {
      "inputs": [],
      "name": "migrate",
      "outputs": [
        {
          "internalType": "bytes4",
          "name": "success",
          "type": "bytes4"
        }
      ],
      "stateMutability": "nonpayable",
      "type": "function"
    },
    {
      "inputs": [
        {
          "internalType": "address",
          "name": "signer",
          "type": "address"
        },
        {
          "internalType": "bool",
          "name": "allowed",
          "type": "bool"
        }
      ],
      "name": "registerAllowedOrderSigner",
      "outputs": [],
      "stateMutability": "nonpayable",
      "type": "function"
    },
    {
      "inputs": [
        {
          "internalType": "address[]",
          "name": "origins",
          "type": "address[]"
        },
        {
          "internalType": "bool",
          "name": "allowed",
          "type": "bool"
        }
      ],
      "name": "registerAllowedRfqOrigins",
      "outputs": [],
      "stateMutability": "nonpayable",
      "type": "function"
    },
    {
      "inputs": [
        {
          "internalType": "bytes32[]",
          "name": "poolIds",
          "type": "bytes32[]"
        }
      ],
      "name": "transferProtocolFeesForPools",
      "outputs": [],
      "stateMutability": "nonpayable",
      "type": "function"
    }
  ],
  "transactionHash": "0x7443d5dcb67ff67afd3d9ae88aa59d2be7fcdb3284899fb500f90af5e4f59f75",
  "args": [
    "0x7EcE955676d1E49659066916ff3DE8f8145e6087",
    "0x0BE9e53fd7EDaC9F859882AfdDa116645287C629",
    "0x0000000000000000000000000000000000000000",
    "0x9E4F198f805600EA6168Dc029372Fc6efE96c9BD",
    70000
  ],
  "numDeployments": 1,
  "solcInputHash": "d824bfd18a929a7d770611c578d2def3",
  "bytecode": "0x61018060405262000015600160036000620001d1565b610160523480156200002657600080fd5b5060405162005ccd38038062005ccd833981016040819052620000499162000203565b848484848483838383838383838c808060004690507f8b73c3c69bb8fe3d512ecc4cf759cc79239f7b179b0ffacaa9a75d522b39400f7f9e5dae0addaf20578aeb5d70341d092b53b4e14480ac5726438fd436df7ba4277f06c015bd22b4c69690933c1058878ebdfef31f9aaae40bbe86d8a09fe1b2972c8385604051602001620000d9959493929190620002a2565b60408051601f1981840301815282825280516020918201206080526001600160601b031960608a901b1660c052633c9506a360e21b835290516001600160a01b038916965063f2541a8c95506004808401955091935091829003018186803b1580156200014557600080fd5b505afa1580156200015a573d6000803e3d6000fd5b505050506040513d601f19601f8201168201806040525081019062000180919062000289565b60e0908152606094851b6001600160601b03199081166101005293851b9093166101205290911b6001600160e01b03191660a0525030901b6101405250620002e79c50505050505050505050505050565b6bffffffff0000000000000000604084901b1667ffffffff00000000602084901b161763ffffffff8216179392505050565b600080600080600060a086880312156200021b578081fd5b85516200022881620002ce565b60208701519095506200023b81620002ce565b60408701519094506200024e81620002ce565b60608701519093506200026181620002ce565b608087015190925063ffffffff811681146200027b578182fd5b809150509295509295909350565b6000602082840312156200029b578081fd5b5051919050565b9485526020850193909352604084019190915260608301526001600160a01b0316608082015260a00190565b6001600160a01b0381168114620002e457600080fd5b50565b60805160a05160e01c60c05160601c60e0516101005160601c6101205160601c6101405160601c61016051615965620003686000398061071a52508061326d525080612728525080612639525080613e835250806125ac5280613e62525080610c6c52806115965280613e36525080611ce352806120bc52506159656000f3fe60806040526004361061024f5760003560e01c80639a4f809c11610138578063b4658bfb116100b0578063ea7faa611161007f578063f6e0f6a511610064578063f6e0f6a51461069d578063fd5f995b146106bd578063fe55a3ef146106dd5761024f565b8063ea7faa611461066a578063f6274f661461068a5761024f565b8063b4658bfb146105f5578063d0a55fb014610615578063dab400f314610635578063dd11d2251461064a5761024f565b8063aa6b21cd11610107578063ad354eeb116100ec578063ad354eeb14610586578063b09f1fb1146105b5578063b10a33f4146105d55761024f565b8063aa6b21cd14610546578063aa77476c146105665761024f565b80639a4f809c146104d15780639baa45a8146104f15780639f0434f514610511578063a0edcef5146105315761024f565b8063487b5c20116101cb57806386a0c8d71161019a5780639240529c1161017f5780639240529c1461047e578063935c82a41461049157806395480889146104b15761024f565b806386a0c8d71461043c5780638fd3ab801461045c5761024f565b8063487b5c20146103ab5780636ae4b4f7146103cd5780636b52a4a8146103ef5780637d49ec1a1461041c5761024f565b8063346693c5116102225780633cd2f026116102075780633cd2f0261461033d578063414e4ccf1461035d578063438cdfc51461037e5761024f565b8063346693c5146102f057806337f381d81461031d5761024f565b8063016a6d6514610254578063031b905c1461028a5780630f0e8cf71461029f5780631fb09795146102c1575b600080fd5b34801561026057600080fd5b5061027461026f366004614bde565b6106fd565b60405161028191906150f5565b60405180910390f35b34801561029657600080fd5b50610274610718565b3480156102ab57600080fd5b506102bf6102ba366004614730565b61073c565b005b3480156102cd57600080fd5b506102e16102dc366004614a49565b6107ec565b604051610281939291906156b8565b3480156102fc57600080fd5b5061031061030b366004614bde565b610904565b60405161028191906156aa565b34801561032957600080fd5b506102e1610338366004614bfa565b6109bc565b34801561034957600080fd5b506102bf6103583660046146c1565b610abc565b61037061036b366004614af2565b610aef565b604051610281929190615803565b34801561038a57600080fd5b5061039e610399366004614c30565b610b99565b60405161028191906157e6565b3480156103b757600080fd5b506103c0610c6a565b6040516102819190615834565b3480156103d957600080fd5b506103e2610c8e565b6040516102819190615332565b3480156103fb57600080fd5b5061040f61040a3660046144c6565b610cc7565b60405161028191906150ea565b34801561042857600080fd5b506102bf610437366004614a2d565b610d15565b34801561044857600080fd5b506102bf610457366004614730565b610d96565b34801561046857600080fd5b50610471610e37565b6040516102819190615277565b61039e61048c366004614aa7565b611355565b34801561049d57600080fd5b506102bf6104ac3660046145c2565b611418565b3480156104bd57600080fd5b506103106104cc366004614a2d565b61143f565b3480156104dd57600080fd5b506102bf6104ec3660046149ed565b6114ca565b3480156104fd57600080fd5b506102bf61050c36600461483f565b6114d6565b34801561051d57600080fd5b506102bf61052c3660046144fe565b611506565b34801561053d57600080fd5b506103c0611594565b34801561055257600080fd5b50610370610561366004614c70565b6115b8565b34801561057257600080fd5b50610370610581366004614c30565b611666565b34801561059257600080fd5b506105a66105a13660046148de565b6116d4565b60405161028193929190615046565b3480156105c157600080fd5b506102bf6105d0366004614612565b61193a565b3480156105e157600080fd5b506102bf6105f03660046145c2565b611a53565b34801561060157600080fd5b506105a66106103660046147aa565b611a7a565b34801561062157600080fd5b506102bf6106303660046149ed565b611cd5565b34801561064157600080fd5b50610274611ce1565b34801561065657600080fd5b50610274610665366004614a2d565b611d05565b34801561067657600080fd5b506102bf610685366004614595565b611d13565b610370610698366004614aa7565b611daf565b3480156106a957600080fd5b506102bf6106b8366004614940565b611e4d565b3480156106c957600080fd5b506102bf6106d83660046144fe565b611e7d565b3480156106e957600080fd5b506102bf6106f8366004614bde565b611f04565b600061071061070b83611f81565b6120b8565b90505b919050565b7f000000000000000000000000000000000000000000000000000000000000000081565b8151835114801561074e575080518351145b61078d576040517f08c379a00000000000000000000000000000000000000000000000000000000081526004016107849061545d565b60405180910390fd5b60005b83518110156107e6576107de338583815181106107a957fe5b60200260200101518584815181106107bd57fe5b60200260200101518585815181106107d157fe5b602002602001015161210a565b600101610790565b50505050565b6107f461410a565b6000806108008561143f565b92506108916040518060a001604052808760a0015173ffffffffffffffffffffffffffffffffffffffff168152602001876000015173ffffffffffffffffffffffffffffffffffffffff16815260200187604001516fffffffffffffffffffffffffffffffff16815260200187606001516fffffffffffffffffffffffffffffffff168152602001858152506121f2565b83519092506000906108b1906108ac36889003880188614cf5565b61231b565b90508073ffffffffffffffffffffffffffffffffffffffff168660a0015173ffffffffffffffffffffffffffffffffffffffff1614806108fa57506108fa8660a0015182610cc7565b9150509250925092565b61090c61410a565b610915826106fd565b8152600061092161246c565b608084015173ffffffffffffffffffffffffffffffffffffffff9081166000908152600292909201602090815260408084208751841685528252808420828801519093168452919052902054606084015161010085015161012086015192935061098f928592919085612479565b60c083015173ffffffffffffffffffffffffffffffffffffffff166109b657600060208301525b50919050565b6109c461410a565b6000806109d085610904565b9250610a616040518060a00160405280876080015173ffffffffffffffffffffffffffffffffffffffff168152602001876000015173ffffffffffffffffffffffffffffffffffffffff16815260200187604001516fffffffffffffffffffffffffffffffff16815260200187606001516fffffffffffffffffffffffffffffffff168152602001858152506121f2565b91506000610a7384600001518661231b565b90508073ffffffffffffffffffffffffffffffffffffffff16866080015173ffffffffffffffffffffffffffffffffffffffff1614806108fa57506108fa866080015182610cc7565b60005b81811015610aea57610ae2838383818110610ad657fe5b9050602002013561256c565b600101610abf565b505050565b600080333014610b0a57610b0a610b05336127ba565b612872565b610b1261412c565b610b7f6040518060a001604052808a8152602001898152602001886fffffffffffffffffffffffffffffffff1681526020018773ffffffffffffffffffffffffffffffffffffffff1681526020018673ffffffffffffffffffffffffffffffffffffffff1681525061287a565b602081015160409091015190999098509650505050505050565b6000610ba361412c565b6040805160c081018252868152602081018690526fffffffffffffffffffffffffffffffff85169181019190915233606082018190526000608083015260a0820152610bee90612c4d565b9050826fffffffffffffffffffffffffffffffff1681602001516fffffffffffffffffffffffffffffffff161015610c5e57610c5e610b05610c2f876106fd565b83602001516fffffffffffffffffffffffffffffffff16866fffffffffffffffffffffffffffffffff16612ff6565b60400151949350505050565b7f000000000000000000000000000000000000000000000000000000000000000090565b6040518060400160405280600b81526020017f4c696d69744f726465727300000000000000000000000000000000000000000081525081565b6000610cd161246c565b73ffffffffffffffffffffffffffffffffffffffff808516600090815260049290920160209081526040808420928616845291905290205460ff1690505b92915050565b6000610d2082611d05565b90508160a0015173ffffffffffffffffffffffffffffffffffffffff163373ffffffffffffffffffffffffffffffffffffffff1614158015610d6d5750610d6b8260a0015133610cc7565b155b15610d8457610d84610b0582338560a001516130b4565b610d92818360a001516130ec565b5050565b81518351148015610da8575080518351145b610dde576040517f08c379a00000000000000000000000000000000000000000000000000000000081526004016107849061545d565b60005b83518110156107e657610e2f33858381518110610dfa57fe5b6020026020010151858481518110610e0e57fe5b6020026020010151858581518110610e2257fe5b602002602001015161315f565b600101610de1565b6000610e627f3cd2f02600000000000000000000000000000000000000000000000000000000613237565b610e8b7ff6274f6600000000000000000000000000000000000000000000000000000000613237565b610eb47faa77476c00000000000000000000000000000000000000000000000000000000613237565b610edd7f9240529c00000000000000000000000000000000000000000000000000000000613237565b610f067f438cdfc500000000000000000000000000000000000000000000000000000000613237565b610f2f7f414e4ccf00000000000000000000000000000000000000000000000000000000613237565b610f587faa6b21cd00000000000000000000000000000000000000000000000000000000613237565b610f817f7d49ec1a00000000000000000000000000000000000000000000000000000000613237565b610faa7ffe55a3ef00000000000000000000000000000000000000000000000000000000613237565b610fd37f9baa45a800000000000000000000000000000000000000000000000000000000613237565b610ffc7ff6e0f6a500000000000000000000000000000000000000000000000000000000613237565b6110257fd0a55fb000000000000000000000000000000000000000000000000000000000613237565b61104e7fb10a33f400000000000000000000000000000000000000000000000000000000613237565b6110777f86a0c8d700000000000000000000000000000000000000000000000000000000613237565b6110a07f9f0434f500000000000000000000000000000000000000000000000000000000613237565b6110c97f9a4f809c00000000000000000000000000000000000000000000000000000000613237565b6110f27f935c82a400000000000000000000000000000000000000000000000000000000613237565b61111b7f0f0e8cf700000000000000000000000000000000000000000000000000000000613237565b6111447ffd5f995b00000000000000000000000000000000000000000000000000000000613237565b61116d7f9548088900000000000000000000000000000000000000000000000000000000613237565b6111967f346693c500000000000000000000000000000000000000000000000000000000613237565b6111bf7fdd11d22500000000000000000000000000000000000000000000000000000000613237565b6111e87f016a6d6500000000000000000000000000000000000000000000000000000000613237565b6112117f487b5c2000000000000000000000000000000000000000000000000000000000613237565b61123a7fb09f1fb100000000000000000000000000000000000000000000000000000000613237565b6112637f1fb0979500000000000000000000000000000000000000000000000000000000613237565b61128c7f37f381d800000000000000000000000000000000000000000000000000000000613237565b6112b57fb4658bfb00000000000000000000000000000000000000000000000000000000613237565b6112de7fad354eeb00000000000000000000000000000000000000000000000000000000613237565b6113077fea7faa6100000000000000000000000000000000000000000000000000000000613237565b6113307f6b52a4a800000000000000000000000000000000000000000000000000000000613237565b507f2c64c5ef0000000000000000000000000000000000000000000000000000000090565b600061135f61412c565b6113cc6040518060a00160405280878152602001868152602001856fffffffffffffffffffffffffffffffff1681526020013373ffffffffffffffffffffffffffffffffffffffff1681526020013373ffffffffffffffffffffffffffffffffffffffff1681525061287a565b9050826fffffffffffffffffffffffffffffffff1681602001516fffffffffffffffffffffffffffffffff16101561140d5761140d610b05610c2f87611d05565b8051610c5e906132c3565b6114228433610cc7565b61143357611433610b058533613366565b6107e68484848461210a565b61144761410a565b61145082611d05565b8152600061145c61246c565b60a084015173ffffffffffffffffffffffffffffffffffffffff908116600090815260019290920160209081526040808420875184168552825280842082880151909316845291905290205460608401516101408501516101608601519293506109b6928592919085612479565b610aea3384848461210a565b60005b8151811015610d92576114fe8282815181106114f157fe5b6020026020010151610d15565b6001016114d9565b81518351148015611518575080518351145b61154e576040517f08c379a00000000000000000000000000000000000000000000000000000000081526004016107849061545d565b6115588433610cc7565b61156957611569610b058533613366565b60005b835181101561158d5761158585858381518110610dfa57fe5b60010161156c565b5050505050565b7f000000000000000000000000000000000000000000000000000000000000000081565b6000803330146115ce576115ce610b05336127ba565b6115d661412c565b61164b6040518060c001604052808b81526020018a8152602001896fffffffffffffffffffffffffffffffff1681526020018873ffffffffffffffffffffffffffffffffffffffff16815260200187151581526020018673ffffffffffffffffffffffffffffffffffffffff16815250612c4d565b6020810151604090910151909a909950975050505050505050565b60008061167161412c565b6040805160c081018252878152602081018790526fffffffffffffffffffffffffffffffff86169181019190915233606082018190526000608083015260a08201526116bc90612c4d565b60208101516040909101519097909650945050505050565b60608080858414611711576040517f08c379a0000000000000000000000000000000000000000000000000000000008152600401610784906153a3565b8567ffffffffffffffff8111801561172857600080fd5b5060405190808252806020026020018201604052801561176257816020015b61174f61410a565b8152602001906001900390816117475790505b5092508567ffffffffffffffff8111801561177c57600080fd5b506040519080825280602002602001820160405280156117a6578160200160208202803683370190505b5091508567ffffffffffffffff811180156117c057600080fd5b506040519080825280602002602001820160405280156117ea578160200160208202803683370190505b50905060005b8681101561192f57306337f381d889898481811061180a57fe5b9050610140020188888581811061181d57fe5b9050608002016040518363ffffffff1660e01b81526004016118409291906156ee565b60a06040518083038186803b15801561185857600080fd5b505afa9250505080156118a6575060408051601f3d9081017fffffffffffffffffffffffffffffffffffffffffffffffffffffffffffffffe01682019092526118a391810190614b65565b60015b6118af57611927565b828785815181106118bc57fe5b6020026020010181905250818685815181106118d457fe5b60200260200101906fffffffffffffffffffffffffffffffff1690816fffffffffffffffffffffffffffffffff16815250508085858151811061191357fe5b911515602092830291909101909101525050505b6001016117f0565b509450945094915050565b333214611973576040517f08c379a000000000000000000000000000000000000000000000000000000000815260040161078490615400565b600061197d61246c565b905060005b8351811015611a1257336000908152600383016020526040812085518592908790859081106119ad57fe5b60209081029190910181015173ffffffffffffffffffffffffffffffffffffffff16825281019190915260400160002080547fffffffffffffffffffffffffffffffffffffffffffffffffffffffffffffff0016911515919091179055600101611982565b507f02dfead5eb769b298e82dd9650b31c40559a3d42701dbf53c931bc2682847c31338484604051611a4693929190614f50565b60405180910390a1505050565b611a5d8433610cc7565b611a6e57611a6e610b058533613366565b6107e68484848461315f565b60608080858414611ab7576040517f08c379a0000000000000000000000000000000000000000000000000000000008152600401610784906153a3565b8567ffffffffffffffff81118015611ace57600080fd5b50604051908082528060200260200182016040528015611b0857816020015b611af561410a565b815260200190600190039081611aed5790505b5092508567ffffffffffffffff81118015611b2257600080fd5b50604051908082528060200260200182016040528015611b4c578160200160208202803683370190505b5091508567ffffffffffffffff81118015611b6657600080fd5b50604051908082528060200260200182016040528015611b90578160200160208202803683370190505b50905060005b8681101561192f5730631fb09795898984818110611bb057fe5b90506101800201888885818110611bc357fe5b9050608002016040518363ffffffff1660e01b8152600401611be6929190615574565b60a06040518083038186803b158015611bfe57600080fd5b505afa925050508015611c4c575060408051601f3d9081017fffffffffffffffffffffffffffffffffffffffffffffffffffffffffffffffe0168201909252611c4991810190614b65565b60015b611c5557611ccd565b82878581518110611c6257fe5b602002602001018190525081868581518110611c7a57fe5b60200260200101906fffffffffffffffffffffffffffffffff1690816fffffffffffffffffffffffffffffffff168152505080858581518110611cb957fe5b911515602092830291909101909101525050505b600101611b96565b610aea3384848461315f565b7f000000000000000000000000000000000000000000000000000000000000000081565b600061071061070b83613421565b6000611d1d61246c565b336000818152600483016020908152604080832073ffffffffffffffffffffffffffffffffffffffff891684529091529081902080547fffffffffffffffffffffffffffffffffffffffffffffffffffffffffffffff0016861515179055519192507f6ea9dbe8b2cc119348716a9220a0742ad62b7884ecb0ff4b32cd508121fd937991611a46919086908690614f1f565b600080611dba61412c565b611e276040518060a00160405280888152602001878152602001866fffffffffffffffffffffffffffffffff1681526020013373ffffffffffffffffffffffffffffffffffffffff1681526020013373ffffffffffffffffffffffffffffffffffffffff1681525061287a565b9050611e3681600001516132c3565b602081015160409091015190969095509350505050565b60005b8151811015610d9257611e75828281518110611e6857fe5b6020026020010151611f04565b600101611e50565b81518351148015611e8f575080518351145b611ec5576040517f08c379a00000000000000000000000000000000000000000000000000000000081526004016107849061545d565b611ecf8433610cc7565b611ee057611ee0610b058533613366565b60005b835181101561158d57611efc858583815181106107a957fe5b600101611ee3565b6000611f0f826106fd565b9050816080015173ffffffffffffffffffffffffffffffffffffffff163373ffffffffffffffffffffffffffffffffffffffff1614158015611f5c5750611f5a826080015133610cc7565b155b15611f7357611f73610b05823385608001516130b4565b610d928183608001516130ec565b60006040517fe593d3fdfa8b60e5e17a1b2204662ecbe15c23f2084b9ad5bae40359540a7da98152825173ffffffffffffffffffffffffffffffffffffffff166020820152602083015173ffffffffffffffffffffffffffffffffffffffff16604082015260408301516fffffffffffffffffffffffffffffffff16606082015260608301516fffffffffffffffffffffffffffffffff166080820152608083015173ffffffffffffffffffffffffffffffffffffffff1660a082015260a083015173ffffffffffffffffffffffffffffffffffffffff1660c082015260c083015173ffffffffffffffffffffffffffffffffffffffff1660e082015260e083015161010082015261010083015167ffffffffffffffff166101208201526101208301516101408201526101608120915050919050565b60007f0000000000000000000000000000000000000000000000000000000000000000826040516020016120ed929190614e94565b604051602081830303815290604052805190602001209050919050565b600061211461246c565b73ffffffffffffffffffffffffffffffffffffffff8087166000908152600283016020908152604080832089851684528252808320938816835292905220549091508281111561216b5761216b610b058483613598565b73ffffffffffffffffffffffffffffffffffffffff80871660009081526002840160209081526040808320898516845282528083209388168352929052819020849055517ffe7ffb1edfe79f4df716cb2dcad21cf2f31b104d816a7976ba1e6e4653c1efb1906121e2908890889088908890614fe9565b60405180910390a1505050505050565b600081604001516fffffffffffffffffffffffffffffffff166000148061222d575060608201516fffffffffffffffffffffffffffffffff16155b1561223a57506000610713565b6001826080015160200151600481111561225057fe5b1461225d57506000610713565b60006122b68360800151604001518460600151036fffffffffffffffffffffffffffffffff1684606001516fffffffffffffffffffffffffffffffff1685604001516fffffffffffffffffffffffffffffffff166135ce565b90506122d3816122ce856020015186600001516135ec565b61371e565b905061231461230f8285604001516fffffffffffffffffffffffffffffffff1686606001516fffffffffffffffffffffffffffffffff16613734565b613758565b9392505050565b60006123278383613784565b60028251600481111561233657fe5b141561239e576001838360200151846040015185606001516040516000815260200160405260405161236b9493929190615259565b6020604051602081039080840390855afa15801561238d573d6000803e3d6000fd5b505050602060405103519050612443565b6003825160048111156123ad57fe5b14156124435760007f19457468657265756d205369676e6564204d6573736167653a0a33320000000060005283601c52603c6000209050600181846020015185604001518660600151604051600081526020016040526040516124139493929190615259565b6020604051602081039080840390855afa158015612435573d6000803e3d6000fd5b505050602060405103519150505b73ffffffffffffffffffffffffffffffffffffffff8116610d0f57610d0f610b05600585613853565b600080610d0f6007613889565b600061248361246c565b865160009081526020829052604090819020546fffffffffffffffffffffffffffffffff808216928a01839052929350918716116124da576020870160025b908160048111156124cf57fe5b81525050505061158d565b7f800000000000000000000000000000000000000000000000000000000000000081161561250d576020870160036124c2565b504267ffffffffffffffff168467ffffffffffffffff1611612547576020860160045b9081600481111561253d57fe5b815250505061158d565b8282111561255a57602086016003612530565b60016020870181905250505050505050565b6040517f319bed9a00000000000000000000000000000000000000000000000000000000815260009073ffffffffffffffffffffffffffffffffffffffff7f0000000000000000000000000000000000000000000000000000000000000000169063319bed9a906125e19085906004016150f5565b602060405180830381600087803b1580156125fb57600080fd5b505af115801561260f573d6000803e3d6000fd5b505050506040513d601f19601f8201168201806040525081019061263391906149d1565b905060007f000000000000000000000000000000000000000000000000000000000000000073ffffffffffffffffffffffffffffffffffffffff166370a08231836040518263ffffffff1660e01b81526004016126909190614ecd565b60206040518083038186803b1580156126a857600080fd5b505afa1580156126bc573d6000803e3d6000fd5b505050506040513d601f19601f820116820180604052508101906126e09190614d10565b90506001811115610aea576040517fa3b4a32700000000000000000000000000000000000000000000000000000000815273ffffffffffffffffffffffffffffffffffffffff7f0000000000000000000000000000000000000000000000000000000000000000169063a3b4a3279061278390859081907fffffffffffffffffffffffffffffffffffffffffffffffffffffffffffffffff870190600401614eee565b600060405180830381600087803b15801561279d57600080fd5b505af11580156127b1573d6000803e3d6000fd5b50505050505050565b60607ff0ec779b0bcda6d84abf99ee2c67647d1100ebbb553a9c2d1c2ba1579592832c826040516024016127ee9190614ecd565b604080517fffffffffffffffffffffffffffffffffffffffffffffffffffffffffffffffe08184030181529190526020810180517bffffffffffffffffffffffffffffffffffffffffffffffffffffffff167fffffffff00000000000000000000000000000000000000000000000000000000909316929092179091529050919050565b805160208201fd5b61288261412c565b61288a61410a565b82516128959061143f565b90506001816020015160048111156128a957fe5b146128ce576128ce610b058260000151836020015160048111156128c957fe5b6138a4565b825160c0015173ffffffffffffffffffffffffffffffffffffffff16158015906129305750826060015173ffffffffffffffffffffffffffffffffffffffff16836000015160c0015173ffffffffffffffffffffffffffffffffffffffff1614155b1561295357612953610b0582600001518560600151866000015160c001516138da565b825160e0015173ffffffffffffffffffffffffffffffffffffffff16158015906129b55750826080015173ffffffffffffffffffffffffffffffffffffffff16836000015160e0015173ffffffffffffffffffffffffffffffffffffffff1614155b156129d8576129d8610b0582600001518560800151866000015160e00151613912565b60006129ec8260000151856020015161231b565b9050836000015160a0015173ffffffffffffffffffffffffffffffffffffffff168173ffffffffffffffffffffffffffffffffffffffff1614158015612a3f5750835160a00151612a3d9082610cc7565b155b15612a5b578151845160a00151612a5b91610b0591849061394a565b5082516101200151612a6c90613982565b8252604080516101408101825282518152845160a09081015173ffffffffffffffffffffffffffffffffffffffff9081166020808501919091526060808901805184168688015251831681860152885151831660808601528851909101519091169183019190915285518301516fffffffffffffffffffffffffffffffff90811660c0840152865190910151811660e083015285830151811661010083015291830151909116610120820152612b2190613a57565b6fffffffffffffffffffffffffffffffff908116604085015290811660208401528351608001511615612bd857612ba382602001516fffffffffffffffffffffffffffffffff168460000151606001516fffffffffffffffffffffffffffffffff168560000151608001516fffffffffffffffffffffffffffffffff166135ce565b6fffffffffffffffffffffffffffffffff166060808401829052845160208101519186015161010090910151612bd893613c18565b8051835160a08101516060808701516101008401518451602080870151908a01516040808c0151968c01518c51610120909a015191517fab614d2b738543c0ea21f56347cf696a3a0c42a7cbec3212a5ca22a4dcff21249b612c3f9b909a9993909161514e565b60405180910390a150919050565b612c5561412c565b612c5d61410a565b8251612c6890610904565b9050600181602001516004811115612c7c57fe5b14612c9c57612c9c610b058260000151836020015160048111156128c957fe5b6000612ca661246c565b845160c0015190915073ffffffffffffffffffffffffffffffffffffffff163214801590612d0c5750835160c0015173ffffffffffffffffffffffffffffffffffffffff166000908152600382016020908152604080832032845290915290205460ff16155b15612d28578151845160c00151612d2891610b05913290613d0e565b50825160a0015173ffffffffffffffffffffffffffffffffffffffff1615801590612d8b5750826060015173ffffffffffffffffffffffffffffffffffffffff16836000015160a0015173ffffffffffffffffffffffffffffffffffffffff1614155b15612dae57612dae610b0582600001518560600151866000015160a001516138da565b6000612dc28260000151856020015161231b565b905083600001516080015173ffffffffffffffffffffffffffffffffffffffff168173ffffffffffffffffffffffffffffffffffffffff1614158015612e155750835160800151612e139082610cc7565b155b15612e31578151845160800151612e3191610b0591849061394a565b50604080516101408101825282518152845160809081015173ffffffffffffffffffffffffffffffffffffffff166020830152850151612f7c92820190612e7c578560600151612e7e565b305b73ffffffffffffffffffffffffffffffffffffffff1681526020018560a0015173ffffffffffffffffffffffffffffffffffffffff16815260200185600001516000015173ffffffffffffffffffffffffffffffffffffffff16815260200185600001516020015173ffffffffffffffffffffffffffffffffffffffff1681526020018560000151604001516fffffffffffffffffffffffffffffffff1681526020018560000151606001516fffffffffffffffffffffffffffffffff16815260200185604001516fffffffffffffffffffffffffffffffff16815260200183604001516fffffffffffffffffffffffffffffffff16815250613a57565b6fffffffffffffffffffffffffffffffff908116604080860182905292909116602080860182905284518751608081015160608a015182519483015160e09093015197517f829fa99d94dc4636925b38632e625736a614c154d55006b7ab6bea979c210c3298612c3f9895979396929592949392916151ce565b60607f21948612b5ef214ec0508df4901600e07a810a371be76b25d59ade73826e3d9784848460405160240161302e93929190615232565b604080517fffffffffffffffffffffffffffffffffffffffffffffffffffffffffffffffe08184030181529190526020810180517bffffffffffffffffffffffffffffffffffffffffffffffffffffffff167fffffffff000000000000000000000000000000000000000000000000000000009093169290921790915290509392505050565b60607f88b2c08e4a5f57d416ad23dad18c20497ccfe684b1379b28fd564adaf582b80f84848460405160240161302e93929190615122565b60006130f661246c565b6000848152602082905260409081902080547f8000000000000000000000000000000000000000000000000000000000000000179055519091507fa6eb7cdc219e1518ced964e9a34e61d68a94e4f1569db3e84256ba981ba5275390611a4690859085906150fe565b600061316961246c565b73ffffffffffffffffffffffffffffffffffffffff808716600090815260018301602090815260408083208985168452825280832093881683529290522054909150828111156131c0576131c0610b058483613598565b73ffffffffffffffffffffffffffffffffffffffff80871660009081526001840160209081526040808320898516845282528083209388168352929052819020849055517fa91fe7ae62fce669df2c7f880f8c14d178531aae72515558e5c948e37c32a572906121e2908890889088908890614fe9565b6040517f6eb224cb0000000000000000000000000000000000000000000000000000000081523090636eb224cb906132959084907f0000000000000000000000000000000000000000000000000000000000000000906004016152a4565b600060405180830381600087803b1580156132af57600080fd5b505af115801561158d573d6000803e3d6000fd5b80341180156132d25750333014155b156133635760006132e33483613d46565b905060003373ffffffffffffffffffffffffffffffffffffffff168260405161330b90614eca565b60006040518083038185875af1925050503d8060008114613348576040519150601f19603f3d011682016040523d82523d6000602084013e61334d565b606091505b5050905080610aea57610aea610b053384613d65565b50565b60607f84356db366796dc6e2aeb1ad74b631fe4e5ec6a650464da6059e9f95c8810a10838360405160240161339c929190614fc2565b604080517fffffffffffffffffffffffffffffffffffffffffffffffffffffffffffffffe08184030181529190526020810180517bffffffffffffffffffffffffffffffffffffffffffffffffffffffff167fffffffff0000000000000000000000000000000000000000000000000000000090931692909217909152905092915050565b60006040517fce918627cb55462ddbb85e73de69a8b322f2bc88f4507c52fcad6d4c33c29d498152825173ffffffffffffffffffffffffffffffffffffffff166020820152602083015173ffffffffffffffffffffffffffffffffffffffff16604082015260408301516fffffffffffffffffffffffffffffffff16606082015260608301516fffffffffffffffffffffffffffffffff16608082015260808301516fffffffffffffffffffffffffffffffff1660a082015260a083015173ffffffffffffffffffffffffffffffffffffffff1660c082015260c083015173ffffffffffffffffffffffffffffffffffffffff1660e082015260e083015173ffffffffffffffffffffffffffffffffffffffff1661010082015261010083015173ffffffffffffffffffffffffffffffffffffffff1661012082015261012083015161014082015261014083015167ffffffffffffffff166101608201526101608301516101808201526101a08120915050919050565b60607fb12bc7e7d341f4431d6faf05f991ee3b779183e341b24243064e10c886cd1873838360405160240161339c929190615826565b60006135e4836135de8685613d9b565b90613dcc565b949350505050565b60006123148373ffffffffffffffffffffffffffffffffffffffff1663dd62ed3e84306040518363ffffffff1660e01b815260040161362c929190614fc2565b60206040518083038186803b15801561364457600080fd5b505afa158015613658573d6000803e3d6000fd5b505050506040513d601f19601f8201168201806040525081019061367c9190614d10565b6040517f70a0823100000000000000000000000000000000000000000000000000000000815273ffffffffffffffffffffffffffffffffffffffff8616906370a08231906136ce908790600401614ecd565b60206040518083038186803b1580156136e657600080fd5b505afa1580156136fa573d6000803e3d6000fd5b505050506040513d601f19601f820116820180604052508101906122ce9190614d10565b600081831061372d5781612314565b5090919050565b60006135e4836135de613748826001613d46565b6137528887613d9b565b90613df6565b60006fffffffffffffffffffffffffffffffff82111561378057613780610b05600384613e12565b5090565b60408101517ffffffffffffffffffffffffffffffffebaaedce6af48a03bbfd25e8cd03641411115806137db575060608101517f7fffffffffffffffffffffffffffffff5d576e7357a4501ddfe92f46681b20a111155b156137ee576137ee610b05600584613853565b6000815160048111156137fd57fe5b141561381157613811610b05600384613853565b60018151600481111561382057fe5b141561383457613834610b05600084613853565b60048151600481111561384357fe5b1415610d9257610d92610b056002845b60607ff18f11f3027e735c758137924b262d4d3aff0037dcd785aca3c699fa05d960bd838360405160240161339c929190615324565b6000608082600a81111561389957fe5b600101901b92915050565b60607f47ab394e41470191eaf9fa542e84ac483a12665fbd616eb8d1c022ced6c94000838360405160240161339c929190615248565b60607f5d3300180a4547b3e27137be832d3ebf56f1ba5ebb30dd580999c61f77fa639684848460405160240161302e93929190615122565b60607f15e6a383bb02d79ee933b927fbecba78cdde16cba84b94a99661f44bcce3b73684848460405160240161302e93929190615122565b60607ff13e65d925201525f3d71a731833b19bb26e44cfbd97caf72a366b73866f712484848460405160240161302e93929190615122565b60008061398d613e2f565b90508061399e576000915050610713565b60006139a984613e5b565b905060008173ffffffffffffffffffffffffffffffffffffffff16836040516139d190614eca565b60006040518083038185875af1925050503d8060008114613a0e576040519150601f19603f3d011682016040523d82523d6000602084013e613a13565b606091505b5050905080613a4e576040517f08c379a000000000000000000000000000000000000000000000000000000000815260040161078490615517565b50909392505050565b600080613a96836101000151613a918561012001518660e001516fffffffffffffffffffffffffffffffff16613ea890919063ffffffff16565b613f09565b9150613ae1826fffffffffffffffffffffffffffffffff168460e001516fffffffffffffffffffffffffffffffff168560c001516fffffffffffffffffffffffffffffffff166135ce565b90506fffffffffffffffffffffffffffffffff82161580613b1257506fffffffffffffffffffffffffffffffff8116155b15613b2257506000905080613c13565b610120830151613b44906fffffffffffffffffffffffffffffffff1683613f3c565b6fffffffffffffffffffffffffffffffff16613b5e61246c565b845160009081526020919091526040908190209190915583015173ffffffffffffffffffffffffffffffffffffffff16301415613bbf57613bba8360a001518460200151846fffffffffffffffffffffffffffffffff16613f91565b613be9565b613be98360a0015184604001518560200151856fffffffffffffffffffffffffffffffff16613c18565b613c13836080015184602001518560600151846fffffffffffffffffffffffffffffffff16613c18565b915091565b73ffffffffffffffffffffffffffffffffffffffff8416301415613c68576040517f08c379a0000000000000000000000000000000000000000000000000000000008152600401610784906154ba565b6040517f23b872dd00000000000000000000000000000000000000000000000000000000815273ffffffffffffffffffffffffffffffffffffffff8416600482015273ffffffffffffffffffffffffffffffffffffffff83166024820152816044820152602081606483600073ffffffffffffffffffffffffffffffffffffffff8a165af13d600183511460208210151681151782169150816127b157806000843e8083fd5b60607fc0972f3cc4234ca2091de7e7bc7081494bd29ac280167d66f0d44168973b163484848460405160240161302e93929190615122565b600082821115613d5f57613d5f610b0560028585614073565b50900390565b60607fbde95cc2119e0200d80642397198abfcf98e6e4dddd0de9c6320d86252ad40ab838360405160240161339c929190615020565b600082613daa57506000610d0f565b82820282848281613db757fe5b041461231457612314610b0560018686614073565b600081613de257613de2610b0560038585614073565b6000828481613ded57fe5b04949350505050565b60008282018381101561231457612314610b0560008686614073565b606063c996af7b60e01b838360405160240161339c92919061530d565b63ffffffff7f0000000000000000000000000000000000000000000000000000000000000000163a0290565b60006107107f00000000000000000000000000000000000000000000000000000000000000007f000000000000000000000000000000000000000000000000000000000000000084614092565b6000826fffffffffffffffffffffffffffffffff16826fffffffffffffffffffffffffffffffff161115613d5f57613d5f610b056002856fffffffffffffffffffffffffffffffff16856fffffffffffffffffffffffffffffffff16614073565b6000816fffffffffffffffffffffffffffffffff16836fffffffffffffffffffffffffffffffff161061372d5781612314565b60008282016fffffffffffffffffffffffffffffffff808516908216101561231457612314610b056000866fffffffffffffffffffffffffffffffff16866fffffffffffffffffffffffffffffffff16614073565b73ffffffffffffffffffffffffffffffffffffffff8316301415613fe1576040517f08c379a0000000000000000000000000000000000000000000000000000000008152600401610784906154ba565b6040517fa9059cbb00000000000000000000000000000000000000000000000000000000815273ffffffffffffffffffffffffffffffffffffffff83166004820152816024820152602081604483600073ffffffffffffffffffffffffffffffffffffffff89165af13d6001835114602082101516811517821691508161406b57806000843e8083fd5b505050505050565b606063e946c1bb60e01b84848460405160240161302e939291906152ec565b6040516000906140cc907fff0000000000000000000000000000000000000000000000000000000000000090869085908790602001614e30565b604080517fffffffffffffffffffffffffffffffffffffffffffffffffffffffffffffffe08184030181529190528051602090910120949350505050565b6040805160608101909152600080825260208201908152600060209091015290565b60408051608081018252600080825260208201819052918101829052606081019190915290565b8035610d0f816158d4565b600082601f83011261416e578081fd5b813561418161417c8261586c565b615845565b8181529150602080830190848101818402860182018710156141a257600080fd5b60005b848110156141ca5781356141b8816158d4565b845292820192908201906001016141a5565b505050505092915050565b60008083601f8401126141e6578182fd5b50813567ffffffffffffffff8111156141fd578182fd5b60208301915083602060808302850101111561421857600080fd5b9250929050565b600082601f83011261422f578081fd5b813561423d61417c8261586c565b81815291506020808301908481018184028601820187101561425e57600080fd5b60005b848110156141ca57813584529282019290820190600101614261565b8035610d0f816158f6565b600061018080838503121561429b578182fd5b6142a481615845565b9150506142b18383614153565b81526142c08360208401614153565b60208201526142d28360408401614492565b60408201526142e48360608401614492565b60608201526142f68360808401614492565b60808201526143088360a08401614153565b60a082015261431a8360c08401614153565b60c082015261432c8360e08401614153565b60e082015261010061434084828501614153565b90820152610120828101359082015261014061435e8482850161449d565b818301525061016080830135818301525092915050565b6000610140808385031215614388578182fd5b61439181615845565b91505061439e8383614153565b81526143ad8360208401614153565b60208201526143bf8360408401614492565b60408201526143d18360608401614492565b60608201526143e38360808401614153565b60808201526143f58360a08401614153565b60a08201526144078360c08401614153565b60c082015260e082013560e08201526101006144258482850161449d565b818301525061012080830135818301525092915050565b60006080828403121561444d578081fd5b6144576080615845565b9050813561446481615904565b815261447383602084016144b5565b6020820152604082013560408201526060820135606082015292915050565b8035610d0f81615911565b803567ffffffffffffffff81168114610d0f57600080fd5b803560ff81168114610d0f57600080fd5b600080604083850312156144d8578182fd5b82356144e3816158d4565b915060208301356144f3816158d4565b809150509250929050565b60008060008060808587031215614513578182fd5b843561451e816158d4565b9350602085013567ffffffffffffffff8082111561453a578384fd5b6145468883890161415e565b9450604087013591508082111561455b578384fd5b6145678883890161415e565b9350606087013591508082111561457c578283fd5b506145898782880161421f565b91505092959194509250565b600080604083850312156145a7578182fd5b82356145b2816158d4565b915060208301356144f3816158f6565b600080600080608085870312156145d7578182fd5b84356145e2816158d4565b935060208501356145f2816158d4565b92506040850135614602816158d4565b9396929550929360600135925050565b60008060408385031215614624578182fd5b823567ffffffffffffffff81111561463a578283fd5b8301601f8101851361464a578283fd5b803561465861417c8261586c565b808282526020808301925080850189828387028801011115614678578788fd5b8795505b848610156146a357803561468f816158d4565b84526001959095019492810192810161467c565b508196506146b389828a0161427d565b955050505050509250929050565b600080602083850312156146d3578182fd5b823567ffffffffffffffff808211156146ea578384fd5b818501915085601f8301126146fd578384fd5b81358181111561470b578485fd5b866020808302850101111561471e578485fd5b60209290920196919550909350505050565b600080600060608486031215614744578081fd5b833567ffffffffffffffff8082111561475b578283fd5b6147678783880161415e565b9450602086013591508082111561477c578283fd5b6147888783880161415e565b9350604086013591508082111561479d578283fd5b506108fa8682870161421f565b600080600080604085870312156147bf578182fd5b843567ffffffffffffffff808211156147d6578384fd5b818701915087601f8301126147e9578384fd5b8135818111156147f7578485fd5b8860206101808302850101111561480c578485fd5b602092830196509450908601359080821115614826578384fd5b50614833878288016141d5565b95989497509550505050565b60006020808385031215614851578182fd5b823567ffffffffffffffff811115614867578283fd5b8301601f81018513614877578283fd5b803561488561417c8261586c565b81815283810190838501610180808502860187018a10156148a4578788fd5b8795505b848610156148d0576148ba8a83614288565b84526001959095019492860192908101906148a8565b509098975050505050505050565b600080600080604085870312156148f3578182fd5b843567ffffffffffffffff8082111561490a578384fd5b818701915087601f83011261491d578384fd5b81358181111561492b578485fd5b8860206101408302850101111561480c578485fd5b60006020808385031215614952578182fd5b823567ffffffffffffffff811115614968578283fd5b8301601f81018513614978578283fd5b803561498661417c8261586c565b81815283810190838501610140808502860187018a10156149a5578788fd5b8795505b848610156148d0576149bb8a83614375565b84526001959095019492860192908101906149a9565b6000602082840312156149e2578081fd5b8151612314816158d4565b600080600060608486031215614a01578081fd5b8335614a0c816158d4565b92506020840135614a1c816158d4565b929592945050506040919091013590565b60006101808284031215614a3f578081fd5b6123148383614288565b600080828403610200811215614a5d578283fd5b614a678585614288565b925060807ffffffffffffffffffffffffffffffffffffffffffffffffffffffffffffffe8082011215614a98578182fd5b50610180830190509250929050565b60008060006102208486031215614abc578081fd5b614ac68585614288565b9250614ad685610180860161443c565b9150610200840135614ae781615911565b809150509250925092565b60008060008060006102608688031215614b0a578283fd5b614b148787614288565b9450614b2487610180880161443c565b9350610200860135614b3581615911565b9250610220860135614b46816158d4565b9150610240860135614b57816158d4565b809150509295509295909350565b600080600083850360a0811215614b7a578182fd5b6060811215614b87578182fd5b50614b926060615845565b845181526020850151614ba481615904565b60208201526040850151614bb781615911565b60408201526060850151909350614bcd81615911565b6080850151909250614ae7816158f6565b60006101408284031215614bf0578081fd5b6123148383614375565b6000806101c08385031215614c0d578182fd5b614c178484614375565b9150614c2784610140850161443c565b90509250929050565b60008060006101e08486031215614c45578081fd5b614c4f8585614375565b9250614c5f85610140860161443c565b91506101c0840135614ae781615911565b6000806000806000806102408789031215614c89578384fd5b614c938888614375565b9550614ca388610140890161443c565b94506101c0870135614cb481615911565b93506101e0870135614cc5816158d4565b9250610200870135614cd6816158f6565b9150610220870135614ce7816158d4565b809150509295509295509295565b600060808284031215614d06578081fd5b612314838361443c565b600060208284031215614d21578081fd5b5051919050565b6fffffffffffffffffffffffffffffffff16815260200190565b73ffffffffffffffffffffffffffffffffffffffff169052565b6000815180845260208085019450808401835b83811015614d8d578151151587529582019590820190600101614d6f565b509495945050505050565b80518252614da960208201516158bf565b60208301526040908101516fffffffffffffffffffffffffffffffff16910152565b8035614dd681615904565b614ddf816158bf565b8352506040810160ff614df582602085016144b5565b166020840152356040830152606090810135910152565b6fffffffffffffffffffffffffffffffff169052565b67ffffffffffffffff169052565b7fff0000000000000000000000000000000000000000000000000000000000000094909416845260609290921b7fffffffffffffffffffffffffffffffffffffffff0000000000000000000000001660018401526015830152603582015260550190565b7f190100000000000000000000000000000000000000000000000000000000000081526002810192909252602282015260420190565b90565b73ffffffffffffffffffffffffffffffffffffffff91909116815260200190565b73ffffffffffffffffffffffffffffffffffffffff9384168152919092166020820152604081019190915260600190565b73ffffffffffffffffffffffffffffffffffffffff9384168152919092166020820152901515604082015260600190565b60006060820173ffffffffffffffffffffffffffffffffffffffff808716845260206060818601528287518085526080870191508289019450855b81811015614fa9578551851683529483019491830191600101614f8b565b5050809450505050508215156040830152949350505050565b73ffffffffffffffffffffffffffffffffffffffff92831681529116602082015260400190565b73ffffffffffffffffffffffffffffffffffffffff9485168152928416602084015292166040820152606081019190915260800190565b73ffffffffffffffffffffffffffffffffffffffff929092168252602082015260400190565b60608082528451828201819052600091906020906080850190828901855b8281101561508757615077848351614d98565b9285019290840190600101615064565b5050508481038286015280925086516150a081836150f5565b93508288019150845b818110156150ca576150bc858451614d28565b9450918301916001016150a9565b5050505082810360408401526150e08185614d5c565b9695505050505050565b901515815260200190565b90815260200190565b91825273ffffffffffffffffffffffffffffffffffffffff16602082015260400190565b92835273ffffffffffffffffffffffffffffffffffffffff918216602084015216604082015260600190565b9a8b5273ffffffffffffffffffffffffffffffffffffffff998a1660208c015297891660408b015295881660608a015293871660808901529190951660a08701526fffffffffffffffffffffffffffffffff94851660c0870152841660e08601529092166101008401526101208301919091526101408201526101600190565b97885273ffffffffffffffffffffffffffffffffffffffff968716602089015294861660408801529285166060870152931660808501526fffffffffffffffffffffffffffffffff92831660a085015290911660c083015260e08201526101000190565b9283526020830191909152604082015260600190565b91825260ff16602082015260400190565b93845260ff9290921660208401526040830152606082015260800190565b7fffffffff0000000000000000000000000000000000000000000000000000000091909116815260200190565b7fffffffff0000000000000000000000000000000000000000000000000000000092909216825273ffffffffffffffffffffffffffffffffffffffff16602082015260400190565b606081016152f9856158ca565b938152602081019290925260409091015290565b6040810161531a846158ca565b9281526020015290565b604081016006841061531a57fe5b6000602080835283518082850152825b8181101561535e57858101830151858201604001528201615342565b8181111561536f5783604083870101525b50601f017fffffffffffffffffffffffffffffffffffffffffffffffffffffffffffffffe016929092016040019392505050565b6020808252602c908201527f4e61746976654f7264657273466561747572652f4d49534d4154434845445f4160408201527f525241595f4c454e475448530000000000000000000000000000000000000000606082015260800190565b60208082526027908201527f4e61746976654f7264657273466561747572652f4e4f5f434f4e54524143545f60408201527f4f524947494e5300000000000000000000000000000000000000000000000000606082015260800190565b60208082526038908201527f4e61746976654f7264657273466561747572652f4d49534d4154434845445f5060408201527f4149525f4f52444552535f41525241595f4c454e475448530000000000000000606082015260800190565b60208082526024908201527f466978696e546f6b656e5370656e6465722f43414e4e4f545f494e564f4b455f60408201527f53454c4600000000000000000000000000000000000000000000000000000000606082015260800190565b60208082526027908201527f466978696e50726f746f636f6c466565732f45544845525f5452414e5346455260408201527f5f46414c49454400000000000000000000000000000000000000000000000000606082015260800190565b6102008101602084016155908361558b8388614153565b614d42565b61559a818661588c565b90506155a96020840182614d42565b506155b76040850185615899565b6155c46040840182614e0c565b506155d26060850185615899565b6155df6060840182614e0c565b506155ed6080850185615899565b6155fa6080840182614e0c565b5061560860a085018561588c565b61561560a0840182614d42565b5061562360c085018561588c565b61563060c0840182614d42565b5061563e60e085018561588c565b61564b60e0840182614d42565b5061010061565b8186018661588c565b61566782850182614d42565b50506101208481013590830152610140615683818601866158a6565b61568f82850182614e22565b50506101608481013590830152612314610180830184614dcb565b60608101610d0f8284614d98565b60a081016156c68286614d98565b6fffffffffffffffffffffffffffffffff841660608301528215156080830152949350505050565b6101c08101602084016157058361558b8388614153565b61570f818661588c565b905061571e6020840182614d42565b5061572c6040850185615899565b6157396040840182614e0c565b506157476060850185615899565b6157546060840182614e0c565b50615762608085018561588c565b61576f6080840182614d42565b5061577d60a085018561588c565b61578a60a0840182614d42565b5061579860c085018561588c565b6157a560c0840182614d42565b5060e084013560e08301526101006157bf818601866158a6565b6157cb82850182614e22565b50506101208481013590830152612314610140830184614dcb565b6fffffffffffffffffffffffffffffffff91909116815260200190565b6fffffffffffffffffffffffffffffffff92831681529116602082015260400190565b918252602082015260400190565b63ffffffff91909116815260200190565b60405181810167ffffffffffffffff8111828210171561586457600080fd5b604052919050565b600067ffffffffffffffff821115615882578081fd5b5060209081020190565b60008235612314816158d4565b6000823561231481615911565b6000823567ffffffffffffffff81168114612314578182fd5b806005811061071357fe5b6004811061336357fe5b73ffffffffffffffffffffffffffffffffffffffff8116811461336357600080fd5b801515811461336357600080fd5b6005811061336357600080fd5b6fffffffffffffffffffffffffffffffff8116811461336357600080fdfea26469706673582212201962a09d830c1d833b6462f295c5b550ad30807605e39fbc7af72efb59523aaf64736f6c634300060c0033",
  "devdoc": {
    "details": "Feature for interacting with limit and RFQ orders.",
    "kind": "dev",
    "methods": {
      "_fillLimitOrder((address,address,uint128,uint128,uint128,address,address,address,address,bytes32,uint64,uint256),(uint8,uint8,bytes32,bytes32),uint128,address,address)": {
        "details": "Fill a limit order. Internal variant. ETH protocol fees can be      attached to this call.",
        "params": {
          "order": "The limit order.",
          "sender": "The order sender.",
          "signature": "The order signature.",
          "taker": "The order taker.",
          "takerTokenFillAmount": "Maximum taker token to fill this order with."
        },
        "returns": {
          "makerTokenFilledAmount": "How much maker token was filled.",
          "takerTokenFilledAmount": "How much maker token was filled."
        }
      },
      "_fillRfqOrder((address,address,uint128,uint128,address,address,address,bytes32,uint64,uint256),(uint8,uint8,bytes32,bytes32),uint128,address,bool,address)": {
        "details": "Fill an RFQ order. Internal variant.",
        "params": {
          "order": "The RFQ order.",
          "recipient": "The recipient of the maker tokens.",
          "signature": "The order signature.",
          "taker": "The order taker.",
          "takerTokenFillAmount": "Maximum taker token to fill this order with.",
          "useSelfBalance": "Whether to use the ExchangeProxy's transient        balance of taker tokens to fill the order."
        },
        "returns": {
          "makerTokenFilledAmount": "How much maker token was filled.",
          "takerTokenFilledAmount": "How much maker token was filled."
        }
      },
      "batchCancelLimitOrders((address,address,uint128,uint128,uint128,address,address,address,address,bytes32,uint64,uint256)[])": {
        "details": "Cancel multiple limit orders. The caller must be the maker or a valid order signer.      Silently succeeds if the order has already been cancelled.",
        "params": {
          "orders": "The limit orders."
        }
      },
      "batchCancelPairLimitOrders(address[],address[],uint256[])": {
        "details": "Cancel all limit orders for a given maker and pair with a salt less      than the value provided. The caller must be the maker. Subsequent      calls to this function with the same caller and pair require the      new salt to be >= the old salt.",
        "params": {
          "makerTokens": "The maker tokens.",
          "minValidSalts": "The new minimum valid salts.",
          "takerTokens": "The taker tokens."
        }
      },
      "batchCancelPairLimitOrdersWithSigner(address,address[],address[],uint256[])": {
        "details": "Cancel all limit orders for a given maker and pair with a salt less      than the value provided. The caller must be a signer registered to the maker.      Subsequent calls to this function with the same caller and pair require the      new salt to be >= the old salt.",
        "params": {
          "maker": "the maker for whom the msg.sender is the signer.",
          "makerTokens": "The maker tokens.",
          "minValidSalts": "The new minimum valid salts.",
          "takerTokens": "The taker tokens."
        }
      },
      "batchCancelPairRfqOrders(address[],address[],uint256[])": {
        "details": "Cancel all RFQ orders for a given maker and pair with a salt less      than the value provided. The caller must be the maker. Subsequent      calls to this function with the same caller and pair require the      new salt to be >= the old salt.",
        "params": {
          "makerTokens": "The maker tokens.",
          "minValidSalts": "The new minimum valid salts.",
          "takerTokens": "The taker tokens."
        }
      },
      "batchCancelPairRfqOrdersWithSigner(address,address[],address[],uint256[])": {
        "details": "Cancel all RFQ orders for a given maker and pairs with salts less      than the values provided. The caller must be a signer registered to the maker.      Subsequent calls to this function with the same caller and pair require the      new salt to be >= the old salt.",
        "params": {
          "maker": "the maker for whom the msg.sender is the signer.",
          "makerTokens": "The maker tokens.",
          "minValidSalts": "The new minimum valid salts.",
          "takerTokens": "The taker tokens."
        }
      },
      "batchCancelRfqOrders((address,address,uint128,uint128,address,address,address,bytes32,uint64,uint256)[])": {
        "details": "Cancel multiple RFQ orders. The caller must be the maker or a valid order signer.      Silently succeeds if the order has already been cancelled.",
        "params": {
          "orders": "The RFQ orders."
        }
      },
      "batchGetLimitOrderRelevantStates((address,address,uint128,uint128,uint128,address,address,address,address,bytes32,uint64,uint256)[],(uint8,uint8,bytes32,bytes32)[])": {
        "details": "Batch version of `getLimitOrderRelevantState()`, without reverting.      Orders that would normally cause `getLimitOrderRelevantState()`      to revert will have empty results.",
        "params": {
          "orders": "The limit orders.",
          "signatures": "The order signatures."
        },
        "returns": {
          "actualFillableTakerTokenAmounts": "How much of each order is fillable         based on maker funds, in taker tokens.",
          "isSignatureValids": "Whether each signature is valid for the order.",
          "orderInfos": "Info about the orders."
        }
      },
      "batchGetRfqOrderRelevantStates((address,address,uint128,uint128,address,address,address,bytes32,uint64,uint256)[],(uint8,uint8,bytes32,bytes32)[])": {
        "details": "Batch version of `getRfqOrderRelevantState()`, without reverting.      Orders that would normally cause `getRfqOrderRelevantState()`      to revert will have empty results.",
        "params": {
          "orders": "The RFQ orders.",
          "signatures": "The order signatures."
        },
        "returns": {
          "actualFillableTakerTokenAmounts": "How much of each order is fillable         based on maker funds, in taker tokens.",
          "isSignatureValids": "Whether each signature is valid for the order.",
          "orderInfos": "Info about the orders."
        }
      },
      "cancelLimitOrder((address,address,uint128,uint128,uint128,address,address,address,address,bytes32,uint64,uint256))": {
        "details": "Cancel a single limit order. The caller must be the maker or a valid order signer.      Silently succeeds if the order has already been cancelled.",
        "params": {
          "order": "The limit order."
        }
      },
      "cancelPairLimitOrders(address,address,uint256)": {
        "details": "Cancel all limit orders for a given maker and pair with a salt less      than the value provided. The caller must be the maker. Subsequent      calls to this function with the same caller and pair require the      new salt to be >= the old salt.",
        "params": {
          "makerToken": "The maker token.",
          "minValidSalt": "The new minimum valid salt.",
          "takerToken": "The taker token."
        }
      },
      "cancelPairLimitOrdersWithSigner(address,address,address,uint256)": {
        "details": "Cancel all limit orders for a given maker and pair with a salt less      than the value provided. The caller must be a signer registered to the maker.      Subsequent calls to this function with the same caller and pair require the      new salt to be >= the old salt.",
        "params": {
          "maker": "the maker for whom the msg.sender is the signer.",
          "makerToken": "The maker token.",
          "minValidSalt": "The new minimum valid salt.",
          "takerToken": "The taker token."
        }
      },
      "cancelPairRfqOrders(address,address,uint256)": {
        "details": "Cancel all RFQ orders for a given maker and pair with a salt less      than the value provided. The caller must be the maker. Subsequent      calls to this function with the same caller and pair require the      new salt to be >= the old salt.",
        "params": {
          "makerToken": "The maker token.",
          "minValidSalt": "The new minimum valid salt.",
          "takerToken": "The taker token."
        }
      },
      "cancelPairRfqOrdersWithSigner(address,address,address,uint256)": {
        "details": "Cancel all RFQ orders for a given maker and pair with a salt less      than the value provided. The caller must be a signer registered to the maker.      Subsequent calls to this function with the same caller and pair require the      new salt to be >= the old salt.",
        "params": {
          "maker": "the maker for whom the msg.sender is the signer.",
          "makerToken": "The maker token.",
          "minValidSalt": "The new minimum valid salt.",
          "takerToken": "The taker token."
        }
      },
      "cancelRfqOrder((address,address,uint128,uint128,address,address,address,bytes32,uint64,uint256))": {
        "details": "Cancel a single RFQ order. The caller must be the maker or a valid order signer.      Silently succeeds if the order has already been cancelled.",
        "params": {
          "order": "The RFQ order."
        }
      },
      "fillLimitOrder((address,address,uint128,uint128,uint128,address,address,address,address,bytes32,uint64,uint256),(uint8,uint8,bytes32,bytes32),uint128)": {
        "details": "Fill a limit order. The taker and sender will be the caller.",
        "params": {
          "order": "The limit order. ETH protocol fees can be      attached to this call. Any unspent ETH will be refunded to      the caller.",
          "signature": "The order signature.",
          "takerTokenFillAmount": "Maximum taker token amount to fill this order with."
        },
        "returns": {
          "makerTokenFilledAmount": "How much maker token was filled.",
          "takerTokenFilledAmount": "How much maker token was filled."
        }
      },
      "fillOrKillLimitOrder((address,address,uint128,uint128,uint128,address,address,address,address,bytes32,uint64,uint256),(uint8,uint8,bytes32,bytes32),uint128)": {
        "details": "Fill an RFQ order for exactly `takerTokenFillAmount` taker tokens.      The taker will be the caller. ETH protocol fees can be      attached to this call. Any unspent ETH will be refunded to      the caller.",
        "params": {
          "order": "The limit order.",
          "signature": "The order signature.",
          "takerTokenFillAmount": "How much taker token to fill this order with."
        },
        "returns": {
          "makerTokenFilledAmount": "How much maker token was filled."
        }
      },
      "fillOrKillRfqOrder((address,address,uint128,uint128,address,address,address,bytes32,uint64,uint256),(uint8,uint8,bytes32,bytes32),uint128)": {
        "details": "Fill an RFQ order for exactly `takerTokenFillAmount` taker tokens.      The taker will be the caller. ETH protocol fees can be      attached to this call. Any unspent ETH will be refunded to      the caller.",
        "params": {
          "order": "The RFQ order.",
          "signature": "The order signature.",
          "takerTokenFillAmount": "How much taker token to fill this order with."
        },
        "returns": {
          "makerTokenFilledAmount": "How much maker token was filled."
        }
      },
      "fillRfqOrder((address,address,uint128,uint128,address,address,address,bytes32,uint64,uint256),(uint8,uint8,bytes32,bytes32),uint128)": {
        "details": "Fill an RFQ order for up to `takerTokenFillAmount` taker tokens.      The taker will be the caller. ETH should be attached to pay the      protocol fee.",
        "params": {
          "order": "The RFQ order.",
          "signature": "The order signature.",
          "takerTokenFillAmount": "Maximum taker token amount to fill this order with."
        },
        "returns": {
          "makerTokenFilledAmount": "How much maker token was filled.",
          "takerTokenFilledAmount": "How much maker token was filled."
        }
      },
      "getLimitOrderHash((address,address,uint128,uint128,uint128,address,address,address,address,bytes32,uint64,uint256))": {
        "details": "Get the canonical hash of a limit order.",
        "params": {
          "order": "The limit order."
        },
        "returns": {
          "orderHash": "The order hash."
        }
      },
      "getLimitOrderInfo((address,address,uint128,uint128,uint128,address,address,address,address,bytes32,uint64,uint256))": {
        "details": "Get the order info for a limit order.",
        "params": {
          "order": "The limit order."
        },
        "returns": {
          "orderInfo": "Info about the order."
        }
      },
      "getLimitOrderRelevantState((address,address,uint128,uint128,uint128,address,address,address,address,bytes32,uint64,uint256),(uint8,uint8,bytes32,bytes32))": {
        "details": "Get order info, fillable amount, and signature validity for a limit order.      Fillable amount is determined using balances and allowances of the maker.",
        "params": {
          "order": "The limit order.",
          "signature": "The order signature."
        },
        "returns": {
          "actualFillableTakerTokenAmount": "How much of the order is fillable         based on maker funds, in taker tokens.",
          "isSignatureValid": "Whether the signature is valid.",
          "orderInfo": "Info about the order."
        }
      },
      "getProtocolFeeMultiplier()": {
        "details": "Get the protocol fee multiplier. This should be multiplied by the      gas price to arrive at the required protocol fee to fill a native order.",
        "returns": {
          "multiplier": "The protocol fee multiplier."
        }
      },
      "getRfqOrderHash((address,address,uint128,uint128,address,address,address,bytes32,uint64,uint256))": {
        "details": "Get the canonical hash of an RFQ order.",
        "params": {
          "order": "The RFQ order."
        },
        "returns": {
          "orderHash": "The order hash."
        }
      },
      "getRfqOrderInfo((address,address,uint128,uint128,address,address,address,bytes32,uint64,uint256))": {
        "details": "Get the order info for an RFQ order.",
        "params": {
          "order": "The RFQ order."
        },
        "returns": {
          "orderInfo": "Info about the order."
        }
      },
      "getRfqOrderRelevantState((address,address,uint128,uint128,address,address,address,bytes32,uint64,uint256),(uint8,uint8,bytes32,bytes32))": {
        "details": "Get order info, fillable amount, and signature validity for an RFQ order.      Fillable amount is determined using balances and allowances of the maker.",
        "params": {
          "order": "The RFQ order.",
          "signature": "The order signature."
        },
        "returns": {
          "actualFillableTakerTokenAmount": "How much of the order is fillable         based on maker funds, in taker tokens.",
          "isSignatureValid": "Whether the signature is valid.",
          "orderInfo": "Info about the order."
        }
      },
      "isValidOrderSigner(address,address)": {
        "details": "checks if a given address is registered to sign on behalf of a maker address",
        "params": {
          "maker": "The maker address encoded in an order (can be a contract)",
          "signer": "The address that is providing a signature"
        }
      },
      "migrate()": {
        "details": "Initialize and register this feature.      Should be delegatecalled by `Migrate.migrate()`.",
        "returns": {
          "success": "`LibMigrate.SUCCESS` on success."
        }
      },
      "registerAllowedOrderSigner(address,bool)": {
        "details": "register a signer who can sign on behalf of msg.sender",
        "params": {
          "allowed": "True to register, false to unregister.",
          "signer": "The address from which you plan to generate signatures"
        }
      },
      "registerAllowedRfqOrigins(address[],bool)": {
        "details": "Mark what tx.origin addresses are allowed to fill an order that      specifies the message sender as its txOrigin.",
        "params": {
          "allowed": "True to register, false to unregister.",
          "origins": "An array of origin addresses to update."
        }
      },
      "transferProtocolFeesForPools(bytes32[])": {
        "details": "Transfers protocol fees from the `FeeCollector` pools into      the staking contract.",
        "params": {
          "poolIds": "Staking pool IDs"
        }
      }
    },
    "stateVariables": {
      "FEATURE_NAME": {
        "details": "Name of this feature."
      },
      "FEATURE_VERSION": {
        "details": "Version of this feature."
      }
    },
    "version": 1
  },
  "userdoc": {
    "kind": "user",
    "methods": {},
    "version": 1
  },
  "storageLayout": {
    "storage": [],
    "types": null
  }
}