{
  "address": "0xE9D87d68DB007bBF30041E4c65a5EE9c1FFA7967",
  "abi": [
    {
      "inputs": [],
      "stateMutability": "nonpayable",
      "type": "constructor"
    },
    {
      "inputs": [],
      "name": "deployer",
      "outputs": [
        {
          "internalType": "address",
          "name": "",
          "type": "address"
        }
      ],
      "stateMutability": "view",
      "type": "function"
    },
    {
      "inputs": [
        {
          "internalType": "address payable",
          "name": "ethRecipient",
          "type": "address"
        }
      ],
      "name": "die",
      "outputs": [],
      "stateMutability": "nonpayable",
      "type": "function"
    },
    {
      "inputs": [
        {
          "components": [
            {
              "internalType": "address payable",
              "name": "sender",
              "type": "address"
            },
            {
              "internalType": "address payable",
              "name": "recipient",
              "type": "address"
            },
            {
              "internalType": "bytes",
              "name": "data",
              "type": "bytes"
            }
          ],
          "internalType": "struct IERC20Transformer.TransformContext",
          "name": "context",
          "type": "tuple"
        }
      ],
      "name": "transform",
      "outputs": [
        {
          "internalType": "bytes4",
          "name": "success",
          "type": "bytes4"
        }
      ],
      "stateMutability": "nonpayable",
      "type": "function"
    }
  ],
  "transactionHash": "0x84a20824e6505a6e22b90d4e233833cbf6e6a1c37a13da8a24b00609b6297b09",
  "args": [],
  "numDeployments": 1,
  "solcInputHash": "d824bfd18a929a7d770611c578d2def3",
  "bytecode": "0x60c060405234801561001057600080fd5b5033606081811b608052309081901b60a052610c7d61004e6000398061029652806102c4525080610227528061025552806103035250610c7d6000f3fe608060405234801561001057600080fd5b50600436106100415760003560e01c8063832b24bb14610046578063c9353cb51461006f578063d5f3948814610084575b600080fd5b6100596100543660046108e2565b610099565b6040516100669190610ac5565b60405180910390f35b61008261007d3660046108bf565b61020f565b005b61008c610301565b6040516100669190610a57565b60006100a3610837565b6100b06040840184610b71565b8101906100bd919061091a565b905060005b8151518110156101e65760008183602001515111610100577fffffffffffffffffffffffffffffffffffffffffffffffffffffffffffffffff610119565b8260200151828151811061011057fe5b60200260200101515b90507fffffffffffffffffffffffffffffffffffffffffffffffffffffffffffffffff81141561018657610183308460000151848151811061015757fe5b602002602001015173ffffffffffffffffffffffffffffffffffffffff1661032590919063ffffffff16565b90505b80156101dd576101dd61019f60408701602088016108bf565b82856000015185815181106101b057fe5b602002602001015173ffffffffffffffffffffffffffffffffffffffff166103fe9092919063ffffffff16565b506001016100c2565b507f13c9929e000000000000000000000000000000000000000000000000000000009392505050565b3373ffffffffffffffffffffffffffffffffffffffff7f0000000000000000000000000000000000000000000000000000000000000000161461027e5761027e610279337f000000000000000000000000000000000000000000000000000000000000000061047b565b610536565b3073ffffffffffffffffffffffffffffffffffffffff7f000000000000000000000000000000000000000000000000000000000000000016146102e8576102e8610279307f000000000000000000000000000000000000000000000000000000000000000061053e565b8073ffffffffffffffffffffffffffffffffffffffff16ff5b7f000000000000000000000000000000000000000000000000000000000000000081565b600061033083610574565b15610353575073ffffffffffffffffffffffffffffffffffffffff8116316103f8565b6040517f70a0823100000000000000000000000000000000000000000000000000000000815273ffffffffffffffffffffffffffffffffffffffff8416906370a08231906103a5908590600401610a57565b60206040518083038186803b1580156103bd57600080fd5b505afa1580156103d1573d6000803e3d6000fd5b505050506040513d601f19601f820116820180604052508101906103f59190610a06565b90505b92915050565b61040783610574565b156104555760405173ffffffffffffffffffffffffffffffffffffffff83169082156108fc029083906000818181858888f1935050505015801561044f573d6000803e3d6000fd5b50610476565b61047673ffffffffffffffffffffffffffffffffffffffff841683836105a6565b505050565b60607f5cec653b364cca3880afa73ceff506d0651d11d26abbbe4a56460aa933b21b0883836040516024016104b1929190610a78565b604080517fffffffffffffffffffffffffffffffffffffffffffffffffffffffffffffffe08184030181529190526020810180517bffffffffffffffffffffffffffffffffffffffffffffffffffffffff167fffffffff0000000000000000000000000000000000000000000000000000000090931692909217909152905092915050565b805160208201fd5b60607fb5cf2cd09307d6c717473134badbb9761c2c97d7565566c2a71eba6cd6fc514d83836040516024016104b1929190610a78565b73ffffffffffffffffffffffffffffffffffffffff811673eeeeeeeeeeeeeeeeeeeeeeeeeeeeeeeeeeeeeeee14919050565b606063a9059cbb60e01b83836040516024016105c3929190610a9f565b604080517fffffffffffffffffffffffffffffffffffffffffffffffffffffffffffffffe08184030181529190526020810180517bffffffffffffffffffffffffffffffffffffffffffffffffffffffff167fffffffff0000000000000000000000000000000000000000000000000000000090931692909217909152905061064c8482610652565b50505050565b600060608373ffffffffffffffffffffffffffffffffffffffff168360405161067b9190610a1e565b6000604051808303816000865af19150503d80600081146106b8576040519150601f19603f3d011682016040523d82523d6000602084013e6106bd565b606091505b5091509150816106d0576106d081610536565b805161072057833b80610718576040517f08c379a000000000000000000000000000000000000000000000000000000000815260040161070f90610b14565b60405180910390fd5b50505061075d565b6020815110610754576000610736826000610761565b905080600114156107495750505061075d565b61075282610536565b505b61064c81610536565b5050565b60006103f5838360008160200183511015610789576107896102796005855185602001610792565b50016020015190565b6060632800659560e01b8484846040516024016107b193929190610af2565b604080517fffffffffffffffffffffffffffffffffffffffffffffffffffffffffffffffe08184030181529190526020810180517bffffffffffffffffffffffffffffffffffffffffffffffffffffffff167fffffffff000000000000000000000000000000000000000000000000000000009093169290921790915290509392505050565b604051806040016040528060608152602001606081525090565b600082601f830112610861578081fd5b813561087461086f82610c02565b610bdb565b81815291506020808301908481018184028601820187101561089557600080fd5b60005b848110156108b457813584529282019290820190600101610898565b505050505092915050565b6000602082840312156108d0578081fd5b81356108db81610c22565b9392505050565b6000602082840312156108f3578081fd5b813567ffffffffffffffff811115610909578182fd5b8201606081850312156108db578182fd5b6000602080838503121561092c578182fd5b823567ffffffffffffffff80821115610943578384fd5b9084019060408287031215610956578384fd5b6109606040610bdb565b82358281111561096e578586fd5b8301601f8101881361097e578586fd5b803561098c61086f82610c02565b81815286810190838801888402850189018c10156109a857898afd5b8994505b838510156109d35780356109bf81610c22565b8352600194909401939188019188016109ac565b50845250505082840135828111156109e9578586fd5b6109f588828601610851565b948201949094529695505050505050565b600060208284031215610a17578081fd5b5051919050565b60008251815b81811015610a3e5760208186018101518583015201610a24565b81811115610a4c5782828501525b509190910192915050565b73ffffffffffffffffffffffffffffffffffffffff91909116815260200190565b73ffffffffffffffffffffffffffffffffffffffff92831681529116602082015260400190565b73ffffffffffffffffffffffffffffffffffffffff929092168252602082015260400190565b7fffffffff0000000000000000000000000000000000000000000000000000000091909116815260200190565b6060810160088510610b0057fe5b938152602081019290925260409091015290565b60208082526027908201527f696e76616c696420746f6b656e20616464726573732c20636f6e7461696e732060408201527f6e6f20636f646500000000000000000000000000000000000000000000000000606082015260800190565b60008083357fffffffffffffffffffffffffffffffffffffffffffffffffffffffffffffffe1843603018112610ba5578283fd5b83018035915067ffffffffffffffff821115610bbf578283fd5b602001915036819003821315610bd457600080fd5b9250929050565b60405181810167ffffffffffffffff81118282101715610bfa57600080fd5b604052919050565b600067ffffffffffffffff821115610c18578081fd5b5060209081020190565b73ffffffffffffffffffffffffffffffffffffffff81168114610c4457600080fd5b5056fea264697066735822122022475a96d048390c755ab8e2354646911e0b1dc3e5960a92108c1f69125f8e1464736f6c634300060c0033",
  "devdoc": {
    "details": "A transformer that transfers tokens to the taker.",
    "kind": "dev",
    "methods": {
      "constructor": {
        "details": "Create this contract."
      },
      "die(address)": {
        "details": "Destruct this contract. Only callable by the deployer and will not      succeed in the context of a delegatecall (from another contract).",
        "params": {
          "ethRecipient": "The recipient of ETH held in this contract."
        }
      },
      "transform((address,address,bytes))": {
        "details": "Forwards tokens to the taker.",
        "params": {
          "context": "Context information."
        },
        "returns": {
          "success": "The success bytes (`LibERC20Transformer.TRANSFORMER_SUCCESS`)."
        }
      }
    },
    "stateVariables": {
      "MAX_UINT256": {
        "details": "Maximum uint256 value."
      }
    },
    "version": 1
  },
  "userdoc": {
    "kind": "user",
    "methods": {},
    "version": 1
  },
  "storageLayout": {
    "storage": [],
    "types": null
  }
}