{
  "address": "0x602b45fb3B386B232a199435F7d838bb30f6b802",
  "abi": [
    {
      "anonymous": false,
      "inputs": [
        {
          "indexed": false,
          "internalType": "address",
          "name": "quoteSigner",
          "type": "address"
        }
      ],
      "name": "QuoteSignerUpdated",
      "type": "event"
    },
    {
      "anonymous": false,
      "inputs": [
        {
          "indexed": true,
          "internalType": "address",
          "name": "taker",
          "type": "address"
        },
        {
          "indexed": false,
          "internalType": "address",
          "name": "inputToken",
          "type": "address"
        },
        {
          "indexed": false,
          "internalType": "address",
          "name": "outputToken",
          "type": "address"
        },
        {
          "indexed": false,
          "internalType": "uint256",
          "name": "inputTokenAmount",
          "type": "uint256"
        },
        {
          "indexed": false,
          "internalType": "uint256",
          "name": "outputTokenAmount",
          "type": "uint256"
        }
      ],
      "name": "TransformedERC20",
      "type": "event"
    },
    {
      "anonymous": false,
      "inputs": [
        {
          "indexed": false,
          "internalType": "address",
          "name": "transformerDeployer",
          "type": "address"
        }
      ],
      "name": "TransformerDeployerUpdated",
      "type": "event"
    },
    {
      "inputs": [],
      "name": "FEATURE_NAME",
      "outputs": [
        {
          "internalType": "string",
          "name": "",
          "type": "string"
        }
      ],
      "stateMutability": "view",
      "type": "function"
    },
    {
      "inputs": [],
      "name": "FEATURE_VERSION",
      "outputs": [
        {
          "internalType": "uint256",
          "name": "",
          "type": "uint256"
        }
      ],
      "stateMutability": "view",
      "type": "function"
    },
    {
      "inputs": [
        {
          "components": [
            {
              "internalType": "address payable",
              "name": "taker",
              "type": "address"
            },
            {
              "internalType": "contract IERC20TokenV06",
              "name": "inputToken",
              "type": "address"
            },
            {
              "internalType": "contract IERC20TokenV06",
              "name": "outputToken",
              "type": "address"
            },
            {
              "internalType": "uint256",
              "name": "inputTokenAmount",
              "type": "uint256"
            },
            {
              "internalType": "uint256",
              "name": "minOutputTokenAmount",
              "type": "uint256"
            },
            {
              "components": [
                {
                  "internalType": "uint32",
                  "name": "deploymentNonce",
                  "type": "uint32"
                },
                {
                  "internalType": "bytes",
                  "name": "data",
                  "type": "bytes"
                }
              ],
              "internalType": "struct ITransformERC20Feature.Transformation[]",
              "name": "transformations",
              "type": "tuple[]"
            },
            {
              "internalType": "bool",
              "name": "useSelfBalance",
              "type": "bool"
            },
            {
              "internalType": "address payable",
              "name": "recipient",
              "type": "address"
            }
          ],
          "internalType": "struct ITransformERC20Feature.TransformERC20Args",
          "name": "args",
          "type": "tuple"
        }
      ],
      "name": "_transformERC20",
      "outputs": [
        {
          "internalType": "uint256",
          "name": "outputTokenAmount",
          "type": "uint256"
        }
      ],
      "stateMutability": "payable",
      "type": "function"
    },
    {
      "inputs": [],
      "name": "createTransformWallet",
      "outputs": [
        {
          "internalType": "contract IFlashWallet",
          "name": "wallet",
          "type": "address"
        }
      ],
      "stateMutability": "nonpayable",
      "type": "function"
    },
    {
      "inputs": [],
      "name": "getQuoteSigner",
      "outputs": [
        {
          "internalType": "address",
          "name": "signer",
          "type": "address"
        }
      ],
      "stateMutability": "view",
      "type": "function"
    },
    {
      "inputs": [],
      "name": "getTransformWallet",
      "outputs": [
        {
          "internalType": "contract IFlashWallet",
          "name": "wallet",
          "type": "address"
        }
      ],
      "stateMutability": "view",
      "type": "function"
    },
    {
      "inputs": [],
      "name": "getTransformerDeployer",
      "outputs": [
        {
          "internalType": "address",
          "name": "deployer",
          "type": "address"
        }
      ],
      "stateMutability": "view",
      "type": "function"
    },
    {
      "inputs": [
        {
          "internalType": "address",
          "name": "transformerDeployer",
          "type": "address"
        }
      ],
      "name": "migrate",
      "outputs": [
        {
          "internalType": "bytes4",
          "name": "success",
          "type": "bytes4"
        }
      ],
      "stateMutability": "nonpayable",
      "type": "function"
    },
    {
      "inputs": [
        {
          "internalType": "address",
          "name": "quoteSigner",
          "type": "address"
        }
      ],
      "name": "setQuoteSigner",
      "outputs": [],
      "stateMutability": "nonpayable",
      "type": "function"
    },
    {
      "inputs": [
        {
          "internalType": "address",
          "name": "transformerDeployer",
          "type": "address"
        }
      ],
      "name": "setTransformerDeployer",
      "outputs": [],
      "stateMutability": "nonpayable",
      "type": "function"
    },
    {
      "inputs": [
        {
          "internalType": "contract IERC20TokenV06",
          "name": "inputToken",
          "type": "address"
        },
        {
          "internalType": "contract IERC20TokenV06",
          "name": "outputToken",
          "type": "address"
        },
        {
          "internalType": "uint256",
          "name": "inputTokenAmount",
          "type": "uint256"
        },
        {
          "internalType": "uint256",
          "name": "minOutputTokenAmount",
          "type": "uint256"
        },
        {
          "components": [
            {
              "internalType": "uint32",
              "name": "deploymentNonce",
              "type": "uint32"
            },
            {
              "internalType": "bytes",
              "name": "data",
              "type": "bytes"
            }
          ],
          "internalType": "struct ITransformERC20Feature.Transformation[]",
          "name": "transformations",
          "type": "tuple[]"
        }
      ],
      "name": "transformERC20",
      "outputs": [
        {
          "internalType": "uint256",
          "name": "outputTokenAmount",
          "type": "uint256"
        }
      ],
      "stateMutability": "payable",
      "type": "function"
    }
  ],
  "transactionHash": "0xc864968166130010df1c7ace4f6ebfdedd0face7d82bba4a022f361b98b56c9b",
  "args": [],
  "numDeployments": 1,
  "solcInputHash": "d824bfd18a929a7d770611c578d2def3",
  "bytecode": "0x60c060405261001260016004600061002e565b60a05234801561002157600080fd5b503060601b608052610060565b6bffffffff0000000000000000604084901b1667ffffffff00000000602084901b161763ffffffff8216179392505050565b60805160601c60a05161363f6200008760003980610206525080610e1f525061363f6000f3fe6080604052600436106100bc5760003560e01c80636ae4b4f7116100745780639f1ec78b1161004e5780639f1ec78b146101ad578063ce5494bb146101c2578063f028e9be146101ef576100bc565b80636ae4b4f71461015857806387c964191461017a5780638aa6539b1461019a576100bc565b8063415565b0116100a5578063415565b01461010e5780634d54cdb61461012157806356ce180a14610136576100bc565b8063031b905c146100c1578063287b071b146100ec575b600080fd5b3480156100cd57600080fd5b506100d6610204565b6040516100e39190612836565b60405180910390f35b3480156100f857600080fd5b50610101610228565b6040516100e391906124bd565b6100d661011c36600461228b565b610355565b34801561012d57600080fd5b506101016103fe565b34801561014257600080fd5b506101566101513660046121a0565b610427565b005b34801561016457600080fd5b5061016d61055e565b6040516100e39190612720565b34801561018657600080fd5b506101566101953660046121a0565b610597565b6100d66101a83660046122ff565b6106c3565b3480156101b957600080fd5b506101016106e9565b3480156101ce57600080fd5b506101e26101dd3660046121a0565b610712565b6040516100e3919061267b565b3480156101fb57600080fd5b50610101610a06565b7f000000000000000000000000000000000000000000000000000000000000000081565b6000803073ffffffffffffffffffffffffffffffffffffffff16638da5cb5b6040518163ffffffff1660e01b815260040160206040518083038186803b15801561027157600080fd5b505afa158015610285573d6000803e3d6000fd5b505050506040513d601f19601f820116820180604052508101906102a991906121bc565b90503373ffffffffffffffffffffffffffffffffffffffff8216146102da576102da6102d53383610a2c565b610ae8565b506040516102e790612006565b604051809103906000f080158015610303573d6000803e3d6000fd5b5090508061030f610af0565b80547fffffffffffffffffffffffff00000000000000000000000000000000000000001673ffffffffffffffffffffffffffffffffffffffff9290921691909117905590565b60006103f46040518061010001604052803373ffffffffffffffffffffffffffffffffffffffff1681526020018873ffffffffffffffffffffffffffffffffffffffff1681526020018773ffffffffffffffffffffffffffffffffffffffff1681526020018681526020018581526020018481526020016000151581526020013373ffffffffffffffffffffffffffffffffffffffff16815250610afd565b9695505050505050565b6000610408610af0565b6001015473ffffffffffffffffffffffffffffffffffffffff16905090565b60003073ffffffffffffffffffffffffffffffffffffffff16638da5cb5b6040518163ffffffff1660e01b815260040160206040518083038186803b15801561046f57600080fd5b505afa158015610483573d6000803e3d6000fd5b505050506040513d601f19601f820116820180604052508101906104a791906121bc565b90503373ffffffffffffffffffffffffffffffffffffffff8216146104d3576104d36102d53383610a2c565b50806104dd610af0565b60020180547fffffffffffffffffffffffff00000000000000000000000000000000000000001673ffffffffffffffffffffffffffffffffffffffff929092169190911790556040517ff5550c5eea19b48ac6eb5f03abdc4f59c0a60697abb3d973cd68669703b5c8b9906105539083906124bd565b60405180910390a150565b6040518060400160405280600e81526020017f5472616e73666f726d455243323000000000000000000000000000000000000081525081565b60003073ffffffffffffffffffffffffffffffffffffffff16638da5cb5b6040518163ffffffff1660e01b815260040160206040518083038186803b1580156105df57600080fd5b505afa1580156105f3573d6000803e3d6000fd5b505050506040513d601f19601f8201168201806040525081019061061791906121bc565b90503373ffffffffffffffffffffffffffffffffffffffff821614610643576106436102d53383610a2c565b508061064d610af0565b60010180547fffffffffffffffffffffffff00000000000000000000000000000000000000001673ffffffffffffffffffffffffffffffffffffffff929092169190911790556040517ffd45604abad79c16e23348a137ed8292661be1b8eba6e4806ebed6833b1c046a906105539083906124bd565b60003330146106d8576106d86102d533610d31565b6106e182610afd565b90505b919050565b60006106f3610af0565b6002015473ffffffffffffffffffffffffffffffffffffffff16905090565b600061073d7f4d54cdb600000000000000000000000000000000000000000000000000000000610de9565b6107667f287b071b00000000000000000000000000000000000000000000000000000000610de9565b61078f7ff028e9be00000000000000000000000000000000000000000000000000000000610de9565b6107b87f87c9641900000000000000000000000000000000000000000000000000000000610de9565b6107e17f56ce180a00000000000000000000000000000000000000000000000000000000610de9565b61080a7f9f1ec78b00000000000000000000000000000000000000000000000000000000610de9565b6108337f415565b000000000000000000000000000000000000000000000000000000000610de9565b61085c7f8aa6539b00000000000000000000000000000000000000000000000000000000610de9565b600073ffffffffffffffffffffffffffffffffffffffff163073ffffffffffffffffffffffffffffffffffffffff1663f028e9be6040518163ffffffff1660e01b815260040160206040518083038186803b1580156108ba57600080fd5b505afa1580156108ce573d6000803e3d6000fd5b505050506040513d601f19601f820116820180604052508101906108f291906121bc565b73ffffffffffffffffffffffffffffffffffffffff161415610990573073ffffffffffffffffffffffffffffffffffffffff1663287b071b6040518163ffffffff1660e01b8152600401602060405180830381600087803b15801561095657600080fd5b505af115801561096a573d6000803e3d6000fd5b505050506040513d601f19601f8201168201806040525081019061098e91906121bc565b505b81610999610af0565b60010180547fffffffffffffffffffffffff00000000000000000000000000000000000000001673ffffffffffffffffffffffffffffffffffffffff92909216919091179055507f2c64c5ef00000000000000000000000000000000000000000000000000000000919050565b6000610a10610af0565b5473ffffffffffffffffffffffffffffffffffffffff16905090565b60607f1de45ad18e8a4484220a3ca14f4d977641addbaba5a344b1384dc2aa78a2e34d8383604051602401610a629291906125af565b604080517fffffffffffffffffffffffffffffffffffffffffffffffffffffffffffffffe08184030181529190526020810180517bffffffffffffffffffffffffffffffffffffffffffffffffffffffff167fffffffff000000000000000000000000000000000000000000000000000000009093169290921790915290505b92915050565b805160208201fd5b600080610ae26004610e7c565b60008160c00151158015610b3457507fffffffffffffffffffffffffffffffffffffffffffffffffffffffffffffffff8260600151145b15610b6e57610b468260200151610e97565b15610b5657346060830152610b6e565b610b6882602001518360000151610ec9565b60608301525b610b76612013565b610b7e610a06565b73ffffffffffffffffffffffffffffffffffffffff168152610b9e6103fe565b73ffffffffffffffffffffffffffffffffffffffff166020820152604083015160e0840151610bcd9190611002565b60408201528051610bdf9084906110d2565b60005b8360a0015151811015610c2657610c1e82600001518560a001518381518110610c0757fe5b602002602001015184602001518760e0015161119d565b600101610be2565b50610c3e836040015182600001518560e001516113bf565b9150610c5283604001518460e00151611002565b6060820181905260408201511115610c7f57610c7f6102d584604001518360600151846040015103611679565b610ca382610c9e836040015184606001516116af90919063ffffffff16565b6116ce565b91508260800151821015610cc757610cc76102d584604001518486608001516116e4565b826000015173ffffffffffffffffffffffffffffffffffffffff167f0f6672f78a59ba8e5e5b5d38df3ebc67f3c792e2c9259b8d97d7f00dd78ba1b384602001518560400151866060015186604051610d2394939291906125d6565b60405180910390a250919050565b60607ff0ec779b0bcda6d84abf99ee2c67647d1100ebbb553a9c2d1c2ba1579592832c82604051602401610d6591906124bd565b604080517fffffffffffffffffffffffffffffffffffffffffffffffffffffffffffffffe08184030181529190526020810180517bffffffffffffffffffffffffffffffffffffffffffffffffffffffff167fffffffff00000000000000000000000000000000000000000000000000000000909316929092179091529050919050565b6040517f6eb224cb0000000000000000000000000000000000000000000000000000000081523090636eb224cb90610e479084907f0000000000000000000000000000000000000000000000000000000000000000906004016126a8565b600060405180830381600087803b158015610e6157600080fd5b505af1158015610e75573d6000803e3d6000fd5b5050505050565b6000608082600a811115610e8c57fe5b600101901b92915050565b73ffffffffffffffffffffffffffffffffffffffff811673eeeeeeeeeeeeeeeeeeeeeeeeeeeeeeeeeeeeeeee14919050565b6000610ffb8373ffffffffffffffffffffffffffffffffffffffff1663dd62ed3e84306040518363ffffffff1660e01b8152600401610f099291906125af565b60206040518083038186803b158015610f2157600080fd5b505afa158015610f35573d6000803e3d6000fd5b505050506040513d601f19601f82011682018060405250810190610f5991906123dc565b6040517f70a0823100000000000000000000000000000000000000000000000000000000815273ffffffffffffffffffffffffffffffffffffffff8616906370a0823190610fab9087906004016124bd565b60206040518083038186803b158015610fc357600080fd5b505afa158015610fd7573d6000803e3d6000fd5b505050506040513d601f19601f82011682018060405250810190610c9e91906123dc565b9392505050565b600061100d83610e97565b15611030575073ffffffffffffffffffffffffffffffffffffffff811631610ae2565b6040517f70a0823100000000000000000000000000000000000000000000000000000000815273ffffffffffffffffffffffffffffffffffffffff8416906370a08231906110829085906004016124bd565b60206040518083038186803b15801561109a57600080fd5b505afa1580156110ae573d6000803e3d6000fd5b505050506040513d601f19601f82011682018060405250810190610ffb91906123dc565b6110df8260200151610e97565b80156110ee5750816060015134105b15611104576111046102d53484606001516117a2565b341561114e5760405173ffffffffffffffffffffffffffffffffffffffff8216903480156108fc02916000818181858888f1935050505015801561114c573d6000803e3d6000fd5b505b61115b8260200151610e97565b611199578160c00151156111815761117c82602001518284606001516117d8565b611199565b611199826020015183600001518385606001516118b2565b5050565b60006111ad8385600001516119b1565b905060608573ffffffffffffffffffffffffffffffffffffffff1663b68df16d8363832b24bb60e01b60405180606001604052803373ffffffffffffffffffffffffffffffffffffffff1681526020018873ffffffffffffffffffffffffffffffffffffffff1681526020018a6020015181525060405160240161123191906127ed565b604080517fffffffffffffffffffffffffffffffffffffffffffffffffffffffffffffffe08184030181529181526020820180517bffffffffffffffffffffffffffffffffffffffffffffffffffffffff167fffffffff000000000000000000000000000000000000000000000000000000009485161790525160e085901b90921682526112c292916004016124de565b600060405180830381600087803b1580156112dc57600080fd5b505af11580156112f0573d6000803e3d6000fd5b505050506040513d6000823e601f3d9081017fffffffffffffffffffffffffffffffffffffffffffffffffffffffffffffffe01682016040526113369190810190612218565b9050805160201415806113a0575080517f13c9929e000000000000000000000000000000000000000000000000000000009061137b90830160209081019084016121d8565b7fffffffff000000000000000000000000000000000000000000000000000000001614155b156113b7576113b76102d583876020015184611a20565b505050505050565b60006113cb8484611002565b90506113d684610e97565b156114a9576040517f54132d7800000000000000000000000000000000000000000000000000000000815273ffffffffffffffffffffffffffffffffffffffff8416906354132d789061142f9085908590600401612554565b600060405180830381600087803b15801561144957600080fd5b505af115801561145d573d6000803e3d6000fd5b505050506040513d6000823e601f3d9081017fffffffffffffffffffffffffffffffffffffffffffffffffffffffffffffffe01682016040526114a39190810190612218565b50610ffb565b60608373ffffffffffffffffffffffffffffffffffffffff166354132d788663a9059cbb60e01b86866040516024016114e3929190612589565b604080517fffffffffffffffffffffffffffffffffffffffffffffffffffffffffffffffe08184030181529181526020820180517bffffffffffffffffffffffffffffffffffffffffffffffffffffffff167fffffffff000000000000000000000000000000000000000000000000000000009485161790525160e085901b90921682526115779291600090600401612515565b600060405180830381600087803b15801561159157600080fd5b505af11580156115a5573d6000803e3d6000fd5b505050506040513d6000823e601f3d9081017fffffffffffffffffffffffffffffffffffffffffffffffffffffffffffffffe01682016040526115eb9190810190612218565b905080516000141561163f57843b80611639576040517f08c379a000000000000000000000000000000000000000000000000000000000815260040161163090612733565b60405180910390fd5b50611671565b6020815110611668576000611655826000611a58565b9050806001146116395761163982610ae8565b61167181610ae8565b509392505050565b60607f3ea25a3cae94e681748e39876b75ce362a9159c4618787bc1250e3d9f9c439108383604051602401610a62929190612589565b6000828211156116c8576116c86102d560028585611a64565b50900390565b60008183106116dd5781610ffb565b5090919050565b60607f990174d2378c7614a3e4722867cea0a803c0cc16ef92c4f5466ed5bc1d3496da84848460405160240161171c9392919061264d565b604080517fffffffffffffffffffffffffffffffffffffffffffffffffffffffffffffffe08184030181529190526020810180517bffffffffffffffffffffffffffffffffffffffffffffffffffffffff167fffffffff000000000000000000000000000000000000000000000000000000009093169290921790915290509392505050565b60607f96660ab143a5c6a946233c268494b1026bfca53373c9715e0fe96b3c59c850448383604051602401610a6292919061283f565b73ffffffffffffffffffffffffffffffffffffffff8316301415611828576040517f08c379a000000000000000000000000000000000000000000000000000000000815260040161163090612790565b6040517fa9059cbb00000000000000000000000000000000000000000000000000000000815273ffffffffffffffffffffffffffffffffffffffff83166004820152816024820152602081604483600073ffffffffffffffffffffffffffffffffffffffff89165af13d600183511460208210151681151782169150816113b757806000843e8083fd5b73ffffffffffffffffffffffffffffffffffffffff8416301415611902576040517f08c379a000000000000000000000000000000000000000000000000000000000815260040161163090612790565b6040517f23b872dd00000000000000000000000000000000000000000000000000000000815273ffffffffffffffffffffffffffffffffffffffff8416600482015273ffffffffffffffffffffffffffffffffffffffff83166024820152816044820152602081606483600073ffffffffffffffffffffffffffffffffffffffff8a165af13d600183511460208210151681151782169150816119a857806000843e8083fd5b50505050505050565b600060606119be83611a83565b9050805160d50160f81b609460f81b85836040516020016119e2949392919061243e565b604080517fffffffffffffffffffffffffffffffffffffffffffffffffffffffffffffffe08184030181529190528051602090910120949350505050565b60607ff21e5cb42b911ca6b3898f8618760aa7d84fe5d43a7a5ad89aa791c66cafe41384848460405160240161171c9392919061260c565b6000610ffb8383611fbd565b606063e946c1bb60e01b84848460405160240161171c939291906126f0565b606063ffffffff8216611af55760408051600180825281830190925290602082018180368337019050509050608060f81b81600081518110611ac157fe5b60200101907effffffffffffffffffffffffffffffffffffffffffffffffffffffffffffff1916908160001a9053506106e4565b60808263ffffffff161015611b3457604080516001808252818301909252906020820181803683370190505090508160f81b81600081518110611ac157fe5b60ff8263ffffffff1611611bb35760408051600280825281830190925290602082018180368337019050509050608160f81b81600081518110611b7357fe5b60200101907effffffffffffffffffffffffffffffffffffffffffffffffffffffffffffff1916908160001a9053508160f81b81600181518110611ac157fe5b61ffff8263ffffffff1611611c995760408051600380825281830190925290602082018180368337019050509050608260f81b81600081518110611bf357fe5b60200101907effffffffffffffffffffffffffffffffffffffffffffffffffffffffffffff1916908160001a90535080517fff0000000000000000000000000000000000000000000000000000000000000060f084901b169082906001908110611c5957fe5b60200101907effffffffffffffffffffffffffffffffffffffffffffffffffffffffffffff1916908160001a9053508160f81b81600281518110611ac157fe5b62ffffff8263ffffffff1611611de65760408051600480825281830190925290602082018180368337019050509050608360f81b81600081518110611cda57fe5b60200101907effffffffffffffffffffffffffffffffffffffffffffffffffffffffffffff1916908160001a90535080517fff0000000000000000000000000000000000000000000000000000000000000060e884901b169082906001908110611d4057fe5b60200101907effffffffffffffffffffffffffffffffffffffffffffffffffffffffffffff1916908160001a90535080517fff0000000000000000000000000000000000000000000000000000000000000060f084901b169082906002908110611da657fe5b60200101907effffffffffffffffffffffffffffffffffffffffffffffffffffffffffffff1916908160001a9053508160f81b81600381518110611ac157fe5b60408051600580825281830190925290602082018180368337019050509050608460f81b81600081518110611e1757fe5b60200101907effffffffffffffffffffffffffffffffffffffffffffffffffffffffffffff1916908160001a90535080517fff0000000000000000000000000000000000000000000000000000000000000060e084901b169082906001908110611e7d57fe5b60200101907effffffffffffffffffffffffffffffffffffffffffffffffffffffffffffff1916908160001a90535080517fff0000000000000000000000000000000000000000000000000000000000000060e884901b169082906002908110611ee357fe5b60200101907effffffffffffffffffffffffffffffffffffffffffffffffffffffffffffff1916908160001a90535080517fff0000000000000000000000000000000000000000000000000000000000000060f084901b169082906003908110611f4957fe5b60200101907effffffffffffffffffffffffffffffffffffffffffffffffffffffffffffff1916908160001a9053508160f81b81600481518110611f8957fe5b60200101907effffffffffffffffffffffffffffffffffffffffffffffffffffffffffffff1916908160001a905350919050565b60008160200183511015611fde57611fde6102d56005855185602001611fe7565b50016020015190565b6060632800659560e01b84848460405160240161171c93929190612712565b610ce08061292a83390190565b6040518060800160405280600073ffffffffffffffffffffffffffffffffffffffff168152602001600073ffffffffffffffffffffffffffffffffffffffff16815260200160008152602001600081525090565b8035610ae2816128f2565b600082601f830112612082578081fd5b813567ffffffffffffffff80821115612099578283fd5b60206120a8818285020161284d565b838152935080840185820160005b8581101561218457813588016040807fffffffffffffffffffffffffffffffffffffffffffffffffffffffffffffffe0838d030112156120f557600080fd5b6120fe8161284d565b8683013561210b81612917565b8152828201358881111561211e57600080fd5b8084019350508b603f84011261213357600080fd5b8683013561214861214382612874565b61284d565b8181528d8483870101111561215c57600080fd5b61216b828a83018688016128b6565b82890152508552505091830191908301906001016120b6565b50505050505092915050565b80358015158114610ae257600080fd5b6000602082840312156121b1578081fd5b8135610ffb816128f2565b6000602082840312156121cd578081fd5b8151610ffb816128f2565b6000602082840312156121e9578081fd5b81517fffffffff0000000000000000000000000000000000000000000000000000000081168114610ffb578182fd5b600060208284031215612229578081fd5b815167ffffffffffffffff81111561223f578182fd5b8201601f8101841361224f578182fd5b805161225d61214382612874565b818152856020838501011115612271578384fd5b6122828260208301602086016128c2565b95945050505050565b600080600080600060a086880312156122a2578081fd5b85356122ad816128f2565b945060208601356122bd816128f2565b93506040860135925060608601359150608086013567ffffffffffffffff8111156122e6578182fd5b6122f288828901612072565b9150509295509295909350565b600060208284031215612310578081fd5b813567ffffffffffffffff80821115612327578283fd5b818401915061010080838703121561233d578384fd5b6123468161284d565b90506123528684612067565b81526123618660208501612067565b60208201526123738660408501612067565b6040820152606083013560608201526080830135608082015260a08301358281111561239d578485fd5b6123a987828601612072565b60a0830152506123bc8660c08501612190565b60c08201526123ce8660e08501612067565b60e082015295945050505050565b6000602082840312156123ed578081fd5b5051919050565b6000815180845261240c8160208601602086016128c2565b601f017fffffffffffffffffffffffffffffffffffffffffffffffffffffffffffffffe0169290920160200192915050565b60007fff0000000000000000000000000000000000000000000000000000000000000080871683528086166001840152507fffffffffffffffffffffffffffffffffffffffff0000000000000000000000008460601b16600283015282516124ad8160168501602087016128c2565b9190910160160195945050505050565b73ffffffffffffffffffffffffffffffffffffffff91909116815260200190565b600073ffffffffffffffffffffffffffffffffffffffff841682526040602083015261250d60408301846123f4565b949350505050565b600073ffffffffffffffffffffffffffffffffffffffff851682526060602083015261254460608301856123f4565b9050826040830152949350505050565b73ffffffffffffffffffffffffffffffffffffffff929092168252606060208301819052600090830152604082015260800190565b73ffffffffffffffffffffffffffffffffffffffff929092168252602082015260400190565b73ffffffffffffffffffffffffffffffffffffffff92831681529116602082015260400190565b73ffffffffffffffffffffffffffffffffffffffff94851681529290931660208301526040820152606081019190915260800190565b600073ffffffffffffffffffffffffffffffffffffffff851682526060602083015261263b60608301856123f4565b82810360408401526103f481856123f4565b73ffffffffffffffffffffffffffffffffffffffff9390931683526020830191909152604082015260600190565b7fffffffff0000000000000000000000000000000000000000000000000000000091909116815260200190565b7fffffffff0000000000000000000000000000000000000000000000000000000092909216825273ffffffffffffffffffffffffffffffffffffffff16602082015260400190565b60608101600485106126fe57fe5b938152602081019290925260409091015290565b60608101600885106126fe57fe5b600060208252610ffb60208301846123f4565b60208082526027908201527f696e76616c696420746f6b656e20616464726573732c20636f6e7461696e732060408201527f6e6f20636f646500000000000000000000000000000000000000000000000000606082015260800190565b60208082526024908201527f466978696e546f6b656e5370656e6465722f43414e4e4f545f494e564f4b455f60408201527f53454c4600000000000000000000000000000000000000000000000000000000606082015260800190565b60006020825273ffffffffffffffffffffffffffffffffffffffff80845116602084015280602085015116604084015250604083015160608084015261250d60808401826123f4565b90815260200190565b918252602082015260400190565b60405181810167ffffffffffffffff8111828210171561286c57600080fd5b604052919050565b600067ffffffffffffffff82111561288a578081fd5b50601f017fffffffffffffffffffffffffffffffffffffffffffffffffffffffffffffffe01660200190565b82818337506000910152565b60005b838110156128dd5781810151838201526020016128c5565b838111156128ec576000848401525b50505050565b73ffffffffffffffffffffffffffffffffffffffff8116811461291457600080fd5b50565b63ffffffff8116811461291457600080fdfe60a060405234801561001057600080fd5b5033606081901b608052610c9b6100456000398061027952806102a7528061039952806103d552806104035250610c9b6000f3fe6080604052600436106100745760003560e01c8063b68df16d1161004e578063b68df16d146100f8578063bc197c811461010b578063c0ee0b8a14610138578063f23a6e611461015a5761007b565b806301ffc9a71461008057806354132d78146100b65780638da5cb5b146100d65761007b565b3661007b57005b600080fd5b34801561008c57600080fd5b506100a061009b366004610a3a565b61017a565b6040516100ad9190610bf5565b60405180910390f35b6100c96100c4366004610851565b61025f565b6040516100ad9190610c2d565b3480156100e257600080fd5b506100eb610397565b6040516100ad9190610afa565b6100c96101063660046107fe565b6103bb565b34801561011757600080fd5b5061012b6101263660046108ab565b6104e8565b6040516100ad9190610c00565b34801561014457600080fd5b506101586101533660046109e0565b610515565b005b34801561016657600080fd5b5061012b610175366004610966565b61051b565b60007fffffffff0000000000000000000000000000000000000000000000000000000082167f01ffc9a700000000000000000000000000000000000000000000000000000000148061020d57507fffffffff0000000000000000000000000000000000000000000000000000000082167f4e2312e000000000000000000000000000000000000000000000000000000000145b8061025957507fffffffff0000000000000000000000000000000000000000000000000000000082167fc0ee0b8a00000000000000000000000000000000000000000000000000000000145b92915050565b60603373ffffffffffffffffffffffffffffffffffffffff7f000000000000000000000000000000000000000000000000000000000000000016146102d0576102d06102cb337f0000000000000000000000000000000000000000000000000000000000000000610546565b6105e8565b60008573ffffffffffffffffffffffffffffffffffffffff168386866040516102fa929190610aea565b60006040518083038185875af1925050503d8060008114610337576040519150601f19603f3d011682016040523d82523d6000602084013e61033c565b606091505b50925090508061038e5761038e6102cb308888888080601f0160208091040260200160405190810160405280939291908181526020018383808284376000920191909152508a92508991506105f09050565b50949350505050565b7f000000000000000000000000000000000000000000000000000000000000000081565b60603373ffffffffffffffffffffffffffffffffffffffff7f00000000000000000000000000000000000000000000000000000000000000001614610427576104276102cb337f0000000000000000000000000000000000000000000000000000000000000000610546565b60008473ffffffffffffffffffffffffffffffffffffffff168484604051610450929190610aea565b600060405180830381855af49150503d806000811461048b576040519150601f19603f3d011682016040523d82523d6000602084013e610490565b606091505b5092509050806104e0576104e06102cb308787878080601f0160208091040260200160405190810160405280939291908181526020018383808284376000920191909152508992506106b4915050565b509392505050565b7fbc197c810000000000000000000000000000000000000000000000000000000098975050505050505050565b50505050565b7ff23a6e61000000000000000000000000000000000000000000000000000000009695505050505050565b6060631de45ad160e01b8383604051602401610563929190610b1b565b604080517fffffffffffffffffffffffffffffffffffffffffffffffffffffffffffffffe08184030181529190526020810180517bffffffffffffffffffffffffffffffffffffffffffffffffffffffff167fffffffff0000000000000000000000000000000000000000000000000000000090931692909217909152905092915050565b805160208201fd5b60607f86945816f737646db7f2d6df01602a2212e8c75829f6940913724c13a83a8178868686868660405160240161062c959493929190610b98565b604080517fffffffffffffffffffffffffffffffffffffffffffffffffffffffffffffffe08184030181529190526020810180517bffffffffffffffffffffffffffffffffffffffffffffffffffffffff167fffffffff0000000000000000000000000000000000000000000000000000000090931692909217909152905095945050505050565b60607f61e5a7320b4cf56a2980a427f39e3071c967bf2f77fffcaae20e4467e160afcc858585856040516024016106ee9493929190610b42565b604080517fffffffffffffffffffffffffffffffffffffffffffffffffffffffffffffffe08184030181529190526020810180517bffffffffffffffffffffffffffffffffffffffffffffffffffffffff167fffffffff00000000000000000000000000000000000000000000000000000000909316929092179091529050949350505050565b60008083601f840112610786578182fd5b50813567ffffffffffffffff81111561079d578182fd5b60208301915083602080830285010111156107b757600080fd5b9250929050565b60008083601f8401126107cf578182fd5b50813567ffffffffffffffff8111156107e6578182fd5b6020830191508360208285010111156107b757600080fd5b600080600060408486031215610812578283fd5b833561081d81610c40565b9250602084013567ffffffffffffffff811115610838578283fd5b610844868287016107be565b9497909650939450505050565b60008060008060608587031215610866578081fd5b843561087181610c40565b9350602085013567ffffffffffffffff81111561088c578182fd5b610898878288016107be565b9598909750949560400135949350505050565b60008060008060008060008060a0898b0312156108c6578384fd5b88356108d181610c40565b975060208901356108e181610c40565b9650604089013567ffffffffffffffff808211156108fd578586fd5b6109098c838d01610775565b909850965060608b0135915080821115610921578586fd5b61092d8c838d01610775565b909650945060808b0135915080821115610945578384fd5b506109528b828c016107be565b999c989b5096995094979396929594505050565b60008060008060008060a0878903121561097e578182fd5b863561098981610c40565b9550602087013561099981610c40565b94506040870135935060608701359250608087013567ffffffffffffffff8111156109c2578283fd5b6109ce89828a016107be565b979a9699509497509295939492505050565b600080600080606085870312156109f5578384fd5b8435610a0081610c40565b935060208501359250604085013567ffffffffffffffff811115610a22578283fd5b610a2e878288016107be565b95989497509550505050565b600060208284031215610a4b578081fd5b81357fffffffff0000000000000000000000000000000000000000000000000000000081168114610a7a578182fd5b9392505050565b60008151808452815b81811015610aa657602081850181015186830182015201610a8a565b81811115610ab75782602083870101525b50601f017fffffffffffffffffffffffffffffffffffffffffffffffffffffffffffffffe0169290920160200192915050565b6000828483379101908152919050565b73ffffffffffffffffffffffffffffffffffffffff91909116815260200190565b73ffffffffffffffffffffffffffffffffffffffff92831681529116602082015260400190565b600073ffffffffffffffffffffffffffffffffffffffff808716835280861660208401525060806040830152610b7b6080830185610a81565b8281036060840152610b8d8185610a81565b979650505050505050565b600073ffffffffffffffffffffffffffffffffffffffff808816835280871660208401525060a06040830152610bd160a0830186610a81565b8460608401528281036080840152610be98185610a81565b98975050505050505050565b901515815260200190565b7fffffffff0000000000000000000000000000000000000000000000000000000091909116815260200190565b600060208252610a7a6020830184610a81565b73ffffffffffffffffffffffffffffffffffffffff81168114610c6257600080fd5b5056fea26469706673582212205c6827ebcd68acb84c9a1dd48228e64f412fbbb24137836517e4a27313493cd764736f6c634300060c0033a2646970667358221220d91d19b8973f4b978dd776befb83ff9d836ea18e0b08c9d9d53cbb25c5aa3cca64736f6c634300060c0033",
  "devdoc": {
    "details": "Feature to composably transform between ERC20 tokens.",
    "kind": "dev",
    "methods": {
      "_transformERC20((address,address,address,uint256,uint256,(uint32,bytes)[],bool,address))": {
        "details": "Internal version of `transformERC20()`. Only callable from within.",
        "params": {
          "args": "A `TransformERC20Args` struct."
        },
        "returns": {
          "outputTokenAmount": "The amount of `outputToken` received by the taker."
        }
      },
      "createTransformWallet()": {
        "details": "Deploy a new wallet instance and replace the current one with it.      Useful if we somehow break the current wallet instance.      Only callable by the owner.",
        "returns": {
          "wallet": "The new wallet instance."
        }
      },
      "getQuoteSigner()": {
        "details": "Return the optional signer for `transformERC20()` calldata.",
        "returns": {
          "signer": "The signer address."
        }
      },
      "getTransformWallet()": {
        "details": "Return the current wallet instance that will serve as the execution      context for transformations.",
        "returns": {
          "wallet": "The wallet instance."
        }
      },
      "getTransformerDeployer()": {
        "details": "Return the allowed deployer for transformers.",
        "returns": {
          "deployer": "The transform deployer address."
        }
      },
      "migrate(address)": {
        "details": "Initialize and register this feature.      Should be delegatecalled by `Migrate.migrate()`.",
        "params": {
          "transformerDeployer": "The trusted deployer for transformers."
        },
        "returns": {
          "success": "`LibMigrate.SUCCESS` on success."
        }
      },
      "setQuoteSigner(address)": {
        "details": "Replace the optional signer for `transformERC20()` calldata.      Only callable by the owner.",
        "params": {
          "quoteSigner": "The address of the new calldata signer."
        }
      },
      "setTransformerDeployer(address)": {
        "details": "Replace the allowed deployer for transformers.      Only callable by the owner.",
        "params": {
          "transformerDeployer": "The address of the trusted deployer for transformers."
        }
      },
      "transformERC20(address,address,uint256,uint256,(uint32,bytes)[])": {
        "details": "Executes a series of transformations to convert an ERC20 `inputToken`      to an ERC20 `outputToken`.",
        "params": {
          "inputToken": "The token being provided by the sender.        If `0xeee...`, ETH is implied and should be provided with the call.`",
          "inputTokenAmount": "The amount of `inputToken` to take from the sender.        If set to `uint256(-1)`, the entire spendable balance of the taker        will be solt.",
          "minOutputTokenAmount": "The minimum amount of `outputToken` the sender        must receive for the entire transformation to succeed. If set to zero,        the minimum output token transfer will not be asserted.",
          "outputToken": "The token to be acquired by the sender.        `0xeee...` implies ETH.",
          "transformations": "The transformations to execute on the token balance(s)        in sequence."
        },
        "returns": {
          "outputTokenAmount": "The amount of `outputToken` received by the sender."
        }
      }
    },
    "stateVariables": {
      "FEATURE_NAME": {
        "details": "Name of this feature."
      },
      "FEATURE_VERSION": {
        "details": "Version of this feature."
      }
    },
    "version": 1
  },
  "userdoc": {
    "kind": "user",
    "methods": {},
    "version": 1
  },
  "storageLayout": {
    "storage": [],
    "types": null
  }
}