{
  "address": "0x22BAD842F7975d66A3C2c4dB900853511d3938f3",
  "abi": [
    {
      "inputs": [
        {
          "internalType": "contract IEtherTokenV06",
          "name": "weth",
          "type": "address"
        }
      ],
      "stateMutability": "nonpayable",
      "type": "constructor"
    },
    {
      "anonymous": false,
      "inputs": [
        {
          "indexed": false,
          "internalType": "bytes32",
          "name": "source",
          "type": "bytes32"
        },
        {
          "indexed": false,
          "internalType": "contract IERC20TokenV06",
          "name": "inputToken",
          "type": "address"
        },
        {
          "indexed": false,
          "internalType": "contract IERC20TokenV06",
          "name": "outputToken",
          "type": "address"
        },
        {
          "indexed": false,
          "internalType": "uint256",
          "name": "inputTokenAmount",
          "type": "uint256"
        },
        {
          "indexed": false,
          "internalType": "uint256",
          "name": "outputTokenAmount",
          "type": "uint256"
        }
      ],
      "name": "BridgeFill",
      "type": "event"
    },
    {
      "inputs": [
        {
          "components": [
            {
              "internalType": "bytes32",
              "name": "source",
              "type": "bytes32"
            },
            {
              "internalType": "uint256",
              "name": "takerTokenAmount",
              "type": "uint256"
            },
            {
              "internalType": "uint256",
              "name": "makerTokenAmount",
              "type": "uint256"
            },
            {
              "internalType": "bytes",
              "name": "bridgeData",
              "type": "bytes"
            }
          ],
          "internalType": "struct IBridgeAdapter.BridgeOrder",
          "name": "order",
          "type": "tuple"
        },
        {
          "internalType": "contract IERC20TokenV06",
          "name": "sellToken",
          "type": "address"
        },
        {
          "internalType": "contract IERC20TokenV06",
          "name": "buyToken",
          "type": "address"
        },
        {
          "internalType": "uint256",
          "name": "sellAmount",
          "type": "uint256"
        }
      ],
      "name": "trade",
      "outputs": [
        {
          "internalType": "uint256",
          "name": "boughtAmount",
          "type": "uint256"
        }
      ],
      "stateMutability": "nonpayable",
      "type": "function"
    }
  ],
  "transactionHash": "0x7e3dbaeff3277f528239028061e89c821a7d8b257572ed8405c2a2e1c49832b7",
  "args": [
    "0x0BE9e53fd7EDaC9F859882AfdDa116645287C629"
  ],
  "numDeployments": 1,
  "solcInputHash": "ee42d8878bdca2e6ffa21e46a4df1a4b",
  "bytecode": "0x60a060405234801561001057600080fd5b5060405161181c38038061181c83398101604081905261002f91610044565b60601b6001600160601b031916608052610072565b600060208284031215610055578081fd5b81516001600160a01b038116811461006b578182fd5b9392505050565b60805160601c61177e61009e600039806101805280610212528061046e52806104c5525061177e6000f3fe608060405234801561001057600080fd5b506004361061002b5760003560e01c8063f712a14814610030575b600080fd5b61004361003e3660046110d6565b610059565b60405161005091906115cf565b60405180910390f35b835160009060801c60018114156100815761007a858585896060015161015c565b9150610113565b6fffffffffffffffffffffffffffffffff8116600414156100ab5761007a858488606001516105e6565b6fffffffffffffffffffffffffffffffff8116600214156100d55761007a848488606001516106f7565b6fffffffffffffffffffffffffffffffff8116600314156101005761007a8585858960600151610910565b61011085858589606001516109a5565b91505b85516040517fe59e71a14fe90157eedc866c4f8c767d3943d6b6b2e8cd64dddcc92ab4c55af89161014b91889088908890889061133d565b60405180910390a150949350505050565b6000610166610e79565b8280602001905181019061017a91906111c7565b905060007f000000000000000000000000000000000000000000000000000000000000000073ffffffffffffffffffffffffffffffffffffffff168773ffffffffffffffffffffffffffffffffffffffff16141561027e57506040517f2e1a7d4d000000000000000000000000000000000000000000000000000000008152849073ffffffffffffffffffffffffffffffffffffffff7f00000000000000000000000000000000000000000000000000000000000000001690632e1a7d4d906102479084906004016115cf565b600060405180830381600087803b15801561026157600080fd5b505af1158015610275573d6000803e3d6000fd5b505050506102a2565b81516102a29073ffffffffffffffffffffffffffffffffffffffff89169087610a9c565b6040517f70a0823100000000000000000000000000000000000000000000000000000000815260009073ffffffffffffffffffffffffffffffffffffffff8816906370a08231906102f79030906004016112cf565b60206040518083038186803b15801561030f57600080fd5b505afa158015610323573d6000803e3d6000fd5b505050506040513d601f19601f820116820180604052508101906103479190611251565b905060006060846000015173ffffffffffffffffffffffffffffffffffffffff16848660200151876040015188606001518c600160405160240161038e949392919061142d565b604080517fffffffffffffffffffffffffffffffffffffffffffffffffffffffffffffffe08184030181529181526020820180517bffffffffffffffffffffffffffffffffffffffffffffffffffffffff167fffffffff0000000000000000000000000000000000000000000000000000000090941693909317909252905161041791906112b3565b60006040518083038185875af1925050503d8060008114610454576040519150601f19603f3d011682016040523d82523d6000602084013e610459565b606091505b50915091508161046c5761046c81610b78565b7f000000000000000000000000000000000000000000000000000000000000000073ffffffffffffffffffffffffffffffffffffffff168973ffffffffffffffffffffffffffffffffffffffff161415610545574795507f000000000000000000000000000000000000000000000000000000000000000073ffffffffffffffffffffffffffffffffffffffff1663d0e30db0876040518263ffffffff1660e01b81526004016000604051808303818588803b15801561052b57600080fd5b505af115801561053f573d6000803e3d6000fd5b50505050505b6105d8838a73ffffffffffffffffffffffffffffffffffffffff166370a08231306040518263ffffffff1660e01b815260040161058291906112cf565b60206040518083038186803b15801561059a57600080fd5b505afa1580156105ae573d6000803e3d6000fd5b505050506040513d601f19601f820116820180604052508101906105d29190611251565b90610b80565b9a9950505050505050505050565b6000806060838060200190518101906105ff91906110c4565b909250905061062573ffffffffffffffffffffffffffffffffffffffff87168387610a9c565b6040805160a0810182528281523060208201524281830152606081018790526001608082015290517fc04b8d5900000000000000000000000000000000000000000000000000000000815273ffffffffffffffffffffffffffffffffffffffff84169163c04b8d599161069b9190600401611569565b602060405180830381600087803b1580156106b557600080fd5b505af11580156106c9573d6000803e3d6000fd5b505050506040513d601f19601f820116820180604052508101906106ed9190611251565b9695505050505050565b600080606080848060200190518101906107119190611015565b8051919450925060021115905061075d576040517f08c379a000000000000000000000000000000000000000000000000000000000815260040161075490611452565b60405180910390fd5b8573ffffffffffffffffffffffffffffffffffffffff168160018351038151811061078457fe5b602002602001015173ffffffffffffffffffffffffffffffffffffffff16146107d9576040517f08c379a00000000000000000000000000000000000000000000000000000000081526004016107549061150c565b6108188286836000815181106107eb57fe5b602002602001015173ffffffffffffffffffffffffffffffffffffffff16610a9c9092919063ffffffff16565b6040517f38ed173900000000000000000000000000000000000000000000000000000000815260609073ffffffffffffffffffffffffffffffffffffffff8416906338ed1739906108769089906001908790309042906004016115d8565b600060405180830381600087803b15801561089057600080fd5b505af11580156108a4573d6000803e3d6000fd5b505050506040513d6000823e601f3d9081017fffffffffffffffffffffffffffffffffffffffffffffffffffffffffffffffe01682016040526108ea9190810190610f1a565b9050806001825103815181106108fc57fe5b602002602001015193505050509392505050565b600080828060200190518101906109279190610ff9565b905061094a73ffffffffffffffffffffffffffffffffffffffff87168286610a9c565b6040517fd5bcb9b500000000000000000000000000000000000000000000000000000000815273ffffffffffffffffffffffffffffffffffffffff82169063d5bcb9b59061069b9089908990899060019030906004016113c0565b6000806060838060200190518101906109be9190610faa565b90925090506109e473ffffffffffffffffffffffffffffffffffffffff88168387610ba9565b6040517f65d02b0400000000000000000000000000000000000000000000000000000000815273ffffffffffffffffffffffffffffffffffffffff8316906365d02b0490610a3f908a908a9030906001908890600401611379565b602060405180830381600087803b158015610a5957600080fd5b505af1158015610a6d573d6000803e3d6000fd5b505050506040513d601f19601f82011682018060405250810190610a919190611251565b979650505050505050565b6040517fdd62ed3e000000000000000000000000000000000000000000000000000000008152819073ffffffffffffffffffffffffffffffffffffffff85169063dd62ed3e90610af290309087906004016112f0565b60206040518083038186803b158015610b0a57600080fd5b505afa158015610b1e573d6000803e3d6000fd5b505050506040513d601f19601f82011682018060405250810190610b429190611251565b1015610b7357610b7383837fffffffffffffffffffffffffffffffffffffffffffffffffffffffffffffffff610c55565b505050565b805160208201fd5b600082821115610b9e57610b9e610b9960028585610c72565b610b78565b508082035b92915050565b606063a9059cbb60e01b8383604051602401610bc6929190611317565b604080517fffffffffffffffffffffffffffffffffffffffffffffffffffffffffffffffe08184030181529190526020810180517bffffffffffffffffffffffffffffffffffffffffffffffffffffffff167fffffffff00000000000000000000000000000000000000000000000000000000909316929092179091529050610c4f8482610d17565b50505050565b606063095ea7b360e01b8383604051602401610bc6929190611317565b606063e946c1bb60e01b848484604051602401610c91939291906113fd565b604080517fffffffffffffffffffffffffffffffffffffffffffffffffffffffffffffffe08184030181529190526020810180517bffffffffffffffffffffffffffffffffffffffffffffffffffffffff167fffffffff000000000000000000000000000000000000000000000000000000009093169290921790915290509392505050565b600060608373ffffffffffffffffffffffffffffffffffffffff1683604051610d4091906112b3565b6000604051808303816000865af19150503d8060008114610d7d576040519150601f19603f3d011682016040523d82523d6000602084013e610d82565b606091505b509150915081610d9557610d9581610b78565b8051610ddc57833b80610dd4576040517f08c379a0000000000000000000000000000000000000000000000000000000008152600401610754906114af565b505050610e19565b6020815110610e10576000610df2826000610e1d565b90508060011415610e0557505050610e19565b610e0e82610b78565b505b610c4f81610b78565b5050565b6000610e298383610e30565b9392505050565b60008160200183511015610e5157610e51610b996005855185602001610e5a565b50016020015190565b6060632800659560e01b848484604051602401610c919392919061141f565b60408051608081018252600080825260208201819052918101829052606081019190915290565b8051610ba381611723565b600082601f830112610ebb578081fd5b8151610ece610ec9826116a9565b611662565b9150808252836020828501011115610ee557600080fd5b610ef68160208401602086016116f7565b5092915050565b8035610ba381611723565b8051600f81900b8114610ba357600080fd5b60006020808385031215610f2c578182fd5b825167ffffffffffffffff811115610f42578283fd5b8301601f81018513610f52578283fd5b8051610f60610ec982611689565b8181528381019083850185840285018601891015610f7c578687fd5b8694505b83851015610f9e578051835260019490940193918501918501610f80565b50979650505050505050565b60008060408385031215610fbc578081fd5b8251610fc781611723565b602084015190925067ffffffffffffffff811115610fe3578182fd5b610fef85828601610eab565b9150509250929050565b60006020828403121561100a578081fd5b8151610e2981611723565b60008060408385031215611027578182fd5b825161103281611723565b8092505060208084015167ffffffffffffffff811115611050578283fd5b8401601f81018613611060578283fd5b805161106e610ec982611689565b81815283810190838501858402850186018a101561108a578687fd5b8694505b838510156110b4576110a08a82610ea0565b83526001949094019391850191850161108e565b5080955050505050509250929050565b60008060408385031215610fbc578182fd5b600080600080608085870312156110eb578182fd5b843567ffffffffffffffff80821115611102578384fd5b9086019060808289031215611115578384fd5b61111f6080611662565b823581526020808401358183015260408401356040830152606084013583811115611148578687fd5b80850194505089601f85011261115c578586fd5b8335925061116c610ec9846116a9565b8381528a8285870101111561117f578687fd5b61118e848383018488016116eb565b806060840152508197506111a48a828b01610efd565b9650505050506111b78660408701610efd565b9396929550929360600135925050565b6000608082840312156111d8578081fd5b6111e26080611662565b82516111ed81611723565b815260208301517fffffffff0000000000000000000000000000000000000000000000000000000081168114611221578283fd5b60208201526112338460408501610f08565b60408201526112458460608501610f08565b60608201529392505050565b600060208284031215611262578081fd5b5051919050565b600081518084526112818160208601602086016116f7565b601f017fffffffffffffffffffffffffffffffffffffffffffffffffffffffffffffffe0169290920160200192915050565b600082516112c58184602087016116f7565b9190910192915050565b73ffffffffffffffffffffffffffffffffffffffff91909116815260200190565b73ffffffffffffffffffffffffffffffffffffffff92831681529116602082015260400190565b73ffffffffffffffffffffffffffffffffffffffff929092168252602082015260400190565b94855273ffffffffffffffffffffffffffffffffffffffff93841660208601529190921660408401526060830191909152608082015260a00190565b600073ffffffffffffffffffffffffffffffffffffffff8088168352808716602084015280861660408401525083606083015260a06080830152610a9160a0830184611269565b73ffffffffffffffffffffffffffffffffffffffff9586168152938516602085015260408401929092526060830152909116608082015260a00190565b606081016004851061140b57fe5b938152602081019290925260409091015290565b606081016008851061140b57fe5b600f94850b81529290930b6020830152604082015260ff909116606082015260800190565b6020808252602f908201527f4d6978696e556e697377617056322f504154485f4c454e4754485f4d5553545f60408201527f42455f41545f4c454153545f54574f0000000000000000000000000000000000606082015260800190565b60208082526027908201527f696e76616c696420746f6b656e20616464726573732c20636f6e7461696e732060408201527f6e6f20636f646500000000000000000000000000000000000000000000000000606082015260800190565b6020808252603b908201527f4d6978696e556e697377617056322f4c4153545f454c454d454e545f4f465f5060408201527f4154485f4d5553545f4d415443485f4f55545055545f544f4b454e0000000000606082015260800190565b600060208252825160a0602084015261158560c0840182611269565b905073ffffffffffffffffffffffffffffffffffffffff60208501511660408401526040840151606084015260608401516080840152608084015160a08401528091505092915050565b90815260200190565b600060a082018783526020878185015260a0604085015281875180845260c0860191508289019350845b8181101561163457845173ffffffffffffffffffffffffffffffffffffffff1683529383019391830191600101611602565b505073ffffffffffffffffffffffffffffffffffffffff969096166060850152505050608001529392505050565b60405181810167ffffffffffffffff8111828210171561168157600080fd5b604052919050565b600067ffffffffffffffff82111561169f578081fd5b5060209081020190565b600067ffffffffffffffff8211156116bf578081fd5b50601f017fffffffffffffffffffffffffffffffffffffffffffffffffffffffffffffffe01660200190565b82818337506000910152565b60005b838110156117125781810151838201526020016116fa565b83811115610c4f5750506000910152565b73ffffffffffffffffffffffffffffffffffffffff8116811461174557600080fd5b5056fea2646970667358221220618625760f52928703ecf2e8ac6c77c3782f412293cce940bb8da8bb84996f0264736f6c634300060c0033",
  "devdoc": {
    "kind": "dev",
    "methods": {},
    "version": 1
  },
  "userdoc": {
    "kind": "user",
    "methods": {},
    "version": 1
  },
  "storageLayout": {
    "storage": [],
    "types": null
  }
}