{
  "address": "0x14eCb3a1f18A74BB44f7DED100B258CC39566778",
  "abi": [
    {
      "inputs": [
        {
          "internalType": "contract IUniswapV3QuoterV2",
          "name": "quoter",
          "type": "address"
        },
        {
          "internalType": "contract IERC20TokenV06[]",
          "name": "path",
          "type": "address[]"
        },
        {
          "internalType": "uint256",
          "name": "inputAmount",
          "type": "uint256"
        }
      ],
      "name": "_getPoolPathSingleHop",
      "outputs": [
        {
          "internalType": "contract IUniswapV3Pool[][]",
          "name": "poolPaths",
          "type": "address[][]"
        }
      ],
      "stateMutability": "nonpayable",
      "type": "function"
    },
    {
      "inputs": [
        {
          "internalType": "bytes[]",
          "name": "callDatas",
          "type": "bytes[]"
        }
      ],
      "name": "batchCall",
      "outputs": [
        {
          "components": [
            {
              "internalType": "bytes",
              "name": "data",
              "type": "bytes"
            },
            {
              "internalType": "bool",
              "name": "success",
              "type": "bool"
            }
          ],
          "internalType": "struct ERC20BridgeSampler.CallResults[]",
          "name": "callResults",
          "type": "tuple[]"
        }
      ],
      "stateMutability": "nonpayable",
      "type": "function"
    },
    {
      "inputs": [
        {
          "internalType": "contract IERC20TokenV06[]",
          "name": "tokens",
          "type": "address[]"
        },
        {
          "internalType": "address",
          "name": "account",
          "type": "address"
        },
        {
          "internalType": "address",
          "name": "spender",
          "type": "address"
        }
      ],
      "name": "getAllowanceOf",
      "outputs": [
        {
          "internalType": "uint256[]",
          "name": "allowances",
          "type": "uint256[]"
        }
      ],
      "stateMutability": "view",
      "type": "function"
    },
    {
      "inputs": [
        {
          "internalType": "contract IERC20TokenV06[]",
          "name": "tokens",
          "type": "address[]"
        },
        {
          "internalType": "address",
          "name": "account",
          "type": "address"
        }
      ],
      "name": "getBalanceOf",
      "outputs": [
        {
          "internalType": "uint256[]",
          "name": "balances",
          "type": "uint256[]"
        }
      ],
      "stateMutability": "view",
      "type": "function"
    },
    {
      "inputs": [],
      "name": "getBlockNumber",
      "outputs": [
        {
          "internalType": "uint256",
          "name": "",
          "type": "uint256"
        }
      ],
      "stateMutability": "view",
      "type": "function"
    },
    {
      "inputs": [],
      "name": "getGasLeft",
      "outputs": [
        {
          "internalType": "uint256",
          "name": "",
          "type": "uint256"
        }
      ],
      "stateMutability": "nonpayable",
      "type": "function"
    },
    {
      "inputs": [
        {
          "internalType": "contract IERC20TokenV06[]",
          "name": "tokens",
          "type": "address[]"
        }
      ],
      "name": "getTokenDecimals",
      "outputs": [
        {
          "internalType": "uint256[]",
          "name": "decimals",
          "type": "uint256[]"
        }
      ],
      "stateMutability": "view",
      "type": "function"
    },
    {
      "inputs": [
        {
          "internalType": "address",
          "name": "account",
          "type": "address"
        }
      ],
      "name": "isContract",
      "outputs": [
        {
          "internalType": "bool",
          "name": "",
          "type": "bool"
        }
      ],
      "stateMutability": "view",
      "type": "function"
    },
    {
      "inputs": [
        {
          "components": [
            {
              "internalType": "address",
              "name": "poolAddress",
              "type": "address"
            },
            {
              "internalType": "bytes4",
              "name": "sellQuoteFunctionSelector",
              "type": "bytes4"
            },
            {
              "internalType": "bytes4",
              "name": "buyQuoteFunctionSelector",
              "type": "bytes4"
            }
          ],
          "internalType": "struct CurveSampler.CurveInfo",
          "name": "curveInfo",
          "type": "tuple"
        },
        {
          "internalType": "int128",
          "name": "fromTokenIdx",
          "type": "int128"
        },
        {
          "internalType": "int128",
          "name": "toTokenIdx",
          "type": "int128"
        },
        {
          "internalType": "uint256[]",
          "name": "makerTokenAmounts",
          "type": "uint256[]"
        }
      ],
      "name": "sampleBuysFromCurve",
      "outputs": [
        {
          "internalType": "uint256[]",
          "name": "takerTokenAmounts",
          "type": "uint256[]"
        }
      ],
      "stateMutability": "view",
      "type": "function"
    },
    {
      "inputs": [
        {
          "internalType": "address",
          "name": "router",
          "type": "address"
        },
        {
          "internalType": "address",
          "name": "takerToken",
          "type": "address"
        },
        {
          "internalType": "address",
          "name": "makerToken",
          "type": "address"
        },
        {
          "internalType": "uint256[]",
          "name": "makerTokenAmounts",
          "type": "uint256[]"
        }
      ],
      "name": "sampleBuysFromMStable",
      "outputs": [
        {
          "internalType": "uint256[]",
          "name": "takerTokenAmounts",
          "type": "uint256[]"
        }
      ],
      "stateMutability": "view",
      "type": "function"
    },
    {
      "inputs": [
        {
          "internalType": "address",
          "name": "router",
          "type": "address"
        },
        {
          "internalType": "address",
          "name": "takerToken",
          "type": "address"
        },
        {
          "internalType": "address",
          "name": "makerToken",
          "type": "address"
        },
        {
          "internalType": "uint256[]",
          "name": "makerTokenAmounts",
          "type": "uint256[]"
        }
      ],
      "name": "sampleBuysFromUniswap",
      "outputs": [
        {
          "internalType": "uint256[]",
          "name": "takerTokenAmounts",
          "type": "uint256[]"
        }
      ],
      "stateMutability": "view",
      "type": "function"
    },
    {
      "inputs": [
        {
          "internalType": "address",
          "name": "router",
          "type": "address"
        },
        {
          "internalType": "address[]",
          "name": "path",
          "type": "address[]"
        },
        {
          "internalType": "uint256[]",
          "name": "makerTokenAmounts",
          "type": "uint256[]"
        }
      ],
      "name": "sampleBuysFromUniswapV2",
      "outputs": [
        {
          "internalType": "uint256[]",
          "name": "takerTokenAmounts",
          "type": "uint256[]"
        }
      ],
      "stateMutability": "view",
      "type": "function"
    },
    {
      "inputs": [
        {
          "internalType": "contract IUniswapV3QuoterV2",
          "name": "quoter",
          "type": "address"
        },
        {
          "internalType": "contract IERC20TokenV06[]",
          "name": "path",
          "type": "address[]"
        },
        {
          "internalType": "uint256[]",
          "name": "makerTokenAmounts",
          "type": "uint256[]"
        }
      ],
      "name": "sampleBuysFromUniswapV3",
      "outputs": [
        {
          "internalType": "bytes[]",
          "name": "uniswapPaths",
          "type": "bytes[]"
        },
        {
          "internalType": "uint256[]",
          "name": "uniswapGasUsed",
          "type": "uint256[]"
        },
        {
          "internalType": "uint256[]",
          "name": "takerTokenAmounts",
          "type": "uint256[]"
        }
      ],
      "stateMutability": "nonpayable",
      "type": "function"
    },
    {
      "inputs": [
        {
          "components": [
            {
              "internalType": "address",
              "name": "poolAddress",
              "type": "address"
            },
            {
              "internalType": "bytes4",
              "name": "sellQuoteFunctionSelector",
              "type": "bytes4"
            },
            {
              "internalType": "bytes4",
              "name": "buyQuoteFunctionSelector",
              "type": "bytes4"
            }
          ],
          "internalType": "struct CurveSampler.CurveInfo",
          "name": "curveInfo",
          "type": "tuple"
        },
        {
          "internalType": "int128",
          "name": "fromTokenIdx",
          "type": "int128"
        },
        {
          "internalType": "int128",
          "name": "toTokenIdx",
          "type": "int128"
        },
        {
          "internalType": "uint256[]",
          "name": "takerTokenAmounts",
          "type": "uint256[]"
        }
      ],
      "name": "sampleSellsFromCurve",
      "outputs": [
        {
          "internalType": "uint256[]",
          "name": "makerTokenAmounts",
          "type": "uint256[]"
        }
      ],
      "stateMutability": "view",
      "type": "function"
    },
    {
      "inputs": [
        {
          "internalType": "address",
          "name": "router",
          "type": "address"
        },
        {
          "internalType": "address",
          "name": "takerToken",
          "type": "address"
        },
        {
          "internalType": "address",
          "name": "makerToken",
          "type": "address"
        },
        {
          "internalType": "uint256[]",
          "name": "takerTokenAmounts",
          "type": "uint256[]"
        }
      ],
      "name": "sampleSellsFromMStable",
      "outputs": [
        {
          "internalType": "uint256[]",
          "name": "makerTokenAmounts",
          "type": "uint256[]"
        }
      ],
      "stateMutability": "view",
      "type": "function"
    },
    {
      "inputs": [
        {
          "internalType": "address",
          "name": "router",
          "type": "address"
        },
        {
          "internalType": "address",
          "name": "takerToken",
          "type": "address"
        },
        {
          "internalType": "address",
          "name": "makerToken",
          "type": "address"
        },
        {
          "internalType": "uint256[]",
          "name": "takerTokenAmounts",
          "type": "uint256[]"
        }
      ],
      "name": "sampleSellsFromUniswap",
      "outputs": [
        {
          "internalType": "uint256[]",
          "name": "makerTokenAmounts",
          "type": "uint256[]"
        }
      ],
      "stateMutability": "view",
      "type": "function"
    },
    {
      "inputs": [
        {
          "internalType": "address",
          "name": "router",
          "type": "address"
        },
        {
          "internalType": "address[]",
          "name": "path",
          "type": "address[]"
        },
        {
          "internalType": "uint256[]",
          "name": "takerTokenAmounts",
          "type": "uint256[]"
        }
      ],
      "name": "sampleSellsFromUniswapV2",
      "outputs": [
        {
          "internalType": "uint256[]",
          "name": "makerTokenAmounts",
          "type": "uint256[]"
        }
      ],
      "stateMutability": "view",
      "type": "function"
    },
    {
      "inputs": [
        {
          "internalType": "contract IUniswapV3QuoterV2",
          "name": "quoter",
          "type": "address"
        },
        {
          "internalType": "contract IERC20TokenV06[]",
          "name": "path",
          "type": "address[]"
        },
        {
          "internalType": "uint256[]",
          "name": "takerTokenAmounts",
          "type": "uint256[]"
        }
      ],
      "name": "sampleSellsFromUniswapV3",
      "outputs": [
        {
          "internalType": "bytes[]",
          "name": "uniswapPaths",
          "type": "bytes[]"
        },
        {
          "internalType": "uint256[]",
          "name": "uniswapGasUsed",
          "type": "uint256[]"
        },
        {
          "internalType": "uint256[]",
          "name": "makerTokenAmounts",
          "type": "uint256[]"
        }
      ],
      "stateMutability": "nonpayable",
      "type": "function"
    },
    {
      "inputs": [
        {
          "internalType": "bytes[]",
          "name": "firstHopCalls",
          "type": "bytes[]"
        },
        {
          "internalType": "bytes[]",
          "name": "secondHopCalls",
          "type": "bytes[]"
        },
        {
          "internalType": "uint256",
          "name": "numSamples",
          "type": "uint256"
        }
      ],
      "name": "sampleTwoHopBuy",
      "outputs": [
        {
          "components": [
            {
              "internalType": "uint256",
              "name": "sourceIndex",
              "type": "uint256"
            },
            {
              "internalType": "bytes",
              "name": "returnData",
              "type": "bytes"
            }
          ],
          "internalType": "struct TwoHopSampler.HopInfo",
          "name": "firstHop",
          "type": "tuple"
        },
        {
          "components": [
            {
              "internalType": "uint256",
              "name": "sourceIndex",
              "type": "uint256"
            },
            {
              "internalType": "bytes",
              "name": "returnData",
              "type": "bytes"
            }
          ],
          "internalType": "struct TwoHopSampler.HopInfo",
          "name": "secondHop",
          "type": "tuple"
        },
        {
          "internalType": "uint256[]",
          "name": "sellAmounts",
          "type": "uint256[]"
        }
      ],
      "stateMutability": "nonpayable",
      "type": "function"
    },
    {
      "inputs": [
        {
          "internalType": "bytes[]",
          "name": "firstHopCalls",
          "type": "bytes[]"
        },
        {
          "internalType": "bytes[]",
          "name": "secondHopCalls",
          "type": "bytes[]"
        },
        {
          "internalType": "uint256",
          "name": "numSamples",
          "type": "uint256"
        }
      ],
      "name": "sampleTwoHopSell",
      "outputs": [
        {
          "components": [
            {
              "internalType": "uint256",
              "name": "sourceIndex",
              "type": "uint256"
            },
            {
              "internalType": "bytes",
              "name": "returnData",
              "type": "bytes"
            }
          ],
          "internalType": "struct TwoHopSampler.HopInfo",
          "name": "firstHop",
          "type": "tuple"
        },
        {
          "components": [
            {
              "internalType": "uint256",
              "name": "sourceIndex",
              "type": "uint256"
            },
            {
              "internalType": "bytes",
              "name": "returnData",
              "type": "bytes"
            }
          ],
          "internalType": "struct TwoHopSampler.HopInfo",
          "name": "secondHop",
          "type": "tuple"
        },
        {
          "internalType": "uint256[]",
          "name": "buyAmounts",
          "type": "uint256[]"
        }
      ],
      "stateMutability": "nonpayable",
      "type": "function"
    },
    {
      "stateMutability": "payable",
      "type": "receive"
    }
  ],
  "transactionHash": "0xfe0836eca01eebf75f6a0968990342d0031dfb893506c0d3df84a2a25bfacf37",
  "args": [],
  "numDeployments": 1,
  "solcInputHash": "ee42d8878bdca2e6ffa21e46a4df1a4b",
  "bytecode": "0x60a06040527feeeeeeeeeeeeeeeeeeeeeeeeeeeeeeeeeeeeeeee00000000000000000000000060805234801561003457600080fd5b5060805160601c6151a961005c6000398061134f5280611c33528061210752506151a96000f3fe6080604052600436106101635760003560e01c8063706e2f9b116100c0578063bd71ecf611610074578063c8c74a3711610059578063c8c74a37146103e1578063e78ac04514610401578063fc9fe41b146104215761016a565b8063bd71ecf6146103a1578063c8319084146103c15761016a565b80638e5a0e07116100a55780638e5a0e07146103325780639209483b14610361578063b90cd2fb146103815761016a565b8063706e2f9b146102e55780638aaf8fdf146103055761016a565b806342cbb15c116101175780635505000a116100fc5780635505000a146102695780635aae4e531461029857806368be3cf2146102b85761016a565b806342cbb15c1461023257806351be4eaa146102545761016a565b806330d6570d1161014857806330d6570d146101d25780633105fec1146101f257806340bc03ae146102125761016a565b8063162790551461016f578063252322b3146101a55761016a565b3661016a57005b600080fd5b34801561017b57600080fd5b5061018f61018a366004614296565b610441565b60405161019c9190614d6f565b60405180910390f35b3480156101b157600080fd5b506101c56101c0366004614307565b61044b565b60405161019c9190614d5c565b3480156101de57600080fd5b506101c56101ed366004614307565b61066f565b3480156101fe57600080fd5b506101c561020d36600461437a565b61080f565b34801561021e57600080fd5b506101c561022d3660046147f6565b6109bf565b34801561023e57600080fd5b50610247610b99565b60405161019c9190614fab565b34801561026057600080fd5b50610247610b9d565b34801561027557600080fd5b50610289610284366004614690565b610ba5565b60405161019c93929190614c2c565b3480156102a457600080fd5b506102896102b3366004614690565b610e94565b3480156102c457600080fd5b506102d86102d336600461444d565b611199565b60405161019c9190614cc9565b3480156102f157600080fd5b506101c5610300366004614526565b6112fb565b34801561031157600080fd5b506103256103203660046146f9565b611415565b60405161019c9190614b80565b34801561033e57600080fd5b5061035261034d3660046144bc565b6115b5565b60405161019c93929190614f72565b34801561036d57600080fd5b506101c561037c3660046147f6565b6118f7565b34801561038d57600080fd5b506101c561039c366004614307565b611b70565b3480156103ad57600080fd5b506101c56103bc366004614559565b611bdf565b3480156103cd57600080fd5b506101c56103dc366004614307565b611d10565b3480156103ed57600080fd5b506101c56103fc36600461437a565b611f1b565b34801561040d57600080fd5b506101c561041c36600461459e565b6120b3565b34801561042d57600080fd5b5061035261043c3660046144bc565b6121d8565b803b15155b919050565b606061045783856125dd565b81518067ffffffffffffffff8111801561047057600080fd5b5060405190808252806020026020018201604052801561049a578160200160208202803683370190505b509150600073ffffffffffffffffffffffffffffffffffffffff8616156104ca576104c58787612650565b6104cd565b60005b9050600073ffffffffffffffffffffffffffffffffffffffff8616156104fc576104f78887612650565b6104ff565b60005b905060005b8381101561066357600173ffffffffffffffffffffffffffffffffffffffff881661056f5761054e84632640f62c60e01b89858151811061054157fe5b60200260200101516126fc565b87848151811061055a57fe5b6020026020010181935082815250505061062f565b73ffffffffffffffffffffffffffffffffffffffff89166105a25761054e836359e9486260e01b89858151811061054157fe5b60006105bc846359e9486260e01b8a868151811061054157fe5b925090508015610612576105f1857f2640f62c00000000000000000000000000000000000000000000000000000000836126fc565b8885815181106105fd57fe5b6020026020010181945082815250505061062d565b600087848151811061062057fe5b6020026020010181815250505b505b80158061064f575085828151811061064357fe5b60200260200101516000145b1561065a5750610663565b50600101610504565b50505050949350505050565b606061067b83856125dd565b81518067ffffffffffffffff8111801561069457600080fd5b506040519080825280602002602001820160405280156106be578160200160208202803683370190505b50915060005b81811015610805578673ffffffffffffffffffffffffffffffffffffffff166372ea9076620c350088888886815181106106fa57fe5b60200260200101516040518563ffffffff1660e01b815260040161072093929190614b4f565b60206040518083038187803b15801561073857600080fd5b5086fa93505050508015610787575060408051601f3d9081017fffffffffffffffffffffffffffffffffffffffffffffffffffffffffffffffe0168201909252610784918101906148b5565b60015b6107c1573d8080156107b5576040519150601f19603f3d011682016040523d82523d6000602084013e6107ba565b606091505b5050610805565b808483815181106107ce57fe5b6020026020010181815250508382815181106107e657fe5b6020026020010151600014156107fc5750610805565b506001016106c4565b5050949350505050565b80516060908067ffffffffffffffff8111801561082b57600080fd5b50604051908082528060200260200182016040528015610855578160200160208202803683370190505b50915060005b818110156109b6578573ffffffffffffffffffffffffffffffffffffffff1663d06ca61f620249f086848151811061088f57fe5b6020026020010151886040518463ffffffff1660e01b81526004016108b5929190614fb4565b60006040518083038187803b1580156108cd57600080fd5b5086fa9350505050801561092157506040513d6000823e601f3d9081017fffffffffffffffffffffffffffffffffffffffffffffffffffffffffffffffe016820160405261091e9190810190614600565b60015b61095b573d80801561094f576040519150601f19603f3d011682016040523d82523d6000602084013e610954565b606091505b50506109b6565b8060018751038151811061096b57fe5b602002602001015184838151811061097f57fe5b60200260200101818152505083828151811061099757fe5b6020026020010151600014156109ad57506109b6565b5060010161085b565b50509392505050565b80516060908067ffffffffffffffff811180156109db57600080fd5b50604051908082528060200260200182016040528015610a05578160200160208202803683370190505b50915060005b818110156108055760006060886000015173ffffffffffffffffffffffffffffffffffffffff16621e84808a602001518a8a8a8881518110610a4957fe5b6020026020010151604051602401610a6393929190614df3565b604080517fffffffffffffffffffffffffffffffffffffffffffffffffffffffffffffffe08184030181529181526020820180517bffffffffffffffffffffffffffffffffffffffffffffffffffffffff167fffffffff00000000000000000000000000000000000000000000000000000000909416939093179092529051610aec9190614aaa565b6000604051808303818686fa925050503d8060008114610b28576040519150601f19603f3d011682016040523d82523d6000602084013e610b2d565b606091505b509150915060008215610b515781806020019051810190610b4e91906148b5565b90505b80868581518110610b5e57fe5b602002602001018181525050858481518110610b7657fe5b602002602001015160001415610b8e57505050610805565b505050600101610a0b565b4390565b60005a905090565b606080606080610bcd878787600189510381518110610bc057fe5b6020026020010151612845565b9050845167ffffffffffffffff81118015610be757600080fd5b50604051908082528060200260200182016040528015610c11578160200160208202803683370190505b509150845167ffffffffffffffff81118015610c2c57600080fd5b50604051908082528060200260200182016040528015610c6057816020015b6060815260200190600190039081610c4b5790505b509350845167ffffffffffffffff81118015610c7b57600080fd5b50604051908082528060200260200182016040528015610ca5578160200160208202803683370190505b50925060005b8551811015610e89576000805b8351811015610e1b57610cdd848281518110610cd057fe5b60200260200101516128aa565b610ce657610e13565b6060610d058a868481518110610cf857fe5b602002602001015161291a565b90508a73ffffffffffffffffffffffffffffffffffffffff1663cdca1753620aae60838c8881518110610d3457fe5b60200260200101516040518463ffffffff1660e01b8152600401610d59929190614d7a565b600060405180830381600088803b158015610d7357600080fd5b5087f193505050508015610dc757506040513d6000823e601f3d9081017fffffffffffffffffffffffffffffffffffffffffffffffffffffffffffffffe0168201604052610dc491908101906148cd565b60015b610dd057610e11565b838711610e0c57839650848c8981518110610de757fe5b6020026020010181905250808b8981518110610dff57fe5b6020026020010181815250505b505050505b505b600101610cb8565b5080610e685760405180602001604052806000815250868381518110610e3d57fe5b60200260200101819052506000858381518110610e5657fe5b60200260200101818152505050610e89565b80848381518110610e7557fe5b602090810291909101015250600101610cab565b505093509350939050565b606080606080610ea386612aa5565b90506060610ebc88838860018a510381518110610bc057fe5b9050855167ffffffffffffffff81118015610ed657600080fd5b50604051908082528060200260200182016040528015610f00578160200160208202803683370190505b509250855167ffffffffffffffff81118015610f1b57600080fd5b50604051908082528060200260200182016040528015610f4f57816020015b6060815260200190600190039081610f3a5790505b509450855167ffffffffffffffff81118015610f6a57600080fd5b50604051908082528060200260200182016040528015610f94578160200160208202803683370190505b50935060005b865181101561118d576000805b835181101561111f57610fbf848281518110610cd057fe5b610fc857611117565b6060610fda86868481518110610cf857fe5b90508b73ffffffffffffffffffffffffffffffffffffffff16632f80bb1d620aae60838d888151811061100957fe5b60200260200101516040518463ffffffff1660e01b815260040161102e929190614d7a565b600060405180830381600088803b15801561104857600080fd5b5087f19350505050801561109c57506040513d6000823e601f3d9081017fffffffffffffffffffffffffffffffffffffffffffffffffffffffffffffffe016820160405261109991908101906148cd565b60015b6110a557611115565b8615806110b25750838710155b15611110578396506110df8f6110da8b89815181106110cd57fe5b6020026020010151612b4b565b61291a565b8d89815181106110eb57fe5b6020026020010181905250808c898151811061110357fe5b6020026020010181815250505b505050505b505b600101610fa7565b508061116c576040518060200160405280600081525087838151811061114157fe5b6020026020010181905250600086838151811061115a57fe5b6020026020010181815250505061118d565b8085838151811061117957fe5b602090810291909101015250600101610f9a565b50505093509350939050565b60608167ffffffffffffffff811180156111b257600080fd5b506040519080825280602002602001820160405280156111ec57816020015b6111d9613fd1565b8152602001906001900390816111d15790505b50905060005b8083146112f457600182828151811061120757fe5b60209081029190910181015191151591015283838281811061122557fe5b90506020028101906112379190615017565b15159050611244576112ec565b3084848381811061125157fe5b90506020028101906112639190615017565b604051611271929190614a9a565b6000604051808303816000865af19150503d80600081146112ae576040519150601f19603f3d011682016040523d82523d6000602084013e6112b3565b606091505b508383815181106112c057fe5b60200260200101516020018484815181106112d757fe5b60209081029190910101519190915290151590525b6001016111f2565b5092915050565b6060815167ffffffffffffffff8111801561131557600080fd5b5060405190808252806020026020018201604052801561133f578160200160208202803683370190505b50905060005b8251811461140f577f000000000000000000000000000000000000000000000000000000000000000073ffffffffffffffffffffffffffffffffffffffff1683828151811061139057fe5b602002602001015173ffffffffffffffffffffffffffffffffffffffff16146113ea576113e58382815181106113c257fe5b602002602001015173ffffffffffffffffffffffffffffffffffffffff16612bf1565b6113ed565b60125b60ff168282815181106113fc57fe5b6020908102919091010152600101611345565b50919050565b6040805160028082526060828101909352816020015b606081526020019060019003908161142b57905050905061144a613fe9565b6114fc858673ffffffffffffffffffffffffffffffffffffffff1663c45a01556040518163ffffffff1660e01b815260040160206040518083038186803b15801561149457600080fd5b505afa1580156114a8573d6000803e3d6000fd5b505050506040513d601f19601f820116820180604052508101906114cc91906142b2565b866000815181106114d957fe5b6020026020010151876001815181106114ee57fe5b602002602001015187612cc3565b5090506000805b60028110156115ab57600083826002811061151a57fe5b60200201516040805160018082528183019092529192508160200160208202803683370190505085848151811061154d57fe5b60200260200101819052508085848151811061156557fe5b602002602001015160008151811061157957fe5b73ffffffffffffffffffffffffffffffffffffffff909216602092830291909101909101525060019182019101611503565b5050509392505050565b6115bd614007565b6115c5614007565b60608367ffffffffffffffff811180156115de57600080fd5b50604051908082528060200260200182016040528015611608578160200160208202803683370190505b50905060608467ffffffffffffffff8111801561162457600080fd5b5060405190808252806020026020018201604052801561164e578160200160208202803683370190505b50905060005b875181101561177e57600060603073ffffffffffffffffffffffffffffffffffffffff168a848151811061168457fe5b60200260200101516040516116999190614aaa565b6000604051808303816000865af19150503d80600081146116d6576040519150601f19603f3d011682016040523d82523d6000602084013e6116db565b606091505b509150915081156117745760606116f2828a613031565b90508460018a038151811061170357fe5b60200260200101518160018b038151811061171a57fe5b60200260200101511115611772578388526020880182905260005b898110156117705781818151811061174957fe5b602002602001015186828151811061175d57fe5b6020908102919091010152600101611735565b505b505b5050600101611654565b5080600186038151811061178e57fe5b6020026020010151600014156117a457506118ee565b60005b8651811015610e89576117cd8782815181106117bf57fe5b60200260200101518361307b565b600060603073ffffffffffffffffffffffffffffffffffffffff168984815181106117f457fe5b60200260200101516040516118099190614aaa565b6000604051808303816000865af19150503d8060008114611846576040519150601f19603f3d011682016040523d82523d6000602084013e61184b565b606091505b509150915081156118e4576060611862828a613031565b90508560018a038151811061187357fe5b60200260200101518160018b038151811061188a57fe5b602002602001015111156118e2578387526020870182905260005b898110156118e0578181815181106118b957fe5b60200260200101518782815181106118cd57fe5b60209081029190910101526001016118a5565b505b505b50506001016117a7565b93509350939050565b60408401516060907fffffffff000000000000000000000000000000000000000000000000000000001661199157604080516060810190915261198a9080611943868960808401614e11565b6040516020818303038152906040528152602001868860405160200161196a929190614e11565b60405160208183030381529060405281526020016130c68152508361325d565b9050611b68565b81518067ffffffffffffffff811180156119aa57600080fd5b506040519080825280602002602001820160405280156119d4578160200160208202803683370190505b50915060005b818110156108055760006060886000015173ffffffffffffffffffffffffffffffffffffffff16621e84808a604001518a8a8a8881518110611a1857fe5b6020026020010151604051602401611a3293929190614df3565b604080517fffffffffffffffffffffffffffffffffffffffffffffffffffffffffffffffe08184030181529181526020820180517bffffffffffffffffffffffffffffffffffffffffffffffffffffffff167fffffffff00000000000000000000000000000000000000000000000000000000909416939093179092529051611abb9190614aaa565b6000604051808303818686fa925050503d8060008114611af7576040519150601f19603f3d011682016040523d82523d6000602084013e611afc565b606091505b509150915060008215611b205781806020019051810190611b1d91906148b5565b90505b80868581518110611b2d57fe5b602002602001018181525050858481518110611b4557fe5b602002602001015160001415611b5d57505050610805565b5050506001016119da565b949350505050565b604080516060818101909252611bd69080611b8f868960808401614ae7565b60405160208183030381529060405281526020018688604051602001611bb6929190614ae7565b60405160208183030381529060405281526020016134708152508361325d565b95945050505050565b6060825167ffffffffffffffff81118015611bf957600080fd5b50604051908082528060200260200182016040528015611c23578160200160208202803683370190505b50905060005b835181146112f4577f000000000000000000000000000000000000000000000000000000000000000073ffffffffffffffffffffffffffffffffffffffff16848281518110611c7457fe5b602002602001015173ffffffffffffffffffffffffffffffffffffffff1614611cd857611cd383858381518110611ca757fe5b602002602001015173ffffffffffffffffffffffffffffffffffffffff166135a290919063ffffffff16565b611cf1565b8273ffffffffffffffffffffffffffffffffffffffff16315b828281518110611cfd57fe5b6020908102919091010152600101611c29565b6060611d1c83856125dd565b81518067ffffffffffffffff81118015611d3557600080fd5b50604051908082528060200260200182016040528015611d5f578160200160208202803683370190505b509150600073ffffffffffffffffffffffffffffffffffffffff861615611d8f57611d8a8787612650565b611d92565b60005b9050600073ffffffffffffffffffffffffffffffffffffffff861615611dc157611dbc8887612650565b611dc4565b60005b905060005b8381101561066357600173ffffffffffffffffffffffffffffffffffffffff8816611e2757611e06846395b68fe760e01b89858151811061054157fe5b878481518110611e1257fe5b60200260200101819350828152505050611ee7565b73ffffffffffffffffffffffffffffffffffffffff8916611e5a57611e068363cd7724c360e01b89858151811061054157fe5b6000611e74856395b68fe760e01b8a868151811061054157fe5b925090508015611eca57611ea9847fcd7724c300000000000000000000000000000000000000000000000000000000836126fc565b888581518110611eb557fe5b60200260200101819450828152505050611ee5565b6000878481518110611ed857fe5b6020026020010181815250505b505b801580611f075750858281518110611efb57fe5b60200260200101516000145b15611f125750610663565b50600101611dc9565b80516060908067ffffffffffffffff81118015611f3757600080fd5b50604051908082528060200260200182016040528015611f61578160200160208202803683370190505b50915060005b818110156109b6578573ffffffffffffffffffffffffffffffffffffffff16631f00ca74620249f0868481518110611f9b57fe5b6020026020010151886040518463ffffffff1660e01b8152600401611fc1929190614fb4565b60006040518083038187803b158015611fd957600080fd5b5086fa9350505050801561202d57506040513d6000823e601f3d9081017fffffffffffffffffffffffffffffffffffffffffffffffffffffffffffffffe016820160405261202a9190810190614600565b60015b61205b573d80801561094f576040519150601f19603f3d011682016040523d82523d6000602084013e610954565b8060008151811061206857fe5b602002602001015184838151811061207c57fe5b60200260200101818152505083828151811061209457fe5b6020026020010151600014156120aa57506109b6565b50600101611f67565b6060835167ffffffffffffffff811180156120cd57600080fd5b506040519080825280602002602001820160405280156120f7578160200160208202803683370190505b50905060005b845181146121d0577f000000000000000000000000000000000000000000000000000000000000000073ffffffffffffffffffffffffffffffffffffffff1685828151811061214857fe5b602002602001015173ffffffffffffffffffffffffffffffffffffffff16146121ae576121a9848487848151811061217c57fe5b602002602001015173ffffffffffffffffffffffffffffffffffffffff166136c49092919063ffffffff16565b6121b1565b60005b8282815181106121bd57fe5b60209081029190910101526001016120fd565b509392505050565b6121e0614007565b6121e8614007565b60608367ffffffffffffffff8111801561220157600080fd5b5060405190808252806020026020018201604052801561222b578160200160208202803683370190505b50905060005b84811015612279577fffffffffffffffffffffffffffffffffffffffffffffffffffffffffffffffff82828151811061226657fe5b6020908102919091010152600101612231565b5060608467ffffffffffffffff8111801561229357600080fd5b506040519080825280602002602001820160405280156122bd578160200160208202803683370190505b50905060005b8581101561230b577fffffffffffffffffffffffffffffffffffffffffffffffffffffffffffffffff8282815181106122f857fe5b60209081029190910101526001016122c3565b5060005b865181101561244b57600060603073ffffffffffffffffffffffffffffffffffffffff1689848151811061233f57fe5b60200260200101516040516123549190614aaa565b6000604051808303816000865af19150503d8060008114612391576040519150601f19603f3d011682016040523d82523d6000602084013e612396565b606091505b509150915081156124415760606123ad828a613031565b905060008160018b03815181106123c057fe5b602002602001015190506000811180156123ef57508560018b03815181106123e457fe5b602002602001015181105b1561243e578488526020880183905260005b8a81101561243c5782818151811061241557fe5b602002602001015187828151811061242957fe5b6020908102919091010152600101612401565b505b50505b505060010161230f565b507fffffffffffffffffffffffffffffffffffffffffffffffffffffffffffffffff81600187038151811061247c57fe5b6020026020010151141561249057506118ee565b60005b87518114610e89576124aa8882815181106117bf57fe5b600060603073ffffffffffffffffffffffffffffffffffffffff168a84815181106124d157fe5b60200260200101516040516124e69190614aaa565b6000604051808303816000865af19150503d8060008114612523576040519150601f19603f3d011682016040523d82523d6000602084013e612528565b606091505b509150915081156125d357606061253f828a613031565b905060008160018b038151811061255257fe5b6020026020010151905060008111801561258157508660018b038151811061257657fe5b602002602001015181105b156125d0578489526020890183905260005b8a8110156125ce578281815181106125a757fe5b60200260200101518882815181106125bb57fe5b6020908102919091010152600101612593565b505b50505b5050600101612493565b8073ffffffffffffffffffffffffffffffffffffffff168273ffffffffffffffffffffffffffffffffffffffff16141561264c576040517f08c379a000000000000000000000000000000000000000000000000000000000815260040161264390614e29565b60405180910390fd5b5050565b6040517f06f2bf6200000000000000000000000000000000000000000000000000000000815260009073ffffffffffffffffffffffffffffffffffffffff8416906306f2bf62906126a5908590600401614ac6565b60206040518083038186803b1580156126bd57600080fd5b505afa1580156126d1573d6000803e3d6000fd5b505050506040513d601f19601f820116820180604052508101906126f591906142b2565b9392505050565b60008073ffffffffffffffffffffffffffffffffffffffff851661271f5761283d565b60608573ffffffffffffffffffffffffffffffffffffffff16620249f0868660405160240161274e9190614fab565b604080517fffffffffffffffffffffffffffffffffffffffffffffffffffffffffffffffe08184030181529181526020820180517bffffffffffffffffffffffffffffffffffffffffffffffffffffffff167fffffffff000000000000000000000000000000000000000000000000000000009094169390931790925290516127d79190614aaa565b6000604051808303818686fa925050503d8060008114612813576040519150601f19603f3d011682016040523d82523d6000602084013e612818565b606091505b509092509050811561283b578080602001905181019061283891906148b5565b92505b505b935093915050565b60608251600214156128635761285c848484611415565b90506126f5565b8251600314156128785761285c8484846137f2565b6040517f08c379a000000000000000000000000000000000000000000000000000000000815260040161264390614ee3565b6000805b825181101561291157600073ffffffffffffffffffffffffffffffffffffffff168382815181106128db57fe5b602002602001015173ffffffffffffffffffffffffffffffffffffffff161415612909576000915050610446565b6001016128ae565b50600192915050565b60606002835110158015612932575081516001018351145b612968576040517f08c379a000000000000000000000000000000000000000000000000000000000815260040161264390614e86565b815160030283516014020167ffffffffffffffff8111801561298957600080fd5b506040519080825280601f01601f1916602001820160405280156129b4576020820181803683370190505b5090506020810160005b8451811015612a9d578015612a705760008460018303815181106129de57fe5b602002602001015173ffffffffffffffffffffffffffffffffffffffff1663ddca3f436040518163ffffffff1660e01b815260040160206040518083038186803b158015612a2b57600080fd5b505afa158015612a3f573d6000803e3d6000fd5b505050506040513d601f19601f82011682018060405250810190612a639190614892565b60e81b8352506003909101905b6000858281518110612a7e57fe5b602090810291909101015160601b8352506014909101906001016129be565b505092915050565b6060815167ffffffffffffffff81118015612abf57600080fd5b50604051908082528060200260200182016040528015612ae9578160200160208202803683370190505b50905060005b825181101561140f57826001828551030381518110612b0a57fe5b6020026020010151828281518110612b1e57fe5b73ffffffffffffffffffffffffffffffffffffffff90921660209283029190910190910152600101612aef565b6060815167ffffffffffffffff81118015612b6557600080fd5b50604051908082528060200260200182016040528015612b8f578160200160208202803683370190505b50905060005b825181101561140f57826001828551030381518110612bb057fe5b6020026020010151828281518110612bc457fe5b73ffffffffffffffffffffffffffffffffffffffff90921660209283029190910190910152600101612b95565b600060129050600060608373ffffffffffffffffffffffffffffffffffffffff166040518060400160405280600481526020017f313ce56700000000000000000000000000000000000000000000000000000000815250604051612c559190614aaa565b600060405180830381855afa9150503d8060008114612c90576040519150601f19603f3d011682016040523d82523d6000602084013e612c95565b606091505b5091509150818015612ca957506020815110155b15612cbc57612cb9816000613a61565b92505b5050919050565b612ccb613fe9565b612cd3613fe9565b60408051600280825260608083018452926020830190803683370190505090508581600081518110612d0157fe5b602002602001019073ffffffffffffffffffffffffffffffffffffffff16908173ffffffffffffffffffffffffffffffffffffffff16815250508481600181518110612d4957fe5b602002602001019073ffffffffffffffffffffffffffffffffffffffff16908173ffffffffffffffffffffffffffffffffffffffff1681525050612d8b614021565b5060408051608081018252606481526101f46020820152610bb891810191909152612710606082015260005b60048110156130245760008973ffffffffffffffffffffffffffffffffffffffff16631698ee828a8a868660048110612dec57fe5b60200201516040518463ffffffff1660e01b8152600401612e0f93929190614d9c565b60206040518083038186803b158015612e2757600080fd5b505afa158015612e3b573d6000803e3d6000fd5b505050506040513d601f19601f82011682018060405250810190612e5f91906142b2565b9050612e6a81613a6d565b612e74575061301c565b604080516001808252818301909252606091602080830190803683370190505090508181600081518110612ea457fe5b602002602001019073ffffffffffffffffffffffffffffffffffffffff16908173ffffffffffffffffffffffffffffffffffffffff16815250506060612eea868361291a565b90508c73ffffffffffffffffffffffffffffffffffffffff1663cdca1753620aae60838c6040518463ffffffff1660e01b8152600401612f2b929190614d7a565b600060405180830381600088803b158015612f4557600080fd5b5087f193505050508015612f9957506040513d6000823e601f3d9081017fffffffffffffffffffffffffffffffffffffffffffffffffffffffffffffffe0168201604052612f9691908101906148cd565b60015b612fa257613018565b8a51841115612fe3578a516020808d01919091528c5173ffffffffffffffffffffffffffffffffffffffff908116918e0191909152848c5287168c52613013565b60208b0151841115613013576020808c0185905273ffffffffffffffffffffffffffffffffffffffff8816908d01525b505050505b5050505b600101612db7565b5050509550959350505050565b8151606090602060028401028103908261304c868484613cad565b905061305b8160006020613d49565b8080602001905181019061306f9190614600565b93505050505b92915050565b60005b81518110156130c157600060018284510303602002845103905060008383815181106130a657fe5b6020908102919091010151918501919091525060010161307e565b505050565b6000806130d161403f565b858060200190518101906130e5919061475b565b915091506000858060200190518101906130ff919061473f565b905060006060307f40bc03ae000000000000000000000000000000000000000000000000000000008587866131338c613d54565b6040516024016131469493929190614f40565b604080517fffffffffffffffffffffffffffffffffffffffffffffffffffffffffffffffe08184030181529181526020820180517bffffffffffffffffffffffffffffffffffffffffffffffffffffffff167fffffffff000000000000000000000000000000000000000000000000000000009094169390931790925290516131cf9190614aaa565b600060405180830381855afa9150503d806000811461320a576040519150601f19603f3d011682016040523d82523d6000602084013e61320f565b606091505b509150915081613227576000955050505050506126f5565b8080602001905181019061323b9190614600565b60008151811061324757fe5b6020026020010151955050505050509392505050565b6060815167ffffffffffffffff8111801561327757600080fd5b506040519080825280602002602001820160405280156132a1578160200160208202803683370190505b5090508151600014156132b357613075565b60006132e484600001518560200151856000815181106132cf57fe5b6020026020010151876040015163ffffffff16565b9050806132f15750613075565b600061330e8560200151866000015184886040015163ffffffff16565b90508061331c575050613075565b60005b8451811015613467576000805b60058110156134105761335387848151811061334457fe5b60200260200101518587613d95565b94508461335f57613410565b61336e61271561271087613d95565b94508461337a57613410565b600061339789602001518a60000151888c6040015163ffffffff16565b9050806133a45750613410565b8094508784815181106133b357fe5b60200260200101518510613407578784815181106133cd57fe5b60200260200101516127108986815181106133e457fe5b6020026020010151870302816133f657fe5b049250600583116134075750613410565b5060010161332c565b5080158061341e5750600581115b156134295750613467565b61344786838151811061343857fe5b60200260200101518486613d95565b85838151811061345357fe5b60209081029190910101525060010161331f565b50505092915050565b60008060008580602001905181019061348991906142ce565b915091506000858060200190518101906134a391906142b2565b9050306330d6570d8385846134b78a613d54565b6040518563ffffffff1660e01b81526004016134d69493929190614b0e565b60006040518083038186803b1580156134ee57600080fd5b505afa92505050801561354157506040513d6000823e601f3d9081017fffffffffffffffffffffffffffffffffffffffffffffffffffffffffffffffe016820160405261353e9190810190614600565b60015b613582573d80801561356f576040519150601f19603f3d011682016040523d82523d6000602084013e613574565b606091505b5060009450505050506126f5565b8060008151811061358f57fe5b60200260200101519450505050506126f5565b60008060608473ffffffffffffffffffffffffffffffffffffffff166370a0823160e01b856040516024016135d79190614ac6565b604080517fffffffffffffffffffffffffffffffffffffffffffffffffffffffffffffffe08184030181529181526020820180517bffffffffffffffffffffffffffffffffffffffffffffffffffffffff167fffffffff000000000000000000000000000000000000000000000000000000009094169390931790925290516136609190614aaa565b600060405180830381855afa9150503d806000811461369b576040519150601f19603f3d011682016040523d82523d6000602084013e6136a0565b606091505b50915091508180156136b457506020815110155b15612a9d57611bd6816000613a61565b60008060608573ffffffffffffffffffffffffffffffffffffffff1663dd62ed3e60e01b86866040516024016136fb929190614ae7565b604080517fffffffffffffffffffffffffffffffffffffffffffffffffffffffffffffffe08184030181529181526020820180517bffffffffffffffffffffffffffffffffffffffffffffffffffffffff167fffffffff000000000000000000000000000000000000000000000000000000009094169390931790925290516137849190614aaa565b600060405180830381855afa9150503d80600081146137bf576040519150601f19603f3d011682016040523d82523d6000602084013e6137c4565b606091505b50915091508180156137d857506020815110155b156109b6576137e8816000613a61565b9695505050505050565b606060008473ffffffffffffffffffffffffffffffffffffffff1663c45a01556040518163ffffffff1660e01b815260040160206040518083038186803b15801561383c57600080fd5b505afa158015613850573d6000803e3d6000fd5b505050506040513d601f19601f8201168201806040525081019061387491906142b2565b60408051600480825260a08201909252919250816020015b606081526020019060019003908161388c5790505091506138ab613fe9565b6138b3613fe9565b6138e88784886000815181106138c557fe5b6020026020010151896001815181106138da57fe5b602002602001015189612cc3565b915091506138f4613fe9565b61393a88858960018151811061390657fe5b60200260200101518a60028151811061391b57fe5b60200260200101518660006002811061393057fe5b6020020151612cc3565b5090506000805b6002811015613a545760005b6002811015613a4b5760408051600280825260608201835290916020830190803683370190505088848151811061398057fe5b6020026020010181905250606088848151811061399957fe5b602002602001015190508683600281106139af57fe5b6020020151816000815181106139c157fe5b602002602001019073ffffffffffffffffffffffffffffffffffffffff16908173ffffffffffffffffffffffffffffffffffffffff1681525050848260028110613a0757fe5b602002015181600181518110613a1957fe5b73ffffffffffffffffffffffffffffffffffffffff90921660209283029190910190910152506001928301920161394d565b50600101613941565b5050505050509392505050565b60006126f58383613ded565b6000813b80613a80576000915050610446565b508173ffffffffffffffffffffffffffffffffffffffff16630dfe16816040518163ffffffff1660e01b815260040160206040518083038186803b158015613ac757600080fd5b505afa158015613adb573d6000803e3d6000fd5b505050506040513d601f19601f82011682018060405250810190613aff91906142b2565b73ffffffffffffffffffffffffffffffffffffffff166370a08231836040518263ffffffff1660e01b8152600401613b379190614ac6565b60206040518083038186803b158015613b4f57600080fd5b505afa158015613b63573d6000803e3d6000fd5b505050506040513d601f19601f82011682018060405250810190613b8791906148b5565b613b9357506000610446565b8173ffffffffffffffffffffffffffffffffffffffff1663d21220a76040518163ffffffff1660e01b815260040160206040518083038186803b158015613bd957600080fd5b505afa158015613bed573d6000803e3d6000fd5b505050506040513d601f19601f82011682018060405250810190613c1191906142b2565b73ffffffffffffffffffffffffffffffffffffffff166370a08231836040518263ffffffff1660e01b8152600401613c499190614ac6565b60206040518083038186803b158015613c6157600080fd5b505afa158015613c75573d6000803e3d6000fd5b505050506040513d601f19601f82011682018060405250810190613c9991906148b5565b613ca557506000610446565b506001919050565b606081831115613ccb57613ccb613cc660008585613e17565b613ebc565b8351821115613ce457613ce4613cc66001848751613e17565b82820367ffffffffffffffff81118015613cfd57600080fd5b506040519080825280601f01601f191660200182016040528015613d28576020820181803683370190505b5090506126f5613d3782613ec4565b84613d4187613ec4565b018351613eca565b6130c1838383613faa565b604080516001808252818301909252606091602080830190803683370190505090508181600081518110613d8457fe5b602002602001018181525050919050565b6000831580613da2575081155b80613dab575082155b15613db8575060006126f5565b83820282858281613dc557fe5b0414613dd55760009150506126f5565b8360018503820181613de357fe5b0495945050505050565b60008160200183511015613e0e57613e0e613cc66005855185602001613e17565b50016020015190565b6060632800659560e01b848484604051602401613e3693929190614dd1565b604080517fffffffffffffffffffffffffffffffffffffffffffffffffffffffffffffffe08184030181529190526020810180517bffffffffffffffffffffffffffffffffffffffffffffffffffffffff167fffffffff000000000000000000000000000000000000000000000000000000009093169290921790915290509392505050565b805160208201fd5b60200190565b6020811015613f11578151835160208390036101000a7fffffffffffffffffffffffffffffffffffffffffffffffffffffffffffffffff01801990921691161783526130c1565b82821415613f1e576130c1565b82821115613f585760208103905080820181840181515b82851015613f50578451865260209586019590940193613f35565b9052506130c1565b60208103905080820181840183515b81861215613fa157825182527fffffffffffffffffffffffffffffffffffffffffffffffffffffffffffffffe09283019290910190613f67565b85525050505050565b8160200183511015613fc957613fc9613cc66005855185602001613e17565b910160200152565b60408051808201909152606081526000602082015290565b60405180604001604052806002906020820280368337509192915050565b604051806040016040528060008152602001606081525090565b60405180608001604052806004906020820280368337509192915050565b604080516060810182526000808252602082018190529181019190915290565b803561307581615111565b6000601f838184011261407b578182fd5b823561408e614089826150a8565b615081565b818152925060208084019085810160005b8481101561413f578135880189603f8201126140ba57600080fd5b8381013567ffffffffffffffff8111156140d357600080fd5b614102857fffffffffffffffffffffffffffffffffffffffffffffffffffffffffffffffe08a84011601615081565b81815260408c8184860101111561411857600080fd5b8281850188840137506000918101860191909152855250928201929082019060010161409f565b50505050505092915050565b600082601f83011261415b578081fd5b8135614169614089826150a8565b81815291506020808301908481018184028601820187101561418a57600080fd5b60005b848110156141b25781356141a081615111565b8452928201929082019060010161418d565b505050505092915050565b600082601f8301126141cd578081fd5b81356141db614089826150a8565b8181529150602080830190848101818402860182018710156141fc57600080fd5b60005b848110156141b2578135845292820192908201906001016141ff565b600082601f83011261422b578081fd5b8151614239614089826150a8565b81815291506020808301908481018184028601820187101561425a57600080fd5b6000805b8581101561413f57825163ffffffff81168114614279578283fd5b8552938301939183019160010161425e565b805161307581615111565b6000602082840312156142a7578081fd5b81356126f581615111565b6000602082840312156142c3578081fd5b81516126f581615111565b600080604083850312156142e0578081fd5b82516142eb81615111565b60208401519092506142fc81615111565b809150509250929050565b6000806000806080858703121561431c578182fd5b843561432781615111565b9350602085013561433781615111565b9250604085013561434781615111565b9150606085013567ffffffffffffffff811115614362578182fd5b61436e878288016141bd565b91505092959194509250565b60008060006060848603121561438e578081fd5b833561439981615111565b925060208481013567ffffffffffffffff808211156143b6578384fd5b818701915087601f8301126143c9578384fd5b81356143d7614089826150a8565b81815284810190848601868402860187018c10156143f3578788fd5b8795505b8386101561441d576144098c8261405f565b8352600195909501949186019186016143f7565b50965050506040870135925080831115614435578384fd5b5050614443868287016141bd565b9150509250925092565b6000806020838503121561445f578182fd5b823567ffffffffffffffff80821115614476578384fd5b818501915085601f830112614489578384fd5b813581811115614497578485fd5b86602080830285010111156144aa578485fd5b60209290920196919550909350505050565b6000806000606084860312156144d0578081fd5b833567ffffffffffffffff808211156144e7578283fd5b6144f38783880161406a565b94506020860135915080821115614508578283fd5b506145158682870161406a565b925050604084013590509250925092565b600060208284031215614537578081fd5b813567ffffffffffffffff81111561454d578182fd5b611b688482850161414b565b6000806040838503121561456b578182fd5b823567ffffffffffffffff811115614581578283fd5b61458d8582860161414b565b92505060208301356142fc81615111565b6000806000606084860312156145b2578081fd5b833567ffffffffffffffff8111156145c8578182fd5b6145d48682870161414b565b93505060208401356145e581615111565b915060408401356145f581615111565b809150509250925092565b60006020808385031215614612578182fd5b825167ffffffffffffffff811115614628578283fd5b8301601f81018513614638578283fd5b8051614646614089826150a8565b8181528381019083850185840285018601891015614662578687fd5b8694505b83851015614684578051835260019490940193918501918501614666565b50979650505050505050565b6000806000606084860312156146a4578081fd5b83356146af81615111565b9250602084013567ffffffffffffffff808211156146cb578283fd5b6146d78783880161414b565b935060408601359150808211156146ec578283fd5b50614443868287016141bd565b60008060006060848603121561470d578081fd5b833561471881615111565b9250602084013567ffffffffffffffff811115614733578182fd5b6145158682870161414b565b600060208284031215614750578081fd5b81516126f581615164565b600080828403608081121561476e578283fd5b835161477981615164565b925060607fffffffffffffffffffffffffffffffffffffffffffffffffffffffffffffffe0820112156147aa578182fd5b506147b56060615081565b60208401516147c381615111565b815260408401516147d381615136565b602082015260608401516147e681615136565b6040820152919491935090915050565b60008060008084860360c081121561480c578283fd5b6060811215614819578283fd5b506148246060615081565b853561482f81615111565b8152602086013561483f81615136565b6020820152604086013561485281615136565b60408201529350606085013561486781615164565b9250608085013561487781615164565b915060a085013567ffffffffffffffff811115614362578182fd5b6000602082840312156148a3578081fd5b815162ffffff811681146126f5578182fd5b6000602082840312156148c6578081fd5b5051919050565b600080600080608085870312156148e2578182fd5b8451935060208086015167ffffffffffffffff80821115614901578485fd5b818801915088601f830112614914578485fd5b8151614922614089826150a8565b81815284810190848601868402860187018d101561493e578889fd5b8895505b83861015614968576149548d8261428b565b835260019590950194918601918601614942565b5060408b01519098509450505080831115614981578485fd5b505061498f8782880161421b565b606096909601519497939650505050565b6000815180845260208085019450808401835b838110156149cf578151875295820195908201906001016149b3565b509495945050505050565b600081518084526149f28160208601602086016150e1565b601f017fffffffffffffffffffffffffffffffffffffffffffffffffffffffffffffffe0169290920160200192915050565b805173ffffffffffffffffffffffffffffffffffffffff1682526020808201517fffffffff000000000000000000000000000000000000000000000000000000009081169184019190915260409182015116910152565b600081518352602082015160406020850152611b6860408501826149da565b6000828483379101908152919050565b60008251614abc8184602087016150e1565b9190910192915050565b73ffffffffffffffffffffffffffffffffffffffff91909116815260200190565b73ffffffffffffffffffffffffffffffffffffffff92831681529116602082015260400190565b600073ffffffffffffffffffffffffffffffffffffffff80871683528086166020840152808516604084015250608060608301526137e860808301846149a0565b73ffffffffffffffffffffffffffffffffffffffff9384168152919092166020820152604081019190915260600190565b6000602080830181845280855180835260408601915060408482028701019250838701855b82811015614c1f578785037fffffffffffffffffffffffffffffffffffffffffffffffffffffffffffffffc0018452815180518087529087019087870190895b81811015614c0957614bf784516150c8565b83529289019291890191600101614be5565b5090965050509285019290850190600101614ba5565b5092979650505050505050565b60006060820160608352808651808352608085019150602092506080838202860101838901855b83811015614c9f577fffffffffffffffffffffffffffffffffffffffffffffffffffffffffffffff80888403018552614c8d8383516149da565b94860194925090850190600101614c53565b505085810384870152614cb281896149a0565b935050505082810360408401526137e881856149a0565b60208082528251828201819052600091906040908185019080840286018301878501865b83811015614d4e577fffffffffffffffffffffffffffffffffffffffffffffffffffffffffffffffc089840301855281518051878552614d2f888601826149da565b9189015115159489019490945294870194925090860190600101614ced565b509098975050505050505050565b6000602082526126f560208301846149a0565b901515815260200190565b600060408252614d8d60408301856149da565b90508260208301529392505050565b73ffffffffffffffffffffffffffffffffffffffff938416815291909216602082015262ffffff909116604082015260600190565b6060810160088510614ddf57fe5b938152602081019290925260409091015290565b600f93840b81529190920b6020820152604081019190915260600190565b600f83900b8152608081016126f56020830184614a24565b60208082526025908201527f455243323042726964676553616d706c65722f494e56414c49445f544f4b454e60408201527f5f50414952000000000000000000000000000000000000000000000000000000606082015260800190565b60208082526025908201527f556e6973776170563353616d706c65722f696e76616c69642070617468206c6560408201527f6e67746873000000000000000000000000000000000000000000000000000000606082015260800190565b6020808252602e908201527f556e6973776170563353616d706c65722f756e737570706f7274656420746f6b60408201527f656e2070617468206c656e677468000000000000000000000000000000000000606082015260800190565b6000614f4c8287614a24565b84600f0b606083015283600f0b608083015260c060a08301526137e860c08301846149a0565b600060608252614f856060830186614a7b565b8281036020840152614f978186614a7b565b905082810360408401526137e881856149a0565b90815260200190565b60006040820184835260206040818501528185518084526060860191508287019350845b8181101561500a57845173ffffffffffffffffffffffffffffffffffffffff1683529383019391830191600101614fd8565b5090979650505050505050565b60008083357fffffffffffffffffffffffffffffffffffffffffffffffffffffffffffffffe184360301811261504b578283fd5b83018035915067ffffffffffffffff821115615065578283fd5b60200191503681900382131561507a57600080fd5b9250929050565b60405181810167ffffffffffffffff811182821017156150a057600080fd5b604052919050565b600067ffffffffffffffff8211156150be578081fd5b5060209081020190565b73ffffffffffffffffffffffffffffffffffffffff1690565b60005b838110156150fc5781810151838201526020016150e4565b8381111561510b576000848401525b50505050565b73ffffffffffffffffffffffffffffffffffffffff8116811461513357600080fd5b50565b7fffffffff000000000000000000000000000000000000000000000000000000008116811461513357600080fd5b80600f0b811461513357600080fdfea2646970667358221220e005768fad9233af32395bea259947afd33e01fdd8c93d60a8b08276ec29b3ff64736f6c634300060c0033",
  "devdoc": {
    "kind": "dev",
    "methods": {
      "batchCall(bytes[])": {
        "details": "Call multiple public functions on this contract in a single transaction.",
        "params": {
          "callDatas": "ABI-encoded call data for each function call."
        },
        "returns": {
          "callResults": "ABI-encoded results data for each call."
        }
      },
      "sampleBuysFromCurve((address,bytes4,bytes4),int128,int128,uint256[])": {
        "details": "Sample buy quotes from Curve.",
        "params": {
          "curveInfo": "Curve information specific to this token pair.",
          "fromTokenIdx": "Index of the taker token (what to sell).",
          "makerTokenAmounts": "Maker token buy amount for each sample.",
          "toTokenIdx": "Index of the maker token (what to buy)."
        },
        "returns": {
          "takerTokenAmounts": "Taker amounts sold at each maker token         amount."
        }
      },
      "sampleBuysFromMStable(address,address,address,uint256[])": {
        "details": "Sample buy quotes from MStable contract",
        "params": {
          "makerToken": "Address of the maker token (what to buy).",
          "makerTokenAmounts": "Maker token buy amount for each sample.",
          "router": "Address of the mStable contract",
          "takerToken": "Address of the taker token (what to sell)."
        },
        "returns": {
          "takerTokenAmounts": "Taker amounts sold at each maker token         amount."
        }
      },
      "sampleBuysFromUniswap(address,address,address,uint256[])": {
        "details": "Sample buy quotes from Uniswap.",
        "params": {
          "makerToken": "Address of the maker token (what to buy).",
          "makerTokenAmounts": "Maker token sell amount for each sample.",
          "takerToken": "Address of the taker token (what to sell)."
        },
        "returns": {
          "takerTokenAmounts": "Taker amounts sold at each maker token         amount."
        }
      },
      "sampleBuysFromUniswapV2(address,address[],uint256[])": {
        "details": "Sample buy quotes from UniswapV2.",
        "params": {
          "makerTokenAmounts": "Maker token buy amount for each sample.",
          "path": "Token route. Should be takerToken -> makerToken.",
          "router": "Router to look up tokens and amounts"
        },
        "returns": {
          "takerTokenAmounts": "Taker amounts sold at each maker token         amount."
        }
      },
      "sampleBuysFromUniswapV3(address,address[],uint256[])": {
        "details": "Sample buy quotes from UniswapV3.",
        "params": {
          "makerTokenAmounts": "Maker token buy amount for each sample.",
          "path": "Token route. Should be takerToken -> makerToken (at most two hops).",
          "quoter": "UniswapV3 Quoter contract."
        },
        "returns": {
          "takerTokenAmounts": "Taker amounts sold at each maker token amount.",
          "uniswapGasUsed": "Estimated amount of gas used",
          "uniswapPaths": "The encoded uniswap path for each sample."
        }
      },
      "sampleSellsFromCurve((address,bytes4,bytes4),int128,int128,uint256[])": {
        "details": "Sample sell quotes from Curve.",
        "params": {
          "curveInfo": "Curve information specific to this token pair.",
          "fromTokenIdx": "Index of the taker token (what to sell).",
          "takerTokenAmounts": "Taker token sell amount for each sample.",
          "toTokenIdx": "Index of the maker token (what to buy)."
        },
        "returns": {
          "makerTokenAmounts": "Maker amounts bought at each taker token         amount."
        }
      },
      "sampleSellsFromMStable(address,address,address,uint256[])": {
        "details": "Sample sell quotes from the mStable contract",
        "params": {
          "makerToken": "Address of the maker token (what to buy).",
          "router": "Address of the mStable contract",
          "takerToken": "Address of the taker token (what to sell).",
          "takerTokenAmounts": "Taker token sell amount for each sample."
        },
        "returns": {
          "makerTokenAmounts": "Maker amounts bought at each taker token         amount."
        }
      },
      "sampleSellsFromUniswap(address,address,address,uint256[])": {
        "details": "Sample sell quotes from Uniswap.",
        "params": {
          "makerToken": "Address of the maker token (what to buy).",
          "router": "Address of the Uniswap Router",
          "takerToken": "Address of the taker token (what to sell).",
          "takerTokenAmounts": "Taker token sell amount for each sample."
        },
        "returns": {
          "makerTokenAmounts": "Maker amounts bought at each taker token         amount."
        }
      },
      "sampleSellsFromUniswapV2(address,address[],uint256[])": {
        "details": "Sample sell quotes from UniswapV2.",
        "params": {
          "path": "Token route. Should be takerToken -> makerToken",
          "router": "Router to look up tokens and amounts",
          "takerTokenAmounts": "Taker token sell amount for each sample."
        },
        "returns": {
          "makerTokenAmounts": "Maker amounts bought at each taker token         amount."
        }
      },
      "sampleSellsFromUniswapV3(address,address[],uint256[])": {
        "details": "Sample sell quotes from UniswapV3.",
        "params": {
          "path": "Token route. Should be takerToken -> makerToken (at most two hops).",
          "quoter": "UniswapV3 Quoter contract.",
          "takerTokenAmounts": "Taker token sell amount for each sample."
        },
        "returns": {
          "makerTokenAmounts": "Maker amounts bought at each taker token amount.",
          "uniswapGasUsed": "Estimated amount of gas used",
          "uniswapPaths": "The encoded uniswap path for each sample."
        }
      }
    },
    "version": 1
  },
  "userdoc": {
    "kind": "user",
    "methods": {},
    "version": 1
  },
  "storageLayout": {
    "storage": [],
    "types": null
  }
}