{
  "address": "0x23E4Fe8bE32d03190dcfa8056c0deacf27284847",
  "abi": [
    {
      "inputs": [
        {
          "internalType": "address",
          "name": "zeroExAddress",
          "type": "address"
        }
      ],
      "stateMutability": "nonpayable",
      "type": "constructor"
    },
    {
      "anonymous": false,
      "inputs": [
        {
          "indexed": false,
          "internalType": "bytes32",
          "name": "hash",
          "type": "bytes32"
        },
        {
          "indexed": true,
          "internalType": "bytes4",
          "name": "selector",
          "type": "bytes4"
        },
        {
          "indexed": false,
          "internalType": "address",
          "name": "signer",
          "type": "address"
        },
        {
          "indexed": false,
          "internalType": "address",
          "name": "sender",
          "type": "address"
        }
      ],
      "name": "MetaTransactionExecuted",
      "type": "event"
    },
    {
      "inputs": [],
      "name": "EIP712_DOMAIN_SEPARATOR",
      "outputs": [
        {
          "internalType": "bytes32",
          "name": "",
          "type": "bytes32"
        }
      ],
      "stateMutability": "view",
      "type": "function"
    },
    {
      "inputs": [],
      "name": "FEATURE_NAME",
      "outputs": [
        {
          "internalType": "string",
          "name": "",
          "type": "string"
        }
      ],
      "stateMutability": "view",
      "type": "function"
    },
    {
      "inputs": [],
      "name": "FEATURE_VERSION",
      "outputs": [
        {
          "internalType": "uint256",
          "name": "",
          "type": "uint256"
        }
      ],
      "stateMutability": "view",
      "type": "function"
    },
    {
      "inputs": [],
      "name": "MTX_EIP712_TYPEHASH",
      "outputs": [
        {
          "internalType": "bytes32",
          "name": "",
          "type": "bytes32"
        }
      ],
      "stateMutability": "view",
      "type": "function"
    },
    {
      "inputs": [
        {
          "components": [
            {
              "internalType": "address payable",
              "name": "signer",
              "type": "address"
            },
            {
              "internalType": "address",
              "name": "sender",
              "type": "address"
            },
            {
              "internalType": "uint256",
              "name": "minGasPrice",
              "type": "uint256"
            },
            {
              "internalType": "uint256",
              "name": "maxGasPrice",
              "type": "uint256"
            },
            {
              "internalType": "uint256",
              "name": "expirationTimeSeconds",
              "type": "uint256"
            },
            {
              "internalType": "uint256",
              "name": "salt",
              "type": "uint256"
            },
            {
              "internalType": "bytes",
              "name": "callData",
              "type": "bytes"
            },
            {
              "internalType": "uint256",
              "name": "value",
              "type": "uint256"
            },
            {
              "internalType": "contract IERC20TokenV06",
              "name": "feeToken",
              "type": "address"
            },
            {
              "internalType": "uint256",
              "name": "feeAmount",
              "type": "uint256"
            }
          ],
          "internalType": "struct IMetaTransactionsFeature.MetaTransactionData[]",
          "name": "mtxs",
          "type": "tuple[]"
        },
        {
          "components": [
            {
              "internalType": "enum LibSignature.SignatureType",
              "name": "signatureType",
              "type": "uint8"
            },
            {
              "internalType": "uint8",
              "name": "v",
              "type": "uint8"
            },
            {
              "internalType": "bytes32",
              "name": "r",
              "type": "bytes32"
            },
            {
              "internalType": "bytes32",
              "name": "s",
              "type": "bytes32"
            }
          ],
          "internalType": "struct LibSignature.Signature[]",
          "name": "signatures",
          "type": "tuple[]"
        }
      ],
      "name": "batchExecuteMetaTransactions",
      "outputs": [
        {
          "internalType": "bytes[]",
          "name": "returnResults",
          "type": "bytes[]"
        }
      ],
      "stateMutability": "payable",
      "type": "function"
    },
    {
      "inputs": [
        {
          "components": [
            {
              "internalType": "address payable",
              "name": "signer",
              "type": "address"
            },
            {
              "internalType": "address",
              "name": "sender",
              "type": "address"
            },
            {
              "internalType": "uint256",
              "name": "minGasPrice",
              "type": "uint256"
            },
            {
              "internalType": "uint256",
              "name": "maxGasPrice",
              "type": "uint256"
            },
            {
              "internalType": "uint256",
              "name": "expirationTimeSeconds",
              "type": "uint256"
            },
            {
              "internalType": "uint256",
              "name": "salt",
              "type": "uint256"
            },
            {
              "internalType": "bytes",
              "name": "callData",
              "type": "bytes"
            },
            {
              "internalType": "uint256",
              "name": "value",
              "type": "uint256"
            },
            {
              "internalType": "contract IERC20TokenV06",
              "name": "feeToken",
              "type": "address"
            },
            {
              "internalType": "uint256",
              "name": "feeAmount",
              "type": "uint256"
            }
          ],
          "internalType": "struct IMetaTransactionsFeature.MetaTransactionData",
          "name": "mtx",
          "type": "tuple"
        },
        {
          "components": [
            {
              "internalType": "enum LibSignature.SignatureType",
              "name": "signatureType",
              "type": "uint8"
            },
            {
              "internalType": "uint8",
              "name": "v",
              "type": "uint8"
            },
            {
              "internalType": "bytes32",
              "name": "r",
              "type": "bytes32"
            },
            {
              "internalType": "bytes32",
              "name": "s",
              "type": "bytes32"
            }
          ],
          "internalType": "struct LibSignature.Signature",
          "name": "signature",
          "type": "tuple"
        }
      ],
      "name": "executeMetaTransaction",
      "outputs": [
        {
          "internalType": "bytes",
          "name": "returnResult",
          "type": "bytes"
        }
      ],
      "stateMutability": "payable",
      "type": "function"
    },
    {
      "inputs": [
        {
          "components": [
            {
              "internalType": "address payable",
              "name": "signer",
              "type": "address"
            },
            {
              "internalType": "address",
              "name": "sender",
              "type": "address"
            },
            {
              "internalType": "uint256",
              "name": "minGasPrice",
              "type": "uint256"
            },
            {
              "internalType": "uint256",
              "name": "maxGasPrice",
              "type": "uint256"
            },
            {
              "internalType": "uint256",
              "name": "expirationTimeSeconds",
              "type": "uint256"
            },
            {
              "internalType": "uint256",
              "name": "salt",
              "type": "uint256"
            },
            {
              "internalType": "bytes",
              "name": "callData",
              "type": "bytes"
            },
            {
              "internalType": "uint256",
              "name": "value",
              "type": "uint256"
            },
            {
              "internalType": "contract IERC20TokenV06",
              "name": "feeToken",
              "type": "address"
            },
            {
              "internalType": "uint256",
              "name": "feeAmount",
              "type": "uint256"
            }
          ],
          "internalType": "struct IMetaTransactionsFeature.MetaTransactionData",
          "name": "mtx",
          "type": "tuple"
        }
      ],
      "name": "getMetaTransactionExecutedBlock",
      "outputs": [
        {
          "internalType": "uint256",
          "name": "blockNumber",
          "type": "uint256"
        }
      ],
      "stateMutability": "view",
      "type": "function"
    },
    {
      "inputs": [
        {
          "components": [
            {
              "internalType": "address payable",
              "name": "signer",
              "type": "address"
            },
            {
              "internalType": "address",
              "name": "sender",
              "type": "address"
            },
            {
              "internalType": "uint256",
              "name": "minGasPrice",
              "type": "uint256"
            },
            {
              "internalType": "uint256",
              "name": "maxGasPrice",
              "type": "uint256"
            },
            {
              "internalType": "uint256",
              "name": "expirationTimeSeconds",
              "type": "uint256"
            },
            {
              "internalType": "uint256",
              "name": "salt",
              "type": "uint256"
            },
            {
              "internalType": "bytes",
              "name": "callData",
              "type": "bytes"
            },
            {
              "internalType": "uint256",
              "name": "value",
              "type": "uint256"
            },
            {
              "internalType": "contract IERC20TokenV06",
              "name": "feeToken",
              "type": "address"
            },
            {
              "internalType": "uint256",
              "name": "feeAmount",
              "type": "uint256"
            }
          ],
          "internalType": "struct IMetaTransactionsFeature.MetaTransactionData",
          "name": "mtx",
          "type": "tuple"
        }
      ],
      "name": "getMetaTransactionHash",
      "outputs": [
        {
          "internalType": "bytes32",
          "name": "mtxHash",
          "type": "bytes32"
        }
      ],
      "stateMutability": "view",
      "type": "function"
    },
    {
      "inputs": [
        {
          "internalType": "bytes32",
          "name": "mtxHash",
          "type": "bytes32"
        }
      ],
      "name": "getMetaTransactionHashExecutedBlock",
      "outputs": [
        {
          "internalType": "uint256",
          "name": "blockNumber",
          "type": "uint256"
        }
      ],
      "stateMutability": "view",
      "type": "function"
    },
    {
      "inputs": [],
      "name": "migrate",
      "outputs": [
        {
          "internalType": "bytes4",
          "name": "success",
          "type": "bytes4"
        }
      ],
      "stateMutability": "nonpayable",
      "type": "function"
    }
  ],
  "transactionHash": "0xf22d55593821f4453e3ae6346bd8d6b8b3d832e99cfb330802f41bc5c70660f0",
  "args": [
    "0xEcA6055ac01E717cEF70b8C6fC5F9ca32Cb4118a"
  ],
  "numDeployments": 1,
  "solcInputHash": "d824bfd18a929a7d770611c578d2def3",
  "bytecode": "0x61010060405262000014600160028162000116565b60c0527fe866282978e74dc892efa3621df30a058ca4d374a338824c0b89f1dfdcb0ea0460e0523480156200004857600080fd5b5060405162002e0238038062002e028339810160408190526200006b9162000148565b3060601b60805260405181904690620000f1907f8b73c3c69bb8fe3d512ecc4cf759cc79239f7b179b0ffacaa9a75d522b39400f907f9e5dae0addaf20578aeb5d70341d092b53b4e14480ac5726438fd436df7ba427907f06c015bd22b4c69690933c1058878ebdfef31f9aaae40bbe86d8a09fe1b2972c908590879060200162000178565b60408051601f19818403018152919052805160209091012060a05250620001a4915050565b6bffffffff0000000000000000604084901b1667ffffffff00000000602084901b161763ffffffff8216179392505050565b6000602082840312156200015a578081fd5b81516001600160a01b038116811462000171578182fd5b9392505050565b9485526020850193909352604084019190915260608301526001600160a01b0316608082015260a00190565b60805160601c60a05160c05160e051612c1b620001e7600039806104ac52806106bb5250806101e45250806106df5280610ae7525080610a865250612c1b6000f3fe6080604052600436106100b15760003560e01c80638fd3ab8011610069578063c5579ec81161004e578063c5579ec814610198578063d036092d146101b8578063dab400f3146101cd576100b1565b80638fd3ab8014610156578063ae55049714610178576100b1565b80633fb2da381161009a5780633fb2da38146101015780636ae4b4f71461012157806372d17d0314610136576100b1565b8063031b905c146100b65780633d61ed3e146100e1575b600080fd5b3480156100c257600080fd5b506100cb6101e2565b6040516100d8919061250d565b60405180910390f35b6100f46100ef3660046121d2565b610206565b6040516100d89190612707565b34801561010d57600080fd5b506100cb61011c366004612197565b610347565b34801561012d57600080fd5b506100f461035d565b34801561014257600080fd5b506100cb610151366004611f67565b610396565b34801561016257600080fd5b5061016b6103b1565b6040516100d89190612660565b34801561018457600080fd5b506100cb610193366004612197565b6104a5565b6101ab6101a6366004611eb6565b61053b565b6040516100d8919061248f565b3480156101c457600080fd5b506100cb6106b9565b3480156101d957600080fd5b506100cb6106dd565b7f000000000000000000000000000000000000000000000000000000000000000081565b606060016000610214610701565b8054909150828116156102765761027661027161026b600080368080601f01602080910402602001604051908101604052809392919081815260200183838082843760009201919091525092939250506107149050565b85610760565b61081b565b82178155344703610285611976565b33815260408101879052610298876104a5565b6020820152606081018690526102ad81610823565b94505060006102bc3447610a2b565b905080156102f357604051339082156108fc029083906000818181858888f193505050501580156102f1573d6000803e3d6000fd5b505b5047811115610337576040517f08c379a000000000000000000000000000000000000000000000000000000000815260040161032e9061279b565b60405180910390fd5b5080549119909116905592915050565b6000610355610151836104a5565b90505b919050565b6040518060400160405280601081526020017f4d6574615472616e73616374696f6e730000000000000000000000000000000081525081565b60006103a0610a43565b600092835260205250604090205490565b60006103dc7f3d61ed3e00000000000000000000000000000000000000000000000000000000610a50565b6104057fc5579ec800000000000000000000000000000000000000000000000000000000610a50565b61042e7f3fb2da3800000000000000000000000000000000000000000000000000000000610a50565b6104577f72d17d0300000000000000000000000000000000000000000000000000000000610a50565b6104807fae55049700000000000000000000000000000000000000000000000000000000610a50565b507f2c64c5ef0000000000000000000000000000000000000000000000000000000090565b60006103557f0000000000000000000000000000000000000000000000000000000000000000836000015184602001518560400151866060015187608001518860a001518960c00151805190602001208a60e001518b61010001518c61012001516040516020016105209b9a99989796959493929190612542565b60405160208183030381529060405280519060200120610ae3565b606060016000610549610701565b8054909150828116156105a0576105a061027161026b600080368080601f01602080910402602001604051908101604052809392919081815260200183838082843760009201919091525092939250506107149050565b821781558351855134470391146105c0576105c061027187518751610b35565b855167ffffffffffffffff811180156105d857600080fd5b5060405190808252806020026020018201604052801561060c57816020015b60608152602001906001900390816105f75790505b50935060005b86518110156106ac57610623611976565b338152875188908390811061063457fe5b6020026020010151816040018190525061066088838151811061065357fe5b60200260200101516104a5565b6020820152865187908390811061067357fe5b6020026020010151816060018190525061068c81610823565b86838151811061069857fe5b602090810291909101015250600101610612565b5060006102bc3447610a2b565b7f000000000000000000000000000000000000000000000000000000000000000081565b7f000000000000000000000000000000000000000000000000000000000000000081565b60008061070e6006610b6b565b92915050565b60008160040183511015610735576107356102716003855185600401610b86565b5001602001517fffffffff000000000000000000000000000000000000000000000000000000001690565b60607fc7a7103e21e41a5c3158b3028d34cb9bb9593b10b1892f49d7187efa71219d4e83836040516024016107969291906126d5565b604080517fffffffffffffffffffffffffffffffffffffffffffffffffffffffffffffffe08184030181529190526020810180517bffffffffffffffffffffffffffffffffffffffffffffffffffffffff167fffffffff0000000000000000000000000000000000000000000000000000000090931692909217909152905092915050565b805160208201fd5b606061082e82610c2b565b43610837610a43565b60208085015160009081529190526040908190209190915582015161012001511561087c576040820151610100810151815184516101209093015161087c9390610e0c565b604082015160c00151610890906000610714565b7fffffffff0000000000000000000000000000000000000000000000000000000016608083018190527f415565b00000000000000000000000000000000000000000000000000000000014156108f0576108e982610f0b565b90506109b3565b60808201517fffffffff00000000000000000000000000000000000000000000000000000000167ff6274f66000000000000000000000000000000000000000000000000000000001415610947576108e982611140565b60808201517fffffffff00000000000000000000000000000000000000000000000000000000167faa77476c00000000000000000000000000000000000000000000000000000000141561099e576108e982611264565b6109b3610271836020015184608001516112f7565b81608001517bffffffffffffffffffffffffffffffffffffffffffffffffffffffff19167f7f4fe3ff8ae440e1570c558da08440b26f89fb1c1f2910cd91ca6452955f121a8360200151846040015160000151856040015160200151604051610a1e93929190612516565b60405180910390a2919050565b6000818310610a3a5781610a3c565b825b9392505050565b60008061070e6005610b6b565b6040517f6eb224cb0000000000000000000000000000000000000000000000000000000081523090636eb224cb90610aae9084907f00000000000000000000000000000000000000000000000000000000000000009060040161268d565b600060405180830381600087803b158015610ac857600080fd5b505af1158015610adc573d6000803e3d6000fd5b5050505050565b60007f000000000000000000000000000000000000000000000000000000000000000082604051602001610b18929190612459565b604051602081830303815290604052805190602001209050919050565b60607f52974c3a86e985173f72e2fb84ba2bfca8fb3b7c5031eb8077ebd59458abf2a48383604051602401610796929190612603565b6000608082600a811115610b7b57fe5b600101901b92915050565b6060632800659560e01b848484604051602401610ba59392919061271a565b604080517fffffffffffffffffffffffffffffffffffffffffffffffffffffffffffffffe08184030181529190526020810180517bffffffffffffffffffffffffffffffffffffffffffffffffffffffff167fffffffff000000000000000000000000000000000000000000000000000000009093169290921790915290509392505050565b60408101516020015173ffffffffffffffffffffffffffffffffffffffff1615801590610c905750806000015173ffffffffffffffffffffffffffffffffffffffff1681604001516020015173ffffffffffffffffffffffffffffffffffffffff1614155b15610cb357610cb36102718260200151836000015184604001516020015161132d565b4281604001516080015111610cdc57610cdc610271826020015142846040015160800151611365565b3a8160400151604001511180610cf957503a816040015160600151105b15610d2157610d2161027182602001513a84604001516040015185604001516060015161139d565b4760a08201819052604082015160e001511115610d5657610d5661027182602001518360a00151846040015160e0015161145e565b80604001516000015173ffffffffffffffffffffffffffffffffffffffff16610d8782602001518360600151611496565b73ffffffffffffffffffffffffffffffffffffffff1614610dcd57610dcd61027160048360200151846040015160000151604051806020016040528060008152506115e7565b610dd5610a43565b6020808301516000908152919052604090205460c0820181905215610e0957610e0961027182602001518360c00151611621565b50565b73ffffffffffffffffffffffffffffffffffffffff8416301415610e5c576040517f08c379a000000000000000000000000000000000000000000000000000000000815260040161032e906127d0565b6040517f23b872dd00000000000000000000000000000000000000000000000000000000815273ffffffffffffffffffffffffffffffffffffffff8416600482015273ffffffffffffffffffffffffffffffffffffffff83166024820152816044820152602081606483600073ffffffffffffffffffffffffffffffffffffffff8a165af13d60018351146020821015168115178216915081610f0257806000843e8083fd5b50505050505050565b6060610f156119bd565b604083015160c0015151606090601c0167ffffffffffffffff81118015610f3b57600080fd5b506040519080825280601f01601f191660200182016040528015610f66576020820181803683370190505b5090506060846040015160c00151905060a081511015610f8257fe5b602082810152805160248201906040840190610fc390829084907ffffffffffffffffffffffffffffffffffffffffffffffffffffffffffffffffc01611657565b83806020019051810190610fd79190611f7f565b945050505050610a3c8360200151638aa6539b60e01b60405180610100016040528087604001516000015173ffffffffffffffffffffffffffffffffffffffff168152602001856000015173ffffffffffffffffffffffffffffffffffffffff168152602001856020015173ffffffffffffffffffffffffffffffffffffffff16815260200185604001518152602001856060015181526020018560800151815260200160001515815260200187604001516000015173ffffffffffffffffffffffffffffffffffffffff168152506040516024016110b69190612a3f565b604080517fffffffffffffffffffffffffffffffffffffffffffffffffffffffffffffffe08184030181529181526020820180517bffffffffffffffffffffffffffffffffffffffffffffffffffffffff167fffffffff00000000000000000000000000000000000000000000000000000000909416939093179092529086015160e00151611738565b606061114a611a18565b611152611a7c565b60006060611167866040015160c001516117c4565b90508080602001905181019061117d9190612075565b60208901516040808b015151905194985092965090945061125a9290917f414e4ccf00000000000000000000000000000000000000000000000000000000916111d091899189918991339060240161282d565b604080517fffffffffffffffffffffffffffffffffffffffffffffffffffffffffffffffe08184030181529181526020820180517bffffffffffffffffffffffffffffffffffffffffffffffffffffffff167fffffffff00000000000000000000000000000000000000000000000000000000909416939093179092529089015160e00151611738565b9695505050505050565b606061126e611aa5565b611276611a7c565b6000606061128b866040015160c001516117c4565b9050808060200190518101906112a1919061221f565b60208901516040808b015151905194985092965090945061125a9290917faa6b21cd00000000000000000000000000000000000000000000000000000000916111d091899189918991600090829060240161293e565b60607f547a32a328d8a78dbe9bf090fa60ba3d4d1c6833a592a2c942666ce3249c121083836040516024016107969291906125a8565b60607fa78002a166fcae5236d89e3ff35c53dadb775f7818de4a020714cba4bf360822848484604051602401610ba593929190612516565b60607fbea726efdf9868bbc5755dce9f13d585b3cf731177be75300d15bb8f5e286158848484604051602401610ba593929190612611565b60607f6fec11a99ebb0ff14b6648f609f57864dadeba8b29869c4df2b3b76894147849858585856040516024016113d79493929190612627565b604080517fffffffffffffffffffffffffffffffffffffffffffffffffffffffffffffffe08184030181529190526020810180517bffffffffffffffffffffffffffffffffffffffffffffffffffffffff167fffffffff00000000000000000000000000000000000000000000000000000000909316929092179091529050949350505050565b60607f0a5ade45208123132815e1591a1c7e64045fd006152f5e85d100aee42ba02c75848484604051602401610ba593929190612611565b60006114a28383611831565b6002825160048111156114b157fe5b141561151957600183836020015184604001518560600151604051600081526020016040526040516114e69493929190612642565b6020604051602081039080840390855afa158015611508573d6000803e3d6000fd5b5050506020604051035190506115be565b60038251600481111561152857fe5b14156115be5760007f19457468657265756d205369676e6564204d6573736167653a0a33320000000060005283601c52603c60002090506001818460200151856040015186606001516040516000815260200160405260405161158e9493929190612642565b6020604051602081039080840390855afa1580156115b0573d6000803e3d6000fd5b505050602060405103519150505b73ffffffffffffffffffffffffffffffffffffffff811661070e5761070e610271600585611908565b60607f4c7607a3ebba99c9acde0e2a04d88829f7001b63f028b796dda6ff02406ddad5858585856040516024016113d79493929190612758565b60607ffe251a07f3cbffd23c1c1db9ec776d259099c832333d99ef48cacfa93a4d7b328383604051602401610796929190612603565b602081101561169e578151835160208390036101000a7fffffffffffffffffffffffffffffffffffffffffffffffffffffffffffffffff0180199092169116178352611733565b828214156116ab57611733565b828211156116e55760208103905080820181840181515b828510156116dd5784518652602095860195909401936116c2565b905250611733565b60208103905080820181840183515b8186121561172e57825182527fffffffffffffffffffffffffffffffffffffffffffffffffffffffffffffffe092830192909101906116f4565b855250505b505050565b606060003073ffffffffffffffffffffffffffffffffffffffff168385604051611762919061243d565b60006040518083038185875af1925050503d806000811461179f576040519150601f19603f3d011682016040523d82523d6000602084013e6117a4565b606091505b5092509050806117bc576117bc61027186868561193e565b509392505050565b6060600482510367ffffffffffffffff811180156117e157600080fd5b506040519080825280601f01601f19166020018201604052801561180c576020820181803683370190505b50905060008060248401915060208301905061182a81838551611657565b5050919050565b60408101517ffffffffffffffffffffffffffffffffebaaedce6af48a03bbfd25e8cd0364141111580611888575060608101517f7fffffffffffffffffffffffffffffff5d576e7357a4501ddfe92f46681b20a111155b1561189b5761189b610271600584611908565b6000815160048111156118aa57fe5b14156118be576118be610271600384611908565b6001815160048111156118cd57fe5b14156118e1576118e1610271600084611908565b6004815160048111156118f057fe5b141561190457611904610271600284611908565b5050565b60607ff18f11f3027e735c758137924b262d4d3aff0037dcd785aca3c699fa05d960bd838360405160240161079692919061273c565b60607fa9f0c547643c02afed4cf2699e794bc383effca840eed62fddb64a15a4e55bc4848484604051602401610ba5939291906125d8565b6040805160e08101825260008082526020820152908101611995611af9565b81526020016119a2611a7c565b81526000602082018190526040820181905260609091015290565b6040518060a00160405280600073ffffffffffffffffffffffffffffffffffffffff168152602001600073ffffffffffffffffffffffffffffffffffffffff1681526020016000815260200160008152602001606081525090565b6040805161018081018252600080825260208201819052918101829052606081018290526080810182905260a0810182905260c0810182905260e0810182905261010081018290526101208101829052610140810182905261016081019190915290565b604080516080810190915280600081526000602082018190526040820181905260609091015290565b6040805161014081018252600080825260208201819052918101829052606081018290526080810182905260a0810182905260c0810182905260e08101829052610100810182905261012081019190915290565b604051806101400160405280600073ffffffffffffffffffffffffffffffffffffffff168152602001600073ffffffffffffffffffffffffffffffffffffffff168152602001600081526020016000815260200160008152602001600081526020016060815260200160008152602001600073ffffffffffffffffffffffffffffffffffffffff168152602001600081525090565b803561070e81612ba7565b805161070e81612ba7565b600082601f830112611bb4578081fd5b8135611bc7611bc282612b0a565b612ae3565b8181529150602080830190848101608080850287018301881015611bea57600080fd5b60005b85811015611c1157611bff8984611d2c565b85529383019391810191600101611bed565b50505050505092915050565b600082601f830112611c2d578081fd5b8135611c3b611bc282612b2a565b9150808252836020828501011115611c5257600080fd5b8060208401602084013760009082016020015292915050565b6000610140808385031215611c7e578182fd5b611c8781612ae3565b915050611c948383611b8e565b8152611ca38360208401611b8e565b602082015260408201356040820152606082013560608201526080820135608082015260a082013560a082015260c082013567ffffffffffffffff811115611cea57600080fd5b611cf684828501611c1d565b60c08301525060e082013560e0820152610100611d1584828501611b8e565b818301525061012080830135818301525092915050565b600060808284031215611d3d578081fd5b611d476080612ae3565b90508135611d5481612bc9565b81526020820135611d6481612bd6565b80602083015250604082013560408201526060820135606082015292915050565b600060808284031215611d96578081fd5b611da06080612ae3565b90508151611dad81612bc9565b81526020820151611dbd81612bd6565b80602083015250604082015160408201526060820151606082015292915050565b600060408284031215611def578081fd5b611df96040612ae3565b9050815163ffffffff81168114611e0f57600080fd5b8152602082015167ffffffffffffffff811115611e2b57600080fd5b8201601f81018413611e3c57600080fd5b8051611e4a611bc282612b2a565b818152856020838501011115611e5f57600080fd5b611e70826020830160208601612b77565b602084015250909392505050565b80516fffffffffffffffffffffffffffffffff8116811461070e57600080fd5b805167ffffffffffffffff8116811461070e57600080fd5b60008060408385031215611ec8578182fd5b823567ffffffffffffffff80821115611edf578384fd5b818501915085601f830112611ef2578384fd5b8135611f00611bc282612b0a565b81815260208082019190858101885b85811015611f3857611f268c8484358b0101611c6b565b85529382019390820190600101611f0f565b50919750880135945050505080821115611f50578283fd5b50611f5d85828601611ba4565b9150509250929050565b600060208284031215611f78578081fd5b5035919050565b60006020808385031215611f91578182fd5b825167ffffffffffffffff80821115611fa8578384fd5b9084019060a08287031215611fbb578384fd5b611fc560a0612ae3565b8251611fd081612ba7565b815282840151611fdf81612ba7565b808583015250604083015160408201526060830151606082015260808301518281111561200a578586fd5b80840193505086601f84011261201e578485fd5b8251915061202e611bc283612b0a565b82815284810190848601875b85811015612063576120518b8984518a0101611dde565b8452928701929087019060010161203a565b50506080830152509695505050505050565b600080600083850361022081121561208b578182fd5b6101808082121561209a578283fd5b6120a381612ae3565b91506120af8787611b99565b82526120be8760208801611b99565b60208301526120d08760408801611e7e565b60408301526120e28760608801611e7e565b60608301526120f48760808801611e7e565b60808301526121068760a08801611b99565b60a08301526121188760c08801611b99565b60c083015261212a8760e08801611b99565b60e083015261010061213e88828901611b99565b90830152610120868101519083015261014061215c88828901611e9e565b818401525061016080870151818401525081945061217c87828801611d85565b9350505061218e856102008601611e7e565b90509250925092565b6000602082840312156121a8578081fd5b813567ffffffffffffffff8111156121be578182fd5b6121ca84828501611c6b565b949350505050565b60008060a083850312156121e4578182fd5b823567ffffffffffffffff8111156121fa578283fd5b61220685828601611c6b565b9250506122168460208501611d2c565b90509250929050565b60008060008385036101e0811215612235578182fd5b61014080821215612244578283fd5b61224d81612ae3565b91506122598787611b99565b82526122688760208801611b99565b602083015261227a8760408801611e7e565b604083015261228c8760608801611e7e565b606083015261229e8760808801611b99565b60808301526122b08760a08801611b99565b60a08301526122c28760c08801611b99565b60c083015260e086015160e08301526101006122e088828901611e9e565b818401525061012080870151818401525081945061230087828801611d85565b9350505061218e856101c08601611e7e565b73ffffffffffffffffffffffffffffffffffffffff169052565b6000815180845260208085018081965082840281019150828601855b8581101561238c5782840389528151805163ffffffff16855285015160408686018190526123788187018361239f565b9a87019a9550505090840190600101612348565b5091979650505050505050565b15159052565b600081518084526123b7816020860160208601612b77565b601f017fffffffffffffffffffffffffffffffffffffffffffffffffffffffffffffffe0169290920160200192915050565b8051600581106123f557fe5b825260208181015160ff169083015260408082015190830152606090810151910152565b6fffffffffffffffffffffffffffffffff169052565b67ffffffffffffffff169052565b6000825161244f818460208701612b77565b9190910192915050565b7f190100000000000000000000000000000000000000000000000000000000000081526002810192909252602282015260420190565b6000602080830181845280855180835260408601915060408482028701019250838701855b82811015612500577fffffffffffffffffffffffffffffffffffffffffffffffffffffffffffffffc08886030184526124ee85835161239f565b945092850192908501906001016124b4565b5092979650505050505050565b90815260200190565b92835273ffffffffffffffffffffffffffffffffffffffff918216602084015216604082015260600190565b9a8b5273ffffffffffffffffffffffffffffffffffffffff998a1660208c015297891660408b015260608a0196909652608089019490945260a088019290925260c087015260e08601526101008501529091166101208301526101408201526101600190565b9182527fffffffff0000000000000000000000000000000000000000000000000000000016602082015260400190565b6000848252606060208301526125f1606083018561239f565b828103604084015261125a818561239f565b918252602082015260400190565b9283526020830191909152604082015260600190565b93845260208401929092526040830152606082015260800190565b93845260ff9290921660208401526040830152606082015260800190565b7fffffffff0000000000000000000000000000000000000000000000000000000091909116815260200190565b7fffffffff0000000000000000000000000000000000000000000000000000000092909216825273ffffffffffffffffffffffffffffffffffffffff16602082015260400190565b7fffffffff00000000000000000000000000000000000000000000000000000000929092168252602082015260400190565b600060208252610a3c602083018461239f565b606081016008851061272857fe5b938152602081019290925260409091015290565b6040810161274984612b6c565b82528260208301529392505050565b600061276386612b6c565b825284602083015273ffffffffffffffffffffffffffffffffffffffff841660408301526080606083015261125a608083018461239f565b6020808252818101527f4d6574615472616e73616374696f6e73466561747572652f4554485f4c45414b604082015260600190565b60208082526024908201527f466978696e546f6b656e5370656e6465722f43414e4e4f545f494e564f4b455f60408201527f53454c4600000000000000000000000000000000000000000000000000000000606082015260800190565b600061026082019050612841828851612312565b60208701516128536020840182612312565b5060408701516128666040840182612419565b5060608701516128796060840182612419565b50608087015161288c6080840182612419565b5060a087015161289f60a0840182612312565b5060c08701516128b260c0840182612312565b5060e08701516128c560e0840182612312565b50610100808801516128d982850182612312565b50506101208781015190830152610140808801516128f98285018261242f565b505061016087810151908301526129146101808301876123e9565b612922610200830186612419565b612930610220830185612312565b61125a610240830184612312565b600061024082019050612952828951612312565b60208801516129646020840182612312565b5060408801516129776040840182612419565b50606088015161298a6060840182612419565b50608088015161299d6080840182612312565b5060a08801516129b060a0840182612312565b5060c08801516129c360c0840182612312565b5060e088015160e0830152610100808901516129e18285018261242f565b505061012088810151908301526129fc6101408301886123e9565b612a0a6101c0830187612419565b612a186101e0830186612312565b612a26610200830185612399565b612a34610220830184612312565b979650505050505050565b60006020825273ffffffffffffffffffffffffffffffffffffffff808451166020840152806020850151166040840152506040830151612a826060840182612312565b5060608301516080830152608083015160a083015260a08301516101008060c0850152612ab361012085018361232c565b915060c0850151612ac760e0860182612399565b5060e0850151612ad982860182612312565b5090949350505050565b60405181810167ffffffffffffffff81118282101715612b0257600080fd5b604052919050565b600067ffffffffffffffff821115612b20578081fd5b5060209081020190565b600067ffffffffffffffff821115612b40578081fd5b50601f017fffffffffffffffffffffffffffffffffffffffffffffffffffffffffffffffe01660200190565b806006811061035857fe5b60005b83811015612b92578181015183820152602001612b7a565b83811115612ba1576000848401525b50505050565b73ffffffffffffffffffffffffffffffffffffffff81168114610e0957600080fd5b60058110610e0957600080fd5b60ff81168114610e0957600080fdfea2646970667358221220773355a4b54d0f1474dd5ee26193a504afee607c349b6ab16e8ecfd77daf504064736f6c634300060c0033",
  "devdoc": {
    "details": "MetaTransactions feature.",
    "kind": "dev",
    "methods": {
      "batchExecuteMetaTransactions((address,address,uint256,uint256,uint256,uint256,bytes,uint256,address,uint256)[],(uint8,uint8,bytes32,bytes32)[])": {
        "details": "Execute multiple meta-transactions.",
        "params": {
          "mtxs": "The meta-transactions.",
          "signatures": "The signature by each respective `mtx.signer`."
        },
        "returns": {
          "returnResults": "The ABI-encoded results of the underlying calls."
        }
      },
      "executeMetaTransaction((address,address,uint256,uint256,uint256,uint256,bytes,uint256,address,uint256),(uint8,uint8,bytes32,bytes32))": {
        "details": "Execute a single meta-transaction.",
        "params": {
          "mtx": "The meta-transaction.",
          "signature": "The signature by `mtx.signer`."
        },
        "returns": {
          "returnResult": "The ABI-encoded result of the underlying call."
        }
      },
      "getMetaTransactionExecutedBlock((address,address,uint256,uint256,uint256,uint256,bytes,uint256,address,uint256))": {
        "details": "Get the block at which a meta-transaction has been executed.",
        "params": {
          "mtx": "The meta-transaction."
        },
        "returns": {
          "blockNumber": "The block height when the meta-transactioin was executed."
        }
      },
      "getMetaTransactionHash((address,address,uint256,uint256,uint256,uint256,bytes,uint256,address,uint256))": {
        "details": "Get the EIP712 hash of a meta-transaction.",
        "params": {
          "mtx": "The meta-transaction."
        },
        "returns": {
          "mtxHash": "The EIP712 hash of `mtx`."
        }
      },
      "getMetaTransactionHashExecutedBlock(bytes32)": {
        "details": "Get the block at which a meta-transaction hash has been executed.",
        "params": {
          "mtxHash": "The meta-transaction hash."
        },
        "returns": {
          "blockNumber": "The block height when the meta-transactioin was executed."
        }
      },
      "migrate()": {
        "details": "Initialize and register this feature.      Should be delegatecalled by `Migrate.migrate()`.",
        "returns": {
          "success": "`LibMigrate.SUCCESS` on success."
        }
      }
    },
    "stateVariables": {
      "FEATURE_NAME": {
        "details": "Name of this feature."
      },
      "FEATURE_VERSION": {
        "details": "Version of this feature."
      },
      "MTX_EIP712_TYPEHASH": {
        "details": "EIP712 typehash of the `MetaTransactionData` struct."
      }
    },
    "version": 1
  },
  "userdoc": {
    "kind": "user",
    "methods": {},
    "version": 1
  },
  "storageLayout": {
    "storage": [],
    "types": null
  }
}