{
  "address": "0x4C4598690afBcdb3Dc10a90873E6385BeD2103DC",
  "abi": [
    {
      "inputs": [
        {
          "internalType": "address",
          "name": "zeroExAddress",
          "type": "address"
        },
        {
          "internalType": "contract IEtherTokenV06",
          "name": "weth",
          "type": "address"
        }
      ],
      "stateMutability": "nonpayable",
      "type": "constructor"
    },
    {
      "anonymous": false,
      "inputs": [
        {
          "indexed": false,
          "internalType": "bytes32",
          "name": "orderHash",
          "type": "bytes32"
        },
        {
          "indexed": false,
          "internalType": "address",
          "name": "maker",
          "type": "address"
        },
        {
          "indexed": false,
          "internalType": "address",
          "name": "taker",
          "type": "address"
        },
        {
          "indexed": false,
          "internalType": "address",
          "name": "makerToken",
          "type": "address"
        },
        {
          "indexed": false,
          "internalType": "address",
          "name": "takerToken",
          "type": "address"
        },
        {
          "indexed": false,
          "internalType": "uint128",
          "name": "makerTokenFilledAmount",
          "type": "uint128"
        },
        {
          "indexed": false,
          "internalType": "uint128",
          "name": "takerTokenFilledAmount",
          "type": "uint128"
        }
      ],
      "name": "OtcOrderFilled",
      "type": "event"
    },
    {
      "inputs": [],
      "name": "EIP712_DOMAIN_SEPARATOR",
      "outputs": [
        {
          "internalType": "bytes32",
          "name": "",
          "type": "bytes32"
        }
      ],
      "stateMutability": "view",
      "type": "function"
    },
    {
      "inputs": [],
      "name": "FEATURE_NAME",
      "outputs": [
        {
          "internalType": "string",
          "name": "",
          "type": "string"
        }
      ],
      "stateMutability": "view",
      "type": "function"
    },
    {
      "inputs": [],
      "name": "FEATURE_VERSION",
      "outputs": [
        {
          "internalType": "uint256",
          "name": "",
          "type": "uint256"
        }
      ],
      "stateMutability": "view",
      "type": "function"
    },
    {
      "inputs": [
        {
          "components": [
            {
              "internalType": "contract IERC20TokenV06",
              "name": "makerToken",
              "type": "address"
            },
            {
              "internalType": "contract IERC20TokenV06",
              "name": "takerToken",
              "type": "address"
            },
            {
              "internalType": "uint128",
              "name": "makerAmount",
              "type": "uint128"
            },
            {
              "internalType": "uint128",
              "name": "takerAmount",
              "type": "uint128"
            },
            {
              "internalType": "address",
              "name": "maker",
              "type": "address"
            },
            {
              "internalType": "address",
              "name": "taker",
              "type": "address"
            },
            {
              "internalType": "address",
              "name": "txOrigin",
              "type": "address"
            },
            {
              "internalType": "uint256",
              "name": "expiryAndNonce",
              "type": "uint256"
            }
          ],
          "internalType": "struct LibNativeOrder.OtcOrder",
          "name": "order",
          "type": "tuple"
        },
        {
          "components": [
            {
              "internalType": "enum LibSignature.SignatureType",
              "name": "signatureType",
              "type": "uint8"
            },
            {
              "internalType": "uint8",
              "name": "v",
              "type": "uint8"
            },
            {
              "internalType": "bytes32",
              "name": "r",
              "type": "bytes32"
            },
            {
              "internalType": "bytes32",
              "name": "s",
              "type": "bytes32"
            }
          ],
          "internalType": "struct LibSignature.Signature",
          "name": "makerSignature",
          "type": "tuple"
        },
        {
          "internalType": "uint128",
          "name": "takerTokenFillAmount",
          "type": "uint128"
        },
        {
          "internalType": "address",
          "name": "taker",
          "type": "address"
        },
        {
          "internalType": "bool",
          "name": "useSelfBalance",
          "type": "bool"
        },
        {
          "internalType": "address",
          "name": "recipient",
          "type": "address"
        }
      ],
      "name": "_fillOtcOrder",
      "outputs": [
        {
          "internalType": "uint128",
          "name": "takerTokenFilledAmount",
          "type": "uint128"
        },
        {
          "internalType": "uint128",
          "name": "makerTokenFilledAmount",
          "type": "uint128"
        }
      ],
      "stateMutability": "nonpayable",
      "type": "function"
    },
    {
      "inputs": [
        {
          "components": [
            {
              "internalType": "contract IERC20TokenV06",
              "name": "makerToken",
              "type": "address"
            },
            {
              "internalType": "contract IERC20TokenV06",
              "name": "takerToken",
              "type": "address"
            },
            {
              "internalType": "uint128",
              "name": "makerAmount",
              "type": "uint128"
            },
            {
              "internalType": "uint128",
              "name": "takerAmount",
              "type": "uint128"
            },
            {
              "internalType": "address",
              "name": "maker",
              "type": "address"
            },
            {
              "internalType": "address",
              "name": "taker",
              "type": "address"
            },
            {
              "internalType": "address",
              "name": "txOrigin",
              "type": "address"
            },
            {
              "internalType": "uint256",
              "name": "expiryAndNonce",
              "type": "uint256"
            }
          ],
          "internalType": "struct LibNativeOrder.OtcOrder[]",
          "name": "orders",
          "type": "tuple[]"
        },
        {
          "components": [
            {
              "internalType": "enum LibSignature.SignatureType",
              "name": "signatureType",
              "type": "uint8"
            },
            {
              "internalType": "uint8",
              "name": "v",
              "type": "uint8"
            },
            {
              "internalType": "bytes32",
              "name": "r",
              "type": "bytes32"
            },
            {
              "internalType": "bytes32",
              "name": "s",
              "type": "bytes32"
            }
          ],
          "internalType": "struct LibSignature.Signature[]",
          "name": "makerSignatures",
          "type": "tuple[]"
        },
        {
          "components": [
            {
              "internalType": "enum LibSignature.SignatureType",
              "name": "signatureType",
              "type": "uint8"
            },
            {
              "internalType": "uint8",
              "name": "v",
              "type": "uint8"
            },
            {
              "internalType": "bytes32",
              "name": "r",
              "type": "bytes32"
            },
            {
              "internalType": "bytes32",
              "name": "s",
              "type": "bytes32"
            }
          ],
          "internalType": "struct LibSignature.Signature[]",
          "name": "takerSignatures",
          "type": "tuple[]"
        },
        {
          "internalType": "bool[]",
          "name": "unwrapWeth",
          "type": "bool[]"
        }
      ],
      "name": "batchFillTakerSignedOtcOrders",
      "outputs": [
        {
          "internalType": "bool[]",
          "name": "successes",
          "type": "bool[]"
        }
      ],
      "stateMutability": "nonpayable",
      "type": "function"
    },
    {
      "inputs": [
        {
          "components": [
            {
              "internalType": "contract IERC20TokenV06",
              "name": "makerToken",
              "type": "address"
            },
            {
              "internalType": "contract IERC20TokenV06",
              "name": "takerToken",
              "type": "address"
            },
            {
              "internalType": "uint128",
              "name": "makerAmount",
              "type": "uint128"
            },
            {
              "internalType": "uint128",
              "name": "takerAmount",
              "type": "uint128"
            },
            {
              "internalType": "address",
              "name": "maker",
              "type": "address"
            },
            {
              "internalType": "address",
              "name": "taker",
              "type": "address"
            },
            {
              "internalType": "address",
              "name": "txOrigin",
              "type": "address"
            },
            {
              "internalType": "uint256",
              "name": "expiryAndNonce",
              "type": "uint256"
            }
          ],
          "internalType": "struct LibNativeOrder.OtcOrder",
          "name": "order",
          "type": "tuple"
        },
        {
          "components": [
            {
              "internalType": "enum LibSignature.SignatureType",
              "name": "signatureType",
              "type": "uint8"
            },
            {
              "internalType": "uint8",
              "name": "v",
              "type": "uint8"
            },
            {
              "internalType": "bytes32",
              "name": "r",
              "type": "bytes32"
            },
            {
              "internalType": "bytes32",
              "name": "s",
              "type": "bytes32"
            }
          ],
          "internalType": "struct LibSignature.Signature",
          "name": "makerSignature",
          "type": "tuple"
        },
        {
          "internalType": "uint128",
          "name": "takerTokenFillAmount",
          "type": "uint128"
        }
      ],
      "name": "fillOtcOrder",
      "outputs": [
        {
          "internalType": "uint128",
          "name": "takerTokenFilledAmount",
          "type": "uint128"
        },
        {
          "internalType": "uint128",
          "name": "makerTokenFilledAmount",
          "type": "uint128"
        }
      ],
      "stateMutability": "nonpayable",
      "type": "function"
    },
    {
      "inputs": [
        {
          "components": [
            {
              "internalType": "contract IERC20TokenV06",
              "name": "makerToken",
              "type": "address"
            },
            {
              "internalType": "contract IERC20TokenV06",
              "name": "takerToken",
              "type": "address"
            },
            {
              "internalType": "uint128",
              "name": "makerAmount",
              "type": "uint128"
            },
            {
              "internalType": "uint128",
              "name": "takerAmount",
              "type": "uint128"
            },
            {
              "internalType": "address",
              "name": "maker",
              "type": "address"
            },
            {
              "internalType": "address",
              "name": "taker",
              "type": "address"
            },
            {
              "internalType": "address",
              "name": "txOrigin",
              "type": "address"
            },
            {
              "internalType": "uint256",
              "name": "expiryAndNonce",
              "type": "uint256"
            }
          ],
          "internalType": "struct LibNativeOrder.OtcOrder",
          "name": "order",
          "type": "tuple"
        },
        {
          "components": [
            {
              "internalType": "enum LibSignature.SignatureType",
              "name": "signatureType",
              "type": "uint8"
            },
            {
              "internalType": "uint8",
              "name": "v",
              "type": "uint8"
            },
            {
              "internalType": "bytes32",
              "name": "r",
              "type": "bytes32"
            },
            {
              "internalType": "bytes32",
              "name": "s",
              "type": "bytes32"
            }
          ],
          "internalType": "struct LibSignature.Signature",
          "name": "makerSignature",
          "type": "tuple"
        },
        {
          "internalType": "uint128",
          "name": "takerTokenFillAmount",
          "type": "uint128"
        }
      ],
      "name": "fillOtcOrderForEth",
      "outputs": [
        {
          "internalType": "uint128",
          "name": "takerTokenFilledAmount",
          "type": "uint128"
        },
        {
          "internalType": "uint128",
          "name": "makerTokenFilledAmount",
          "type": "uint128"
        }
      ],
      "stateMutability": "nonpayable",
      "type": "function"
    },
    {
      "inputs": [
        {
          "components": [
            {
              "internalType": "contract IERC20TokenV06",
              "name": "makerToken",
              "type": "address"
            },
            {
              "internalType": "contract IERC20TokenV06",
              "name": "takerToken",
              "type": "address"
            },
            {
              "internalType": "uint128",
              "name": "makerAmount",
              "type": "uint128"
            },
            {
              "internalType": "uint128",
              "name": "takerAmount",
              "type": "uint128"
            },
            {
              "internalType": "address",
              "name": "maker",
              "type": "address"
            },
            {
              "internalType": "address",
              "name": "taker",
              "type": "address"
            },
            {
              "internalType": "address",
              "name": "txOrigin",
              "type": "address"
            },
            {
              "internalType": "uint256",
              "name": "expiryAndNonce",
              "type": "uint256"
            }
          ],
          "internalType": "struct LibNativeOrder.OtcOrder",
          "name": "order",
          "type": "tuple"
        },
        {
          "components": [
            {
              "internalType": "enum LibSignature.SignatureType",
              "name": "signatureType",
              "type": "uint8"
            },
            {
              "internalType": "uint8",
              "name": "v",
              "type": "uint8"
            },
            {
              "internalType": "bytes32",
              "name": "r",
              "type": "bytes32"
            },
            {
              "internalType": "bytes32",
              "name": "s",
              "type": "bytes32"
            }
          ],
          "internalType": "struct LibSignature.Signature",
          "name": "makerSignature",
          "type": "tuple"
        }
      ],
      "name": "fillOtcOrderWithEth",
      "outputs": [
        {
          "internalType": "uint128",
          "name": "takerTokenFilledAmount",
          "type": "uint128"
        },
        {
          "internalType": "uint128",
          "name": "makerTokenFilledAmount",
          "type": "uint128"
        }
      ],
      "stateMutability": "payable",
      "type": "function"
    },
    {
      "inputs": [
        {
          "components": [
            {
              "internalType": "contract IERC20TokenV06",
              "name": "makerToken",
              "type": "address"
            },
            {
              "internalType": "contract IERC20TokenV06",
              "name": "takerToken",
              "type": "address"
            },
            {
              "internalType": "uint128",
              "name": "makerAmount",
              "type": "uint128"
            },
            {
              "internalType": "uint128",
              "name": "takerAmount",
              "type": "uint128"
            },
            {
              "internalType": "address",
              "name": "maker",
              "type": "address"
            },
            {
              "internalType": "address",
              "name": "taker",
              "type": "address"
            },
            {
              "internalType": "address",
              "name": "txOrigin",
              "type": "address"
            },
            {
              "internalType": "uint256",
              "name": "expiryAndNonce",
              "type": "uint256"
            }
          ],
          "internalType": "struct LibNativeOrder.OtcOrder",
          "name": "order",
          "type": "tuple"
        },
        {
          "components": [
            {
              "internalType": "enum LibSignature.SignatureType",
              "name": "signatureType",
              "type": "uint8"
            },
            {
              "internalType": "uint8",
              "name": "v",
              "type": "uint8"
            },
            {
              "internalType": "bytes32",
              "name": "r",
              "type": "bytes32"
            },
            {
              "internalType": "bytes32",
              "name": "s",
              "type": "bytes32"
            }
          ],
          "internalType": "struct LibSignature.Signature",
          "name": "makerSignature",
          "type": "tuple"
        },
        {
          "components": [
            {
              "internalType": "enum LibSignature.SignatureType",
              "name": "signatureType",
              "type": "uint8"
            },
            {
              "internalType": "uint8",
              "name": "v",
              "type": "uint8"
            },
            {
              "internalType": "bytes32",
              "name": "r",
              "type": "bytes32"
            },
            {
              "internalType": "bytes32",
              "name": "s",
              "type": "bytes32"
            }
          ],
          "internalType": "struct LibSignature.Signature",
          "name": "takerSignature",
          "type": "tuple"
        }
      ],
      "name": "fillTakerSignedOtcOrder",
      "outputs": [],
      "stateMutability": "nonpayable",
      "type": "function"
    },
    {
      "inputs": [
        {
          "components": [
            {
              "internalType": "contract IERC20TokenV06",
              "name": "makerToken",
              "type": "address"
            },
            {
              "internalType": "contract IERC20TokenV06",
              "name": "takerToken",
              "type": "address"
            },
            {
              "internalType": "uint128",
              "name": "makerAmount",
              "type": "uint128"
            },
            {
              "internalType": "uint128",
              "name": "takerAmount",
              "type": "uint128"
            },
            {
              "internalType": "address",
              "name": "maker",
              "type": "address"
            },
            {
              "internalType": "address",
              "name": "taker",
              "type": "address"
            },
            {
              "internalType": "address",
              "name": "txOrigin",
              "type": "address"
            },
            {
              "internalType": "uint256",
              "name": "expiryAndNonce",
              "type": "uint256"
            }
          ],
          "internalType": "struct LibNativeOrder.OtcOrder",
          "name": "order",
          "type": "tuple"
        },
        {
          "components": [
            {
              "internalType": "enum LibSignature.SignatureType",
              "name": "signatureType",
              "type": "uint8"
            },
            {
              "internalType": "uint8",
              "name": "v",
              "type": "uint8"
            },
            {
              "internalType": "bytes32",
              "name": "r",
              "type": "bytes32"
            },
            {
              "internalType": "bytes32",
              "name": "s",
              "type": "bytes32"
            }
          ],
          "internalType": "struct LibSignature.Signature",
          "name": "makerSignature",
          "type": "tuple"
        },
        {
          "components": [
            {
              "internalType": "enum LibSignature.SignatureType",
              "name": "signatureType",
              "type": "uint8"
            },
            {
              "internalType": "uint8",
              "name": "v",
              "type": "uint8"
            },
            {
              "internalType": "bytes32",
              "name": "r",
              "type": "bytes32"
            },
            {
              "internalType": "bytes32",
              "name": "s",
              "type": "bytes32"
            }
          ],
          "internalType": "struct LibSignature.Signature",
          "name": "takerSignature",
          "type": "tuple"
        }
      ],
      "name": "fillTakerSignedOtcOrderForEth",
      "outputs": [],
      "stateMutability": "nonpayable",
      "type": "function"
    },
    {
      "inputs": [
        {
          "components": [
            {
              "internalType": "contract IERC20TokenV06",
              "name": "makerToken",
              "type": "address"
            },
            {
              "internalType": "contract IERC20TokenV06",
              "name": "takerToken",
              "type": "address"
            },
            {
              "internalType": "uint128",
              "name": "makerAmount",
              "type": "uint128"
            },
            {
              "internalType": "uint128",
              "name": "takerAmount",
              "type": "uint128"
            },
            {
              "internalType": "address",
              "name": "maker",
              "type": "address"
            },
            {
              "internalType": "address",
              "name": "taker",
              "type": "address"
            },
            {
              "internalType": "address",
              "name": "txOrigin",
              "type": "address"
            },
            {
              "internalType": "uint256",
              "name": "expiryAndNonce",
              "type": "uint256"
            }
          ],
          "internalType": "struct LibNativeOrder.OtcOrder",
          "name": "order",
          "type": "tuple"
        }
      ],
      "name": "getOtcOrderHash",
      "outputs": [
        {
          "internalType": "bytes32",
          "name": "orderHash",
          "type": "bytes32"
        }
      ],
      "stateMutability": "view",
      "type": "function"
    },
    {
      "inputs": [
        {
          "components": [
            {
              "internalType": "contract IERC20TokenV06",
              "name": "makerToken",
              "type": "address"
            },
            {
              "internalType": "contract IERC20TokenV06",
              "name": "takerToken",
              "type": "address"
            },
            {
              "internalType": "uint128",
              "name": "makerAmount",
              "type": "uint128"
            },
            {
              "internalType": "uint128",
              "name": "takerAmount",
              "type": "uint128"
            },
            {
              "internalType": "address",
              "name": "maker",
              "type": "address"
            },
            {
              "internalType": "address",
              "name": "taker",
              "type": "address"
            },
            {
              "internalType": "address",
              "name": "txOrigin",
              "type": "address"
            },
            {
              "internalType": "uint256",
              "name": "expiryAndNonce",
              "type": "uint256"
            }
          ],
          "internalType": "struct LibNativeOrder.OtcOrder",
          "name": "order",
          "type": "tuple"
        }
      ],
      "name": "getOtcOrderInfo",
      "outputs": [
        {
          "components": [
            {
              "internalType": "bytes32",
              "name": "orderHash",
              "type": "bytes32"
            },
            {
              "internalType": "enum LibNativeOrder.OrderStatus",
              "name": "status",
              "type": "uint8"
            }
          ],
          "internalType": "struct LibNativeOrder.OtcOrderInfo",
          "name": "orderInfo",
          "type": "tuple"
        }
      ],
      "stateMutability": "view",
      "type": "function"
    },
    {
      "inputs": [
        {
          "internalType": "address",
          "name": "txOrigin",
          "type": "address"
        },
        {
          "internalType": "uint64",
          "name": "nonceBucket",
          "type": "uint64"
        }
      ],
      "name": "lastOtcTxOriginNonce",
      "outputs": [
        {
          "internalType": "uint128",
          "name": "lastNonce",
          "type": "uint128"
        }
      ],
      "stateMutability": "view",
      "type": "function"
    },
    {
      "inputs": [],
      "name": "migrate",
      "outputs": [
        {
          "internalType": "bytes4",
          "name": "success",
          "type": "bytes4"
        }
      ],
      "stateMutability": "nonpayable",
      "type": "function"
    }
  ],
  "transactionHash": "0x49c202f7b34afd37c9d5c8ad8e2f7d31dbb77f58040945d6e85fcaf60238e465",
  "args": [
    "0xEcA6055ac01E717cEF70b8C6fC5F9ca32Cb4118a",
    "0x0BE9e53fd7EDaC9F859882AfdDa116645287C629"
  ],
  "numDeployments": 1,
  "solcInputHash": "d824bfd18a929a7d770611c578d2def3",
  "bytecode": "0x61010060405262000014600160008062000101565b60c0523480156200002457600080fd5b5060405162002ee638038062002ee6833981016040819052620000479162000133565b3060601b60805260405182904690620000cd907f8b73c3c69bb8fe3d512ecc4cf759cc79239f7b179b0ffacaa9a75d522b39400f907f9e5dae0addaf20578aeb5d70341d092b53b4e14480ac5726438fd436df7ba427907f06c015bd22b4c69690933c1058878ebdfef31f9aaae40bbe86d8a09fe1b2972c908590879060200162000171565b60408051808303601f19018152919052805160209091012060a052505060601b6001600160601b03191660e05250620001b6565b6bffffffff0000000000000000604084901b1667ffffffff00000000602084901b161763ffffffff8216179392505050565b6000806040838503121562000146578182fd5b825162000153816200019d565b602084015190925062000166816200019d565b809150509250929050565b9485526020850193909352604084019190915260608301526001600160a01b0316608082015260a00190565b6001600160a01b0381168114620001b357600080fd5b50565b60805160601c60a05160c05160e05160601c612cc76200021f6000398061045152806104a9528061060a528061069d528061076952806108755280610bfb5280610cef5250806102d2525080610dcb5280611830525080611020528061199c5250612cc76000f3fe6080604052600436106100dd5760003560e01c80638c807c431161007f578063dab400f311610059578063dab400f31461024e578063dac748d414610263578063e4ba843914610283578063e52d1764146102a3576100dd565b80638c807c43146101df5780638fd3ab801461020c578063a578efaf1461022e576100dd565b806359ebfb45116100bb57806359ebfb451461014f5780636ae4b4f71461017c578063706394d51461019e578063724d3953146101bf576100dd565b8063031b905c146100e25780634f9481101461010d57806353476b891461012f575b600080fd5b3480156100ee57600080fd5b506100f76102d0565b6040516101049190612685565b60405180910390f35b34801561011957600080fd5b5061012d610128366004612471565b6102f4565b005b34801561013b57600080fd5b506100f761014a36600461241f565b610399565b34801561015b57600080fd5b5061016f61016a3660046122cc565b6103b4565b6040516101049190612b88565b34801561018857600080fd5b50610191610413565b6040516101049190612801565b6101b16101ac36600461243b565b61044c565b604051610104929190612ba5565b3480156101cb57600080fd5b5061012d6101da366004612471565b610767565b3480156101eb57600080fd5b506101ff6101fa36600461241f565b61094e565b6040516101049190612aa6565b34801561021857600080fd5b50610221610a35565b6040516101049190612746565b34801561023a57600080fd5b506101b16102493660046124b9565b610bf6565b34801561025a57600080fd5b506100f7610dc9565b34801561026f57600080fd5b506101b161027e3660046124b9565b610ded565b34801561028f57600080fd5b506101b161029e3660046124f8565b610e64565b3480156102af57600080fd5b506102c36102be366004612310565b610f13565b604051610104919061263f565b7f000000000000000000000000000000000000000000000000000000000000000081565b6102fc612099565b6103058461094e565b9050600061031782600001518461119d565b9050610325858386846112ee565b61033585866060015183846114d1565b50507fac75f773e3a92f1a02b12134d65e1f47f8a14eabe4eaf1e24624918e6a8b269f8260000151866080015183886000015189602001518a604001518b6060015160405161038a97969594939291906126ba565b60405180910390a15050505050565b60006103ac6103a783611717565b61182c565b90505b919050565b6000806103bf61187e565b73ffffffffffffffffffffffffffffffffffffffff851660009081526020918252604080822067ffffffffffffffff8716835290925220546fffffffffffffffffffffffffffffffff169150505b92915050565b6040518060400160405280600981526020017f4f74634f7264657273000000000000000000000000000000000000000000000081525081565b6000807f000000000000000000000000000000000000000000000000000000000000000073ffffffffffffffffffffffffffffffffffffffff16846020015173ffffffffffffffffffffffffffffffffffffffff16141561052d577f000000000000000000000000000000000000000000000000000000000000000073ffffffffffffffffffffffffffffffffffffffff1663d0e30db0346040518263ffffffff1660e01b81526004016000604051808303818588803b15801561050f57600080fd5b505af1158015610523573d6000803e3d6000fd5b505050505061059d565b602084015173ffffffffffffffffffffffffffffffffffffffff1673eeeeeeeeeeeeeeeeeeeeeeeeeeeeeeeeeeeeeeee1461059d576040517f08c379a000000000000000000000000000000000000000000000000000000000815260040161059490612a49565b60405180910390fd5b6105a5612099565b6105ae8561094e565b90506105bc858286336112ee565b6105d0856105c93461188b565b30336114d1565b9093509150346fffffffffffffffffffffffffffffffff84161015610711576000836fffffffffffffffffffffffffffffffff16340390507f000000000000000000000000000000000000000000000000000000000000000073ffffffffffffffffffffffffffffffffffffffff16866020015173ffffffffffffffffffffffffffffffffffffffff161415610705576040517f2e1a7d4d00000000000000000000000000000000000000000000000000000000815273ffffffffffffffffffffffffffffffffffffffff7f00000000000000000000000000000000000000000000000000000000000000001690632e1a7d4d906106d2908490600401612685565b600060405180830381600087803b1580156106ec57600080fd5b505af1158015610700573d6000803e3d6000fd5b505050505b61070f33826118b7565b505b80516080860151865160208801516040517fac75f773e3a92f1a02b12134d65e1f47f8a14eabe4eaf1e24624918e6a8b269f946107579490939092339289908b906126ba565b60405180910390a1509250929050565b7f000000000000000000000000000000000000000000000000000000000000000073ffffffffffffffffffffffffffffffffffffffff16836000015173ffffffffffffffffffffffffffffffffffffffff16146107f0576040517f08c379a000000000000000000000000000000000000000000000000000000000815260040161059490612852565b6107f8612099565b6108018461094e565b9050600061081382600001518461119d565b9050610821858386846112ee565b61083185866060015183306114d1565b505060408086015190517f2e1a7d4d00000000000000000000000000000000000000000000000000000000815273ffffffffffffffffffffffffffffffffffffffff7f00000000000000000000000000000000000000000000000000000000000000001691632e1a7d4d916108a99190600401612b88565b600060405180830381600087803b1580156108c357600080fd5b505af11580156108d7573d6000803e3d6000fd5b505050506108fb8186604001516fffffffffffffffffffffffffffffffff166118b7565b7fac75f773e3a92f1a02b12134d65e1f47f8a14eabe4eaf1e24624918e6a8b269f8260000151866080015183886000015189602001518a604001518b6060015160405161038a97969594939291906126ba565b610956612099565b61095f82610399565b8152600061096b61187e565b60e084015160c08086015173ffffffffffffffffffffffffffffffffffffffff16600090815260208481526040808320608086901c67ffffffffffffffff811685529252909120549394509082901c929091906fffffffffffffffffffffffffffffffff90811690821681106109fd576020860160005b908160048111156109ef57fe5b8152505050505050506103af565b4267ffffffffffffffff168467ffffffffffffffff1611610a23576020860160046109e2565b50506001602085015250919392505050565b6000610a607fdac748d400000000000000000000000000000000000000000000000000000000611966565b610a897fa578efaf00000000000000000000000000000000000000000000000000000000611966565b610ab27f706394d500000000000000000000000000000000000000000000000000000000611966565b610adb7f724d395300000000000000000000000000000000000000000000000000000000611966565b610b047f4f94811000000000000000000000000000000000000000000000000000000000611966565b610b2d7fe52d176400000000000000000000000000000000000000000000000000000000611966565b610b567fe4ba843900000000000000000000000000000000000000000000000000000000611966565b610b7f7f8c807c4300000000000000000000000000000000000000000000000000000000611966565b610ba87f53476b8900000000000000000000000000000000000000000000000000000000611966565b610bd17f59ebfb4500000000000000000000000000000000000000000000000000000000611966565b507f2c64c5ef0000000000000000000000000000000000000000000000000000000090565b6000807f000000000000000000000000000000000000000000000000000000000000000073ffffffffffffffffffffffffffffffffffffffff16856000015173ffffffffffffffffffffffffffffffffffffffff1614610c82576040517f08c379a00000000000000000000000000000000000000000000000000000000081526004016105949061298f565b610c8a612099565b610c938661094e565b9050610ca1868287336112ee565b610cad868533306114d1565b6040517f2e1a7d4d000000000000000000000000000000000000000000000000000000008152919450925073ffffffffffffffffffffffffffffffffffffffff7f00000000000000000000000000000000000000000000000000000000000000001690632e1a7d4d90610d24908590600401612b88565b600060405180830381600087803b158015610d3e57600080fd5b505af1158015610d52573d6000803e3d6000fd5b50505050610d7233836fffffffffffffffffffffffffffffffff166118b7565b80516080870151875160208901516040517fac75f773e3a92f1a02b12134d65e1f47f8a14eabe4eaf1e24624918e6a8b269f94610db89490939092339289908b906126ba565b60405180910390a150935093915050565b7f000000000000000000000000000000000000000000000000000000000000000081565b600080610df8612099565b610e018661094e565b9050610e0f868287336112ee565b610e1b868533336114d1565b82516080890151895160208b01516040519598509396507fac75f773e3a92f1a02b12134d65e1f47f8a14eabe4eaf1e24624918e6a8b269f94610db89433929189908b906126ba565b600080333014610e7f57610e7f610e7a336119f9565b611ab1565b610e87612099565b610e908961094e565b9050610e9e89828a896112ee565b610eb6898887610eae5788610eb0565b305b876114d1565b825160808c01518c5160208e01516040519598509396507fac75f773e3a92f1a02b12134d65e1f47f8a14eabe4eaf1e24624918e6a8b269f94610eff948c929189908b906126ba565b60405180910390a150965096945050505050565b606083518551148015610f27575082518551145b8015610f34575081518551145b610f6a576040517f08c379a0000000000000000000000000000000000000000000000000000000008152600401610594906128af565b845167ffffffffffffffff81118015610f8257600080fd5b50604051908082528060200260200182016040528015610fac578160200160208202803683370190505b50905060005b85518114611194576000838281518110610fc857fe5b6020026020010151610ffa577f4f9481100000000000000000000000000000000000000000000000000000000061101c565b7f724d3953000000000000000000000000000000000000000000000000000000005b90507f000000000000000000000000000000000000000000000000000000000000000073ffffffffffffffffffffffffffffffffffffffff168188848151811061106257fe5b602002602001015188858151811061107657fe5b602002602001015188868151811061108a57fe5b60200260200101516040516024016110a493929190612aca565b604080517fffffffffffffffffffffffffffffffffffffffffffffffffffffffffffffffe08184030181529181526020820180517bffffffffffffffffffffffffffffffffffffffffffffffffffffffff167fffffffff0000000000000000000000000000000000000000000000000000000090941693909317909252905161112d91906125c9565b600060405180830381855af49150503d8060008114611168576040519150601f19603f3d011682016040523d82523d6000602084013e61116d565b606091505b505083838151811061117b57fe5b9115156020928302919091019091015250600101610fb2565b50949350505050565b60006111a98383611ab9565b6002825160048111156111b857fe5b141561122057600183836020015184604001518560600151604051600081526020016040526040516111ed9493929190612728565b6020604051602081039080840390855afa15801561120f573d6000803e3d6000fd5b5050506020604051035190506112c5565b60038251600481111561122f57fe5b14156112c55760007f19457468657265756d205369676e6564204d6573736167653a0a33320000000060005283601c52603c6000209050600181846020015185604001518660600151604051600081526020016040526040516112959493929190612728565b6020604051602081039080840390855afa1580156112b7573d6000803e3d6000fd5b505050602060405103519150505b73ffffffffffffffffffffffffffffffffffffffff811661040d5761040d610e7a600585611b88565b60018360200151600481111561130057fe5b1461132557611325610e7a84600001518560200151600481111561132057fe5b611c43565b60a084015173ffffffffffffffffffffffffffffffffffffffff161580159061137e57508073ffffffffffffffffffffffffffffffffffffffff168460a0015173ffffffffffffffffffffffffffffffffffffffff1614155b1561139957611399610e7a8460000151838760a00151611c79565b60006113a3611d37565b60c086015190915073ffffffffffffffffffffffffffffffffffffffff163214801590611407575060c085015173ffffffffffffffffffffffffffffffffffffffff166000908152600382016020908152604080832032845290915290205460ff16155b1561142257611422610e7a8560000151328860c00151611d44565b600061143285600001518561119d565b9050856080015173ffffffffffffffffffffffffffffffffffffffff168173ffffffffffffffffffffffffffffffffffffffff16141580156114ae5750608086015173ffffffffffffffffffffffffffffffffffffffff908116600090815260048401602090815260408083209385168352929052205460ff16155b156114c9576114c9610e7a8660000151838960800151611d7c565b505050505050565b60e08401516000908190608081901c90806114ea61187e565b60c08a015173ffffffffffffffffffffffffffffffffffffffff1660009081526020918252604080822067ffffffffffffffff969096168252949091529290922080547fffffffffffffffffffffffffffffffff00000000000000000000000000000000166fffffffffffffffffffffffffffffffff93841617905550606087015181169086161415611588575050606084015160408501516115e4565b611596858760600151611db4565b91506115e1826fffffffffffffffffffffffffffffffff1687606001516fffffffffffffffffffffffffffffffff1688604001516fffffffffffffffffffffffffffffffff16611df0565b90505b73ffffffffffffffffffffffffffffffffffffffff84163014156116c257602086015173ffffffffffffffffffffffffffffffffffffffff1673eeeeeeeeeeeeeeeeeeeeeeeeeeeeeeeeeeeeeeee141561169857608086015160405173ffffffffffffffffffffffffffffffffffffffff909116906fffffffffffffffffffffffffffffffff841680156108fc02916000818181858888f19350505050158015611692573d6000803e3d6000fd5b506116bd565b6116bd86602001518760800151846fffffffffffffffffffffffffffffffff16611e0e565b6116e8565b6116e88660200151858860800151856fffffffffffffffffffffffffffffffff16611ee8565b61170e8660000151876080015185846fffffffffffffffffffffffffffffffff16611ee8565b94509492505050565b60006040517f2f754524de756ae72459efbe1ec88c19a745639821de528ac3fb88f9e65e35c88152825173ffffffffffffffffffffffffffffffffffffffff166020820152602083015173ffffffffffffffffffffffffffffffffffffffff16604082015260408301516fffffffffffffffffffffffffffffffff16606082015260608301516fffffffffffffffffffffffffffffffff166080820152608083015173ffffffffffffffffffffffffffffffffffffffff1660a082015260a083015173ffffffffffffffffffffffffffffffffffffffff1660c082015260c083015173ffffffffffffffffffffffffffffffffffffffff1660e082015260e08301516101008201526101208120915050919050565b60007f0000000000000000000000000000000000000000000000000000000000000000826040516020016118619291906125e5565b604051602081830303815290604052805190602001209050919050565b60008061040d6008611fe7565b60006fffffffffffffffffffffffffffffffff8211156118b3576118b3610e7a600384612002565b5090565b80156119625760008273ffffffffffffffffffffffffffffffffffffffff16826040516118e39061261b565b60006040518083038185875af1925050503d8060008114611920576040519150601f19603f3d011682016040523d82523d6000602084013e611925565b606091505b5050905080611960576040517f08c379a000000000000000000000000000000000000000000000000000000000815260040161059490612932565b505b5050565b6040517f6eb224cb0000000000000000000000000000000000000000000000000000000081523090636eb224cb906119c49084907f000000000000000000000000000000000000000000000000000000000000000090600401612773565b600060405180830381600087803b1580156119de57600080fd5b505af11580156119f2573d6000803e3d6000fd5b5050505050565b60607ff0ec779b0bcda6d84abf99ee2c67647d1100ebbb553a9c2d1c2ba1579592832c82604051602401611a2d919061261e565b604080517fffffffffffffffffffffffffffffffffffffffffffffffffffffffffffffffe08184030181529190526020810180517bffffffffffffffffffffffffffffffffffffffffffffffffffffffff167fffffffff00000000000000000000000000000000000000000000000000000000909316929092179091529050919050565b805160208201fd5b60408101517ffffffffffffffffffffffffffffffffebaaedce6af48a03bbfd25e8cd0364141111580611b10575060608101517f7fffffffffffffffffffffffffffffff5d576e7357a4501ddfe92f46681b20a111155b15611b2357611b23610e7a600584611b88565b600081516004811115611b3257fe5b1415611b4657611b46610e7a600384611b88565b600181516004811115611b5557fe5b1415611b6957611b69610e7a600084611b88565b600481516004811115611b7857fe5b141561196257611962610e7a6002845b60607ff18f11f3027e735c758137924b262d4d3aff0037dcd785aca3c699fa05d960bd8383604051602401611bbe9291906127f3565b604080517fffffffffffffffffffffffffffffffffffffffffffffffffffffffffffffffe08184030181529190526020810180517bffffffffffffffffffffffffffffffffffffffffffffffffffffffff167fffffffff0000000000000000000000000000000000000000000000000000000090931692909217909152905092915050565b60607f47ab394e41470191eaf9fa542e84ac483a12665fbd616eb8d1c022ced6c940008383604051602401611bbe929190612717565b60607f5d3300180a4547b3e27137be832d3ebf56f1ba5ebb30dd580999c61f77fa6396848484604051602401611cb19392919061268e565b604080517fffffffffffffffffffffffffffffffffffffffffffffffffffffffffffffffe08184030181529190526020810180517bffffffffffffffffffffffffffffffffffffffffffffffffffffffff167fffffffff000000000000000000000000000000000000000000000000000000009093169290921790915290509392505050565b60008061040d6007611fe7565b60607fc0972f3cc4234ca2091de7e7bc7081494bd29ac280167d66f0d44168973b1634848484604051602401611cb19392919061268e565b60607ff13e65d925201525f3d71a731833b19bb26e44cfbd97caf72a366b73866f7124848484604051602401611cb19392919061268e565b6000816fffffffffffffffffffffffffffffffff16836fffffffffffffffffffffffffffffffff1610611de75781611de9565b825b9392505050565b6000611e0683611e00868561201f565b90612050565b949350505050565b73ffffffffffffffffffffffffffffffffffffffff8316301415611e5e576040517f08c379a0000000000000000000000000000000000000000000000000000000008152600401610594906129ec565b6040517fa9059cbb00000000000000000000000000000000000000000000000000000000815273ffffffffffffffffffffffffffffffffffffffff83166004820152816024820152602081604483600073ffffffffffffffffffffffffffffffffffffffff89165af13d600183511460208210151681151782169150816114c957806000843e8083fd5b73ffffffffffffffffffffffffffffffffffffffff8416301415611f38576040517f08c379a0000000000000000000000000000000000000000000000000000000008152600401610594906129ec565b6040517f23b872dd00000000000000000000000000000000000000000000000000000000815273ffffffffffffffffffffffffffffffffffffffff8416600482015273ffffffffffffffffffffffffffffffffffffffff83166024820152816044820152602081606483600073ffffffffffffffffffffffffffffffffffffffff8a165af13d60018351146020821015168115178216915081611fde57806000843e8083fd5b50505050505050565b6000608082600a811115611ff757fe5b600101901b92915050565b606063c996af7b60e01b8383604051602401611bbe9291906127dc565b60008261202e5750600061040d565b8282028284828161203b57fe5b0414611de957611de9610e7a6001868661207a565b60008161206657612066610e7a6003858561207a565b600082848161207157fe5b04949350505050565b606063e946c1bb60e01b848484604051602401611cb1939291906127bb565b604080518082019091526000808252602082015290565b803561040d81612c6f565b600082601f8301126120cb578081fd5b81356120de6120d982612bef565b612bc8565b8181529150602080830190848101818402860182018710156120ff57600080fd5b6000805b8581101561212c578235801515811461211a578283fd5b85529383019391830191600101612103565b50505050505092915050565b600082601f830112612148578081fd5b81356121566120d982612bef565b818152915060208083019084810160808085028701830188101561217957600080fd5b60005b8581101561212c5761218e8984612249565b8552938301939181019160010161217c565b60006101008083850312156121b3578182fd5b6121bc81612bc8565b91505081356121ca81612c6f565b815260208201356121da81612c6f565b60208201526121ec83604084016122ac565b60408201526121fe83606084016122ac565b606082015261221083608084016120b0565b60808201526122228360a084016120b0565b60a08201526122348360c084016120b0565b60c082015260e082013560e082015292915050565b60006080828403121561225a578081fd5b6122646080612bc8565b905081356005811061227557600080fd5b8152602082013560ff8116811461228b57600080fd5b80602083015250604082013560408201526060820135606082015292915050565b80356fffffffffffffffffffffffffffffffff8116811461040d57600080fd5b600080604083850312156122de578182fd5b82356122e981612c6f565b9150602083013567ffffffffffffffff81168114612305578182fd5b809150509250929050565b60008060008060808587031215612325578182fd5b843567ffffffffffffffff8082111561233c578384fd5b818701915087601f83011261234f578384fd5b813561235d6120d982612bef565b80828252602080830192508086016101008d838288028a0101111561238057898afd5b8997505b858810156123ac576123968e836121a0565b8552600197909701969382019390810190612384565b509199508a01359450505050808211156123c4578384fd5b6123d088838901612138565b945060408701359150808211156123e5578384fd5b6123f188838901612138565b93506060870135915080821115612406578283fd5b50612413878288016120bb565b91505092959194509250565b60006101008284031215612431578081fd5b611de983836121a0565b600080610180838503121561244e578182fd5b61245884846121a0565b9150612468846101008501612249565b90509250929050565b60008060006102008486031215612486578283fd5b61249085856121a0565b92506124a0856101008601612249565b91506124b0856101808601612249565b90509250925092565b60008060006101a084860312156124ce578283fd5b6124d885856121a0565b92506124e8856101008601612249565b91506124b08561018086016122ac565b6000806000806000806102008789031215612511578384fd5b61251b88886121a0565b955061252b886101008901612249565b945061253b8861018089016122ac565b93506101a087013561254c81612c6f565b92506101c08701358015158114612561578283fd5b91506101e087013561257281612c6f565b809150509295509295509295565b73ffffffffffffffffffffffffffffffffffffffff169052565b80516125a581612c65565b825260208181015160ff169083015260408082015190830152606090810151910152565b600082516125db818460208701612c28565b9190910192915050565b7f190100000000000000000000000000000000000000000000000000000000000081526002810192909252602282015260420190565b90565b73ffffffffffffffffffffffffffffffffffffffff91909116815260200190565b6020808252825182820181905260009190848201906040850190845b8181101561267957835115158352928401929184019160010161265b565b50909695505050505050565b90815260200190565b92835273ffffffffffffffffffffffffffffffffffffffff918216602084015216604082015260600190565b96875273ffffffffffffffffffffffffffffffffffffffff95861660208801529385166040870152918416606086015290921660808401526fffffffffffffffffffffffffffffffff91821660a08401521660c082015260e00190565b91825260ff16602082015260400190565b93845260ff9290921660208401526040830152606082015260800190565b7fffffffff0000000000000000000000000000000000000000000000000000000091909116815260200190565b7fffffffff0000000000000000000000000000000000000000000000000000000092909216825273ffffffffffffffffffffffffffffffffffffffff16602082015260400190565b606081016127c885612c58565b938152602081019290925260409091015290565b604081016127e984612c58565b9281526020015290565b60408101600684106127e957fe5b6000602082528251806020840152612820816040850160208701612c28565b601f017fffffffffffffffffffffffffffffffffffffffffffffffffffffffffffffffe0169190910160400192915050565b6020808252603e908201527f4f74634f7264657273466561747572653a3a66696c6c54616b65725369676e6560408201527f644f74634f726465722f4d414b45525f544f4b454e5f4e4f545f574554480000606082015260800190565b60208082526048908201527f4f74634f7264657273466561747572653a3a626174636846696c6c54616b657260408201527f5369676e65644f74634f72646572732f4d49534d4154434845445f415252415960608201527f5f4c454e47544853000000000000000000000000000000000000000000000000608082015260a00190565b6020808252602f908201527f466978696e546f6b656e5370656e6465723a3a5f7472616e736665724574682f60408201527f5452414e534645525f4641494c45440000000000000000000000000000000000606082015260800190565b60208082526039908201527f4f74634f7264657273466561747572653a3a66696c6c4f74634f72646572466f60408201527f724574682f4d414b45525f544f4b454e5f4e4f545f5745544800000000000000606082015260800190565b60208082526024908201527f466978696e546f6b656e5370656e6465722f43414e4e4f545f494e564f4b455f60408201527f53454c4600000000000000000000000000000000000000000000000000000000606082015260800190565b60208082526039908201527f4f74634f7264657273466561747572653a3a66696c6c4f74634f72646572576960408201527f74684574682f494e56414c49445f54414b45525f544f4b454e00000000000000606082015260800190565b8151815260208201516040820190612abd81612c65565b8060208401525092915050565b8351610200820190612adb90612c0f565b825273ffffffffffffffffffffffffffffffffffffffff602086015116602083015260408501516fffffffffffffffffffffffffffffffff808216604085015280606088015116606085015250506080850151612b3b6080840182612580565b5060a0850151612b4e60a0840182612580565b5060c0850151612b6160c0840182612580565b5060e085015160e0830152612b7a61010083018561259a565b611e0661018083018461259a565b6fffffffffffffffffffffffffffffffff91909116815260200190565b6fffffffffffffffffffffffffffffffff92831681529116602082015260400190565b60405181810167ffffffffffffffff81118282101715612be757600080fd5b604052919050565b600067ffffffffffffffff821115612c05578081fd5b5060209081020190565b73ffffffffffffffffffffffffffffffffffffffff1690565b60005b83811015612c43578181015183820152602001612c2b565b83811115612c52576000848401525b50505050565b60048110612c6257fe5b50565b60058110612c6257fe5b73ffffffffffffffffffffffffffffffffffffffff81168114612c6257600080fdfea26469706673582212206a81cc697a4d4db287dec9576f55f655f919eb2a9e2ea474356df94f6694186364736f6c634300060c0033",
  "devdoc": {
    "details": "Feature for interacting with OTC orders.",
    "kind": "dev",
    "methods": {
      "_fillOtcOrder((address,address,uint128,uint128,address,address,address,uint256),(uint8,uint8,bytes32,bytes32),uint128,address,bool,address)": {
        "details": "Fill an OTC order for up to `takerTokenFillAmount` taker tokens.      Internal variant.",
        "params": {
          "makerSignature": "The order signature from the maker.",
          "order": "The OTC order.",
          "recipient": "The recipient of the bought maker tokens.",
          "taker": "The address to fill the order in the context of.",
          "takerTokenFillAmount": "Maximum taker token amount to fill this        order with.",
          "useSelfBalance": "Whether to use the Exchange Proxy's balance        of input tokens."
        },
        "returns": {
          "makerTokenFilledAmount": "How much maker token was filled.",
          "takerTokenFilledAmount": "How much taker token was filled."
        }
      },
      "batchFillTakerSignedOtcOrders((address,address,uint128,uint128,address,address,address,uint256)[],(uint8,uint8,bytes32,bytes32)[],(uint8,uint8,bytes32,bytes32)[],bool[])": {
        "details": "Fills multiple taker-signed OTC orders.",
        "params": {
          "makerSignatures": "Array of maker signatures for each order.",
          "orders": "Array of OTC orders.",
          "takerSignatures": "Array of taker signatures for each order.",
          "unwrapWeth": "Array of booleans representing whether or not         to unwrap bought WETH into ETH for each order. Should be set         to false if the maker token is not WETH."
        },
        "returns": {
          "successes": "Array of booleans representing whether or not         each order in `orders` was filled successfully."
        }
      },
      "fillOtcOrder((address,address,uint128,uint128,address,address,address,uint256),(uint8,uint8,bytes32,bytes32),uint128)": {
        "details": "Fill an OTC order for up to `takerTokenFillAmount` taker tokens.",
        "params": {
          "makerSignature": "The order signature from the maker.",
          "order": "The OTC order.",
          "takerTokenFillAmount": "Maximum taker token amount to fill this        order with."
        },
        "returns": {
          "makerTokenFilledAmount": "How much maker token was filled.",
          "takerTokenFilledAmount": "How much taker token was filled."
        }
      },
      "fillOtcOrderForEth((address,address,uint128,uint128,address,address,address,uint256),(uint8,uint8,bytes32,bytes32),uint128)": {
        "details": "Fill an OTC order for up to `takerTokenFillAmount` taker tokens.      Unwraps bought WETH into ETH. before sending it to       the taker.",
        "params": {
          "makerSignature": "The order signature from the maker.",
          "order": "The OTC order.",
          "takerTokenFillAmount": "Maximum taker token amount to fill this        order with."
        },
        "returns": {
          "makerTokenFilledAmount": "How much maker token was filled.",
          "takerTokenFilledAmount": "How much taker token was filled."
        }
      },
      "fillOtcOrderWithEth((address,address,uint128,uint128,address,address,address,uint256),(uint8,uint8,bytes32,bytes32))": {
        "details": "Fill an OTC order whose taker token is WETH for up      to `msg.value`.",
        "params": {
          "makerSignature": "The order signature from the maker.",
          "order": "The OTC order."
        },
        "returns": {
          "makerTokenFilledAmount": "How much maker token was filled.",
          "takerTokenFilledAmount": "How much taker token was filled."
        }
      },
      "fillTakerSignedOtcOrder((address,address,uint128,uint128,address,address,address,uint256),(uint8,uint8,bytes32,bytes32),(uint8,uint8,bytes32,bytes32))": {
        "details": "Fully fill an OTC order. \"Meta-transaction\" variant,      requires order to be signed by both maker and taker.",
        "params": {
          "makerSignature": "The order signature from the maker.",
          "order": "The OTC order.",
          "takerSignature": "The order signature from the taker."
        }
      },
      "fillTakerSignedOtcOrderForEth((address,address,uint128,uint128,address,address,address,uint256),(uint8,uint8,bytes32,bytes32),(uint8,uint8,bytes32,bytes32))": {
        "details": "Fully fill an OTC order. \"Meta-transaction\" variant,      requires order to be signed by both maker and taker.      Unwraps bought WETH into ETH. before sending it to       the taker.",
        "params": {
          "makerSignature": "The order signature from the maker.",
          "order": "The OTC order.",
          "takerSignature": "The order signature from the taker."
        }
      },
      "getOtcOrderHash((address,address,uint128,uint128,address,address,address,uint256))": {
        "details": "Get the canonical hash of an OTC order.",
        "params": {
          "order": "The OTC order."
        },
        "returns": {
          "orderHash": "The order hash."
        }
      },
      "getOtcOrderInfo((address,address,uint128,uint128,address,address,address,uint256))": {
        "details": "Get the order info for an OTC order.",
        "params": {
          "order": "The OTC order."
        },
        "returns": {
          "orderInfo": "Info about the order."
        }
      },
      "lastOtcTxOriginNonce(address,uint64)": {
        "details": "Get the last nonce used for a particular      tx.origin address and nonce bucket.",
        "params": {
          "nonceBucket": "The nonce bucket index.",
          "txOrigin": "The address."
        },
        "returns": {
          "lastNonce": "The last nonce value used."
        }
      },
      "migrate()": {
        "details": "Initialize and register this feature.      Should be delegatecalled by `Migrate.migrate()`.",
        "returns": {
          "success": "`LibMigrate.SUCCESS` on success."
        }
      }
    },
    "stateVariables": {
      "ETH_TOKEN_ADDRESS": {
        "details": "ETH pseudo-token address."
      },
      "FEATURE_NAME": {
        "details": "Name of this feature."
      },
      "FEATURE_VERSION": {
        "details": "Version of this feature."
      },
      "WETH": {
        "details": "The WETH token contract."
      }
    },
    "version": 1
  },
  "userdoc": {
    "kind": "user",
    "methods": {},
    "version": 1
  },
  "storageLayout": {
    "storage": [],
    "types": null
  }
}